{
	"contracts/Enderecos.sol": {
		"Enderecos": {
			"abi": [
				{
					"inputs": [],
					"name": "pegaCodigo",
					"outputs": [
						{
							"internalType": "bytes",
							"name": "",
							"type": "bytes"
						}
					],
					"stateMutability": "view",
					"type": "function"
				},
				{
					"inputs": [],
					"name": "pegaSaldo",
					"outputs": [
						{
							"internalType": "uint256",
							"name": "",
							"type": "uint256"
						}
					],
					"stateMutability": "view",
					"type": "function"
				}
			],
			"devdoc": {
				"kind": "dev",
				"methods": {},
				"version": 1
			},
			"evm": {
				"assembly": "    /* \"contracts/Enderecos.sol\":70:446  contract Enderecos {... */\n  mstore(0x40, 0x80)\n    /* \"contracts/Enderecos.sol\":115:157  0x5B38Da6a701c568545dCfcB03FcB875f56beddC4 */\n  0x5b38da6a701c568545dcfcb03fcb875f56beddc4\n    /* \"contracts/Enderecos.sol\":96:157  address endereco = 0x5B38Da6a701c568545dCfcB03FcB875f56beddC4 */\n  0x00\n  dup1\n  0x0100\n  exp\n  dup2\n  sload\n  dup2\n  0xffffffffffffffffffffffffffffffffffffffff\n  mul\n  not\n  and\n  swap1\n  dup4\n  0xffffffffffffffffffffffffffffffffffffffff\n  and\n  mul\n  or\n  swap1\n  sstore\n  pop\n    /* \"contracts/Enderecos.sol\":200:242  0x5B38Da6a701c568545dCfcB03FcB875f56beddC4 */\n  0x5b38da6a701c568545dcfcb03fcb875f56beddc4\n    /* \"contracts/Enderecos.sol\":164:243  address payable endereco2 = payable(0x5B38Da6a701c568545dCfcB03FcB875f56beddC4) */\n  0x01\n  exp(0x0100, 0x00)\n  dup2\n  sload\n  dup2\n  0xffffffffffffffffffffffffffffffffffffffff\n  mul\n  not\n  and\n  swap1\n  dup4\n  0xffffffffffffffffffffffffffffffffffffffff\n  and\n  mul\n  or\n  swap1\n  sstore\n  pop\n    /* \"contracts/Enderecos.sol\":70:446  contract Enderecos {... */\n  callvalue\n  dup1\n  iszero\n  tag_1\n  jumpi\n  0x00\n  dup1\n  revert\ntag_1:\n  pop\n  dataSize(sub_0)\n  dup1\n  dataOffset(sub_0)\n  0x00\n  codecopy\n  0x00\n  return\nstop\n\nsub_0: assembly {\n        /* \"contracts/Enderecos.sol\":70:446  contract Enderecos {... */\n      mstore(0x40, 0x80)\n      callvalue\n      dup1\n      iszero\n      tag_1\n      jumpi\n      0x00\n      dup1\n      revert\n    tag_1:\n      pop\n      jumpi(tag_2, lt(calldatasize, 0x04))\n      shr(0xe0, calldataload(0x00))\n      dup1\n      0x117ac77f\n      eq\n      tag_3\n      jumpi\n      dup1\n      0x768c1802\n      eq\n      tag_4\n      jumpi\n    tag_2:\n      0x00\n      dup1\n      revert\n        /* \"contracts/Enderecos.sol\":250:338  function pegaSaldo() public view returns (uint) {... */\n    tag_3:\n      tag_5\n      tag_6\n      jump\t// in\n    tag_5:\n      mload(0x40)\n      tag_7\n      swap2\n      swap1\n      tag_8\n      jump\t// in\n    tag_7:\n      mload(0x40)\n      dup1\n      swap2\n      sub\n      swap1\n      return\n        /* \"contracts/Enderecos.sol\":344:444  function pegaCodigo() public view returns  (bytes memory) {... */\n    tag_4:\n      tag_9\n      tag_10\n      jump\t// in\n    tag_9:\n      mload(0x40)\n      tag_11\n      swap2\n      swap1\n      tag_12\n      jump\t// in\n    tag_11:\n      mload(0x40)\n      dup1\n      swap2\n      sub\n      swap1\n      return\n        /* \"contracts/Enderecos.sol\":250:338  function pegaSaldo() public view returns (uint) {... */\n    tag_6:\n        /* \"contracts/Enderecos.sol\":292:296  uint */\n      0x00\n        /* \"contracts/Enderecos.sol\":315:323  endereco */\n      dup1\n      0x00\n      swap1\n      sload\n      swap1\n      0x0100\n      exp\n      swap1\n      div\n      0xffffffffffffffffffffffffffffffffffffffff\n      and\n        /* \"contracts/Enderecos.sol\":315:331  endereco.balance */\n      0xffffffffffffffffffffffffffffffffffffffff\n      and\n      balance\n        /* \"contracts/Enderecos.sol\":308:331  return endereco.balance */\n      swap1\n      pop\n        /* \"contracts/Enderecos.sol\":250:338  function pegaSaldo() public view returns (uint) {... */\n      swap1\n      jump\t// out\n        /* \"contracts/Enderecos.sol\":344:444  function pegaCodigo() public view returns  (bytes memory) {... */\n    tag_10:\n        /* \"contracts/Enderecos.sol\":388:400  bytes memory */\n      0x60\n        /* \"contracts/Enderecos.sol\":427:431  this */\n      address\n        /* \"contracts/Enderecos.sol\":419:437  address(this).code */\n      0xffffffffffffffffffffffffffffffffffffffff\n      and\n      dup1\n      extcodesize\n      dup1\n      0x20\n      add\n      mload(0x40)\n      swap1\n      dup2\n      add\n      0x40\n      mstore\n      dup2\n      dup2\n      mstore\n      0x00\n      swap1\n      dup1\n      0x20\n      add\n      swap1\n      swap4\n      extcodecopy\n        /* \"contracts/Enderecos.sol\":412:437  return address(this).code */\n      swap1\n      pop\n        /* \"contracts/Enderecos.sol\":344:444  function pegaCodigo() public view returns  (bytes memory) {... */\n      swap1\n      jump\t// out\n        /* \"#utility.yul\":7:367   */\n    tag_16:\n        /* \"#utility.yul\":93:96   */\n      0x00\n        /* \"#utility.yul\":121:159   */\n      tag_18\n        /* \"#utility.yul\":153:158   */\n      dup3\n        /* \"#utility.yul\":121:159   */\n      tag_19\n      jump\t// in\n    tag_18:\n        /* \"#utility.yul\":175:245   */\n      tag_20\n        /* \"#utility.yul\":238:244   */\n      dup2\n        /* \"#utility.yul\":233:236   */\n      dup6\n        /* \"#utility.yul\":175:245   */\n      tag_21\n      jump\t// in\n    tag_20:\n        /* \"#utility.yul\":168:245   */\n      swap4\n      pop\n        /* \"#utility.yul\":254:306   */\n      tag_22\n        /* \"#utility.yul\":299:305   */\n      dup2\n        /* \"#utility.yul\":294:297   */\n      dup6\n        /* \"#utility.yul\":287:291   */\n      0x20\n        /* \"#utility.yul\":280:285   */\n      dup7\n        /* \"#utility.yul\":276:292   */\n      add\n        /* \"#utility.yul\":254:306   */\n      tag_23\n      jump\t// in\n    tag_22:\n        /* \"#utility.yul\":331:360   */\n      tag_24\n        /* \"#utility.yul\":353:359   */\n      dup2\n        /* \"#utility.yul\":331:360   */\n      tag_25\n      jump\t// in\n    tag_24:\n        /* \"#utility.yul\":326:329   */\n      dup5\n        /* \"#utility.yul\":322:361   */\n      add\n        /* \"#utility.yul\":315:361   */\n      swap2\n      pop\n        /* \"#utility.yul\":97:367   */\n      pop\n        /* \"#utility.yul\":7:367   */\n      swap3\n      swap2\n      pop\n      pop\n      jump\t// out\n        /* \"#utility.yul\":373:491   */\n    tag_26:\n        /* \"#utility.yul\":460:484   */\n      tag_28\n        /* \"#utility.yul\":478:483   */\n      dup2\n        /* \"#utility.yul\":460:484   */\n      tag_29\n      jump\t// in\n    tag_28:\n        /* \"#utility.yul\":455:458   */\n      dup3\n        /* \"#utility.yul\":448:485   */\n      mstore\n        /* \"#utility.yul\":373:491   */\n      pop\n      pop\n      jump\t// out\n        /* \"#utility.yul\":497:806   */\n    tag_12:\n        /* \"#utility.yul\":608:612   */\n      0x00\n        /* \"#utility.yul\":646:648   */\n      0x20\n        /* \"#utility.yul\":635:644   */\n      dup3\n        /* \"#utility.yul\":631:649   */\n      add\n        /* \"#utility.yul\":623:649   */\n      swap1\n      pop\n        /* \"#utility.yul\":695:704   */\n      dup2\n        /* \"#utility.yul\":689:693   */\n      dup2\n        /* \"#utility.yul\":685:705   */\n      sub\n        /* \"#utility.yul\":681:682   */\n      0x00\n        /* \"#utility.yul\":670:679   */\n      dup4\n        /* \"#utility.yul\":666:683   */\n      add\n        /* \"#utility.yul\":659:706   */\n      mstore\n        /* \"#utility.yul\":723:799   */\n      tag_31\n        /* \"#utility.yul\":794:798   */\n      dup2\n        /* \"#utility.yul\":785:791   */\n      dup5\n        /* \"#utility.yul\":723:799   */\n      tag_16\n      jump\t// in\n    tag_31:\n        /* \"#utility.yul\":715:799   */\n      swap1\n      pop\n        /* \"#utility.yul\":497:806   */\n      swap3\n      swap2\n      pop\n      pop\n      jump\t// out\n        /* \"#utility.yul\":812:1034   */\n    tag_8:\n        /* \"#utility.yul\":905:909   */\n      0x00\n        /* \"#utility.yul\":943:945   */\n      0x20\n        /* \"#utility.yul\":932:941   */\n      dup3\n        /* \"#utility.yul\":928:946   */\n      add\n        /* \"#utility.yul\":920:946   */\n      swap1\n      pop\n        /* \"#utility.yul\":956:1027   */\n      tag_33\n        /* \"#utility.yul\":1024:1025   */\n      0x00\n        /* \"#utility.yul\":1013:1022   */\n      dup4\n        /* \"#utility.yul\":1009:1026   */\n      add\n        /* \"#utility.yul\":1000:1006   */\n      dup5\n        /* \"#utility.yul\":956:1027   */\n      tag_26\n      jump\t// in\n    tag_33:\n        /* \"#utility.yul\":812:1034   */\n      swap3\n      swap2\n      pop\n      pop\n      jump\t// out\n        /* \"#utility.yul\":1040:1138   */\n    tag_19:\n        /* \"#utility.yul\":1091:1097   */\n      0x00\n        /* \"#utility.yul\":1125:1130   */\n      dup2\n        /* \"#utility.yul\":1119:1131   */\n      mload\n        /* \"#utility.yul\":1109:1131   */\n      swap1\n      pop\n        /* \"#utility.yul\":1040:1138   */\n      swap2\n      swap1\n      pop\n      jump\t// out\n        /* \"#utility.yul\":1144:1312   */\n    tag_21:\n        /* \"#utility.yul\":1227:1238   */\n      0x00\n        /* \"#utility.yul\":1261:1267   */\n      dup3\n        /* \"#utility.yul\":1256:1259   */\n      dup3\n        /* \"#utility.yul\":1249:1268   */\n      mstore\n        /* \"#utility.yul\":1301:1305   */\n      0x20\n        /* \"#utility.yul\":1296:1299   */\n      dup3\n        /* \"#utility.yul\":1292:1306   */\n      add\n        /* \"#utility.yul\":1277:1306   */\n      swap1\n      pop\n        /* \"#utility.yul\":1144:1312   */\n      swap3\n      swap2\n      pop\n      pop\n      jump\t// out\n        /* \"#utility.yul\":1318:1395   */\n    tag_29:\n        /* \"#utility.yul\":1355:1362   */\n      0x00\n        /* \"#utility.yul\":1384:1389   */\n      dup2\n        /* \"#utility.yul\":1373:1389   */\n      swap1\n      pop\n        /* \"#utility.yul\":1318:1395   */\n      swap2\n      swap1\n      pop\n      jump\t// out\n        /* \"#utility.yul\":1401:1708   */\n    tag_23:\n        /* \"#utility.yul\":1469:1470   */\n      0x00\n        /* \"#utility.yul\":1479:1592   */\n    tag_38:\n        /* \"#utility.yul\":1493:1499   */\n      dup4\n        /* \"#utility.yul\":1490:1491   */\n      dup2\n        /* \"#utility.yul\":1487:1500   */\n      lt\n        /* \"#utility.yul\":1479:1592   */\n      iszero\n      tag_40\n      jumpi\n        /* \"#utility.yul\":1578:1579   */\n      dup1\n        /* \"#utility.yul\":1573:1576   */\n      dup3\n        /* \"#utility.yul\":1569:1580   */\n      add\n        /* \"#utility.yul\":1563:1581   */\n      mload\n        /* \"#utility.yul\":1559:1560   */\n      dup2\n        /* \"#utility.yul\":1554:1557   */\n      dup5\n        /* \"#utility.yul\":1550:1561   */\n      add\n        /* \"#utility.yul\":1543:1582   */\n      mstore\n        /* \"#utility.yul\":1515:1517   */\n      0x20\n        /* \"#utility.yul\":1512:1513   */\n      dup2\n        /* \"#utility.yul\":1508:1518   */\n      add\n        /* \"#utility.yul\":1503:1518   */\n      swap1\n      pop\n        /* \"#utility.yul\":1479:1592   */\n      jump(tag_38)\n    tag_40:\n        /* \"#utility.yul\":1610:1616   */\n      dup4\n        /* \"#utility.yul\":1607:1608   */\n      dup2\n        /* \"#utility.yul\":1604:1617   */\n      gt\n        /* \"#utility.yul\":1601:1702   */\n      iszero\n      tag_41\n      jumpi\n        /* \"#utility.yul\":1690:1691   */\n      0x00\n        /* \"#utility.yul\":1681:1687   */\n      dup5\n        /* \"#utility.yul\":1676:1679   */\n      dup5\n        /* \"#utility.yul\":1672:1688   */\n      add\n        /* \"#utility.yul\":1665:1692   */\n      mstore\n        /* \"#utility.yul\":1601:1702   */\n    tag_41:\n        /* \"#utility.yul\":1450:1708   */\n      pop\n        /* \"#utility.yul\":1401:1708   */\n      pop\n      pop\n      pop\n      jump\t// out\n        /* \"#utility.yul\":1714:1816   */\n    tag_25:\n        /* \"#utility.yul\":1755:1761   */\n      0x00\n        /* \"#utility.yul\":1806:1808   */\n      0x1f\n        /* \"#utility.yul\":1802:1809   */\n      not\n        /* \"#utility.yul\":1797:1799   */\n      0x1f\n        /* \"#utility.yul\":1790:1795   */\n      dup4\n        /* \"#utility.yul\":1786:1800   */\n      add\n        /* \"#utility.yul\":1782:1810   */\n      and\n        /* \"#utility.yul\":1772:1810   */\n      swap1\n      pop\n        /* \"#utility.yul\":1714:1816   */\n      swap2\n      swap1\n      pop\n      jump\t// out\n\n    auxdata: 0xa26469706673582212205df1be18cdc92ba7fa5b4be7b06cbc9baf3b18a07da0e49a3ebe6c3ee8d01a2564736f6c63430008070033\n}\n",
				"bytecode": {
					"linkReferences": {},
					"object": "6080604052735b38da6a701c568545dcfcb03fcb875f56beddc46000806101000a81548173ffffffffffffffffffffffffffffffffffffffff021916908373ffffffffffffffffffffffffffffffffffffffff160217905550735b38da6a701c568545dcfcb03fcb875f56beddc4600160006101000a81548173ffffffffffffffffffffffffffffffffffffffff021916908373ffffffffffffffffffffffffffffffffffffffff1602179055503480156100b957600080fd5b50610216806100c96000396000f3fe608060405234801561001057600080fd5b50600436106100365760003560e01c8063117ac77f1461003b578063768c180214610059575b600080fd5b610043610077565b604051610050919061015b565b60405180910390f35b6100616100b7565b60405161006e9190610139565b60405180910390f35b60008060009054906101000a900473ffffffffffffffffffffffffffffffffffffffff1673ffffffffffffffffffffffffffffffffffffffff1631905090565b60603073ffffffffffffffffffffffffffffffffffffffff16803b806020016040519081016040528181526000908060200190933c905090565b60006100fc82610176565b6101068185610181565b935061011681856020860161019c565b61011f816101cf565b840191505092915050565b61013381610192565b82525050565b6000602082019050818103600083015261015381846100f1565b905092915050565b6000602082019050610170600083018461012a565b92915050565b600081519050919050565b600082825260208201905092915050565b6000819050919050565b60005b838110156101ba57808201518184015260208101905061019f565b838111156101c9576000848401525b50505050565b6000601f19601f830116905091905056fea26469706673582212205df1be18cdc92ba7fa5b4be7b06cbc9baf3b18a07da0e49a3ebe6c3ee8d01a2564736f6c63430008070033",
					"opcodes": "PUSH1 0x80 PUSH1 0x40 MSTORE PUSH20 0x5B38DA6A701C568545DCFCB03FCB875F56BEDDC4 PUSH1 0x0 DUP1 PUSH2 0x100 EXP DUP2 SLOAD DUP2 PUSH20 0xFFFFFFFFFFFFFFFFFFFFFFFFFFFFFFFFFFFFFFFF MUL NOT AND SWAP1 DUP4 PUSH20 0xFFFFFFFFFFFFFFFFFFFFFFFFFFFFFFFFFFFFFFFF AND MUL OR SWAP1 SSTORE POP PUSH20 0x5B38DA6A701C568545DCFCB03FCB875F56BEDDC4 PUSH1 0x1 PUSH1 0x0 PUSH2 0x100 EXP DUP2 SLOAD DUP2 PUSH20 0xFFFFFFFFFFFFFFFFFFFFFFFFFFFFFFFFFFFFFFFF MUL NOT AND SWAP1 DUP4 PUSH20 0xFFFFFFFFFFFFFFFFFFFFFFFFFFFFFFFFFFFFFFFF AND MUL OR SWAP1 SSTORE POP CALLVALUE DUP1 ISZERO PUSH2 0xB9 JUMPI PUSH1 0x0 DUP1 REVERT JUMPDEST POP PUSH2 0x216 DUP1 PUSH2 0xC9 PUSH1 0x0 CODECOPY PUSH1 0x0 RETURN INVALID PUSH1 0x80 PUSH1 0x40 MSTORE CALLVALUE DUP1 ISZERO PUSH2 0x10 JUMPI PUSH1 0x0 DUP1 REVERT JUMPDEST POP PUSH1 0x4 CALLDATASIZE LT PUSH2 0x36 JUMPI PUSH1 0x0 CALLDATALOAD PUSH1 0xE0 SHR DUP1 PUSH4 0x117AC77F EQ PUSH2 0x3B JUMPI DUP1 PUSH4 0x768C1802 EQ PUSH2 0x59 JUMPI JUMPDEST PUSH1 0x0 DUP1 REVERT JUMPDEST PUSH2 0x43 PUSH2 0x77 JUMP JUMPDEST PUSH1 0x40 MLOAD PUSH2 0x50 SWAP2 SWAP1 PUSH2 0x15B JUMP JUMPDEST PUSH1 0x40 MLOAD DUP1 SWAP2 SUB SWAP1 RETURN JUMPDEST PUSH2 0x61 PUSH2 0xB7 JUMP JUMPDEST PUSH1 0x40 MLOAD PUSH2 0x6E SWAP2 SWAP1 PUSH2 0x139 JUMP JUMPDEST PUSH1 0x40 MLOAD DUP1 SWAP2 SUB SWAP1 RETURN JUMPDEST PUSH1 0x0 DUP1 PUSH1 0x0 SWAP1 SLOAD SWAP1 PUSH2 0x100 EXP SWAP1 DIV PUSH20 0xFFFFFFFFFFFFFFFFFFFFFFFFFFFFFFFFFFFFFFFF AND PUSH20 0xFFFFFFFFFFFFFFFFFFFFFFFFFFFFFFFFFFFFFFFF AND BALANCE SWAP1 POP SWAP1 JUMP JUMPDEST PUSH1 0x60 ADDRESS PUSH20 0xFFFFFFFFFFFFFFFFFFFFFFFFFFFFFFFFFFFFFFFF AND DUP1 EXTCODESIZE DUP1 PUSH1 0x20 ADD PUSH1 0x40 MLOAD SWAP1 DUP2 ADD PUSH1 0x40 MSTORE DUP2 DUP2 MSTORE PUSH1 0x0 SWAP1 DUP1 PUSH1 0x20 ADD SWAP1 SWAP4 EXTCODECOPY SWAP1 POP SWAP1 JUMP JUMPDEST PUSH1 0x0 PUSH2 0xFC DUP3 PUSH2 0x176 JUMP JUMPDEST PUSH2 0x106 DUP2 DUP6 PUSH2 0x181 JUMP JUMPDEST SWAP4 POP PUSH2 0x116 DUP2 DUP6 PUSH1 0x20 DUP7 ADD PUSH2 0x19C JUMP JUMPDEST PUSH2 0x11F DUP2 PUSH2 0x1CF JUMP JUMPDEST DUP5 ADD SWAP2 POP POP SWAP3 SWAP2 POP POP JUMP JUMPDEST PUSH2 0x133 DUP2 PUSH2 0x192 JUMP JUMPDEST DUP3 MSTORE POP POP JUMP JUMPDEST PUSH1 0x0 PUSH1 0x20 DUP3 ADD SWAP1 POP DUP2 DUP2 SUB PUSH1 0x0 DUP4 ADD MSTORE PUSH2 0x153 DUP2 DUP5 PUSH2 0xF1 JUMP JUMPDEST SWAP1 POP SWAP3 SWAP2 POP POP JUMP JUMPDEST PUSH1 0x0 PUSH1 0x20 DUP3 ADD SWAP1 POP PUSH2 0x170 PUSH1 0x0 DUP4 ADD DUP5 PUSH2 0x12A JUMP JUMPDEST SWAP3 SWAP2 POP POP JUMP JUMPDEST PUSH1 0x0 DUP2 MLOAD SWAP1 POP SWAP2 SWAP1 POP JUMP JUMPDEST PUSH1 0x0 DUP3 DUP3 MSTORE PUSH1 0x20 DUP3 ADD SWAP1 POP SWAP3 SWAP2 POP POP JUMP JUMPDEST PUSH1 0x0 DUP2 SWAP1 POP SWAP2 SWAP1 POP JUMP JUMPDEST PUSH1 0x0 JUMPDEST DUP4 DUP2 LT ISZERO PUSH2 0x1BA JUMPI DUP1 DUP3 ADD MLOAD DUP2 DUP5 ADD MSTORE PUSH1 0x20 DUP2 ADD SWAP1 POP PUSH2 0x19F JUMP JUMPDEST DUP4 DUP2 GT ISZERO PUSH2 0x1C9 JUMPI PUSH1 0x0 DUP5 DUP5 ADD MSTORE JUMPDEST POP POP POP POP JUMP JUMPDEST PUSH1 0x0 PUSH1 0x1F NOT PUSH1 0x1F DUP4 ADD AND SWAP1 POP SWAP2 SWAP1 POP JUMP INVALID LOG2 PUSH5 0x6970667358 0x22 SLT KECCAK256 0x5D CALL 0xBE XOR 0xCD 0xC9 0x2B 0xA7 STATICCALL JUMPDEST 0x4B 0xE7 0xB0 PUSH13 0xBC9BAF3B18A07DA0E49A3EBE6C RETURNDATACOPY 0xE8 0xD0 BYTE 0x25 PUSH5 0x736F6C6343 STOP ADDMOD SMOD STOP CALLER "
				},
				"gasEstimates": {
					"creation": {
						"codeDepositCost": "106800",
						"executionCost": "48687",
						"totalCost": "155487"
					},
					"external": {
						"pegaCodigo()": "infinite",
						"pegaSaldo()": "5057"
					}
				},
				"methodIdentifiers": {
					"pegaCodigo()": "768c1802",
					"pegaSaldo()": "117ac77f"
				}
			},
			"storageLayout": {
				"storage": [
					{
						"astId": 4,
						"contract": "contracts/Enderecos.sol:Enderecos",
						"label": "endereco",
						"offset": 0,
						"slot": "0",
						"type": "t_address"
					},
					{
						"astId": 10,
						"contract": "contracts/Enderecos.sol:Enderecos",
						"label": "endereco2",
						"offset": 0,
						"slot": "1",
						"type": "t_address_payable"
					}
				],
				"types": {
					"t_address": {
						"encoding": "inplace",
						"label": "address",
						"numberOfBytes": "20"
					},
					"t_address_payable": {
						"encoding": "inplace",
						"label": "address payable",
						"numberOfBytes": "20"
					}
				}
			},
			"userdoc": {
				"kind": "user",
				"methods": {},
				"version": 1
			}
		}
	}
}