{
	"contracts/ArraysDinamicos.sol": {
		"ArraysReferencia": {
			"abi": [
				{
					"inputs": [],
					"name": "test",
					"outputs": [
						{
							"internalType": "uint256",
							"name": "",
							"type": "uint256"
						}
					],
					"stateMutability": "pure",
					"type": "function"
				}
			],
			"devdoc": {
				"kind": "dev",
				"methods": {},
				"version": 1
			},
			"evm": {
				"assembly": "    /* \"contracts/ArraysDinamicos.sol\":70:388  contract ArraysReferencia {... */\n  mstore(0x40, 0x80)\n  callvalue\n  dup1\n  iszero\n  tag_1\n  jumpi\n  revert(0x00, 0x00)\ntag_1:\n  pop\n  dataSize(sub_0)\n  dup1\n  dataOffset(sub_0)\n  0x00\n  codecopy\n  0x00\n  return\nstop\n\nsub_0: assembly {\n        /* \"contracts/ArraysDinamicos.sol\":70:388  contract ArraysReferencia {... */\n      mstore(0x40, 0x80)\n      callvalue\n      dup1\n      iszero\n      tag_1\n      jumpi\n      revert(0x00, 0x00)\n    tag_1:\n      pop\n      jumpi(tag_2, lt(calldatasize, 0x04))\n      shr(0xe0, calldataload(0x00))\n      dup1\n      0xf8a8fd6d\n      eq\n      tag_3\n      jumpi\n    tag_2:\n      revert(0x00, 0x00)\n        /* \"contracts/ArraysDinamicos.sol\":103:386  function test() public pure returns (uint) {... */\n    tag_3:\n      tag_4\n      tag_5\n      jump\t// in\n    tag_4:\n      mload(0x40)\n      tag_6\n      swap2\n      swap1\n      tag_7\n      jump\t// in\n    tag_6:\n      mload(0x40)\n      dup1\n      swap2\n      sub\n      swap1\n      return\n    tag_5:\n        /* \"contracts/ArraysDinamicos.sol\":140:144  uint */\n      0x00\n        /* \"contracts/ArraysDinamicos.sol\":229:254  uint[3] memory minhaArray */\n      0x00\n        /* \"contracts/ArraysDinamicos.sol\":229:273  uint[3] memory minhaArray = [uint256(2),4,6] */\n      mload(0x40)\n      dup1\n      0x60\n      add\n      0x40\n      mstore\n      dup1\n        /* \"contracts/ArraysDinamicos.sol\":266:267  2 */\n      0x02\n        /* \"contracts/ArraysDinamicos.sol\":229:273  uint[3] memory minhaArray = [uint256(2),4,6] */\n      dup2\n      mstore\n      0x20\n      add\n        /* \"contracts/ArraysDinamicos.sol\":269:270  4 */\n      0x04\n        /* \"contracts/ArraysDinamicos.sol\":229:273  uint[3] memory minhaArray = [uint256(2),4,6] */\n      dup2\n      mstore\n      0x20\n      add\n        /* \"contracts/ArraysDinamicos.sol\":271:272  6 */\n      0x06\n        /* \"contracts/ArraysDinamicos.sol\":229:273  uint[3] memory minhaArray = [uint256(2),4,6] */\n      dup2\n      mstore\n      pop\n      swap1\n      pop\n        /* \"contracts/ArraysDinamicos.sol\":283:307  uint[3] memory novaArray */\n      0x00\n        /* \"contracts/ArraysDinamicos.sol\":310:320  minhaArray */\n      dup2\n        /* \"contracts/ArraysDinamicos.sol\":283:320  uint[3] memory novaArray = minhaArray */\n      swap1\n      pop\n        /* \"contracts/ArraysDinamicos.sol\":346:348  16 */\n      0x10\n        /* \"contracts/ArraysDinamicos.sol\":331:340  novaArray */\n      dup2\n        /* \"contracts/ArraysDinamicos.sol\":341:342  2 */\n      0x02\n        /* \"contracts/ArraysDinamicos.sol\":331:343  novaArray[2] */\n      0x03\n      dup2\n      lt\n      tag_9\n      jumpi\n      tag_10\n      tag_11\n      jump\t// in\n    tag_10:\n    tag_9:\n      0x20\n      mul\n      add\n        /* \"contracts/ArraysDinamicos.sol\":331:348  novaArray[2] = 16 */\n      dup2\n      dup2\n      mstore\n      pop\n      pop\n        /* \"contracts/ArraysDinamicos.sol\":366:376  minhaArray */\n      dup2\n        /* \"contracts/ArraysDinamicos.sol\":377:378  2 */\n      0x02\n        /* \"contracts/ArraysDinamicos.sol\":366:379  minhaArray[2] */\n      0x03\n      dup2\n      lt\n      tag_12\n      jumpi\n      tag_13\n      tag_11\n      jump\t// in\n    tag_13:\n    tag_12:\n      0x20\n      mul\n      add\n      mload\n        /* \"contracts/ArraysDinamicos.sol\":359:379  return minhaArray[2] */\n      swap3\n      pop\n      pop\n      pop\n        /* \"contracts/ArraysDinamicos.sol\":103:386  function test() public pure returns (uint) {... */\n      swap1\n      jump\t// out\n        /* \"#utility.yul\":7:84   */\n    tag_14:\n        /* \"#utility.yul\":44:51   */\n      0x00\n        /* \"#utility.yul\":73:78   */\n      dup2\n        /* \"#utility.yul\":62:78   */\n      swap1\n      pop\n        /* \"#utility.yul\":7:84   */\n      swap2\n      swap1\n      pop\n      jump\t// out\n        /* \"#utility.yul\":90:208   */\n    tag_15:\n        /* \"#utility.yul\":177:201   */\n      tag_19\n        /* \"#utility.yul\":195:200   */\n      dup2\n        /* \"#utility.yul\":177:201   */\n      tag_14\n      jump\t// in\n    tag_19:\n        /* \"#utility.yul\":172:175   */\n      dup3\n        /* \"#utility.yul\":165:202   */\n      mstore\n        /* \"#utility.yul\":90:208   */\n      pop\n      pop\n      jump\t// out\n        /* \"#utility.yul\":214:436   */\n    tag_7:\n        /* \"#utility.yul\":307:311   */\n      0x00\n        /* \"#utility.yul\":345:347   */\n      0x20\n        /* \"#utility.yul\":334:343   */\n      dup3\n        /* \"#utility.yul\":330:348   */\n      add\n        /* \"#utility.yul\":322:348   */\n      swap1\n      pop\n        /* \"#utility.yul\":358:429   */\n      tag_21\n        /* \"#utility.yul\":426:427   */\n      0x00\n        /* \"#utility.yul\":415:424   */\n      dup4\n        /* \"#utility.yul\":411:428   */\n      add\n        /* \"#utility.yul\":402:408   */\n      dup5\n        /* \"#utility.yul\":358:429   */\n      tag_15\n      jump\t// in\n    tag_21:\n        /* \"#utility.yul\":214:436   */\n      swap3\n      swap2\n      pop\n      pop\n      jump\t// out\n        /* \"#utility.yul\":442:622   */\n    tag_11:\n        /* \"#utility.yul\":490:567   */\n      0x4e487b7100000000000000000000000000000000000000000000000000000000\n        /* \"#utility.yul\":487:488   */\n      0x00\n        /* \"#utility.yul\":480:568   */\n      mstore\n        /* \"#utility.yul\":587:591   */\n      0x32\n        /* \"#utility.yul\":584:585   */\n      0x04\n        /* \"#utility.yul\":577:592   */\n      mstore\n        /* \"#utility.yul\":611:615   */\n      0x24\n        /* \"#utility.yul\":608:609   */\n      0x00\n        /* \"#utility.yul\":601:616   */\n      revert\n\n    auxdata: 0xa2646970667358221220440c0a7ebfe85e61c0d9bfdcc331c90eb5b6479794860adf7571675830ddd43364736f6c634300081e0033\n}\n",
				"bytecode": {
					"linkReferences": {},
					"object": "6080604052348015600e575f5ffd5b506101338061001c5f395ff3fe6080604052348015600e575f5ffd5b50600436106026575f3560e01c8063f8a8fd6d14602a575b5f5ffd5b60306044565b604051603b919060b9565b60405180910390f35b5f5f60405180606001604052806002815260200160048152602001600681525090505f819050601081600260038110607d57607c60d0565b5b60200201818152505081600260038110609757609660d0565b5b60200201519250505090565b5f819050919050565b60b38160a3565b82525050565b5f60208201905060ca5f83018460ac565b92915050565b7f4e487b71000000000000000000000000000000000000000000000000000000005f52603260045260245ffdfea2646970667358221220440c0a7ebfe85e61c0d9bfdcc331c90eb5b6479794860adf7571675830ddd43364736f6c634300081e0033",
					"opcodes": "PUSH1 0x80 PUSH1 0x40 MSTORE CALLVALUE DUP1 ISZERO PUSH1 0xE JUMPI PUSH0 PUSH0 REVERT JUMPDEST POP PUSH2 0x133 DUP1 PUSH2 0x1C PUSH0 CODECOPY PUSH0 RETURN INVALID PUSH1 0x80 PUSH1 0x40 MSTORE CALLVALUE DUP1 ISZERO PUSH1 0xE JUMPI PUSH0 PUSH0 REVERT JUMPDEST POP PUSH1 0x4 CALLDATASIZE LT PUSH1 0x26 JUMPI PUSH0 CALLDATALOAD PUSH1 0xE0 SHR DUP1 PUSH4 0xF8A8FD6D EQ PUSH1 0x2A JUMPI JUMPDEST PUSH0 PUSH0 REVERT JUMPDEST PUSH1 0x30 PUSH1 0x44 JUMP JUMPDEST PUSH1 0x40 MLOAD PUSH1 0x3B SWAP2 SWAP1 PUSH1 0xB9 JUMP JUMPDEST PUSH1 0x40 MLOAD DUP1 SWAP2 SUB SWAP1 RETURN JUMPDEST PUSH0 PUSH0 PUSH1 0x40 MLOAD DUP1 PUSH1 0x60 ADD PUSH1 0x40 MSTORE DUP1 PUSH1 0x2 DUP2 MSTORE PUSH1 0x20 ADD PUSH1 0x4 DUP2 MSTORE PUSH1 0x20 ADD PUSH1 0x6 DUP2 MSTORE POP SWAP1 POP PUSH0 DUP2 SWAP1 POP PUSH1 0x10 DUP2 PUSH1 0x2 PUSH1 0x3 DUP2 LT PUSH1 0x7D JUMPI PUSH1 0x7C PUSH1 0xD0 JUMP JUMPDEST JUMPDEST PUSH1 0x20 MUL ADD DUP2 DUP2 MSTORE POP POP DUP2 PUSH1 0x2 PUSH1 0x3 DUP2 LT PUSH1 0x97 JUMPI PUSH1 0x96 PUSH1 0xD0 JUMP JUMPDEST JUMPDEST PUSH1 0x20 MUL ADD MLOAD SWAP3 POP POP POP SWAP1 JUMP JUMPDEST PUSH0 DUP2 SWAP1 POP SWAP2 SWAP1 POP JUMP JUMPDEST PUSH1 0xB3 DUP2 PUSH1 0xA3 JUMP JUMPDEST DUP3 MSTORE POP POP JUMP JUMPDEST PUSH0 PUSH1 0x20 DUP3 ADD SWAP1 POP PUSH1 0xCA PUSH0 DUP4 ADD DUP5 PUSH1 0xAC JUMP JUMPDEST SWAP3 SWAP2 POP POP JUMP JUMPDEST PUSH32 0x4E487B7100000000000000000000000000000000000000000000000000000000 PUSH0 MSTORE PUSH1 0x32 PUSH1 0x4 MSTORE PUSH1 0x24 PUSH0 REVERT INVALID LOG2 PUSH5 0x6970667358 0x22 SLT KECCAK256 PREVRANDAO 0xC EXP PUSH31 0xBFE85E61C0D9BFDCC331C90EB5B6479794860ADF7571675830DDD43364736F PUSH13 0x634300081E0033000000000000 "
				},
				"gasEstimates": {
					"creation": {
						"codeDepositCost": "61400",
						"executionCost": "109",
						"totalCost": "61509"
					},
					"external": {
						"test()": "501"
					}
				},
				"methodIdentifiers": {
					"test()": "f8a8fd6d"
				}
			},
			"storageLayout": {
				"storage": [],
				"types": null
			},
			"userdoc": {
				"kind": "user",
				"methods": {},
				"version": 1
			}
		}
	}
}