{
	"contracts/Retorno.sol": {
		"Retorno": {
			"abi": [
				{
					"inputs": [],
					"name": "retornaContagem",
					"outputs": [
						{
							"internalType": "int256",
							"name": "",
							"type": "int256"
						},
						{
							"internalType": "int256",
							"name": "",
							"type": "int256"
						}
					],
					"stateMutability": "view",
					"type": "function"
				},
				{
					"inputs": [],
					"name": "retornaContagem2",
					"outputs": [
						{
							"internalType": "int256",
							"name": "retorna",
							"type": "int256"
						}
					],
					"stateMutability": "view",
					"type": "function"
				}
			],
			"devdoc": {
				"kind": "dev",
				"methods": {},
				"version": 1
			},
			"evm": {
				"assembly": "    /* \"contracts/Retorno.sol\":56:304  contract Retorno {... */\n  mstore(0x40, 0x80)\n  callvalue\n  dup1\n  iszero\n  tag_1\n  jumpi\n  0x00\n  dup1\n  revert\ntag_1:\n  pop\n  dataSize(sub_0)\n  dup1\n  dataOffset(sub_0)\n  0x00\n  codecopy\n  0x00\n  return\nstop\n\nsub_0: assembly {\n        /* \"contracts/Retorno.sol\":56:304  contract Retorno {... */\n      mstore(0x40, 0x80)\n      callvalue\n      dup1\n      iszero\n      tag_1\n      jumpi\n      0x00\n      dup1\n      revert\n    tag_1:\n      pop\n      jumpi(tag_2, lt(calldatasize, 0x04))\n      shr(0xe0, calldataload(0x00))\n      dup1\n      0x403bf8bc\n      eq\n      tag_3\n      jumpi\n      dup1\n      0xc4d9491a\n      eq\n      tag_4\n      jumpi\n    tag_2:\n      0x00\n      dup1\n      revert\n        /* \"contracts/Retorno.sol\":205:302  function retornaContagem2() public view returns (int retorna) {... */\n    tag_3:\n      tag_5\n      tag_6\n      jump\t// in\n    tag_5:\n      mload(0x40)\n      tag_7\n      swap2\n      swap1\n      tag_8\n      jump\t// in\n    tag_7:\n      mload(0x40)\n      dup1\n      swap2\n      sub\n      swap1\n      return\n        /* \"contracts/Retorno.sol\":98:199  function retornaContagem() public view returns (int, int) {... */\n    tag_4:\n      tag_9\n      tag_10\n      jump\t// in\n    tag_9:\n      mload(0x40)\n      tag_11\n      swap3\n      swap2\n      swap1\n      tag_12\n      jump\t// in\n    tag_11:\n      mload(0x40)\n      dup1\n      swap2\n      sub\n      swap1\n      return\n        /* \"contracts/Retorno.sol\":205:302  function retornaContagem2() public view returns (int retorna) {... */\n    tag_6:\n        /* \"contracts/Retorno.sol\":254:265  int retorna */\n      0x00\n        /* \"contracts/Retorno.sol\":287:295  contagem */\n      dup1\n      sload\n        /* \"contracts/Retorno.sol\":277:295  retorna = contagem */\n      swap1\n      pop\n        /* \"contracts/Retorno.sol\":205:302  function retornaContagem2() public view returns (int retorna) {... */\n      swap1\n      jump\t// out\n        /* \"contracts/Retorno.sol\":98:199  function retornaContagem() public view returns (int, int) {... */\n    tag_10:\n        /* \"contracts/Retorno.sol\":146:149  int */\n      0x00\n        /* \"contracts/Retorno.sol\":151:154  int */\n      dup1\n        /* \"contracts/Retorno.sol\":174:182  contagem */\n      sload(0x00)\n        /* \"contracts/Retorno.sol\":183:191  contagem */\n      sload(0x00)\n        /* \"contracts/Retorno.sol\":166:192  return (contagem,contagem) */\n      swap2\n      pop\n      swap2\n      pop\n        /* \"contracts/Retorno.sol\":98:199  function retornaContagem() public view returns (int, int) {... */\n      swap1\n      swap2\n      jump\t// out\n        /* \"#utility.yul\":7:122   */\n    tag_16:\n        /* \"#utility.yul\":92:115   */\n      tag_18\n        /* \"#utility.yul\":109:114   */\n      dup2\n        /* \"#utility.yul\":92:115   */\n      tag_19\n      jump\t// in\n    tag_18:\n        /* \"#utility.yul\":87:90   */\n      dup3\n        /* \"#utility.yul\":80:116   */\n      mstore\n        /* \"#utility.yul\":7:122   */\n      pop\n      pop\n      jump\t// out\n        /* \"#utility.yul\":128:346   */\n    tag_8:\n        /* \"#utility.yul\":219:223   */\n      0x00\n        /* \"#utility.yul\":257:259   */\n      0x20\n        /* \"#utility.yul\":246:255   */\n      dup3\n        /* \"#utility.yul\":242:260   */\n      add\n        /* \"#utility.yul\":234:260   */\n      swap1\n      pop\n        /* \"#utility.yul\":270:339   */\n      tag_21\n        /* \"#utility.yul\":336:337   */\n      0x00\n        /* \"#utility.yul\":325:334   */\n      dup4\n        /* \"#utility.yul\":321:338   */\n      add\n        /* \"#utility.yul\":312:318   */\n      dup5\n        /* \"#utility.yul\":270:339   */\n      tag_16\n      jump\t// in\n    tag_21:\n        /* \"#utility.yul\":128:346   */\n      swap3\n      swap2\n      pop\n      pop\n      jump\t// out\n        /* \"#utility.yul\":352:676   */\n    tag_12:\n        /* \"#utility.yul\":469:473   */\n      0x00\n        /* \"#utility.yul\":507:509   */\n      0x40\n        /* \"#utility.yul\":496:505   */\n      dup3\n        /* \"#utility.yul\":492:510   */\n      add\n        /* \"#utility.yul\":484:510   */\n      swap1\n      pop\n        /* \"#utility.yul\":520:589   */\n      tag_23\n        /* \"#utility.yul\":586:587   */\n      0x00\n        /* \"#utility.yul\":575:584   */\n      dup4\n        /* \"#utility.yul\":571:588   */\n      add\n        /* \"#utility.yul\":562:568   */\n      dup6\n        /* \"#utility.yul\":520:589   */\n      tag_16\n      jump\t// in\n    tag_23:\n        /* \"#utility.yul\":599:669   */\n      tag_24\n        /* \"#utility.yul\":665:667   */\n      0x20\n        /* \"#utility.yul\":654:663   */\n      dup4\n        /* \"#utility.yul\":650:668   */\n      add\n        /* \"#utility.yul\":641:647   */\n      dup5\n        /* \"#utility.yul\":599:669   */\n      tag_16\n      jump\t// in\n    tag_24:\n        /* \"#utility.yul\":352:676   */\n      swap4\n      swap3\n      pop\n      pop\n      pop\n      jump\t// out\n        /* \"#utility.yul\":682:758   */\n    tag_19:\n        /* \"#utility.yul\":718:725   */\n      0x00\n        /* \"#utility.yul\":747:752   */\n      dup2\n        /* \"#utility.yul\":736:752   */\n      swap1\n      pop\n        /* \"#utility.yul\":682:758   */\n      swap2\n      swap1\n      pop\n      jump\t// out\n\n    auxdata: 0xa2646970667358221220ff66ddb7525e4217a38bedaaac93919c17d32ac5f68b1e2d108f55d216feb16064736f6c63430008070033\n}\n",
				"bytecode": {
					"linkReferences": {},
					"object": "608060405234801561001057600080fd5b50610111806100206000396000f3fe6080604052348015600f57600080fd5b506004361060325760003560e01c8063403bf8bc146037578063c4d9491a146051575b600080fd5b603d606c565b604051604891906093565b60405180910390f35b60576075565b604051606392919060ac565b60405180910390f35b60008054905090565b600080600054600054915091509091565b608d8160d1565b82525050565b600060208201905060a660008301846086565b92915050565b600060408201905060bf60008301856086565b60ca60208301846086565b9392505050565b600081905091905056fea2646970667358221220ff66ddb7525e4217a38bedaaac93919c17d32ac5f68b1e2d108f55d216feb16064736f6c63430008070033",
					"opcodes": "PUSH1 0x80 PUSH1 0x40 MSTORE CALLVALUE DUP1 ISZERO PUSH2 0x10 JUMPI PUSH1 0x0 DUP1 REVERT JUMPDEST POP PUSH2 0x111 DUP1 PUSH2 0x20 PUSH1 0x0 CODECOPY PUSH1 0x0 RETURN INVALID PUSH1 0x80 PUSH1 0x40 MSTORE CALLVALUE DUP1 ISZERO PUSH1 0xF JUMPI PUSH1 0x0 DUP1 REVERT JUMPDEST POP PUSH1 0x4 CALLDATASIZE LT PUSH1 0x32 JUMPI PUSH1 0x0 CALLDATALOAD PUSH1 0xE0 SHR DUP1 PUSH4 0x403BF8BC EQ PUSH1 0x37 JUMPI DUP1 PUSH4 0xC4D9491A EQ PUSH1 0x51 JUMPI JUMPDEST PUSH1 0x0 DUP1 REVERT JUMPDEST PUSH1 0x3D PUSH1 0x6C JUMP JUMPDEST PUSH1 0x40 MLOAD PUSH1 0x48 SWAP2 SWAP1 PUSH1 0x93 JUMP JUMPDEST PUSH1 0x40 MLOAD DUP1 SWAP2 SUB SWAP1 RETURN JUMPDEST PUSH1 0x57 PUSH1 0x75 JUMP JUMPDEST PUSH1 0x40 MLOAD PUSH1 0x63 SWAP3 SWAP2 SWAP1 PUSH1 0xAC JUMP JUMPDEST PUSH1 0x40 MLOAD DUP1 SWAP2 SUB SWAP1 RETURN JUMPDEST PUSH1 0x0 DUP1 SLOAD SWAP1 POP SWAP1 JUMP JUMPDEST PUSH1 0x0 DUP1 PUSH1 0x0 SLOAD PUSH1 0x0 SLOAD SWAP2 POP SWAP2 POP SWAP1 SWAP2 JUMP JUMPDEST PUSH1 0x8D DUP2 PUSH1 0xD1 JUMP JUMPDEST DUP3 MSTORE POP POP JUMP JUMPDEST PUSH1 0x0 PUSH1 0x20 DUP3 ADD SWAP1 POP PUSH1 0xA6 PUSH1 0x0 DUP4 ADD DUP5 PUSH1 0x86 JUMP JUMPDEST SWAP3 SWAP2 POP POP JUMP JUMPDEST PUSH1 0x0 PUSH1 0x40 DUP3 ADD SWAP1 POP PUSH1 0xBF PUSH1 0x0 DUP4 ADD DUP6 PUSH1 0x86 JUMP JUMPDEST PUSH1 0xCA PUSH1 0x20 DUP4 ADD DUP5 PUSH1 0x86 JUMP JUMPDEST SWAP4 SWAP3 POP POP POP JUMP JUMPDEST PUSH1 0x0 DUP2 SWAP1 POP SWAP2 SWAP1 POP JUMP INVALID LOG2 PUSH5 0x6970667358 0x22 SLT KECCAK256 SELFDESTRUCT PUSH7 0xDDB7525E4217A3 DUP12 0xED 0xAA 0xAC SWAP4 SWAP2 SWAP13 OR 0xD3 0x2A 0xC5 0xF6 DUP12 0x1E 0x2D LT DUP16 SSTORE 0xD2 AND INVALID 0xB1 PUSH1 0x64 PUSH20 0x6F6C634300080700330000000000000000000000 "
				},
				"gasEstimates": {
					"creation": {
						"codeDepositCost": "54600",
						"executionCost": "105",
						"totalCost": "54705"
					},
					"external": {
						"retornaContagem()": "infinite",
						"retornaContagem2()": "2415"
					}
				},
				"methodIdentifiers": {
					"retornaContagem()": "c4d9491a",
					"retornaContagem2()": "403bf8bc"
				}
			},
			"storageLayout": {
				"storage": [
					{
						"astId": 3,
						"contract": "contracts/Retorno.sol:Retorno",
						"label": "contagem",
						"offset": 0,
						"slot": "0",
						"type": "t_int256"
					}
				],
				"types": {
					"t_int256": {
						"encoding": "inplace",
						"label": "int256",
						"numberOfBytes": "32"
					}
				}
			},
			"userdoc": {
				"kind": "user",
				"methods": {},
				"version": 1
			}
		}
	}
}