{
	"contracts/Par.sol": {
		"Par": {
			"abi": [
				{
					"inputs": [
						{
							"internalType": "string",
							"name": "par1",
							"type": "string"
						},
						{
							"internalType": "string",
							"name": "par2",
							"type": "string"
						}
					],
					"name": "criaPar",
					"outputs": [],
					"stateMutability": "nonpayable",
					"type": "function"
				},
				{
					"inputs": [
						{
							"internalType": "string",
							"name": "",
							"type": "string"
						}
					],
					"name": "par",
					"outputs": [
						{
							"internalType": "string",
							"name": "",
							"type": "string"
						}
					],
					"stateMutability": "view",
					"type": "function"
				}
			],
			"devdoc": {
				"kind": "dev",
				"methods": {},
				"version": 1
			},
			"evm": {
				"assembly": "    /* \"contracts/Par.sol\":56:295  contract Par {... */\n  mstore(0x40, 0x80)\n  callvalue\n  dup1\n  iszero\n  tag_1\n  jumpi\n  revert(0x00, 0x00)\ntag_1:\n  pop\n  dataSize(sub_0)\n  dup1\n  dataOffset(sub_0)\n  0x00\n  codecopy\n  0x00\n  return\nstop\n\nsub_0: assembly {\n        /* \"contracts/Par.sol\":56:295  contract Par {... */\n      mstore(0x40, 0x80)\n      callvalue\n      dup1\n      iszero\n      tag_1\n      jumpi\n      revert(0x00, 0x00)\n    tag_1:\n      pop\n      jumpi(tag_2, lt(calldatasize, 0x04))\n      shr(0xe0, calldataload(0x00))\n      dup1\n      0x49b46228\n      eq\n      tag_3\n      jumpi\n      dup1\n      0x7aee3264\n      eq\n      tag_4\n      jumpi\n    tag_2:\n      revert(0x00, 0x00)\n        /* \"contracts/Par.sol\":123:220  function criaPar(string memory par1, string memory par2) public {... */\n    tag_3:\n      tag_5\n      0x04\n      dup1\n      calldatasize\n      sub\n      dup2\n      add\n      swap1\n      tag_6\n      swap2\n      swap1\n      tag_7\n      jump\t// in\n    tag_6:\n      tag_8\n      jump\t// in\n    tag_5:\n      stop\n        /* \"contracts/Par.sol\":80:116  mapping(string => string) public par */\n    tag_4:\n      tag_9\n      0x04\n      dup1\n      calldatasize\n      sub\n      dup2\n      add\n      swap1\n      tag_10\n      swap2\n      swap1\n      tag_11\n      jump\t// in\n    tag_10:\n      tag_12\n      jump\t// in\n    tag_9:\n      mload(0x40)\n      tag_13\n      swap2\n      swap1\n      tag_14\n      jump\t// in\n    tag_13:\n      mload(0x40)\n      dup1\n      swap2\n      sub\n      swap1\n      return\n        /* \"contracts/Par.sol\":123:220  function criaPar(string memory par1, string memory par2) public {... */\n    tag_8:\n        /* \"contracts/Par.sol\":209:213  par2 */\n      dup1\n        /* \"contracts/Par.sol\":197:200  par */\n      0x00\n        /* \"contracts/Par.sol\":201:205  par1 */\n      dup4\n        /* \"contracts/Par.sol\":197:206  par[par1] */\n      mload(0x40)\n      tag_16\n      swap2\n      swap1\n      tag_17\n      jump\t// in\n    tag_16:\n      swap1\n      dup2\n      mstore\n      0x20\n      add\n      mload(0x40)\n      dup1\n      swap2\n      sub\n      swap1\n      keccak256\n        /* \"contracts/Par.sol\":197:213  par[par1] = par2 */\n      swap1\n      dup2\n      tag_18\n      swap2\n      swap1\n      tag_19\n      jump\t// in\n    tag_18:\n      pop\n        /* \"contracts/Par.sol\":123:220  function criaPar(string memory par1, string memory par2) public {... */\n      pop\n      pop\n      jump\t// out\n        /* \"contracts/Par.sol\":80:116  mapping(string => string) public par */\n    tag_12:\n      0x00\n      dup2\n      dup1\n      mload\n      0x20\n      dup2\n      add\n      dup3\n      add\n      dup1\n      mload\n      dup5\n      dup3\n      mstore\n      0x20\n      dup4\n      add\n      0x20\n      dup6\n      add\n      keccak256\n      dup2\n      dup4\n      mstore\n      dup1\n      swap6\n      pop\n      pop\n      pop\n      pop\n      pop\n      pop\n      0x00\n      swap2\n      pop\n      swap1\n      pop\n      dup1\n      sload\n      tag_20\n      swap1\n      tag_21\n      jump\t// in\n    tag_20:\n      dup1\n      0x1f\n      add\n      0x20\n      dup1\n      swap2\n      div\n      mul\n      0x20\n      add\n      mload(0x40)\n      swap1\n      dup2\n      add\n      0x40\n      mstore\n      dup1\n      swap3\n      swap2\n      swap1\n      dup2\n      dup2\n      mstore\n      0x20\n      add\n      dup3\n      dup1\n      sload\n      tag_22\n      swap1\n      tag_21\n      jump\t// in\n    tag_22:\n      dup1\n      iszero\n      tag_23\n      jumpi\n      dup1\n      0x1f\n      lt\n      tag_24\n      jumpi\n      0x0100\n      dup1\n      dup4\n      sload\n      div\n      mul\n      dup4\n      mstore\n      swap2\n      0x20\n      add\n      swap2\n      jump(tag_23)\n    tag_24:\n      dup3\n      add\n      swap2\n      swap1\n      0x00\n      mstore\n      keccak256(0x00, 0x20)\n      swap1\n    tag_25:\n      dup2\n      sload\n      dup2\n      mstore\n      swap1\n      0x01\n      add\n      swap1\n      0x20\n      add\n      dup1\n      dup4\n      gt\n      tag_25\n      jumpi\n      dup3\n      swap1\n      sub\n      0x1f\n      and\n      dup3\n      add\n      swap2\n    tag_23:\n      pop\n      pop\n      pop\n      pop\n      pop\n      dup2\n      jump\t// out\n        /* \"#utility.yul\":7:82   */\n    tag_26:\n        /* \"#utility.yul\":40:46   */\n      0x00\n        /* \"#utility.yul\":73:75   */\n      0x40\n        /* \"#utility.yul\":67:76   */\n      mload\n        /* \"#utility.yul\":57:76   */\n      swap1\n      pop\n        /* \"#utility.yul\":7:82   */\n      swap1\n      jump\t// out\n        /* \"#utility.yul\":88:205   */\n    tag_27:\n        /* \"#utility.yul\":197:198   */\n      0x00\n        /* \"#utility.yul\":194:195   */\n      0x00\n        /* \"#utility.yul\":187:199   */\n      revert\n        /* \"#utility.yul\":211:328   */\n    tag_28:\n        /* \"#utility.yul\":320:321   */\n      0x00\n        /* \"#utility.yul\":317:318   */\n      0x00\n        /* \"#utility.yul\":310:322   */\n      revert\n        /* \"#utility.yul\":334:451   */\n    tag_29:\n        /* \"#utility.yul\":443:444   */\n      0x00\n        /* \"#utility.yul\":440:441   */\n      0x00\n        /* \"#utility.yul\":433:445   */\n      revert\n        /* \"#utility.yul\":457:574   */\n    tag_30:\n        /* \"#utility.yul\":566:567   */\n      0x00\n        /* \"#utility.yul\":563:564   */\n      0x00\n        /* \"#utility.yul\":556:568   */\n      revert\n        /* \"#utility.yul\":580:682   */\n    tag_31:\n        /* \"#utility.yul\":621:627   */\n      0x00\n        /* \"#utility.yul\":672:674   */\n      0x1f\n        /* \"#utility.yul\":668:675   */\n      not\n        /* \"#utility.yul\":663:665   */\n      0x1f\n        /* \"#utility.yul\":656:661   */\n      dup4\n        /* \"#utility.yul\":652:666   */\n      add\n        /* \"#utility.yul\":648:676   */\n      and\n        /* \"#utility.yul\":638:676   */\n      swap1\n      pop\n        /* \"#utility.yul\":580:682   */\n      swap2\n      swap1\n      pop\n      jump\t// out\n        /* \"#utility.yul\":688:868   */\n    tag_32:\n        /* \"#utility.yul\":736:813   */\n      0x4e487b7100000000000000000000000000000000000000000000000000000000\n        /* \"#utility.yul\":733:734   */\n      0x00\n        /* \"#utility.yul\":726:814   */\n      mstore\n        /* \"#utility.yul\":833:837   */\n      0x41\n        /* \"#utility.yul\":830:831   */\n      0x04\n        /* \"#utility.yul\":823:838   */\n      mstore\n        /* \"#utility.yul\":857:861   */\n      0x24\n        /* \"#utility.yul\":854:855   */\n      0x00\n        /* \"#utility.yul\":847:862   */\n      revert\n        /* \"#utility.yul\":874:1155   */\n    tag_33:\n        /* \"#utility.yul\":957:984   */\n      tag_71\n        /* \"#utility.yul\":979:983   */\n      dup3\n        /* \"#utility.yul\":957:984   */\n      tag_31\n      jump\t// in\n    tag_71:\n        /* \"#utility.yul\":949:955   */\n      dup2\n        /* \"#utility.yul\":945:985   */\n      add\n        /* \"#utility.yul\":1087:1093   */\n      dup2\n        /* \"#utility.yul\":1075:1085   */\n      dup2\n        /* \"#utility.yul\":1072:1094   */\n      lt\n        /* \"#utility.yul\":1051:1069   */\n      0xffffffffffffffff\n        /* \"#utility.yul\":1039:1049   */\n      dup3\n        /* \"#utility.yul\":1036:1070   */\n      gt\n        /* \"#utility.yul\":1033:1095   */\n      or\n        /* \"#utility.yul\":1030:1118   */\n      iszero\n      tag_72\n      jumpi\n        /* \"#utility.yul\":1098:1116   */\n      tag_73\n      tag_32\n      jump\t// in\n    tag_73:\n        /* \"#utility.yul\":1030:1118   */\n    tag_72:\n        /* \"#utility.yul\":1138:1148   */\n      dup1\n        /* \"#utility.yul\":1134:1136   */\n      0x40\n        /* \"#utility.yul\":1127:1149   */\n      mstore\n        /* \"#utility.yul\":917:1155   */\n      pop\n        /* \"#utility.yul\":874:1155   */\n      pop\n      pop\n      jump\t// out\n        /* \"#utility.yul\":1161:1290   */\n    tag_34:\n        /* \"#utility.yul\":1195:1201   */\n      0x00\n        /* \"#utility.yul\":1222:1242   */\n      tag_75\n      tag_26\n      jump\t// in\n    tag_75:\n        /* \"#utility.yul\":1212:1242   */\n      swap1\n      pop\n        /* \"#utility.yul\":1251:1284   */\n      tag_76\n        /* \"#utility.yul\":1279:1283   */\n      dup3\n        /* \"#utility.yul\":1271:1277   */\n      dup3\n        /* \"#utility.yul\":1251:1284   */\n      tag_33\n      jump\t// in\n    tag_76:\n        /* \"#utility.yul\":1161:1290   */\n      swap2\n      swap1\n      pop\n      jump\t// out\n        /* \"#utility.yul\":1296:1604   */\n    tag_35:\n        /* \"#utility.yul\":1358:1362   */\n      0x00\n        /* \"#utility.yul\":1448:1466   */\n      0xffffffffffffffff\n        /* \"#utility.yul\":1440:1446   */\n      dup3\n        /* \"#utility.yul\":1437:1467   */\n      gt\n        /* \"#utility.yul\":1434:1490   */\n      iszero\n      tag_78\n      jumpi\n        /* \"#utility.yul\":1470:1488   */\n      tag_79\n      tag_32\n      jump\t// in\n    tag_79:\n        /* \"#utility.yul\":1434:1490   */\n    tag_78:\n        /* \"#utility.yul\":1508:1537   */\n      tag_80\n        /* \"#utility.yul\":1530:1536   */\n      dup3\n        /* \"#utility.yul\":1508:1537   */\n      tag_31\n      jump\t// in\n    tag_80:\n        /* \"#utility.yul\":1500:1537   */\n      swap1\n      pop\n        /* \"#utility.yul\":1592:1596   */\n      0x20\n        /* \"#utility.yul\":1586:1590   */\n      dup2\n        /* \"#utility.yul\":1582:1597   */\n      add\n        /* \"#utility.yul\":1574:1597   */\n      swap1\n      pop\n        /* \"#utility.yul\":1296:1604   */\n      swap2\n      swap1\n      pop\n      jump\t// out\n        /* \"#utility.yul\":1610:1758   */\n    tag_36:\n        /* \"#utility.yul\":1708:1714   */\n      dup3\n        /* \"#utility.yul\":1703:1706   */\n      dup2\n        /* \"#utility.yul\":1698:1701   */\n      dup4\n        /* \"#utility.yul\":1685:1715   */\n      calldatacopy\n        /* \"#utility.yul\":1749:1750   */\n      0x00\n        /* \"#utility.yul\":1740:1746   */\n      dup4\n        /* \"#utility.yul\":1735:1738   */\n      dup4\n        /* \"#utility.yul\":1731:1747   */\n      add\n        /* \"#utility.yul\":1724:1751   */\n      mstore\n        /* \"#utility.yul\":1610:1758   */\n      pop\n      pop\n      pop\n      jump\t// out\n        /* \"#utility.yul\":1764:2189   */\n    tag_37:\n        /* \"#utility.yul\":1842:1847   */\n      0x00\n        /* \"#utility.yul\":1867:1933   */\n      tag_83\n        /* \"#utility.yul\":1883:1932   */\n      tag_84\n        /* \"#utility.yul\":1925:1931   */\n      dup5\n        /* \"#utility.yul\":1883:1932   */\n      tag_35\n      jump\t// in\n    tag_84:\n        /* \"#utility.yul\":1867:1933   */\n      tag_34\n      jump\t// in\n    tag_83:\n        /* \"#utility.yul\":1858:1933   */\n      swap1\n      pop\n        /* \"#utility.yul\":1956:1962   */\n      dup3\n        /* \"#utility.yul\":1949:1954   */\n      dup2\n        /* \"#utility.yul\":1942:1963   */\n      mstore\n        /* \"#utility.yul\":1994:1998   */\n      0x20\n        /* \"#utility.yul\":1987:1992   */\n      dup2\n        /* \"#utility.yul\":1983:1999   */\n      add\n        /* \"#utility.yul\":2032:2035   */\n      dup5\n        /* \"#utility.yul\":2023:2029   */\n      dup5\n        /* \"#utility.yul\":2018:2021   */\n      dup5\n        /* \"#utility.yul\":2014:2030   */\n      add\n        /* \"#utility.yul\":2011:2036   */\n      gt\n        /* \"#utility.yul\":2008:2120   */\n      iszero\n      tag_85\n      jumpi\n        /* \"#utility.yul\":2039:2118   */\n      tag_86\n      tag_30\n      jump\t// in\n    tag_86:\n        /* \"#utility.yul\":2008:2120   */\n    tag_85:\n        /* \"#utility.yul\":2129:2183   */\n      tag_87\n        /* \"#utility.yul\":2176:2182   */\n      dup5\n        /* \"#utility.yul\":2171:2174   */\n      dup3\n        /* \"#utility.yul\":2166:2169   */\n      dup6\n        /* \"#utility.yul\":2129:2183   */\n      tag_36\n      jump\t// in\n    tag_87:\n        /* \"#utility.yul\":1848:2189   */\n      pop\n        /* \"#utility.yul\":1764:2189   */\n      swap4\n      swap3\n      pop\n      pop\n      pop\n      jump\t// out\n        /* \"#utility.yul\":2209:2549   */\n    tag_38:\n        /* \"#utility.yul\":2265:2270   */\n      0x00\n        /* \"#utility.yul\":2314:2317   */\n      dup3\n        /* \"#utility.yul\":2307:2311   */\n      0x1f\n        /* \"#utility.yul\":2299:2305   */\n      dup4\n        /* \"#utility.yul\":2295:2312   */\n      add\n        /* \"#utility.yul\":2291:2318   */\n      slt\n        /* \"#utility.yul\":2281:2403   */\n      tag_89\n      jumpi\n        /* \"#utility.yul\":2322:2401   */\n      tag_90\n      tag_29\n      jump\t// in\n    tag_90:\n        /* \"#utility.yul\":2281:2403   */\n    tag_89:\n        /* \"#utility.yul\":2439:2445   */\n      dup2\n        /* \"#utility.yul\":2426:2446   */\n      calldataload\n        /* \"#utility.yul\":2464:2543   */\n      tag_91\n        /* \"#utility.yul\":2539:2542   */\n      dup5\n        /* \"#utility.yul\":2531:2537   */\n      dup3\n        /* \"#utility.yul\":2524:2528   */\n      0x20\n        /* \"#utility.yul\":2516:2522   */\n      dup7\n        /* \"#utility.yul\":2512:2529   */\n      add\n        /* \"#utility.yul\":2464:2543   */\n      tag_37\n      jump\t// in\n    tag_91:\n        /* \"#utility.yul\":2455:2543   */\n      swap2\n      pop\n        /* \"#utility.yul\":2271:2549   */\n      pop\n        /* \"#utility.yul\":2209:2549   */\n      swap3\n      swap2\n      pop\n      pop\n      jump\t// out\n        /* \"#utility.yul\":2555:3389   */\n    tag_7:\n        /* \"#utility.yul\":2643:2649   */\n      0x00\n        /* \"#utility.yul\":2651:2657   */\n      0x00\n        /* \"#utility.yul\":2700:2702   */\n      0x40\n        /* \"#utility.yul\":2688:2697   */\n      dup4\n        /* \"#utility.yul\":2679:2686   */\n      dup6\n        /* \"#utility.yul\":2675:2698   */\n      sub\n        /* \"#utility.yul\":2671:2703   */\n      slt\n        /* \"#utility.yul\":2668:2787   */\n      iszero\n      tag_93\n      jumpi\n        /* \"#utility.yul\":2706:2785   */\n      tag_94\n      tag_27\n      jump\t// in\n    tag_94:\n        /* \"#utility.yul\":2668:2787   */\n    tag_93:\n        /* \"#utility.yul\":2854:2855   */\n      0x00\n        /* \"#utility.yul\":2843:2852   */\n      dup4\n        /* \"#utility.yul\":2839:2856   */\n      add\n        /* \"#utility.yul\":2826:2857   */\n      calldataload\n        /* \"#utility.yul\":2884:2902   */\n      0xffffffffffffffff\n        /* \"#utility.yul\":2876:2882   */\n      dup2\n        /* \"#utility.yul\":2873:2903   */\n      gt\n        /* \"#utility.yul\":2870:2987   */\n      iszero\n      tag_95\n      jumpi\n        /* \"#utility.yul\":2906:2985   */\n      tag_96\n      tag_28\n      jump\t// in\n    tag_96:\n        /* \"#utility.yul\":2870:2987   */\n    tag_95:\n        /* \"#utility.yul\":3011:3074   */\n      tag_97\n        /* \"#utility.yul\":3066:3073   */\n      dup6\n        /* \"#utility.yul\":3057:3063   */\n      dup3\n        /* \"#utility.yul\":3046:3055   */\n      dup7\n        /* \"#utility.yul\":3042:3064   */\n      add\n        /* \"#utility.yul\":3011:3074   */\n      tag_38\n      jump\t// in\n    tag_97:\n        /* \"#utility.yul\":3001:3074   */\n      swap3\n      pop\n        /* \"#utility.yul\":2797:3084   */\n      pop\n        /* \"#utility.yul\":3151:3153   */\n      0x20\n        /* \"#utility.yul\":3140:3149   */\n      dup4\n        /* \"#utility.yul\":3136:3154   */\n      add\n        /* \"#utility.yul\":3123:3155   */\n      calldataload\n        /* \"#utility.yul\":3182:3200   */\n      0xffffffffffffffff\n        /* \"#utility.yul\":3174:3180   */\n      dup2\n        /* \"#utility.yul\":3171:3201   */\n      gt\n        /* \"#utility.yul\":3168:3285   */\n      iszero\n      tag_98\n      jumpi\n        /* \"#utility.yul\":3204:3283   */\n      tag_99\n      tag_28\n      jump\t// in\n    tag_99:\n        /* \"#utility.yul\":3168:3285   */\n    tag_98:\n        /* \"#utility.yul\":3309:3372   */\n      tag_100\n        /* \"#utility.yul\":3364:3371   */\n      dup6\n        /* \"#utility.yul\":3355:3361   */\n      dup3\n        /* \"#utility.yul\":3344:3353   */\n      dup7\n        /* \"#utility.yul\":3340:3362   */\n      add\n        /* \"#utility.yul\":3309:3372   */\n      tag_38\n      jump\t// in\n    tag_100:\n        /* \"#utility.yul\":3299:3372   */\n      swap2\n      pop\n        /* \"#utility.yul\":3094:3382   */\n      pop\n        /* \"#utility.yul\":2555:3389   */\n      swap3\n      pop\n      swap3\n      swap1\n      pop\n      jump\t// out\n        /* \"#utility.yul\":3395:3904   */\n    tag_11:\n        /* \"#utility.yul\":3464:3470   */\n      0x00\n        /* \"#utility.yul\":3513:3515   */\n      0x20\n        /* \"#utility.yul\":3501:3510   */\n      dup3\n        /* \"#utility.yul\":3492:3499   */\n      dup5\n        /* \"#utility.yul\":3488:3511   */\n      sub\n        /* \"#utility.yul\":3484:3516   */\n      slt\n        /* \"#utility.yul\":3481:3600   */\n      iszero\n      tag_102\n      jumpi\n        /* \"#utility.yul\":3519:3598   */\n      tag_103\n      tag_27\n      jump\t// in\n    tag_103:\n        /* \"#utility.yul\":3481:3600   */\n    tag_102:\n        /* \"#utility.yul\":3667:3668   */\n      0x00\n        /* \"#utility.yul\":3656:3665   */\n      dup3\n        /* \"#utility.yul\":3652:3669   */\n      add\n        /* \"#utility.yul\":3639:3670   */\n      calldataload\n        /* \"#utility.yul\":3697:3715   */\n      0xffffffffffffffff\n        /* \"#utility.yul\":3689:3695   */\n      dup2\n        /* \"#utility.yul\":3686:3716   */\n      gt\n        /* \"#utility.yul\":3683:3800   */\n      iszero\n      tag_104\n      jumpi\n        /* \"#utility.yul\":3719:3798   */\n      tag_105\n      tag_28\n      jump\t// in\n    tag_105:\n        /* \"#utility.yul\":3683:3800   */\n    tag_104:\n        /* \"#utility.yul\":3824:3887   */\n      tag_106\n        /* \"#utility.yul\":3879:3886   */\n      dup5\n        /* \"#utility.yul\":3870:3876   */\n      dup3\n        /* \"#utility.yul\":3859:3868   */\n      dup6\n        /* \"#utility.yul\":3855:3877   */\n      add\n        /* \"#utility.yul\":3824:3887   */\n      tag_38\n      jump\t// in\n    tag_106:\n        /* \"#utility.yul\":3814:3887   */\n      swap2\n      pop\n        /* \"#utility.yul\":3610:3897   */\n      pop\n        /* \"#utility.yul\":3395:3904   */\n      swap3\n      swap2\n      pop\n      pop\n      jump\t// out\n        /* \"#utility.yul\":3910:4009   */\n    tag_39:\n        /* \"#utility.yul\":3962:3968   */\n      0x00\n        /* \"#utility.yul\":3996:4001   */\n      dup2\n        /* \"#utility.yul\":3990:4002   */\n      mload\n        /* \"#utility.yul\":3980:4002   */\n      swap1\n      pop\n        /* \"#utility.yul\":3910:4009   */\n      swap2\n      swap1\n      pop\n      jump\t// out\n        /* \"#utility.yul\":4015:4184   */\n    tag_40:\n        /* \"#utility.yul\":4099:4110   */\n      0x00\n        /* \"#utility.yul\":4133:4139   */\n      dup3\n        /* \"#utility.yul\":4128:4131   */\n      dup3\n        /* \"#utility.yul\":4121:4140   */\n      mstore\n        /* \"#utility.yul\":4173:4177   */\n      0x20\n        /* \"#utility.yul\":4168:4171   */\n      dup3\n        /* \"#utility.yul\":4164:4178   */\n      add\n        /* \"#utility.yul\":4149:4178   */\n      swap1\n      pop\n        /* \"#utility.yul\":4015:4184   */\n      swap3\n      swap2\n      pop\n      pop\n      jump\t// out\n        /* \"#utility.yul\":4190:4329   */\n    tag_41:\n        /* \"#utility.yul\":4279:4285   */\n      dup3\n        /* \"#utility.yul\":4274:4277   */\n      dup2\n        /* \"#utility.yul\":4269:4272   */\n      dup4\n        /* \"#utility.yul\":4263:4286   */\n      mcopy\n        /* \"#utility.yul\":4320:4321   */\n      0x00\n        /* \"#utility.yul\":4311:4317   */\n      dup4\n        /* \"#utility.yul\":4306:4309   */\n      dup4\n        /* \"#utility.yul\":4302:4318   */\n      add\n        /* \"#utility.yul\":4295:4322   */\n      mstore\n        /* \"#utility.yul\":4190:4329   */\n      pop\n      pop\n      pop\n      jump\t// out\n        /* \"#utility.yul\":4335:4712   */\n    tag_42:\n        /* \"#utility.yul\":4423:4426   */\n      0x00\n        /* \"#utility.yul\":4451:4490   */\n      tag_111\n        /* \"#utility.yul\":4484:4489   */\n      dup3\n        /* \"#utility.yul\":4451:4490   */\n      tag_39\n      jump\t// in\n    tag_111:\n        /* \"#utility.yul\":4506:4577   */\n      tag_112\n        /* \"#utility.yul\":4570:4576   */\n      dup2\n        /* \"#utility.yul\":4565:4568   */\n      dup6\n        /* \"#utility.yul\":4506:4577   */\n      tag_40\n      jump\t// in\n    tag_112:\n        /* \"#utility.yul\":4499:4577   */\n      swap4\n      pop\n        /* \"#utility.yul\":4586:4651   */\n      tag_113\n        /* \"#utility.yul\":4644:4650   */\n      dup2\n        /* \"#utility.yul\":4639:4642   */\n      dup6\n        /* \"#utility.yul\":4632:4636   */\n      0x20\n        /* \"#utility.yul\":4625:4630   */\n      dup7\n        /* \"#utility.yul\":4621:4637   */\n      add\n        /* \"#utility.yul\":4586:4651   */\n      tag_41\n      jump\t// in\n    tag_113:\n        /* \"#utility.yul\":4676:4705   */\n      tag_114\n        /* \"#utility.yul\":4698:4704   */\n      dup2\n        /* \"#utility.yul\":4676:4705   */\n      tag_31\n      jump\t// in\n    tag_114:\n        /* \"#utility.yul\":4671:4674   */\n      dup5\n        /* \"#utility.yul\":4667:4706   */\n      add\n        /* \"#utility.yul\":4660:4706   */\n      swap2\n      pop\n        /* \"#utility.yul\":4427:4712   */\n      pop\n        /* \"#utility.yul\":4335:4712   */\n      swap3\n      swap2\n      pop\n      pop\n      jump\t// out\n        /* \"#utility.yul\":4718:5031   */\n    tag_14:\n        /* \"#utility.yul\":4831:4835   */\n      0x00\n        /* \"#utility.yul\":4869:4871   */\n      0x20\n        /* \"#utility.yul\":4858:4867   */\n      dup3\n        /* \"#utility.yul\":4854:4872   */\n      add\n        /* \"#utility.yul\":4846:4872   */\n      swap1\n      pop\n        /* \"#utility.yul\":4918:4927   */\n      dup2\n        /* \"#utility.yul\":4912:4916   */\n      dup2\n        /* \"#utility.yul\":4908:4928   */\n      sub\n        /* \"#utility.yul\":4904:4905   */\n      0x00\n        /* \"#utility.yul\":4893:4902   */\n      dup4\n        /* \"#utility.yul\":4889:4906   */\n      add\n        /* \"#utility.yul\":4882:4929   */\n      mstore\n        /* \"#utility.yul\":4946:5024   */\n      tag_116\n        /* \"#utility.yul\":5019:5023   */\n      dup2\n        /* \"#utility.yul\":5010:5016   */\n      dup5\n        /* \"#utility.yul\":4946:5024   */\n      tag_42\n      jump\t// in\n    tag_116:\n        /* \"#utility.yul\":4938:5024   */\n      swap1\n      pop\n        /* \"#utility.yul\":4718:5031   */\n      swap3\n      swap2\n      pop\n      pop\n      jump\t// out\n        /* \"#utility.yul\":5037:5185   */\n    tag_43:\n        /* \"#utility.yul\":5139:5150   */\n      0x00\n        /* \"#utility.yul\":5176:5179   */\n      dup2\n        /* \"#utility.yul\":5161:5179   */\n      swap1\n      pop\n        /* \"#utility.yul\":5037:5185   */\n      swap3\n      swap2\n      pop\n      pop\n      jump\t// out\n        /* \"#utility.yul\":5191:5581   */\n    tag_44:\n        /* \"#utility.yul\":5297:5300   */\n      0x00\n        /* \"#utility.yul\":5325:5364   */\n      tag_119\n        /* \"#utility.yul\":5358:5363   */\n      dup3\n        /* \"#utility.yul\":5325:5364   */\n      tag_39\n      jump\t// in\n    tag_119:\n        /* \"#utility.yul\":5380:5469   */\n      tag_120\n        /* \"#utility.yul\":5462:5468   */\n      dup2\n        /* \"#utility.yul\":5457:5460   */\n      dup6\n        /* \"#utility.yul\":5380:5469   */\n      tag_43\n      jump\t// in\n    tag_120:\n        /* \"#utility.yul\":5373:5469   */\n      swap4\n      pop\n        /* \"#utility.yul\":5478:5543   */\n      tag_121\n        /* \"#utility.yul\":5536:5542   */\n      dup2\n        /* \"#utility.yul\":5531:5534   */\n      dup6\n        /* \"#utility.yul\":5524:5528   */\n      0x20\n        /* \"#utility.yul\":5517:5522   */\n      dup7\n        /* \"#utility.yul\":5513:5529   */\n      add\n        /* \"#utility.yul\":5478:5543   */\n      tag_41\n      jump\t// in\n    tag_121:\n        /* \"#utility.yul\":5568:5574   */\n      dup1\n        /* \"#utility.yul\":5563:5566   */\n      dup5\n        /* \"#utility.yul\":5559:5575   */\n      add\n        /* \"#utility.yul\":5552:5575   */\n      swap2\n      pop\n        /* \"#utility.yul\":5301:5581   */\n      pop\n        /* \"#utility.yul\":5191:5581   */\n      swap3\n      swap2\n      pop\n      pop\n      jump\t// out\n        /* \"#utility.yul\":5587:5862   */\n    tag_17:\n        /* \"#utility.yul\":5719:5722   */\n      0x00\n        /* \"#utility.yul\":5741:5836   */\n      tag_123\n        /* \"#utility.yul\":5832:5835   */\n      dup3\n        /* \"#utility.yul\":5823:5829   */\n      dup5\n        /* \"#utility.yul\":5741:5836   */\n      tag_44\n      jump\t// in\n    tag_123:\n        /* \"#utility.yul\":5734:5836   */\n      swap2\n      pop\n        /* \"#utility.yul\":5853:5856   */\n      dup2\n        /* \"#utility.yul\":5846:5856   */\n      swap1\n      pop\n        /* \"#utility.yul\":5587:5862   */\n      swap3\n      swap2\n      pop\n      pop\n      jump\t// out\n        /* \"#utility.yul\":5868:6048   */\n    tag_45:\n        /* \"#utility.yul\":5916:5993   */\n      0x4e487b7100000000000000000000000000000000000000000000000000000000\n        /* \"#utility.yul\":5913:5914   */\n      0x00\n        /* \"#utility.yul\":5906:5994   */\n      mstore\n        /* \"#utility.yul\":6013:6017   */\n      0x22\n        /* \"#utility.yul\":6010:6011   */\n      0x04\n        /* \"#utility.yul\":6003:6018   */\n      mstore\n        /* \"#utility.yul\":6037:6041   */\n      0x24\n        /* \"#utility.yul\":6034:6035   */\n      0x00\n        /* \"#utility.yul\":6027:6042   */\n      revert\n        /* \"#utility.yul\":6054:6374   */\n    tag_21:\n        /* \"#utility.yul\":6098:6104   */\n      0x00\n        /* \"#utility.yul\":6135:6136   */\n      0x02\n        /* \"#utility.yul\":6129:6133   */\n      dup3\n        /* \"#utility.yul\":6125:6137   */\n      div\n        /* \"#utility.yul\":6115:6137   */\n      swap1\n      pop\n        /* \"#utility.yul\":6182:6183   */\n      0x01\n        /* \"#utility.yul\":6176:6180   */\n      dup3\n        /* \"#utility.yul\":6172:6184   */\n      and\n        /* \"#utility.yul\":6203:6221   */\n      dup1\n        /* \"#utility.yul\":6193:6274   */\n      tag_126\n      jumpi\n        /* \"#utility.yul\":6259:6263   */\n      0x7f\n        /* \"#utility.yul\":6251:6257   */\n      dup3\n        /* \"#utility.yul\":6247:6264   */\n      and\n        /* \"#utility.yul\":6237:6264   */\n      swap2\n      pop\n        /* \"#utility.yul\":6193:6274   */\n    tag_126:\n        /* \"#utility.yul\":6321:6323   */\n      0x20\n        /* \"#utility.yul\":6313:6319   */\n      dup3\n        /* \"#utility.yul\":6310:6324   */\n      lt\n        /* \"#utility.yul\":6290:6308   */\n      dup2\n        /* \"#utility.yul\":6287:6325   */\n      sub\n        /* \"#utility.yul\":6284:6368   */\n      tag_127\n      jumpi\n        /* \"#utility.yul\":6340:6358   */\n      tag_128\n      tag_45\n      jump\t// in\n    tag_128:\n        /* \"#utility.yul\":6284:6368   */\n    tag_127:\n        /* \"#utility.yul\":6105:6374   */\n      pop\n        /* \"#utility.yul\":6054:6374   */\n      swap2\n      swap1\n      pop\n      jump\t// out\n        /* \"#utility.yul\":6380:6521   */\n    tag_46:\n        /* \"#utility.yul\":6429:6433   */\n      0x00\n        /* \"#utility.yul\":6452:6455   */\n      dup2\n        /* \"#utility.yul\":6444:6455   */\n      swap1\n      pop\n        /* \"#utility.yul\":6475:6478   */\n      dup2\n        /* \"#utility.yul\":6472:6473   */\n      0x00\n        /* \"#utility.yul\":6465:6479   */\n      mstore\n        /* \"#utility.yul\":6509:6513   */\n      0x20\n        /* \"#utility.yul\":6506:6507   */\n      0x00\n        /* \"#utility.yul\":6496:6514   */\n      keccak256\n        /* \"#utility.yul\":6488:6514   */\n      swap1\n      pop\n        /* \"#utility.yul\":6380:6521   */\n      swap2\n      swap1\n      pop\n      jump\t// out\n        /* \"#utility.yul\":6527:6620   */\n    tag_47:\n        /* \"#utility.yul\":6564:6570   */\n      0x00\n        /* \"#utility.yul\":6611:6613   */\n      0x20\n        /* \"#utility.yul\":6606:6608   */\n      0x1f\n        /* \"#utility.yul\":6599:6604   */\n      dup4\n        /* \"#utility.yul\":6595:6609   */\n      add\n        /* \"#utility.yul\":6591:6614   */\n      div\n        /* \"#utility.yul\":6581:6614   */\n      swap1\n      pop\n        /* \"#utility.yul\":6527:6620   */\n      swap2\n      swap1\n      pop\n      jump\t// out\n        /* \"#utility.yul\":6626:6733   */\n    tag_48:\n        /* \"#utility.yul\":6670:6678   */\n      0x00\n        /* \"#utility.yul\":6720:6725   */\n      dup3\n        /* \"#utility.yul\":6714:6718   */\n      dup3\n        /* \"#utility.yul\":6710:6726   */\n      shl\n        /* \"#utility.yul\":6689:6726   */\n      swap1\n      pop\n        /* \"#utility.yul\":6626:6733   */\n      swap3\n      swap2\n      pop\n      pop\n      jump\t// out\n        /* \"#utility.yul\":6739:7132   */\n    tag_49:\n        /* \"#utility.yul\":6808:6814   */\n      0x00\n        /* \"#utility.yul\":6858:6859   */\n      0x08\n        /* \"#utility.yul\":6846:6856   */\n      dup4\n        /* \"#utility.yul\":6842:6860   */\n      mul\n        /* \"#utility.yul\":6881:6978   */\n      tag_133\n        /* \"#utility.yul\":6911:6977   */\n      0xffffffffffffffffffffffffffffffffffffffffffffffffffffffffffffffff\n        /* \"#utility.yul\":6900:6909   */\n      dup3\n        /* \"#utility.yul\":6881:6978   */\n      tag_48\n      jump\t// in\n    tag_133:\n        /* \"#utility.yul\":6999:7038   */\n      tag_134\n        /* \"#utility.yul\":7029:7037   */\n      dup7\n        /* \"#utility.yul\":7018:7027   */\n      dup4\n        /* \"#utility.yul\":6999:7038   */\n      tag_48\n      jump\t// in\n    tag_134:\n        /* \"#utility.yul\":6987:7038   */\n      swap6\n      pop\n        /* \"#utility.yul\":7071:7075   */\n      dup1\n        /* \"#utility.yul\":7067:7076   */\n      not\n        /* \"#utility.yul\":7060:7065   */\n      dup5\n        /* \"#utility.yul\":7056:7077   */\n      and\n        /* \"#utility.yul\":7047:7077   */\n      swap4\n      pop\n        /* \"#utility.yul\":7120:7124   */\n      dup1\n        /* \"#utility.yul\":7110:7118   */\n      dup7\n        /* \"#utility.yul\":7106:7125   */\n      and\n        /* \"#utility.yul\":7099:7104   */\n      dup5\n        /* \"#utility.yul\":7096:7126   */\n      or\n        /* \"#utility.yul\":7086:7126   */\n      swap3\n      pop\n        /* \"#utility.yul\":6815:7132   */\n      pop\n      pop\n        /* \"#utility.yul\":6739:7132   */\n      swap4\n      swap3\n      pop\n      pop\n      pop\n      jump\t// out\n        /* \"#utility.yul\":7138:7215   */\n    tag_50:\n        /* \"#utility.yul\":7175:7182   */\n      0x00\n        /* \"#utility.yul\":7204:7209   */\n      dup2\n        /* \"#utility.yul\":7193:7209   */\n      swap1\n      pop\n        /* \"#utility.yul\":7138:7215   */\n      swap2\n      swap1\n      pop\n      jump\t// out\n        /* \"#utility.yul\":7221:7281   */\n    tag_51:\n        /* \"#utility.yul\":7249:7252   */\n      0x00\n        /* \"#utility.yul\":7270:7275   */\n      dup2\n        /* \"#utility.yul\":7263:7275   */\n      swap1\n      pop\n        /* \"#utility.yul\":7221:7281   */\n      swap2\n      swap1\n      pop\n      jump\t// out\n        /* \"#utility.yul\":7287:7429   */\n    tag_52:\n        /* \"#utility.yul\":7337:7346   */\n      0x00\n        /* \"#utility.yul\":7370:7423   */\n      tag_138\n        /* \"#utility.yul\":7388:7422   */\n      tag_139\n        /* \"#utility.yul\":7397:7421   */\n      tag_140\n        /* \"#utility.yul\":7415:7420   */\n      dup5\n        /* \"#utility.yul\":7397:7421   */\n      tag_50\n      jump\t// in\n    tag_140:\n        /* \"#utility.yul\":7388:7422   */\n      tag_51\n      jump\t// in\n    tag_139:\n        /* \"#utility.yul\":7370:7423   */\n      tag_50\n      jump\t// in\n    tag_138:\n        /* \"#utility.yul\":7357:7423   */\n      swap1\n      pop\n        /* \"#utility.yul\":7287:7429   */\n      swap2\n      swap1\n      pop\n      jump\t// out\n        /* \"#utility.yul\":7435:7510   */\n    tag_53:\n        /* \"#utility.yul\":7478:7481   */\n      0x00\n        /* \"#utility.yul\":7499:7504   */\n      dup2\n        /* \"#utility.yul\":7492:7504   */\n      swap1\n      pop\n        /* \"#utility.yul\":7435:7510   */\n      swap2\n      swap1\n      pop\n      jump\t// out\n        /* \"#utility.yul\":7516:7785   */\n    tag_54:\n        /* \"#utility.yul\":7626:7665   */\n      tag_143\n        /* \"#utility.yul\":7657:7664   */\n      dup4\n        /* \"#utility.yul\":7626:7665   */\n      tag_52\n      jump\t// in\n    tag_143:\n        /* \"#utility.yul\":7687:7778   */\n      tag_144\n        /* \"#utility.yul\":7736:7777   */\n      tag_145\n        /* \"#utility.yul\":7760:7776   */\n      dup3\n        /* \"#utility.yul\":7736:7777   */\n      tag_53\n      jump\t// in\n    tag_145:\n        /* \"#utility.yul\":7728:7734   */\n      dup5\n        /* \"#utility.yul\":7721:7725   */\n      dup5\n        /* \"#utility.yul\":7715:7726   */\n      sload\n        /* \"#utility.yul\":7687:7778   */\n      tag_49\n      jump\t// in\n    tag_144:\n        /* \"#utility.yul\":7681:7685   */\n      dup3\n        /* \"#utility.yul\":7674:7779   */\n      sstore\n        /* \"#utility.yul\":7592:7785   */\n      pop\n        /* \"#utility.yul\":7516:7785   */\n      pop\n      pop\n      pop\n      jump\t// out\n        /* \"#utility.yul\":7791:7864   */\n    tag_55:\n        /* \"#utility.yul\":7836:7839   */\n      0x00\n        /* \"#utility.yul\":7857:7858   */\n      0x00\n        /* \"#utility.yul\":7850:7858   */\n      swap1\n      pop\n        /* \"#utility.yul\":7791:7864   */\n      swap1\n      jump\t// out\n        /* \"#utility.yul\":7870:8059   */\n    tag_56:\n        /* \"#utility.yul\":7947:7979   */\n      tag_148\n      tag_55\n      jump\t// in\n    tag_148:\n        /* \"#utility.yul\":7988:8053   */\n      tag_149\n        /* \"#utility.yul\":8046:8052   */\n      dup2\n        /* \"#utility.yul\":8038:8044   */\n      dup5\n        /* \"#utility.yul\":8032:8036   */\n      dup5\n        /* \"#utility.yul\":7988:8053   */\n      tag_54\n      jump\t// in\n    tag_149:\n        /* \"#utility.yul\":7923:8059   */\n      pop\n        /* \"#utility.yul\":7870:8059   */\n      pop\n      pop\n      jump\t// out\n        /* \"#utility.yul\":8065:8251   */\n    tag_57:\n        /* \"#utility.yul\":8125:8245   */\n    tag_151:\n        /* \"#utility.yul\":8142:8145   */\n      dup2\n        /* \"#utility.yul\":8135:8140   */\n      dup2\n        /* \"#utility.yul\":8132:8146   */\n      lt\n        /* \"#utility.yul\":8125:8245   */\n      iszero\n      tag_153\n      jumpi\n        /* \"#utility.yul\":8196:8235   */\n      tag_154\n        /* \"#utility.yul\":8233:8234   */\n      0x00\n        /* \"#utility.yul\":8226:8231   */\n      dup3\n        /* \"#utility.yul\":8196:8235   */\n      tag_56\n      jump\t// in\n    tag_154:\n        /* \"#utility.yul\":8169:8170   */\n      0x01\n        /* \"#utility.yul\":8162:8167   */\n      dup2\n        /* \"#utility.yul\":8158:8171   */\n      add\n        /* \"#utility.yul\":8149:8171   */\n      swap1\n      pop\n        /* \"#utility.yul\":8125:8245   */\n      jump(tag_151)\n    tag_153:\n        /* \"#utility.yul\":8065:8251   */\n      pop\n      pop\n      jump\t// out\n        /* \"#utility.yul\":8257:8800   */\n    tag_58:\n        /* \"#utility.yul\":8358:8360   */\n      0x1f\n        /* \"#utility.yul\":8353:8356   */\n      dup3\n        /* \"#utility.yul\":8350:8361   */\n      gt\n        /* \"#utility.yul\":8347:8793   */\n      iszero\n      tag_156\n      jumpi\n        /* \"#utility.yul\":8392:8430   */\n      tag_157\n        /* \"#utility.yul\":8424:8429   */\n      dup2\n        /* \"#utility.yul\":8392:8430   */\n      tag_46\n      jump\t// in\n    tag_157:\n        /* \"#utility.yul\":8476:8505   */\n      tag_158\n        /* \"#utility.yul\":8494:8504   */\n      dup5\n        /* \"#utility.yul\":8476:8505   */\n      tag_47\n      jump\t// in\n    tag_158:\n        /* \"#utility.yul\":8466:8474   */\n      dup2\n        /* \"#utility.yul\":8462:8506   */\n      add\n        /* \"#utility.yul\":8659:8661   */\n      0x20\n        /* \"#utility.yul\":8647:8657   */\n      dup6\n        /* \"#utility.yul\":8644:8662   */\n      lt\n        /* \"#utility.yul\":8641:8690   */\n      iszero\n      tag_159\n      jumpi\n        /* \"#utility.yul\":8680:8688   */\n      dup2\n        /* \"#utility.yul\":8665:8688   */\n      swap1\n      pop\n        /* \"#utility.yul\":8641:8690   */\n    tag_159:\n        /* \"#utility.yul\":8703:8783   */\n      tag_160\n        /* \"#utility.yul\":8759:8781   */\n      tag_161\n        /* \"#utility.yul\":8777:8780   */\n      dup6\n        /* \"#utility.yul\":8759:8781   */\n      tag_47\n      jump\t// in\n    tag_161:\n        /* \"#utility.yul\":8749:8757   */\n      dup4\n        /* \"#utility.yul\":8745:8782   */\n      add\n        /* \"#utility.yul\":8732:8743   */\n      dup3\n        /* \"#utility.yul\":8703:8783   */\n      tag_57\n      jump\t// in\n    tag_160:\n        /* \"#utility.yul\":8362:8793   */\n      pop\n      pop\n        /* \"#utility.yul\":8347:8793   */\n    tag_156:\n        /* \"#utility.yul\":8257:8800   */\n      pop\n      pop\n      pop\n      jump\t// out\n        /* \"#utility.yul\":8806:8923   */\n    tag_59:\n        /* \"#utility.yul\":8860:8868   */\n      0x00\n        /* \"#utility.yul\":8910:8915   */\n      dup3\n        /* \"#utility.yul\":8904:8908   */\n      dup3\n        /* \"#utility.yul\":8900:8916   */\n      shr\n        /* \"#utility.yul\":8879:8916   */\n      swap1\n      pop\n        /* \"#utility.yul\":8806:8923   */\n      swap3\n      swap2\n      pop\n      pop\n      jump\t// out\n        /* \"#utility.yul\":8929:9098   */\n    tag_60:\n        /* \"#utility.yul\":8973:8979   */\n      0x00\n        /* \"#utility.yul\":9006:9057   */\n      tag_164\n        /* \"#utility.yul\":9054:9055   */\n      0x00\n        /* \"#utility.yul\":9050:9056   */\n      not\n        /* \"#utility.yul\":9042:9047   */\n      dup5\n        /* \"#utility.yul\":9039:9040   */\n      0x08\n        /* \"#utility.yul\":9035:9048   */\n      mul\n        /* \"#utility.yul\":9006:9057   */\n      tag_59\n      jump\t// in\n    tag_164:\n        /* \"#utility.yul\":9002:9058   */\n      not\n        /* \"#utility.yul\":9087:9091   */\n      dup1\n        /* \"#utility.yul\":9081:9085   */\n      dup4\n        /* \"#utility.yul\":9077:9092   */\n      and\n        /* \"#utility.yul\":9067:9092   */\n      swap2\n      pop\n        /* \"#utility.yul\":8980:9098   */\n      pop\n        /* \"#utility.yul\":8929:9098   */\n      swap3\n      swap2\n      pop\n      pop\n      jump\t// out\n        /* \"#utility.yul\":9103:9398   */\n    tag_61:\n        /* \"#utility.yul\":9179:9183   */\n      0x00\n        /* \"#utility.yul\":9325:9354   */\n      tag_166\n        /* \"#utility.yul\":9350:9353   */\n      dup4\n        /* \"#utility.yul\":9344:9348   */\n      dup4\n        /* \"#utility.yul\":9325:9354   */\n      tag_60\n      jump\t// in\n    tag_166:\n        /* \"#utility.yul\":9317:9354   */\n      swap2\n      pop\n        /* \"#utility.yul\":9387:9390   */\n      dup3\n        /* \"#utility.yul\":9384:9385   */\n      0x02\n        /* \"#utility.yul\":9380:9391   */\n      mul\n        /* \"#utility.yul\":9374:9378   */\n      dup3\n        /* \"#utility.yul\":9371:9392   */\n      or\n        /* \"#utility.yul\":9363:9392   */\n      swap1\n      pop\n        /* \"#utility.yul\":9103:9398   */\n      swap3\n      swap2\n      pop\n      pop\n      jump\t// out\n        /* \"#utility.yul\":9403:10798   */\n    tag_19:\n        /* \"#utility.yul\":9520:9557   */\n      tag_168\n        /* \"#utility.yul\":9553:9556   */\n      dup3\n        /* \"#utility.yul\":9520:9557   */\n      tag_39\n      jump\t// in\n    tag_168:\n        /* \"#utility.yul\":9622:9640   */\n      0xffffffffffffffff\n        /* \"#utility.yul\":9614:9620   */\n      dup2\n        /* \"#utility.yul\":9611:9641   */\n      gt\n        /* \"#utility.yul\":9608:9664   */\n      iszero\n      tag_169\n      jumpi\n        /* \"#utility.yul\":9644:9662   */\n      tag_170\n      tag_32\n      jump\t// in\n    tag_170:\n        /* \"#utility.yul\":9608:9664   */\n    tag_169:\n        /* \"#utility.yul\":9688:9726   */\n      tag_171\n        /* \"#utility.yul\":9720:9724   */\n      dup3\n        /* \"#utility.yul\":9714:9725   */\n      sload\n        /* \"#utility.yul\":9688:9726   */\n      tag_21\n      jump\t// in\n    tag_171:\n        /* \"#utility.yul\":9773:9840   */\n      tag_172\n        /* \"#utility.yul\":9833:9839   */\n      dup3\n        /* \"#utility.yul\":9825:9831   */\n      dup3\n        /* \"#utility.yul\":9819:9823   */\n      dup6\n        /* \"#utility.yul\":9773:9840   */\n      tag_58\n      jump\t// in\n    tag_172:\n        /* \"#utility.yul\":9867:9868   */\n      0x00\n        /* \"#utility.yul\":9891:9895   */\n      0x20\n        /* \"#utility.yul\":9878:9895   */\n      swap1\n      pop\n        /* \"#utility.yul\":9923:9925   */\n      0x1f\n        /* \"#utility.yul\":9915:9921   */\n      dup4\n        /* \"#utility.yul\":9912:9926   */\n      gt\n        /* \"#utility.yul\":9940:9941   */\n      0x01\n        /* \"#utility.yul\":9935:10553   */\n      dup2\n      eq\n      tag_174\n      jumpi\n        /* \"#utility.yul\":10597:10598   */\n      0x00\n        /* \"#utility.yul\":10614:10620   */\n      dup5\n        /* \"#utility.yul\":10611:10688   */\n      iszero\n      tag_175\n      jumpi\n        /* \"#utility.yul\":10663:10672   */\n      dup3\n        /* \"#utility.yul\":10658:10661   */\n      dup8\n        /* \"#utility.yul\":10654:10673   */\n      add\n        /* \"#utility.yul\":10648:10674   */\n      mload\n        /* \"#utility.yul\":10639:10674   */\n      swap1\n      pop\n        /* \"#utility.yul\":10611:10688   */\n    tag_175:\n        /* \"#utility.yul\":10714:10781   */\n      tag_176\n        /* \"#utility.yul\":10774:10780   */\n      dup6\n        /* \"#utility.yul\":10767:10772   */\n      dup3\n        /* \"#utility.yul\":10714:10781   */\n      tag_61\n      jump\t// in\n    tag_176:\n        /* \"#utility.yul\":10708:10712   */\n      dup7\n        /* \"#utility.yul\":10701:10782   */\n      sstore\n        /* \"#utility.yul\":10570:10792   */\n      pop\n        /* \"#utility.yul\":9905:10792   */\n      jump(tag_173)\n        /* \"#utility.yul\":9935:10553   */\n    tag_174:\n        /* \"#utility.yul\":9987:9991   */\n      0x1f\n        /* \"#utility.yul\":9983:9992   */\n      not\n        /* \"#utility.yul\":9975:9981   */\n      dup5\n        /* \"#utility.yul\":9971:9993   */\n      and\n        /* \"#utility.yul\":10021:10058   */\n      tag_177\n        /* \"#utility.yul\":10053:10057   */\n      dup7\n        /* \"#utility.yul\":10021:10058   */\n      tag_46\n      jump\t// in\n    tag_177:\n        /* \"#utility.yul\":10080:10081   */\n      0x00\n        /* \"#utility.yul\":10094:10302   */\n    tag_178:\n        /* \"#utility.yul\":10108:10115   */\n      dup3\n        /* \"#utility.yul\":10105:10106   */\n      dup2\n        /* \"#utility.yul\":10102:10116   */\n      lt\n        /* \"#utility.yul\":10094:10302   */\n      iszero\n      tag_180\n      jumpi\n        /* \"#utility.yul\":10187:10196   */\n      dup5\n        /* \"#utility.yul\":10182:10185   */\n      dup10\n        /* \"#utility.yul\":10178:10197   */\n      add\n        /* \"#utility.yul\":10172:10198   */\n      mload\n        /* \"#utility.yul\":10164:10170   */\n      dup3\n        /* \"#utility.yul\":10157:10199   */\n      sstore\n        /* \"#utility.yul\":10238:10239   */\n      0x01\n        /* \"#utility.yul\":10230:10236   */\n      dup3\n        /* \"#utility.yul\":10226:10240   */\n      add\n        /* \"#utility.yul\":10216:10240   */\n      swap2\n      pop\n        /* \"#utility.yul\":10285:10287   */\n      0x20\n        /* \"#utility.yul\":10274:10283   */\n      dup6\n        /* \"#utility.yul\":10270:10288   */\n      add\n        /* \"#utility.yul\":10257:10288   */\n      swap5\n      pop\n        /* \"#utility.yul\":10131:10135   */\n      0x20\n        /* \"#utility.yul\":10128:10129   */\n      dup2\n        /* \"#utility.yul\":10124:10136   */\n      add\n        /* \"#utility.yul\":10119:10136   */\n      swap1\n      pop\n        /* \"#utility.yul\":10094:10302   */\n      jump(tag_178)\n    tag_180:\n        /* \"#utility.yul\":10330:10336   */\n      dup7\n        /* \"#utility.yul\":10321:10328   */\n      dup4\n        /* \"#utility.yul\":10318:10337   */\n      lt\n        /* \"#utility.yul\":10315:10494   */\n      iszero\n      tag_181\n      jumpi\n        /* \"#utility.yul\":10388:10397   */\n      dup5\n        /* \"#utility.yul\":10383:10386   */\n      dup10\n        /* \"#utility.yul\":10379:10398   */\n      add\n        /* \"#utility.yul\":10373:10399   */\n      mload\n        /* \"#utility.yul\":10431:10479   */\n      tag_182\n        /* \"#utility.yul\":10473:10477   */\n      0x1f\n        /* \"#utility.yul\":10465:10471   */\n      dup10\n        /* \"#utility.yul\":10461:10478   */\n      and\n        /* \"#utility.yul\":10450:10459   */\n      dup3\n        /* \"#utility.yul\":10431:10479   */\n      tag_60\n      jump\t// in\n    tag_182:\n        /* \"#utility.yul\":10423:10429   */\n      dup4\n        /* \"#utility.yul\":10416:10480   */\n      sstore\n        /* \"#utility.yul\":10338:10494   */\n      pop\n        /* \"#utility.yul\":10315:10494   */\n    tag_181:\n        /* \"#utility.yul\":10540:10541   */\n      0x01\n        /* \"#utility.yul\":10536:10537   */\n      0x02\n        /* \"#utility.yul\":10528:10534   */\n      dup9\n        /* \"#utility.yul\":10524:10538   */\n      mul\n        /* \"#utility.yul\":10520:10542   */\n      add\n        /* \"#utility.yul\":10514:10518   */\n      dup9\n        /* \"#utility.yul\":10507:10543   */\n      sstore\n        /* \"#utility.yul\":9942:10553   */\n      pop\n      pop\n      pop\n        /* \"#utility.yul\":9905:10792   */\n    tag_173:\n      pop\n        /* \"#utility.yul\":9495:10798   */\n      pop\n      pop\n      pop\n        /* \"#utility.yul\":9403:10798   */\n      pop\n      pop\n      jump\t// out\n\n    auxdata: 0xa2646970667358221220f0f08d8948ea76cd3650f59218c1b7a5b4640abdfecf423fb4bce394a9d62c3b64736f6c634300081e0033\n}\n",
				"bytecode": {
					"linkReferences": {},
					"object": "6080604052348015600e575f5ffd5b5061074a8061001c5f395ff3fe608060405234801561000f575f5ffd5b5060043610610034575f3560e01c806349b46228146100385780637aee326414610054575b5f5ffd5b610052600480360381019061004d91906102b2565b610084565b005b61006e60048036038101906100699190610328565b6100b3565b60405161007b91906103cf565b60405180910390f35b805f836040516100949190610429565b908152602001604051809103902090816100ae9190610645565b505050565b5f818051602081018201805184825260208301602085012081835280955050505050505f9150905080546100e69061046c565b80601f01602080910402602001604051908101604052809291908181526020018280546101129061046c565b801561015d5780601f106101345761010080835404028352916020019161015d565b820191905f5260205f20905b81548152906001019060200180831161014057829003601f168201915b505050505081565b5f604051905090565b5f5ffd5b5f5ffd5b5f5ffd5b5f5ffd5b5f601f19601f8301169050919050565b7f4e487b71000000000000000000000000000000000000000000000000000000005f52604160045260245ffd5b6101c48261017e565b810181811067ffffffffffffffff821117156101e3576101e261018e565b5b80604052505050565b5f6101f5610165565b905061020182826101bb565b919050565b5f67ffffffffffffffff8211156102205761021f61018e565b5b6102298261017e565b9050602081019050919050565b828183375f83830152505050565b5f61025661025184610206565b6101ec565b9050828152602081018484840111156102725761027161017a565b5b61027d848285610236565b509392505050565b5f82601f83011261029957610298610176565b5b81356102a9848260208601610244565b91505092915050565b5f5f604083850312156102c8576102c761016e565b5b5f83013567ffffffffffffffff8111156102e5576102e4610172565b5b6102f185828601610285565b925050602083013567ffffffffffffffff81111561031257610311610172565b5b61031e85828601610285565b9150509250929050565b5f6020828403121561033d5761033c61016e565b5b5f82013567ffffffffffffffff81111561035a57610359610172565b5b61036684828501610285565b91505092915050565b5f81519050919050565b5f82825260208201905092915050565b8281835e5f83830152505050565b5f6103a18261036f565b6103ab8185610379565b93506103bb818560208601610389565b6103c48161017e565b840191505092915050565b5f6020820190508181035f8301526103e78184610397565b905092915050565b5f81905092915050565b5f6104038261036f565b61040d81856103ef565b935061041d818560208601610389565b80840191505092915050565b5f61043482846103f9565b915081905092915050565b7f4e487b71000000000000000000000000000000000000000000000000000000005f52602260045260245ffd5b5f600282049050600182168061048357607f821691505b6020821081036104965761049561043f565b5b50919050565b5f819050815f5260205f209050919050565b5f6020601f8301049050919050565b5f82821b905092915050565b5f600883026104f87fffffffffffffffffffffffffffffffffffffffffffffffffffffffffffffffff826104bd565b61050286836104bd565b95508019841693508086168417925050509392505050565b5f819050919050565b5f819050919050565b5f61054661054161053c8461051a565b610523565b61051a565b9050919050565b5f819050919050565b61055f8361052c565b61057361056b8261054d565b8484546104c9565b825550505050565b5f5f905090565b61058a61057b565b610595818484610556565b505050565b5b818110156105b8576105ad5f82610582565b60018101905061059b565b5050565b601f8211156105fd576105ce8161049c565b6105d7846104ae565b810160208510156105e6578190505b6105fa6105f2856104ae565b83018261059a565b50505b505050565b5f82821c905092915050565b5f61061d5f1984600802610602565b1980831691505092915050565b5f610635838361060e565b9150826002028217905092915050565b61064e8261036f565b67ffffffffffffffff8111156106675761066661018e565b5b610671825461046c565b61067c8282856105bc565b5f60209050601f8311600181146106ad575f841561069b578287015190505b6106a5858261062a565b86555061070c565b601f1984166106bb8661049c565b5f5b828110156106e2578489015182556001820191506020850194506020810190506106bd565b868310156106ff57848901516106fb601f89168261060e565b8355505b6001600288020188555050505b50505050505056fea2646970667358221220f0f08d8948ea76cd3650f59218c1b7a5b4640abdfecf423fb4bce394a9d62c3b64736f6c634300081e0033",
					"opcodes": "PUSH1 0x80 PUSH1 0x40 MSTORE CALLVALUE DUP1 ISZERO PUSH1 0xE JUMPI PUSH0 PUSH0 REVERT JUMPDEST POP PUSH2 0x74A DUP1 PUSH2 0x1C PUSH0 CODECOPY PUSH0 RETURN INVALID PUSH1 0x80 PUSH1 0x40 MSTORE CALLVALUE DUP1 ISZERO PUSH2 0xF JUMPI PUSH0 PUSH0 REVERT JUMPDEST POP PUSH1 0x4 CALLDATASIZE LT PUSH2 0x34 JUMPI PUSH0 CALLDATALOAD PUSH1 0xE0 SHR DUP1 PUSH4 0x49B46228 EQ PUSH2 0x38 JUMPI DUP1 PUSH4 0x7AEE3264 EQ PUSH2 0x54 JUMPI JUMPDEST PUSH0 PUSH0 REVERT JUMPDEST PUSH2 0x52 PUSH1 0x4 DUP1 CALLDATASIZE SUB DUP2 ADD SWAP1 PUSH2 0x4D SWAP2 SWAP1 PUSH2 0x2B2 JUMP JUMPDEST PUSH2 0x84 JUMP JUMPDEST STOP JUMPDEST PUSH2 0x6E PUSH1 0x4 DUP1 CALLDATASIZE SUB DUP2 ADD SWAP1 PUSH2 0x69 SWAP2 SWAP1 PUSH2 0x328 JUMP JUMPDEST PUSH2 0xB3 JUMP JUMPDEST PUSH1 0x40 MLOAD PUSH2 0x7B SWAP2 SWAP1 PUSH2 0x3CF JUMP JUMPDEST PUSH1 0x40 MLOAD DUP1 SWAP2 SUB SWAP1 RETURN JUMPDEST DUP1 PUSH0 DUP4 PUSH1 0x40 MLOAD PUSH2 0x94 SWAP2 SWAP1 PUSH2 0x429 JUMP JUMPDEST SWAP1 DUP2 MSTORE PUSH1 0x20 ADD PUSH1 0x40 MLOAD DUP1 SWAP2 SUB SWAP1 KECCAK256 SWAP1 DUP2 PUSH2 0xAE SWAP2 SWAP1 PUSH2 0x645 JUMP JUMPDEST POP POP POP JUMP JUMPDEST PUSH0 DUP2 DUP1 MLOAD PUSH1 0x20 DUP2 ADD DUP3 ADD DUP1 MLOAD DUP5 DUP3 MSTORE PUSH1 0x20 DUP4 ADD PUSH1 0x20 DUP6 ADD KECCAK256 DUP2 DUP4 MSTORE DUP1 SWAP6 POP POP POP POP POP POP PUSH0 SWAP2 POP SWAP1 POP DUP1 SLOAD PUSH2 0xE6 SWAP1 PUSH2 0x46C JUMP JUMPDEST DUP1 PUSH1 0x1F ADD PUSH1 0x20 DUP1 SWAP2 DIV MUL PUSH1 0x20 ADD PUSH1 0x40 MLOAD SWAP1 DUP2 ADD PUSH1 0x40 MSTORE DUP1 SWAP3 SWAP2 SWAP1 DUP2 DUP2 MSTORE PUSH1 0x20 ADD DUP3 DUP1 SLOAD PUSH2 0x112 SWAP1 PUSH2 0x46C JUMP JUMPDEST DUP1 ISZERO PUSH2 0x15D JUMPI DUP1 PUSH1 0x1F LT PUSH2 0x134 JUMPI PUSH2 0x100 DUP1 DUP4 SLOAD DIV MUL DUP4 MSTORE SWAP2 PUSH1 0x20 ADD SWAP2 PUSH2 0x15D JUMP JUMPDEST DUP3 ADD SWAP2 SWAP1 PUSH0 MSTORE PUSH1 0x20 PUSH0 KECCAK256 SWAP1 JUMPDEST DUP2 SLOAD DUP2 MSTORE SWAP1 PUSH1 0x1 ADD SWAP1 PUSH1 0x20 ADD DUP1 DUP4 GT PUSH2 0x140 JUMPI DUP3 SWAP1 SUB PUSH1 0x1F AND DUP3 ADD SWAP2 JUMPDEST POP POP POP POP POP DUP2 JUMP JUMPDEST PUSH0 PUSH1 0x40 MLOAD SWAP1 POP SWAP1 JUMP JUMPDEST PUSH0 PUSH0 REVERT JUMPDEST PUSH0 PUSH0 REVERT JUMPDEST PUSH0 PUSH0 REVERT JUMPDEST PUSH0 PUSH0 REVERT JUMPDEST PUSH0 PUSH1 0x1F NOT PUSH1 0x1F DUP4 ADD AND SWAP1 POP SWAP2 SWAP1 POP JUMP JUMPDEST PUSH32 0x4E487B7100000000000000000000000000000000000000000000000000000000 PUSH0 MSTORE PUSH1 0x41 PUSH1 0x4 MSTORE PUSH1 0x24 PUSH0 REVERT JUMPDEST PUSH2 0x1C4 DUP3 PUSH2 0x17E JUMP JUMPDEST DUP2 ADD DUP2 DUP2 LT PUSH8 0xFFFFFFFFFFFFFFFF DUP3 GT OR ISZERO PUSH2 0x1E3 JUMPI PUSH2 0x1E2 PUSH2 0x18E JUMP JUMPDEST JUMPDEST DUP1 PUSH1 0x40 MSTORE POP POP POP JUMP JUMPDEST PUSH0 PUSH2 0x1F5 PUSH2 0x165 JUMP JUMPDEST SWAP1 POP PUSH2 0x201 DUP3 DUP3 PUSH2 0x1BB JUMP JUMPDEST SWAP2 SWAP1 POP JUMP JUMPDEST PUSH0 PUSH8 0xFFFFFFFFFFFFFFFF DUP3 GT ISZERO PUSH2 0x220 JUMPI PUSH2 0x21F PUSH2 0x18E JUMP JUMPDEST JUMPDEST PUSH2 0x229 DUP3 PUSH2 0x17E JUMP JUMPDEST SWAP1 POP PUSH1 0x20 DUP2 ADD SWAP1 POP SWAP2 SWAP1 POP JUMP JUMPDEST DUP3 DUP2 DUP4 CALLDATACOPY PUSH0 DUP4 DUP4 ADD MSTORE POP POP POP JUMP JUMPDEST PUSH0 PUSH2 0x256 PUSH2 0x251 DUP5 PUSH2 0x206 JUMP JUMPDEST PUSH2 0x1EC JUMP JUMPDEST SWAP1 POP DUP3 DUP2 MSTORE PUSH1 0x20 DUP2 ADD DUP5 DUP5 DUP5 ADD GT ISZERO PUSH2 0x272 JUMPI PUSH2 0x271 PUSH2 0x17A JUMP JUMPDEST JUMPDEST PUSH2 0x27D DUP5 DUP3 DUP6 PUSH2 0x236 JUMP JUMPDEST POP SWAP4 SWAP3 POP POP POP JUMP JUMPDEST PUSH0 DUP3 PUSH1 0x1F DUP4 ADD SLT PUSH2 0x299 JUMPI PUSH2 0x298 PUSH2 0x176 JUMP JUMPDEST JUMPDEST DUP2 CALLDATALOAD PUSH2 0x2A9 DUP5 DUP3 PUSH1 0x20 DUP7 ADD PUSH2 0x244 JUMP JUMPDEST SWAP2 POP POP SWAP3 SWAP2 POP POP JUMP JUMPDEST PUSH0 PUSH0 PUSH1 0x40 DUP4 DUP6 SUB SLT ISZERO PUSH2 0x2C8 JUMPI PUSH2 0x2C7 PUSH2 0x16E JUMP JUMPDEST JUMPDEST PUSH0 DUP4 ADD CALLDATALOAD PUSH8 0xFFFFFFFFFFFFFFFF DUP2 GT ISZERO PUSH2 0x2E5 JUMPI PUSH2 0x2E4 PUSH2 0x172 JUMP JUMPDEST JUMPDEST PUSH2 0x2F1 DUP6 DUP3 DUP7 ADD PUSH2 0x285 JUMP JUMPDEST SWAP3 POP POP PUSH1 0x20 DUP4 ADD CALLDATALOAD PUSH8 0xFFFFFFFFFFFFFFFF DUP2 GT ISZERO PUSH2 0x312 JUMPI PUSH2 0x311 PUSH2 0x172 JUMP JUMPDEST JUMPDEST PUSH2 0x31E DUP6 DUP3 DUP7 ADD PUSH2 0x285 JUMP JUMPDEST SWAP2 POP POP SWAP3 POP SWAP3 SWAP1 POP JUMP JUMPDEST PUSH0 PUSH1 0x20 DUP3 DUP5 SUB SLT ISZERO PUSH2 0x33D JUMPI PUSH2 0x33C PUSH2 0x16E JUMP JUMPDEST JUMPDEST PUSH0 DUP3 ADD CALLDATALOAD PUSH8 0xFFFFFFFFFFFFFFFF DUP2 GT ISZERO PUSH2 0x35A JUMPI PUSH2 0x359 PUSH2 0x172 JUMP JUMPDEST JUMPDEST PUSH2 0x366 DUP5 DUP3 DUP6 ADD PUSH2 0x285 JUMP JUMPDEST SWAP2 POP POP SWAP3 SWAP2 POP POP JUMP JUMPDEST PUSH0 DUP2 MLOAD SWAP1 POP SWAP2 SWAP1 POP JUMP JUMPDEST PUSH0 DUP3 DUP3 MSTORE PUSH1 0x20 DUP3 ADD SWAP1 POP SWAP3 SWAP2 POP POP JUMP JUMPDEST DUP3 DUP2 DUP4 MCOPY PUSH0 DUP4 DUP4 ADD MSTORE POP POP POP JUMP JUMPDEST PUSH0 PUSH2 0x3A1 DUP3 PUSH2 0x36F JUMP JUMPDEST PUSH2 0x3AB DUP2 DUP6 PUSH2 0x379 JUMP JUMPDEST SWAP4 POP PUSH2 0x3BB DUP2 DUP6 PUSH1 0x20 DUP7 ADD PUSH2 0x389 JUMP JUMPDEST PUSH2 0x3C4 DUP2 PUSH2 0x17E JUMP JUMPDEST DUP5 ADD SWAP2 POP POP SWAP3 SWAP2 POP POP JUMP JUMPDEST PUSH0 PUSH1 0x20 DUP3 ADD SWAP1 POP DUP2 DUP2 SUB PUSH0 DUP4 ADD MSTORE PUSH2 0x3E7 DUP2 DUP5 PUSH2 0x397 JUMP JUMPDEST SWAP1 POP SWAP3 SWAP2 POP POP JUMP JUMPDEST PUSH0 DUP2 SWAP1 POP SWAP3 SWAP2 POP POP JUMP JUMPDEST PUSH0 PUSH2 0x403 DUP3 PUSH2 0x36F JUMP JUMPDEST PUSH2 0x40D DUP2 DUP6 PUSH2 0x3EF JUMP JUMPDEST SWAP4 POP PUSH2 0x41D DUP2 DUP6 PUSH1 0x20 DUP7 ADD PUSH2 0x389 JUMP JUMPDEST DUP1 DUP5 ADD SWAP2 POP POP SWAP3 SWAP2 POP POP JUMP JUMPDEST PUSH0 PUSH2 0x434 DUP3 DUP5 PUSH2 0x3F9 JUMP JUMPDEST SWAP2 POP DUP2 SWAP1 POP SWAP3 SWAP2 POP POP JUMP JUMPDEST PUSH32 0x4E487B7100000000000000000000000000000000000000000000000000000000 PUSH0 MSTORE PUSH1 0x22 PUSH1 0x4 MSTORE PUSH1 0x24 PUSH0 REVERT JUMPDEST PUSH0 PUSH1 0x2 DUP3 DIV SWAP1 POP PUSH1 0x1 DUP3 AND DUP1 PUSH2 0x483 JUMPI PUSH1 0x7F DUP3 AND SWAP2 POP JUMPDEST PUSH1 0x20 DUP3 LT DUP2 SUB PUSH2 0x496 JUMPI PUSH2 0x495 PUSH2 0x43F JUMP JUMPDEST JUMPDEST POP SWAP2 SWAP1 POP JUMP JUMPDEST PUSH0 DUP2 SWAP1 POP DUP2 PUSH0 MSTORE PUSH1 0x20 PUSH0 KECCAK256 SWAP1 POP SWAP2 SWAP1 POP JUMP JUMPDEST PUSH0 PUSH1 0x20 PUSH1 0x1F DUP4 ADD DIV SWAP1 POP SWAP2 SWAP1 POP JUMP JUMPDEST PUSH0 DUP3 DUP3 SHL SWAP1 POP SWAP3 SWAP2 POP POP JUMP JUMPDEST PUSH0 PUSH1 0x8 DUP4 MUL PUSH2 0x4F8 PUSH32 0xFFFFFFFFFFFFFFFFFFFFFFFFFFFFFFFFFFFFFFFFFFFFFFFFFFFFFFFFFFFFFFFF DUP3 PUSH2 0x4BD JUMP JUMPDEST PUSH2 0x502 DUP7 DUP4 PUSH2 0x4BD JUMP JUMPDEST SWAP6 POP DUP1 NOT DUP5 AND SWAP4 POP DUP1 DUP7 AND DUP5 OR SWAP3 POP POP POP SWAP4 SWAP3 POP POP POP JUMP JUMPDEST PUSH0 DUP2 SWAP1 POP SWAP2 SWAP1 POP JUMP JUMPDEST PUSH0 DUP2 SWAP1 POP SWAP2 SWAP1 POP JUMP JUMPDEST PUSH0 PUSH2 0x546 PUSH2 0x541 PUSH2 0x53C DUP5 PUSH2 0x51A JUMP JUMPDEST PUSH2 0x523 JUMP JUMPDEST PUSH2 0x51A JUMP JUMPDEST SWAP1 POP SWAP2 SWAP1 POP JUMP JUMPDEST PUSH0 DUP2 SWAP1 POP SWAP2 SWAP1 POP JUMP JUMPDEST PUSH2 0x55F DUP4 PUSH2 0x52C JUMP JUMPDEST PUSH2 0x573 PUSH2 0x56B DUP3 PUSH2 0x54D JUMP JUMPDEST DUP5 DUP5 SLOAD PUSH2 0x4C9 JUMP JUMPDEST DUP3 SSTORE POP POP POP POP JUMP JUMPDEST PUSH0 PUSH0 SWAP1 POP SWAP1 JUMP JUMPDEST PUSH2 0x58A PUSH2 0x57B JUMP JUMPDEST PUSH2 0x595 DUP2 DUP5 DUP5 PUSH2 0x556 JUMP JUMPDEST POP POP POP JUMP JUMPDEST JUMPDEST DUP2 DUP2 LT ISZERO PUSH2 0x5B8 JUMPI PUSH2 0x5AD PUSH0 DUP3 PUSH2 0x582 JUMP JUMPDEST PUSH1 0x1 DUP2 ADD SWAP1 POP PUSH2 0x59B JUMP JUMPDEST POP POP JUMP JUMPDEST PUSH1 0x1F DUP3 GT ISZERO PUSH2 0x5FD JUMPI PUSH2 0x5CE DUP2 PUSH2 0x49C JUMP JUMPDEST PUSH2 0x5D7 DUP5 PUSH2 0x4AE JUMP JUMPDEST DUP2 ADD PUSH1 0x20 DUP6 LT ISZERO PUSH2 0x5E6 JUMPI DUP2 SWAP1 POP JUMPDEST PUSH2 0x5FA PUSH2 0x5F2 DUP6 PUSH2 0x4AE JUMP JUMPDEST DUP4 ADD DUP3 PUSH2 0x59A JUMP JUMPDEST POP POP JUMPDEST POP POP POP JUMP JUMPDEST PUSH0 DUP3 DUP3 SHR SWAP1 POP SWAP3 SWAP2 POP POP JUMP JUMPDEST PUSH0 PUSH2 0x61D PUSH0 NOT DUP5 PUSH1 0x8 MUL PUSH2 0x602 JUMP JUMPDEST NOT DUP1 DUP4 AND SWAP2 POP POP SWAP3 SWAP2 POP POP JUMP JUMPDEST PUSH0 PUSH2 0x635 DUP4 DUP4 PUSH2 0x60E JUMP JUMPDEST SWAP2 POP DUP3 PUSH1 0x2 MUL DUP3 OR SWAP1 POP SWAP3 SWAP2 POP POP JUMP JUMPDEST PUSH2 0x64E DUP3 PUSH2 0x36F JUMP JUMPDEST PUSH8 0xFFFFFFFFFFFFFFFF DUP2 GT ISZERO PUSH2 0x667 JUMPI PUSH2 0x666 PUSH2 0x18E JUMP JUMPDEST JUMPDEST PUSH2 0x671 DUP3 SLOAD PUSH2 0x46C JUMP JUMPDEST PUSH2 0x67C DUP3 DUP3 DUP6 PUSH2 0x5BC JUMP JUMPDEST PUSH0 PUSH1 0x20 SWAP1 POP PUSH1 0x1F DUP4 GT PUSH1 0x1 DUP2 EQ PUSH2 0x6AD JUMPI PUSH0 DUP5 ISZERO PUSH2 0x69B JUMPI DUP3 DUP8 ADD MLOAD SWAP1 POP JUMPDEST PUSH2 0x6A5 DUP6 DUP3 PUSH2 0x62A JUMP JUMPDEST DUP7 SSTORE POP PUSH2 0x70C JUMP JUMPDEST PUSH1 0x1F NOT DUP5 AND PUSH2 0x6BB DUP7 PUSH2 0x49C JUMP JUMPDEST PUSH0 JUMPDEST DUP3 DUP2 LT ISZERO PUSH2 0x6E2 JUMPI DUP5 DUP10 ADD MLOAD DUP3 SSTORE PUSH1 0x1 DUP3 ADD SWAP2 POP PUSH1 0x20 DUP6 ADD SWAP5 POP PUSH1 0x20 DUP2 ADD SWAP1 POP PUSH2 0x6BD JUMP JUMPDEST DUP7 DUP4 LT ISZERO PUSH2 0x6FF JUMPI DUP5 DUP10 ADD MLOAD PUSH2 0x6FB PUSH1 0x1F DUP10 AND DUP3 PUSH2 0x60E JUMP JUMPDEST DUP4 SSTORE POP JUMPDEST PUSH1 0x1 PUSH1 0x2 DUP9 MUL ADD DUP9 SSTORE POP POP POP JUMPDEST POP POP POP POP POP POP JUMP INVALID LOG2 PUSH5 0x6970667358 0x22 SLT KECCAK256 CREATE CREATE DUP14 DUP10 BASEFEE 0xEA PUSH23 0xCD3650F59218C1B7A5B4640ABDFECF423FB4BCE394A9D6 0x2C EXTCODESIZE PUSH5 0x736F6C6343 STOP ADDMOD 0x1E STOP CALLER "
				},
				"gasEstimates": {
					"creation": {
						"codeDepositCost": "373200",
						"executionCost": "409",
						"totalCost": "373609"
					},
					"external": {
						"criaPar(string,string)": "infinite",
						"par(string)": "infinite"
					}
				},
				"methodIdentifiers": {
					"criaPar(string,string)": "49b46228",
					"par(string)": "7aee3264"
				}
			},
			"storageLayout": {
				"storage": [
					{
						"astId": 5,
						"contract": "contracts/Par.sol:Par",
						"label": "par",
						"offset": 0,
						"slot": "0",
						"type": "t_mapping(t_string_memory_ptr,t_string_storage)"
					}
				],
				"types": {
					"t_mapping(t_string_memory_ptr,t_string_storage)": {
						"encoding": "mapping",
						"key": "t_string_memory_ptr",
						"label": "mapping(string => string)",
						"numberOfBytes": "32",
						"value": "t_string_storage"
					},
					"t_string_memory_ptr": {
						"encoding": "bytes",
						"label": "string",
						"numberOfBytes": "32"
					},
					"t_string_storage": {
						"encoding": "bytes",
						"label": "string",
						"numberOfBytes": "32"
					}
				}
			},
			"userdoc": {
				"kind": "user",
				"methods": {},
				"version": 1
			}
		}
	}
}