{
	"contracts/Tipos.sol": {
		"Tipos": {
			"abi": [
				{
					"inputs": [],
					"name": "booleano",
					"outputs": [
						{
							"internalType": "bool",
							"name": "",
							"type": "bool"
						}
					],
					"stateMutability": "view",
					"type": "function"
				},
				{
					"inputs": [],
					"name": "endereco",
					"outputs": [
						{
							"internalType": "address",
							"name": "",
							"type": "address"
						}
					],
					"stateMutability": "view",
					"type": "function"
				},
				{
					"inputs": [],
					"name": "inteiro",
					"outputs": [
						{
							"internalType": "int152",
							"name": "",
							"type": "int152"
						}
					],
					"stateMutability": "view",
					"type": "function"
				},
				{
					"inputs": [],
					"name": "uinteiro",
					"outputs": [
						{
							"internalType": "uint248",
							"name": "",
							"type": "uint248"
						}
					],
					"stateMutability": "view",
					"type": "function"
				},
				{
					"inputs": [],
					"name": "valorBytes",
					"outputs": [
						{
							"internalType": "bytes2",
							"name": "",
							"type": "bytes2"
						}
					],
					"stateMutability": "view",
					"type": "function"
				},
				{
					"inputs": [],
					"name": "valorBytes3",
					"outputs": [
						{
							"internalType": "bytes3",
							"name": "",
							"type": "bytes3"
						}
					],
					"stateMutability": "view",
					"type": "function"
				}
			],
			"devdoc": {
				"kind": "dev",
				"methods": {},
				"version": 1
			},
			"evm": {
				"assembly": "    /* \"contracts/Tipos.sol\":56:337  contract Tipos {... */\n  mstore(0x40, 0x80)\n    /* \"contracts/Tipos.sol\":106:111  78473 */\n  0x013289\n    /* \"contracts/Tipos.sol\":82:111  int152 public inteiro = 78473 */\n  0x00\n  exp(0x0100, 0x00)\n  dup2\n  sload\n  dup2\n  0xffffffffffffffffffffffffffffffffffffff\n  mul\n  not\n  and\n  swap1\n  dup4\n  0x12\n  signextend\n  0xffffffffffffffffffffffffffffffffffffff\n  and\n  mul\n  or\n  swap1\n  sstore\n  pop\n    /* \"contracts/Tipos.sol\":143:145  10 */\n  0x0a\n    /* \"contracts/Tipos.sol\":117:145  uint248 public uinteiro = 10 */\n  0x01\n  exp(0x0100, 0x00)\n  dup2\n  sload\n  dup2\n  0xffffffffffffffffffffffffffffffffffffffffffffffffffffffffffffff\n  mul\n  not\n  and\n  swap1\n  dup4\n  0xffffffffffffffffffffffffffffffffffffffffffffffffffffffffffffff\n  and\n  mul\n  or\n  swap1\n  sstore\n  pop\n    /* \"contracts/Tipos.sol\":178:184  0x34f4 */\n  0x34f4\n    /* \"contracts/Tipos.sol\":151:184  bytes2 public valorBytes = 0x34f4 */\n  0xf0\n  shl\n  0x02\n  exp(0x0100, 0x00)\n  dup2\n  sload\n  dup2\n  0xffff\n  mul\n  not\n  and\n  swap1\n  dup4\n  0xf0\n  shr\n  mul\n  or\n  swap1\n  sstore\n  pop\n    /* \"contracts/Tipos.sol\":218:226  0x34f354 */\n  0x34f354\n    /* \"contracts/Tipos.sol\":190:226  bytes3 public valorBytes3 = 0x34f354 */\n  0xe8\n  shl\n  0x02\n  dup1\n  0x0100\n  exp\n  dup2\n  sload\n  dup2\n  0xffffff\n  mul\n  not\n  and\n  swap1\n  dup4\n  0xe8\n  shr\n  mul\n  or\n  swap1\n  sstore\n  pop\n    /* \"contracts/Tipos.sol\":255:260  false */\n  0x00\n    /* \"contracts/Tipos.sol\":232:260  bool public booleano = false */\n  0x02\n  exp(0x0100, 0x05)\n  dup2\n  sload\n  dup2\n  0xff\n  mul\n  not\n  and\n  swap1\n  dup4\n  iszero\n  iszero\n  mul\n  or\n  swap1\n  sstore\n  pop\n    /* \"contracts/Tipos.sol\":292:334  0x5B38Da6a701c568545dCfcB03FcB875f56beddC4 */\n  0x5b38da6a701c568545dcfcb03fcb875f56beddc4\n    /* \"contracts/Tipos.sol\":266:334  address public endereco = 0x5B38Da6a701c568545dCfcB03FcB875f56beddC4 */\n  0x02\n  exp(0x0100, 0x06)\n  dup2\n  sload\n  dup2\n  0xffffffffffffffffffffffffffffffffffffffff\n  mul\n  not\n  and\n  swap1\n  dup4\n  0xffffffffffffffffffffffffffffffffffffffff\n  and\n  mul\n  or\n  swap1\n  sstore\n  pop\n    /* \"contracts/Tipos.sol\":56:337  contract Tipos {... */\n  callvalue\n  dup1\n  iszero\n  tag_1\n  jumpi\n  revert(0x00, 0x00)\ntag_1:\n  pop\n  dataSize(sub_0)\n  dup1\n  dataOffset(sub_0)\n  0x00\n  codecopy\n  0x00\n  return\nstop\n\nsub_0: assembly {\n        /* \"contracts/Tipos.sol\":56:337  contract Tipos {... */\n      mstore(0x40, 0x80)\n      callvalue\n      dup1\n      iszero\n      tag_1\n      jumpi\n      revert(0x00, 0x00)\n    tag_1:\n      pop\n      jumpi(tag_2, lt(calldatasize, 0x04))\n      shr(0xe0, calldataload(0x00))\n      dup1\n      0x0a6cda6a\n      eq\n      tag_3\n      jumpi\n      dup1\n      0x1affe348\n      eq\n      tag_4\n      jumpi\n      dup1\n      0xb624cb54\n      eq\n      tag_5\n      jumpi\n      dup1\n      0xc7e11579\n      eq\n      tag_6\n      jumpi\n      dup1\n      0xd1ac4a09\n      eq\n      tag_7\n      jumpi\n      dup1\n      0xf38b2743\n      eq\n      tag_8\n      jumpi\n    tag_2:\n      revert(0x00, 0x00)\n        /* \"contracts/Tipos.sol\":232:260  bool public booleano = false */\n    tag_3:\n      tag_9\n      tag_10\n      jump\t// in\n    tag_9:\n      mload(0x40)\n      tag_11\n      swap2\n      swap1\n      tag_12\n      jump\t// in\n    tag_11:\n      mload(0x40)\n      dup1\n      swap2\n      sub\n      swap1\n      return\n        /* \"contracts/Tipos.sol\":190:226  bytes3 public valorBytes3 = 0x34f354 */\n    tag_4:\n      tag_13\n      tag_14\n      jump\t// in\n    tag_13:\n      mload(0x40)\n      tag_15\n      swap2\n      swap1\n      tag_16\n      jump\t// in\n    tag_15:\n      mload(0x40)\n      dup1\n      swap2\n      sub\n      swap1\n      return\n        /* \"contracts/Tipos.sol\":82:111  int152 public inteiro = 78473 */\n    tag_5:\n      tag_17\n      tag_18\n      jump\t// in\n    tag_17:\n      mload(0x40)\n      tag_19\n      swap2\n      swap1\n      tag_20\n      jump\t// in\n    tag_19:\n      mload(0x40)\n      dup1\n      swap2\n      sub\n      swap1\n      return\n        /* \"contracts/Tipos.sol\":117:145  uint248 public uinteiro = 10 */\n    tag_6:\n      tag_21\n      tag_22\n      jump\t// in\n    tag_21:\n      mload(0x40)\n      tag_23\n      swap2\n      swap1\n      tag_24\n      jump\t// in\n    tag_23:\n      mload(0x40)\n      dup1\n      swap2\n      sub\n      swap1\n      return\n        /* \"contracts/Tipos.sol\":151:184  bytes2 public valorBytes = 0x34f4 */\n    tag_7:\n      tag_25\n      tag_26\n      jump\t// in\n    tag_25:\n      mload(0x40)\n      tag_27\n      swap2\n      swap1\n      tag_28\n      jump\t// in\n    tag_27:\n      mload(0x40)\n      dup1\n      swap2\n      sub\n      swap1\n      return\n        /* \"contracts/Tipos.sol\":266:334  address public endereco = 0x5B38Da6a701c568545dCfcB03FcB875f56beddC4 */\n    tag_8:\n      tag_29\n      tag_30\n      jump\t// in\n    tag_29:\n      mload(0x40)\n      tag_31\n      swap2\n      swap1\n      tag_32\n      jump\t// in\n    tag_31:\n      mload(0x40)\n      dup1\n      swap2\n      sub\n      swap1\n      return\n        /* \"contracts/Tipos.sol\":232:260  bool public booleano = false */\n    tag_10:\n      0x02\n      0x05\n      swap1\n      sload\n      swap1\n      0x0100\n      exp\n      swap1\n      div\n      0xff\n      and\n      dup2\n      jump\t// out\n        /* \"contracts/Tipos.sol\":190:226  bytes3 public valorBytes3 = 0x34f354 */\n    tag_14:\n      0x02\n      dup1\n      sload\n      swap1\n      0x0100\n      exp\n      swap1\n      div\n      0xe8\n      shl\n      dup2\n      jump\t// out\n        /* \"contracts/Tipos.sol\":82:111  int152 public inteiro = 78473 */\n    tag_18:\n      0x00\n      0x00\n      swap1\n      sload\n      swap1\n      0x0100\n      exp\n      swap1\n      div\n      0x12\n      signextend\n      dup2\n      jump\t// out\n        /* \"contracts/Tipos.sol\":117:145  uint248 public uinteiro = 10 */\n    tag_22:\n      0x01\n      0x00\n      swap1\n      sload\n      swap1\n      0x0100\n      exp\n      swap1\n      div\n      0xffffffffffffffffffffffffffffffffffffffffffffffffffffffffffffff\n      and\n      dup2\n      jump\t// out\n        /* \"contracts/Tipos.sol\":151:184  bytes2 public valorBytes = 0x34f4 */\n    tag_26:\n      0x02\n      0x00\n      swap1\n      sload\n      swap1\n      0x0100\n      exp\n      swap1\n      div\n      0xf0\n      shl\n      dup2\n      jump\t// out\n        /* \"contracts/Tipos.sol\":266:334  address public endereco = 0x5B38Da6a701c568545dCfcB03FcB875f56beddC4 */\n    tag_30:\n      0x02\n      0x06\n      swap1\n      sload\n      swap1\n      0x0100\n      exp\n      swap1\n      div\n      0xffffffffffffffffffffffffffffffffffffffff\n      and\n      dup2\n      jump\t// out\n        /* \"#utility.yul\":7:97   */\n    tag_33:\n        /* \"#utility.yul\":41:48   */\n      0x00\n        /* \"#utility.yul\":84:89   */\n      dup2\n        /* \"#utility.yul\":77:90   */\n      iszero\n        /* \"#utility.yul\":70:91   */\n      iszero\n        /* \"#utility.yul\":59:91   */\n      swap1\n      pop\n        /* \"#utility.yul\":7:97   */\n      swap2\n      swap1\n      pop\n      jump\t// out\n        /* \"#utility.yul\":103:212   */\n    tag_34:\n        /* \"#utility.yul\":184:205   */\n      tag_49\n        /* \"#utility.yul\":199:204   */\n      dup2\n        /* \"#utility.yul\":184:205   */\n      tag_33\n      jump\t// in\n    tag_49:\n        /* \"#utility.yul\":179:182   */\n      dup3\n        /* \"#utility.yul\":172:206   */\n      mstore\n        /* \"#utility.yul\":103:212   */\n      pop\n      pop\n      jump\t// out\n        /* \"#utility.yul\":218:428   */\n    tag_12:\n        /* \"#utility.yul\":305:309   */\n      0x00\n        /* \"#utility.yul\":343:345   */\n      0x20\n        /* \"#utility.yul\":332:341   */\n      dup3\n        /* \"#utility.yul\":328:346   */\n      add\n        /* \"#utility.yul\":320:346   */\n      swap1\n      pop\n        /* \"#utility.yul\":356:421   */\n      tag_51\n        /* \"#utility.yul\":418:419   */\n      0x00\n        /* \"#utility.yul\":407:416   */\n      dup4\n        /* \"#utility.yul\":403:420   */\n      add\n        /* \"#utility.yul\":394:400   */\n      dup5\n        /* \"#utility.yul\":356:421   */\n      tag_34\n      jump\t// in\n    tag_51:\n        /* \"#utility.yul\":218:428   */\n      swap3\n      swap2\n      pop\n      pop\n      jump\t// out\n        /* \"#utility.yul\":434:583   */\n    tag_35:\n        /* \"#utility.yul\":470:477   */\n      0x00\n        /* \"#utility.yul\":510:576   */\n      0xffffff0000000000000000000000000000000000000000000000000000000000\n        /* \"#utility.yul\":503:508   */\n      dup3\n        /* \"#utility.yul\":499:577   */\n      and\n        /* \"#utility.yul\":488:577   */\n      swap1\n      pop\n        /* \"#utility.yul\":434:583   */\n      swap2\n      swap1\n      pop\n      jump\t// out\n        /* \"#utility.yul\":589:704   */\n    tag_36:\n        /* \"#utility.yul\":674:697   */\n      tag_54\n        /* \"#utility.yul\":691:696   */\n      dup2\n        /* \"#utility.yul\":674:697   */\n      tag_35\n      jump\t// in\n    tag_54:\n        /* \"#utility.yul\":669:672   */\n      dup3\n        /* \"#utility.yul\":662:698   */\n      mstore\n        /* \"#utility.yul\":589:704   */\n      pop\n      pop\n      jump\t// out\n        /* \"#utility.yul\":710:928   */\n    tag_16:\n        /* \"#utility.yul\":801:805   */\n      0x00\n        /* \"#utility.yul\":839:841   */\n      0x20\n        /* \"#utility.yul\":828:837   */\n      dup3\n        /* \"#utility.yul\":824:842   */\n      add\n        /* \"#utility.yul\":816:842   */\n      swap1\n      pop\n        /* \"#utility.yul\":852:921   */\n      tag_56\n        /* \"#utility.yul\":918:919   */\n      0x00\n        /* \"#utility.yul\":907:916   */\n      dup4\n        /* \"#utility.yul\":903:920   */\n      add\n        /* \"#utility.yul\":894:900   */\n      dup5\n        /* \"#utility.yul\":852:921   */\n      tag_36\n      jump\t// in\n    tag_56:\n        /* \"#utility.yul\":710:928   */\n      swap3\n      swap2\n      pop\n      pop\n      jump\t// out\n        /* \"#utility.yul\":934:1026   */\n    tag_37:\n        /* \"#utility.yul\":970:977   */\n      0x00\n        /* \"#utility.yul\":1014:1019   */\n      dup2\n        /* \"#utility.yul\":1010:1012   */\n      0x12\n        /* \"#utility.yul\":999:1020   */\n      signextend\n        /* \"#utility.yul\":988:1020   */\n      swap1\n      pop\n        /* \"#utility.yul\":934:1026   */\n      swap2\n      swap1\n      pop\n      jump\t// out\n        /* \"#utility.yul\":1032:1147   */\n    tag_38:\n        /* \"#utility.yul\":1117:1140   */\n      tag_59\n        /* \"#utility.yul\":1134:1139   */\n      dup2\n        /* \"#utility.yul\":1117:1140   */\n      tag_37\n      jump\t// in\n    tag_59:\n        /* \"#utility.yul\":1112:1115   */\n      dup3\n        /* \"#utility.yul\":1105:1141   */\n      mstore\n        /* \"#utility.yul\":1032:1147   */\n      pop\n      pop\n      jump\t// out\n        /* \"#utility.yul\":1153:1371   */\n    tag_20:\n        /* \"#utility.yul\":1244:1248   */\n      0x00\n        /* \"#utility.yul\":1282:1284   */\n      0x20\n        /* \"#utility.yul\":1271:1280   */\n      dup3\n        /* \"#utility.yul\":1267:1285   */\n      add\n        /* \"#utility.yul\":1259:1285   */\n      swap1\n      pop\n        /* \"#utility.yul\":1295:1364   */\n      tag_61\n        /* \"#utility.yul\":1361:1362   */\n      0x00\n        /* \"#utility.yul\":1350:1359   */\n      dup4\n        /* \"#utility.yul\":1346:1363   */\n      add\n        /* \"#utility.yul\":1337:1343   */\n      dup5\n        /* \"#utility.yul\":1295:1364   */\n      tag_38\n      jump\t// in\n    tag_61:\n        /* \"#utility.yul\":1153:1371   */\n      swap3\n      swap2\n      pop\n      pop\n      jump\t// out\n        /* \"#utility.yul\":1377:1525   */\n    tag_39:\n        /* \"#utility.yul\":1414:1421   */\n      0x00\n        /* \"#utility.yul\":1454:1518   */\n      0xffffffffffffffffffffffffffffffffffffffffffffffffffffffffffffff\n        /* \"#utility.yul\":1447:1452   */\n      dup3\n        /* \"#utility.yul\":1443:1519   */\n      and\n        /* \"#utility.yul\":1432:1519   */\n      swap1\n      pop\n        /* \"#utility.yul\":1377:1525   */\n      swap2\n      swap1\n      pop\n      jump\t// out\n        /* \"#utility.yul\":1531:1649   */\n    tag_40:\n        /* \"#utility.yul\":1618:1642   */\n      tag_64\n        /* \"#utility.yul\":1636:1641   */\n      dup2\n        /* \"#utility.yul\":1618:1642   */\n      tag_39\n      jump\t// in\n    tag_64:\n        /* \"#utility.yul\":1613:1616   */\n      dup3\n        /* \"#utility.yul\":1606:1643   */\n      mstore\n        /* \"#utility.yul\":1531:1649   */\n      pop\n      pop\n      jump\t// out\n        /* \"#utility.yul\":1655:1877   */\n    tag_24:\n        /* \"#utility.yul\":1748:1752   */\n      0x00\n        /* \"#utility.yul\":1786:1788   */\n      0x20\n        /* \"#utility.yul\":1775:1784   */\n      dup3\n        /* \"#utility.yul\":1771:1789   */\n      add\n        /* \"#utility.yul\":1763:1789   */\n      swap1\n      pop\n        /* \"#utility.yul\":1799:1870   */\n      tag_66\n        /* \"#utility.yul\":1867:1868   */\n      0x00\n        /* \"#utility.yul\":1856:1865   */\n      dup4\n        /* \"#utility.yul\":1852:1869   */\n      add\n        /* \"#utility.yul\":1843:1849   */\n      dup5\n        /* \"#utility.yul\":1799:1870   */\n      tag_40\n      jump\t// in\n    tag_66:\n        /* \"#utility.yul\":1655:1877   */\n      swap3\n      swap2\n      pop\n      pop\n      jump\t// out\n        /* \"#utility.yul\":1883:2032   */\n    tag_41:\n        /* \"#utility.yul\":1919:1926   */\n      0x00\n        /* \"#utility.yul\":1959:2025   */\n      0xffff000000000000000000000000000000000000000000000000000000000000\n        /* \"#utility.yul\":1952:1957   */\n      dup3\n        /* \"#utility.yul\":1948:2026   */\n      and\n        /* \"#utility.yul\":1937:2026   */\n      swap1\n      pop\n        /* \"#utility.yul\":1883:2032   */\n      swap2\n      swap1\n      pop\n      jump\t// out\n        /* \"#utility.yul\":2038:2153   */\n    tag_42:\n        /* \"#utility.yul\":2123:2146   */\n      tag_69\n        /* \"#utility.yul\":2140:2145   */\n      dup2\n        /* \"#utility.yul\":2123:2146   */\n      tag_41\n      jump\t// in\n    tag_69:\n        /* \"#utility.yul\":2118:2121   */\n      dup3\n        /* \"#utility.yul\":2111:2147   */\n      mstore\n        /* \"#utility.yul\":2038:2153   */\n      pop\n      pop\n      jump\t// out\n        /* \"#utility.yul\":2159:2377   */\n    tag_28:\n        /* \"#utility.yul\":2250:2254   */\n      0x00\n        /* \"#utility.yul\":2288:2290   */\n      0x20\n        /* \"#utility.yul\":2277:2286   */\n      dup3\n        /* \"#utility.yul\":2273:2291   */\n      add\n        /* \"#utility.yul\":2265:2291   */\n      swap1\n      pop\n        /* \"#utility.yul\":2301:2370   */\n      tag_71\n        /* \"#utility.yul\":2367:2368   */\n      0x00\n        /* \"#utility.yul\":2356:2365   */\n      dup4\n        /* \"#utility.yul\":2352:2369   */\n      add\n        /* \"#utility.yul\":2343:2349   */\n      dup5\n        /* \"#utility.yul\":2301:2370   */\n      tag_42\n      jump\t// in\n    tag_71:\n        /* \"#utility.yul\":2159:2377   */\n      swap3\n      swap2\n      pop\n      pop\n      jump\t// out\n        /* \"#utility.yul\":2383:2509   */\n    tag_43:\n        /* \"#utility.yul\":2420:2427   */\n      0x00\n        /* \"#utility.yul\":2460:2502   */\n      0xffffffffffffffffffffffffffffffffffffffff\n        /* \"#utility.yul\":2453:2458   */\n      dup3\n        /* \"#utility.yul\":2449:2503   */\n      and\n        /* \"#utility.yul\":2438:2503   */\n      swap1\n      pop\n        /* \"#utility.yul\":2383:2509   */\n      swap2\n      swap1\n      pop\n      jump\t// out\n        /* \"#utility.yul\":2515:2611   */\n    tag_44:\n        /* \"#utility.yul\":2552:2559   */\n      0x00\n        /* \"#utility.yul\":2581:2605   */\n      tag_74\n        /* \"#utility.yul\":2599:2604   */\n      dup3\n        /* \"#utility.yul\":2581:2605   */\n      tag_43\n      jump\t// in\n    tag_74:\n        /* \"#utility.yul\":2570:2605   */\n      swap1\n      pop\n        /* \"#utility.yul\":2515:2611   */\n      swap2\n      swap1\n      pop\n      jump\t// out\n        /* \"#utility.yul\":2617:2735   */\n    tag_45:\n        /* \"#utility.yul\":2704:2728   */\n      tag_76\n        /* \"#utility.yul\":2722:2727   */\n      dup2\n        /* \"#utility.yul\":2704:2728   */\n      tag_44\n      jump\t// in\n    tag_76:\n        /* \"#utility.yul\":2699:2702   */\n      dup3\n        /* \"#utility.yul\":2692:2729   */\n      mstore\n        /* \"#utility.yul\":2617:2735   */\n      pop\n      pop\n      jump\t// out\n        /* \"#utility.yul\":2741:2963   */\n    tag_32:\n        /* \"#utility.yul\":2834:2838   */\n      0x00\n        /* \"#utility.yul\":2872:2874   */\n      0x20\n        /* \"#utility.yul\":2861:2870   */\n      dup3\n        /* \"#utility.yul\":2857:2875   */\n      add\n        /* \"#utility.yul\":2849:2875   */\n      swap1\n      pop\n        /* \"#utility.yul\":2885:2956   */\n      tag_78\n        /* \"#utility.yul\":2953:2954   */\n      0x00\n        /* \"#utility.yul\":2942:2951   */\n      dup4\n        /* \"#utility.yul\":2938:2955   */\n      add\n        /* \"#utility.yul\":2929:2935   */\n      dup5\n        /* \"#utility.yul\":2885:2956   */\n      tag_45\n      jump\t// in\n    tag_78:\n        /* \"#utility.yul\":2741:2963   */\n      swap3\n      swap2\n      pop\n      pop\n      jump\t// out\n\n    auxdata: 0xa26469706673582212203833a8bfd20a497d2131eab2d6f08444fb543a00bf08848bcff7d47c74a11bfe64736f6c634300081e0033\n}\n",
				"bytecode": {
					"linkReferences": {},
					"object": "6080604052620132895f5f6101000a81548172ffffffffffffffffffffffffffffffffffffff021916908360120b72ffffffffffffffffffffffffffffffffffffff160217905550600a60015f6101000a8154817effffffffffffffffffffffffffffffffffffffffffffffffffffffffffffff02191690837effffffffffffffffffffffffffffffffffffffffffffffffffffffffffffff1602179055506134f460f01b60025f6101000a81548161ffff021916908360f01c02179055506234f35460e81b6002806101000a81548162ffffff021916908360e81c02179055505f600260056101000a81548160ff021916908315150217905550735b38da6a701c568545dcfcb03fcb875f56beddc4600260066101000a81548173ffffffffffffffffffffffffffffffffffffffff021916908373ffffffffffffffffffffffffffffffffffffffff16021790555034801561015a575f5ffd5b506103a2806101685f395ff3fe608060405234801561000f575f5ffd5b5060043610610060575f3560e01c80630a6cda6a146100645780631affe34814610082578063b624cb54146100a0578063c7e11579146100be578063d1ac4a09146100dc578063f38b2743146100fa575b5f5ffd5b61006c610118565b60405161007991906101cf565b60405180910390f35b61008a61012b565b6040516100979190610222565b60405180910390f35b6100a861013c565b6040516100b59190610256565b60405180910390f35b6100c661014d565b6040516100d391906102a8565b60405180910390f35b6100e461017d565b6040516100f191906102fb565b60405180910390f35b61010261018f565b60405161010f9190610353565b60405180910390f35b600260059054906101000a900460ff1681565b60028054906101000a900460e81b81565b5f5f9054906101000a900460120b81565b60015f9054906101000a90047effffffffffffffffffffffffffffffffffffffffffffffffffffffffffffff1681565b60025f9054906101000a900460f01b81565b600260069054906101000a900473ffffffffffffffffffffffffffffffffffffffff1681565b5f8115159050919050565b6101c9816101b5565b82525050565b5f6020820190506101e25f8301846101c0565b92915050565b5f7fffffff000000000000000000000000000000000000000000000000000000000082169050919050565b61021c816101e8565b82525050565b5f6020820190506102355f830184610213565b92915050565b5f8160120b9050919050565b6102508161023b565b82525050565b5f6020820190506102695f830184610247565b92915050565b5f7effffffffffffffffffffffffffffffffffffffffffffffffffffffffffffff82169050919050565b6102a28161026f565b82525050565b5f6020820190506102bb5f830184610299565b92915050565b5f7fffff00000000000000000000000000000000000000000000000000000000000082169050919050565b6102f5816102c1565b82525050565b5f60208201905061030e5f8301846102ec565b92915050565b5f73ffffffffffffffffffffffffffffffffffffffff82169050919050565b5f61033d82610314565b9050919050565b61034d81610333565b82525050565b5f6020820190506103665f830184610344565b9291505056fea26469706673582212203833a8bfd20a497d2131eab2d6f08444fb543a00bf08848bcff7d47c74a11bfe64736f6c634300081e0033",
					"opcodes": "PUSH1 0x80 PUSH1 0x40 MSTORE PUSH3 0x13289 PUSH0 PUSH0 PUSH2 0x100 EXP DUP2 SLOAD DUP2 PUSH19 0xFFFFFFFFFFFFFFFFFFFFFFFFFFFFFFFFFFFFFF MUL NOT AND SWAP1 DUP4 PUSH1 0x12 SIGNEXTEND PUSH19 0xFFFFFFFFFFFFFFFFFFFFFFFFFFFFFFFFFFFFFF AND MUL OR SWAP1 SSTORE POP PUSH1 0xA PUSH1 0x1 PUSH0 PUSH2 0x100 EXP DUP2 SLOAD DUP2 PUSH31 0xFFFFFFFFFFFFFFFFFFFFFFFFFFFFFFFFFFFFFFFFFFFFFFFFFFFFFFFFFFFFFF MUL NOT AND SWAP1 DUP4 PUSH31 0xFFFFFFFFFFFFFFFFFFFFFFFFFFFFFFFFFFFFFFFFFFFFFFFFFFFFFFFFFFFFFF AND MUL OR SWAP1 SSTORE POP PUSH2 0x34F4 PUSH1 0xF0 SHL PUSH1 0x2 PUSH0 PUSH2 0x100 EXP DUP2 SLOAD DUP2 PUSH2 0xFFFF MUL NOT AND SWAP1 DUP4 PUSH1 0xF0 SHR MUL OR SWAP1 SSTORE POP PUSH3 0x34F354 PUSH1 0xE8 SHL PUSH1 0x2 DUP1 PUSH2 0x100 EXP DUP2 SLOAD DUP2 PUSH3 0xFFFFFF MUL NOT AND SWAP1 DUP4 PUSH1 0xE8 SHR MUL OR SWAP1 SSTORE POP PUSH0 PUSH1 0x2 PUSH1 0x5 PUSH2 0x100 EXP DUP2 SLOAD DUP2 PUSH1 0xFF MUL NOT AND SWAP1 DUP4 ISZERO ISZERO MUL OR SWAP1 SSTORE POP PUSH20 0x5B38DA6A701C568545DCFCB03FCB875F56BEDDC4 PUSH1 0x2 PUSH1 0x6 PUSH2 0x100 EXP DUP2 SLOAD DUP2 PUSH20 0xFFFFFFFFFFFFFFFFFFFFFFFFFFFFFFFFFFFFFFFF MUL NOT AND SWAP1 DUP4 PUSH20 0xFFFFFFFFFFFFFFFFFFFFFFFFFFFFFFFFFFFFFFFF AND MUL OR SWAP1 SSTORE POP CALLVALUE DUP1 ISZERO PUSH2 0x15A JUMPI PUSH0 PUSH0 REVERT JUMPDEST POP PUSH2 0x3A2 DUP1 PUSH2 0x168 PUSH0 CODECOPY PUSH0 RETURN INVALID PUSH1 0x80 PUSH1 0x40 MSTORE CALLVALUE DUP1 ISZERO PUSH2 0xF JUMPI PUSH0 PUSH0 REVERT JUMPDEST POP PUSH1 0x4 CALLDATASIZE LT PUSH2 0x60 JUMPI PUSH0 CALLDATALOAD PUSH1 0xE0 SHR DUP1 PUSH4 0xA6CDA6A EQ PUSH2 0x64 JUMPI DUP1 PUSH4 0x1AFFE348 EQ PUSH2 0x82 JUMPI DUP1 PUSH4 0xB624CB54 EQ PUSH2 0xA0 JUMPI DUP1 PUSH4 0xC7E11579 EQ PUSH2 0xBE JUMPI DUP1 PUSH4 0xD1AC4A09 EQ PUSH2 0xDC JUMPI DUP1 PUSH4 0xF38B2743 EQ PUSH2 0xFA JUMPI JUMPDEST PUSH0 PUSH0 REVERT JUMPDEST PUSH2 0x6C PUSH2 0x118 JUMP JUMPDEST PUSH1 0x40 MLOAD PUSH2 0x79 SWAP2 SWAP1 PUSH2 0x1CF JUMP JUMPDEST PUSH1 0x40 MLOAD DUP1 SWAP2 SUB SWAP1 RETURN JUMPDEST PUSH2 0x8A PUSH2 0x12B JUMP JUMPDEST PUSH1 0x40 MLOAD PUSH2 0x97 SWAP2 SWAP1 PUSH2 0x222 JUMP JUMPDEST PUSH1 0x40 MLOAD DUP1 SWAP2 SUB SWAP1 RETURN JUMPDEST PUSH2 0xA8 PUSH2 0x13C JUMP JUMPDEST PUSH1 0x40 MLOAD PUSH2 0xB5 SWAP2 SWAP1 PUSH2 0x256 JUMP JUMPDEST PUSH1 0x40 MLOAD DUP1 SWAP2 SUB SWAP1 RETURN JUMPDEST PUSH2 0xC6 PUSH2 0x14D JUMP JUMPDEST PUSH1 0x40 MLOAD PUSH2 0xD3 SWAP2 SWAP1 PUSH2 0x2A8 JUMP JUMPDEST PUSH1 0x40 MLOAD DUP1 SWAP2 SUB SWAP1 RETURN JUMPDEST PUSH2 0xE4 PUSH2 0x17D JUMP JUMPDEST PUSH1 0x40 MLOAD PUSH2 0xF1 SWAP2 SWAP1 PUSH2 0x2FB JUMP JUMPDEST PUSH1 0x40 MLOAD DUP1 SWAP2 SUB SWAP1 RETURN JUMPDEST PUSH2 0x102 PUSH2 0x18F JUMP JUMPDEST PUSH1 0x40 MLOAD PUSH2 0x10F SWAP2 SWAP1 PUSH2 0x353 JUMP JUMPDEST PUSH1 0x40 MLOAD DUP1 SWAP2 SUB SWAP1 RETURN JUMPDEST PUSH1 0x2 PUSH1 0x5 SWAP1 SLOAD SWAP1 PUSH2 0x100 EXP SWAP1 DIV PUSH1 0xFF AND DUP2 JUMP JUMPDEST PUSH1 0x2 DUP1 SLOAD SWAP1 PUSH2 0x100 EXP SWAP1 DIV PUSH1 0xE8 SHL DUP2 JUMP JUMPDEST PUSH0 PUSH0 SWAP1 SLOAD SWAP1 PUSH2 0x100 EXP SWAP1 DIV PUSH1 0x12 SIGNEXTEND DUP2 JUMP JUMPDEST PUSH1 0x1 PUSH0 SWAP1 SLOAD SWAP1 PUSH2 0x100 EXP SWAP1 DIV PUSH31 0xFFFFFFFFFFFFFFFFFFFFFFFFFFFFFFFFFFFFFFFFFFFFFFFFFFFFFFFFFFFFFF AND DUP2 JUMP JUMPDEST PUSH1 0x2 PUSH0 SWAP1 SLOAD SWAP1 PUSH2 0x100 EXP SWAP1 DIV PUSH1 0xF0 SHL DUP2 JUMP JUMPDEST PUSH1 0x2 PUSH1 0x6 SWAP1 SLOAD SWAP1 PUSH2 0x100 EXP SWAP1 DIV PUSH20 0xFFFFFFFFFFFFFFFFFFFFFFFFFFFFFFFFFFFFFFFF AND DUP2 JUMP JUMPDEST PUSH0 DUP2 ISZERO ISZERO SWAP1 POP SWAP2 SWAP1 POP JUMP JUMPDEST PUSH2 0x1C9 DUP2 PUSH2 0x1B5 JUMP JUMPDEST DUP3 MSTORE POP POP JUMP JUMPDEST PUSH0 PUSH1 0x20 DUP3 ADD SWAP1 POP PUSH2 0x1E2 PUSH0 DUP4 ADD DUP5 PUSH2 0x1C0 JUMP JUMPDEST SWAP3 SWAP2 POP POP JUMP JUMPDEST PUSH0 PUSH32 0xFFFFFF0000000000000000000000000000000000000000000000000000000000 DUP3 AND SWAP1 POP SWAP2 SWAP1 POP JUMP JUMPDEST PUSH2 0x21C DUP2 PUSH2 0x1E8 JUMP JUMPDEST DUP3 MSTORE POP POP JUMP JUMPDEST PUSH0 PUSH1 0x20 DUP3 ADD SWAP1 POP PUSH2 0x235 PUSH0 DUP4 ADD DUP5 PUSH2 0x213 JUMP JUMPDEST SWAP3 SWAP2 POP POP JUMP JUMPDEST PUSH0 DUP2 PUSH1 0x12 SIGNEXTEND SWAP1 POP SWAP2 SWAP1 POP JUMP JUMPDEST PUSH2 0x250 DUP2 PUSH2 0x23B JUMP JUMPDEST DUP3 MSTORE POP POP JUMP JUMPDEST PUSH0 PUSH1 0x20 DUP3 ADD SWAP1 POP PUSH2 0x269 PUSH0 DUP4 ADD DUP5 PUSH2 0x247 JUMP JUMPDEST SWAP3 SWAP2 POP POP JUMP JUMPDEST PUSH0 PUSH31 0xFFFFFFFFFFFFFFFFFFFFFFFFFFFFFFFFFFFFFFFFFFFFFFFFFFFFFFFFFFFFFF DUP3 AND SWAP1 POP SWAP2 SWAP1 POP JUMP JUMPDEST PUSH2 0x2A2 DUP2 PUSH2 0x26F JUMP JUMPDEST DUP3 MSTORE POP POP JUMP JUMPDEST PUSH0 PUSH1 0x20 DUP3 ADD SWAP1 POP PUSH2 0x2BB PUSH0 DUP4 ADD DUP5 PUSH2 0x299 JUMP JUMPDEST SWAP3 SWAP2 POP POP JUMP JUMPDEST PUSH0 PUSH32 0xFFFF000000000000000000000000000000000000000000000000000000000000 DUP3 AND SWAP1 POP SWAP2 SWAP1 POP JUMP JUMPDEST PUSH2 0x2F5 DUP2 PUSH2 0x2C1 JUMP JUMPDEST DUP3 MSTORE POP POP JUMP JUMPDEST PUSH0 PUSH1 0x20 DUP3 ADD SWAP1 POP PUSH2 0x30E PUSH0 DUP4 ADD DUP5 PUSH2 0x2EC JUMP JUMPDEST SWAP3 SWAP2 POP POP JUMP JUMPDEST PUSH0 PUSH20 0xFFFFFFFFFFFFFFFFFFFFFFFFFFFFFFFFFFFFFFFF DUP3 AND SWAP1 POP SWAP2 SWAP1 POP JUMP JUMPDEST PUSH0 PUSH2 0x33D DUP3 PUSH2 0x314 JUMP JUMPDEST SWAP1 POP SWAP2 SWAP1 POP JUMP JUMPDEST PUSH2 0x34D DUP2 PUSH2 0x333 JUMP JUMPDEST DUP3 MSTORE POP POP JUMP JUMPDEST PUSH0 PUSH1 0x20 DUP3 ADD SWAP1 POP PUSH2 0x366 PUSH0 DUP4 ADD DUP5 PUSH2 0x344 JUMP JUMPDEST SWAP3 SWAP2 POP POP JUMP INVALID LOG2 PUSH5 0x6970667358 0x22 SLT KECCAK256 CODESIZE CALLER 0xA8 0xBF 0xD2 EXP BLOBHASH PUSH30 0x2131EAB2D6F08444FB543A00BF08848BCFF7D47C74A11BFE64736F6C6343 STOP ADDMOD 0x1E STOP CALLER "
				},
				"gasEstimates": {
					"creation": {
						"codeDepositCost": "186000",
						"executionCost": "145997",
						"totalCost": "331997"
					},
					"external": {
						"booleano()": "2495",
						"endereco()": "2647",
						"inteiro()": "2491",
						"uinteiro()": "2510",
						"valorBytes()": "2532",
						"valorBytes3()": "2514"
					}
				},
				"methodIdentifiers": {
					"booleano()": "0a6cda6a",
					"endereco()": "f38b2743",
					"inteiro()": "b624cb54",
					"uinteiro()": "c7e11579",
					"valorBytes()": "d1ac4a09",
					"valorBytes3()": "1affe348"
				}
			},
			"storageLayout": {
				"storage": [
					{
						"astId": 4,
						"contract": "contracts/Tipos.sol:Tipos",
						"label": "inteiro",
						"offset": 0,
						"slot": "0",
						"type": "t_int152"
					},
					{
						"astId": 7,
						"contract": "contracts/Tipos.sol:Tipos",
						"label": "uinteiro",
						"offset": 0,
						"slot": "1",
						"type": "t_uint248"
					},
					{
						"astId": 10,
						"contract": "contracts/Tipos.sol:Tipos",
						"label": "valorBytes",
						"offset": 0,
						"slot": "2",
						"type": "t_bytes2"
					},
					{
						"astId": 13,
						"contract": "contracts/Tipos.sol:Tipos",
						"label": "valorBytes3",
						"offset": 2,
						"slot": "2",
						"type": "t_bytes3"
					},
					{
						"astId": 16,
						"contract": "contracts/Tipos.sol:Tipos",
						"label": "booleano",
						"offset": 5,
						"slot": "2",
						"type": "t_bool"
					},
					{
						"astId": 19,
						"contract": "contracts/Tipos.sol:Tipos",
						"label": "endereco",
						"offset": 6,
						"slot": "2",
						"type": "t_address"
					}
				],
				"types": {
					"t_address": {
						"encoding": "inplace",
						"label": "address",
						"numberOfBytes": "20"
					},
					"t_bool": {
						"encoding": "inplace",
						"label": "bool",
						"numberOfBytes": "1"
					},
					"t_bytes2": {
						"encoding": "inplace",
						"label": "bytes2",
						"numberOfBytes": "2"
					},
					"t_bytes3": {
						"encoding": "inplace",
						"label": "bytes3",
						"numberOfBytes": "3"
					},
					"t_int152": {
						"encoding": "inplace",
						"label": "int152",
						"numberOfBytes": "19"
					},
					"t_uint248": {
						"encoding": "inplace",
						"label": "uint248",
						"numberOfBytes": "31"
					}
				}
			},
			"userdoc": {
				"kind": "user",
				"methods": {},
				"version": 1
			}
		}
	}
}