{
	"contracts/Persons1.sol": {
		"Persons": {
			"abi": [
				{
					"inputs": [
						{
							"components": [
								{
									"internalType": "string",
									"name": "firstName",
									"type": "string"
								},
								{
									"internalType": "string",
									"name": "lastName",
									"type": "string"
								},
								{
									"internalType": "uint256",
									"name": "age",
									"type": "uint256"
								}
							],
							"internalType": "struct Persons.Person",
							"name": "_person",
							"type": "tuple"
						}
					],
					"name": "addPerson",
					"outputs": [],
					"stateMutability": "nonpayable",
					"type": "function"
				},
				{
					"inputs": [
						{
							"internalType": "uint256",
							"name": "_indice",
							"type": "uint256"
						},
						{
							"internalType": "uint256",
							"name": "newAge",
							"type": "uint256"
						}
					],
					"name": "changeAge",
					"outputs": [],
					"stateMutability": "nonpayable",
					"type": "function"
				},
				{
					"inputs": [
						{
							"internalType": "uint256",
							"name": "",
							"type": "uint256"
						}
					],
					"name": "persons",
					"outputs": [
						{
							"internalType": "string",
							"name": "firstName",
							"type": "string"
						},
						{
							"internalType": "string",
							"name": "lastName",
							"type": "string"
						},
						{
							"internalType": "uint256",
							"name": "age",
							"type": "uint256"
						}
					],
					"stateMutability": "view",
					"type": "function"
				}
			],
			"devdoc": {
				"kind": "dev",
				"methods": {},
				"version": 1
			},
			"evm": {
				"assembly": "    /* \"contracts/Persons1.sol\":70:470  contract Persons {... */\n  mstore(0x40, 0x80)\n  callvalue\n  dup1\n  iszero\n  tag_1\n  jumpi\n  revert(0x00, 0x00)\ntag_1:\n  pop\n  dataSize(sub_0)\n  dup1\n  dataOffset(sub_0)\n  0x00\n  codecopy\n  0x00\n  return\nstop\n\nsub_0: assembly {\n        /* \"contracts/Persons1.sol\":70:470  contract Persons {... */\n      mstore(0x40, 0x80)\n      callvalue\n      dup1\n      iszero\n      tag_1\n      jumpi\n      revert(0x00, 0x00)\n    tag_1:\n      pop\n      jumpi(tag_2, lt(calldatasize, 0x04))\n      shr(0xe0, calldataload(0x00))\n      dup1\n      0x20de6831\n      eq\n      tag_3\n      jumpi\n      dup1\n      0xa2f9eac6\n      eq\n      tag_4\n      jumpi\n      dup1\n      0xdcea595a\n      eq\n      tag_5\n      jumpi\n    tag_2:\n      revert(0x00, 0x00)\n        /* \"contracts/Persons1.sol\":326:465  function changeAge(uint _indice, uint newAge) public {... */\n    tag_3:\n      tag_6\n      0x04\n      dup1\n      calldatasize\n      sub\n      dup2\n      add\n      swap1\n      tag_7\n      swap2\n      swap1\n      tag_8\n      jump\t// in\n    tag_7:\n      tag_9\n      jump\t// in\n    tag_6:\n      stop\n        /* \"contracts/Persons1.sol\":203:226  Person[] public persons */\n    tag_4:\n      tag_10\n      0x04\n      dup1\n      calldatasize\n      sub\n      dup2\n      add\n      swap1\n      tag_11\n      swap2\n      swap1\n      tag_12\n      jump\t// in\n    tag_11:\n      tag_13\n      jump\t// in\n    tag_10:\n      mload(0x40)\n      tag_14\n      swap4\n      swap3\n      swap2\n      swap1\n      tag_15\n      jump\t// in\n    tag_14:\n      mload(0x40)\n      dup1\n      swap2\n      sub\n      swap1\n      return\n        /* \"contracts/Persons1.sol\":233:320  function addPerson(Person memory _person) public {... */\n    tag_5:\n      tag_16\n      0x04\n      dup1\n      calldatasize\n      sub\n      dup2\n      add\n      swap1\n      tag_17\n      swap2\n      swap1\n      tag_18\n      jump\t// in\n    tag_17:\n      tag_19\n      jump\t// in\n    tag_16:\n      stop\n        /* \"contracts/Persons1.sol\":326:465  function changeAge(uint _indice, uint newAge) public {... */\n    tag_9:\n        /* \"contracts/Persons1.sol\":389:410  Person storage person */\n      0x00\n        /* \"contracts/Persons1.sol\":413:420  persons */\n      0x00\n        /* \"contracts/Persons1.sol\":421:428  _indice */\n      dup4\n        /* \"contracts/Persons1.sol\":413:429  persons[_indice] */\n      dup2\n      sload\n      dup2\n      lt\n      tag_21\n      jumpi\n      tag_22\n      tag_23\n      jump\t// in\n    tag_22:\n    tag_21:\n      swap1\n      0x00\n      mstore\n      keccak256(0x00, 0x20)\n      swap1\n      0x03\n      mul\n      add\n        /* \"contracts/Persons1.sol\":389:429  Person storage person = persons[_indice] */\n      swap1\n      pop\n        /* \"contracts/Persons1.sol\":452:458  newAge */\n      dup2\n        /* \"contracts/Persons1.sol\":439:445  person */\n      dup2\n        /* \"contracts/Persons1.sol\":439:449  person.age */\n      0x02\n      add\n        /* \"contracts/Persons1.sol\":439:458  person.age = newAge */\n      dup2\n      swap1\n      sstore\n      pop\n        /* \"contracts/Persons1.sol\":379:465  {... */\n      pop\n        /* \"contracts/Persons1.sol\":326:465  function changeAge(uint _indice, uint newAge) public {... */\n      pop\n      pop\n      jump\t// out\n        /* \"contracts/Persons1.sol\":203:226  Person[] public persons */\n    tag_13:\n      0x00\n      dup2\n      dup2\n      sload\n      dup2\n      lt\n      tag_25\n      jumpi\n      0x00\n      dup1\n      revert\n    tag_25:\n      swap1\n      0x00\n      mstore\n      keccak256(0x00, 0x20)\n      swap1\n      0x03\n      mul\n      add\n      0x00\n      swap2\n      pop\n      swap1\n      pop\n      dup1\n      0x00\n      add\n      dup1\n      sload\n      tag_27\n      swap1\n      tag_28\n      jump\t// in\n    tag_27:\n      dup1\n      0x1f\n      add\n      0x20\n      dup1\n      swap2\n      div\n      mul\n      0x20\n      add\n      mload(0x40)\n      swap1\n      dup2\n      add\n      0x40\n      mstore\n      dup1\n      swap3\n      swap2\n      swap1\n      dup2\n      dup2\n      mstore\n      0x20\n      add\n      dup3\n      dup1\n      sload\n      tag_29\n      swap1\n      tag_28\n      jump\t// in\n    tag_29:\n      dup1\n      iszero\n      tag_30\n      jumpi\n      dup1\n      0x1f\n      lt\n      tag_31\n      jumpi\n      0x0100\n      dup1\n      dup4\n      sload\n      div\n      mul\n      dup4\n      mstore\n      swap2\n      0x20\n      add\n      swap2\n      jump(tag_30)\n    tag_31:\n      dup3\n      add\n      swap2\n      swap1\n      0x00\n      mstore\n      keccak256(0x00, 0x20)\n      swap1\n    tag_32:\n      dup2\n      sload\n      dup2\n      mstore\n      swap1\n      0x01\n      add\n      swap1\n      0x20\n      add\n      dup1\n      dup4\n      gt\n      tag_32\n      jumpi\n      dup3\n      swap1\n      sub\n      0x1f\n      and\n      dup3\n      add\n      swap2\n    tag_30:\n      pop\n      pop\n      pop\n      pop\n      pop\n      swap1\n      dup1\n      0x01\n      add\n      dup1\n      sload\n      tag_33\n      swap1\n      tag_28\n      jump\t// in\n    tag_33:\n      dup1\n      0x1f\n      add\n      0x20\n      dup1\n      swap2\n      div\n      mul\n      0x20\n      add\n      mload(0x40)\n      swap1\n      dup2\n      add\n      0x40\n      mstore\n      dup1\n      swap3\n      swap2\n      swap1\n      dup2\n      dup2\n      mstore\n      0x20\n      add\n      dup3\n      dup1\n      sload\n      tag_34\n      swap1\n      tag_28\n      jump\t// in\n    tag_34:\n      dup1\n      iszero\n      tag_35\n      jumpi\n      dup1\n      0x1f\n      lt\n      tag_36\n      jumpi\n      0x0100\n      dup1\n      dup4\n      sload\n      div\n      mul\n      dup4\n      mstore\n      swap2\n      0x20\n      add\n      swap2\n      jump(tag_35)\n    tag_36:\n      dup3\n      add\n      swap2\n      swap1\n      0x00\n      mstore\n      keccak256(0x00, 0x20)\n      swap1\n    tag_37:\n      dup2\n      sload\n      dup2\n      mstore\n      swap1\n      0x01\n      add\n      swap1\n      0x20\n      add\n      dup1\n      dup4\n      gt\n      tag_37\n      jumpi\n      dup3\n      swap1\n      sub\n      0x1f\n      and\n      dup3\n      add\n      swap2\n    tag_35:\n      pop\n      pop\n      pop\n      pop\n      pop\n      swap1\n      dup1\n      0x02\n      add\n      sload\n      swap1\n      pop\n      dup4\n      jump\t// out\n        /* \"contracts/Persons1.sol\":233:320  function addPerson(Person memory _person) public {... */\n    tag_19:\n        /* \"contracts/Persons1.sol\":292:299  persons */\n      0x00\n        /* \"contracts/Persons1.sol\":305:312  _person */\n      dup2\n        /* \"contracts/Persons1.sol\":292:313  persons.push(_person) */\n      swap1\n      dup1\n      0x01\n      dup2\n      sload\n      add\n      dup1\n      dup3\n      sstore\n      dup1\n      swap2\n      pop\n      pop\n      0x01\n      swap1\n      sub\n      swap1\n      0x00\n      mstore\n      keccak256(0x00, 0x20)\n      swap1\n      0x03\n      mul\n      add\n      0x00\n      swap1\n      swap2\n      swap1\n      swap2\n      swap1\n      swap2\n      pop\n      0x00\n      dup3\n      add\n      mload\n      dup2\n      0x00\n      add\n      swap1\n      dup2\n      tag_40\n      swap2\n      swap1\n      tag_41\n      jump\t// in\n    tag_40:\n      pop\n      0x20\n      dup3\n      add\n      mload\n      dup2\n      0x01\n      add\n      swap1\n      dup2\n      tag_42\n      swap2\n      swap1\n      tag_41\n      jump\t// in\n    tag_42:\n      pop\n      0x40\n      dup3\n      add\n      mload\n      dup2\n      0x02\n      add\n      sstore\n      pop\n      pop\n        /* \"contracts/Persons1.sol\":233:320  function addPerson(Person memory _person) public {... */\n      pop\n      jump\t// out\n        /* \"#utility.yul\":7:82   */\n    tag_43:\n        /* \"#utility.yul\":40:46   */\n      0x00\n        /* \"#utility.yul\":73:75   */\n      0x40\n        /* \"#utility.yul\":67:76   */\n      mload\n        /* \"#utility.yul\":57:76   */\n      swap1\n      pop\n        /* \"#utility.yul\":7:82   */\n      swap1\n      jump\t// out\n        /* \"#utility.yul\":88:205   */\n    tag_44:\n        /* \"#utility.yul\":197:198   */\n      0x00\n        /* \"#utility.yul\":194:195   */\n      0x00\n        /* \"#utility.yul\":187:199   */\n      revert\n        /* \"#utility.yul\":211:328   */\n    tag_45:\n        /* \"#utility.yul\":320:321   */\n      0x00\n        /* \"#utility.yul\":317:318   */\n      0x00\n        /* \"#utility.yul\":310:322   */\n      revert\n        /* \"#utility.yul\":334:411   */\n    tag_46:\n        /* \"#utility.yul\":371:378   */\n      0x00\n        /* \"#utility.yul\":400:405   */\n      dup2\n        /* \"#utility.yul\":389:405   */\n      swap1\n      pop\n        /* \"#utility.yul\":334:411   */\n      swap2\n      swap1\n      pop\n      jump\t// out\n        /* \"#utility.yul\":417:539   */\n    tag_47:\n        /* \"#utility.yul\":490:514   */\n      tag_89\n        /* \"#utility.yul\":508:513   */\n      dup2\n        /* \"#utility.yul\":490:514   */\n      tag_46\n      jump\t// in\n    tag_89:\n        /* \"#utility.yul\":483:488   */\n      dup2\n        /* \"#utility.yul\":480:515   */\n      eq\n        /* \"#utility.yul\":470:533   */\n      tag_90\n      jumpi\n        /* \"#utility.yul\":529:530   */\n      0x00\n        /* \"#utility.yul\":526:527   */\n      0x00\n        /* \"#utility.yul\":519:531   */\n      revert\n        /* \"#utility.yul\":470:533   */\n    tag_90:\n        /* \"#utility.yul\":417:539   */\n      pop\n      jump\t// out\n        /* \"#utility.yul\":545:684   */\n    tag_48:\n        /* \"#utility.yul\":591:596   */\n      0x00\n        /* \"#utility.yul\":629:635   */\n      dup2\n        /* \"#utility.yul\":616:636   */\n      calldataload\n        /* \"#utility.yul\":607:636   */\n      swap1\n      pop\n        /* \"#utility.yul\":645:678   */\n      tag_92\n        /* \"#utility.yul\":672:677   */\n      dup2\n        /* \"#utility.yul\":645:678   */\n      tag_47\n      jump\t// in\n    tag_92:\n        /* \"#utility.yul\":545:684   */\n      swap3\n      swap2\n      pop\n      pop\n      jump\t// out\n        /* \"#utility.yul\":690:1164   */\n    tag_8:\n        /* \"#utility.yul\":758:764   */\n      0x00\n        /* \"#utility.yul\":766:772   */\n      0x00\n        /* \"#utility.yul\":815:817   */\n      0x40\n        /* \"#utility.yul\":803:812   */\n      dup4\n        /* \"#utility.yul\":794:801   */\n      dup6\n        /* \"#utility.yul\":790:813   */\n      sub\n        /* \"#utility.yul\":786:818   */\n      slt\n        /* \"#utility.yul\":783:902   */\n      iszero\n      tag_94\n      jumpi\n        /* \"#utility.yul\":821:900   */\n      tag_95\n      tag_44\n      jump\t// in\n    tag_95:\n        /* \"#utility.yul\":783:902   */\n    tag_94:\n        /* \"#utility.yul\":941:942   */\n      0x00\n        /* \"#utility.yul\":966:1019   */\n      tag_96\n        /* \"#utility.yul\":1011:1018   */\n      dup6\n        /* \"#utility.yul\":1002:1008   */\n      dup3\n        /* \"#utility.yul\":991:1000   */\n      dup7\n        /* \"#utility.yul\":987:1009   */\n      add\n        /* \"#utility.yul\":966:1019   */\n      tag_48\n      jump\t// in\n    tag_96:\n        /* \"#utility.yul\":956:1019   */\n      swap3\n      pop\n        /* \"#utility.yul\":912:1029   */\n      pop\n        /* \"#utility.yul\":1068:1070   */\n      0x20\n        /* \"#utility.yul\":1094:1147   */\n      tag_97\n        /* \"#utility.yul\":1139:1146   */\n      dup6\n        /* \"#utility.yul\":1130:1136   */\n      dup3\n        /* \"#utility.yul\":1119:1128   */\n      dup7\n        /* \"#utility.yul\":1115:1137   */\n      add\n        /* \"#utility.yul\":1094:1147   */\n      tag_48\n      jump\t// in\n    tag_97:\n        /* \"#utility.yul\":1084:1147   */\n      swap2\n      pop\n        /* \"#utility.yul\":1039:1157   */\n      pop\n        /* \"#utility.yul\":690:1164   */\n      swap3\n      pop\n      swap3\n      swap1\n      pop\n      jump\t// out\n        /* \"#utility.yul\":1170:1499   */\n    tag_12:\n        /* \"#utility.yul\":1229:1235   */\n      0x00\n        /* \"#utility.yul\":1278:1280   */\n      0x20\n        /* \"#utility.yul\":1266:1275   */\n      dup3\n        /* \"#utility.yul\":1257:1264   */\n      dup5\n        /* \"#utility.yul\":1253:1276   */\n      sub\n        /* \"#utility.yul\":1249:1281   */\n      slt\n        /* \"#utility.yul\":1246:1365   */\n      iszero\n      tag_99\n      jumpi\n        /* \"#utility.yul\":1284:1363   */\n      tag_100\n      tag_44\n      jump\t// in\n    tag_100:\n        /* \"#utility.yul\":1246:1365   */\n    tag_99:\n        /* \"#utility.yul\":1404:1405   */\n      0x00\n        /* \"#utility.yul\":1429:1482   */\n      tag_101\n        /* \"#utility.yul\":1474:1481   */\n      dup5\n        /* \"#utility.yul\":1465:1471   */\n      dup3\n        /* \"#utility.yul\":1454:1463   */\n      dup6\n        /* \"#utility.yul\":1450:1472   */\n      add\n        /* \"#utility.yul\":1429:1482   */\n      tag_48\n      jump\t// in\n    tag_101:\n        /* \"#utility.yul\":1419:1482   */\n      swap2\n      pop\n        /* \"#utility.yul\":1375:1492   */\n      pop\n        /* \"#utility.yul\":1170:1499   */\n      swap3\n      swap2\n      pop\n      pop\n      jump\t// out\n        /* \"#utility.yul\":1505:1604   */\n    tag_49:\n        /* \"#utility.yul\":1557:1563   */\n      0x00\n        /* \"#utility.yul\":1591:1596   */\n      dup2\n        /* \"#utility.yul\":1585:1597   */\n      mload\n        /* \"#utility.yul\":1575:1597   */\n      swap1\n      pop\n        /* \"#utility.yul\":1505:1604   */\n      swap2\n      swap1\n      pop\n      jump\t// out\n        /* \"#utility.yul\":1610:1779   */\n    tag_50:\n        /* \"#utility.yul\":1694:1705   */\n      0x00\n        /* \"#utility.yul\":1728:1734   */\n      dup3\n        /* \"#utility.yul\":1723:1726   */\n      dup3\n        /* \"#utility.yul\":1716:1735   */\n      mstore\n        /* \"#utility.yul\":1768:1772   */\n      0x20\n        /* \"#utility.yul\":1763:1766   */\n      dup3\n        /* \"#utility.yul\":1759:1773   */\n      add\n        /* \"#utility.yul\":1744:1773   */\n      swap1\n      pop\n        /* \"#utility.yul\":1610:1779   */\n      swap3\n      swap2\n      pop\n      pop\n      jump\t// out\n        /* \"#utility.yul\":1785:1924   */\n    tag_51:\n        /* \"#utility.yul\":1874:1880   */\n      dup3\n        /* \"#utility.yul\":1869:1872   */\n      dup2\n        /* \"#utility.yul\":1864:1867   */\n      dup4\n        /* \"#utility.yul\":1858:1881   */\n      mcopy\n        /* \"#utility.yul\":1915:1916   */\n      0x00\n        /* \"#utility.yul\":1906:1912   */\n      dup4\n        /* \"#utility.yul\":1901:1904   */\n      dup4\n        /* \"#utility.yul\":1897:1913   */\n      add\n        /* \"#utility.yul\":1890:1917   */\n      mstore\n        /* \"#utility.yul\":1785:1924   */\n      pop\n      pop\n      pop\n      jump\t// out\n        /* \"#utility.yul\":1930:2032   */\n    tag_52:\n        /* \"#utility.yul\":1971:1977   */\n      0x00\n        /* \"#utility.yul\":2022:2024   */\n      0x1f\n        /* \"#utility.yul\":2018:2025   */\n      not\n        /* \"#utility.yul\":2013:2015   */\n      0x1f\n        /* \"#utility.yul\":2006:2011   */\n      dup4\n        /* \"#utility.yul\":2002:2016   */\n      add\n        /* \"#utility.yul\":1998:2026   */\n      and\n        /* \"#utility.yul\":1988:2026   */\n      swap1\n      pop\n        /* \"#utility.yul\":1930:2032   */\n      swap2\n      swap1\n      pop\n      jump\t// out\n        /* \"#utility.yul\":2038:2415   */\n    tag_53:\n        /* \"#utility.yul\":2126:2129   */\n      0x00\n        /* \"#utility.yul\":2154:2193   */\n      tag_107\n        /* \"#utility.yul\":2187:2192   */\n      dup3\n        /* \"#utility.yul\":2154:2193   */\n      tag_49\n      jump\t// in\n    tag_107:\n        /* \"#utility.yul\":2209:2280   */\n      tag_108\n        /* \"#utility.yul\":2273:2279   */\n      dup2\n        /* \"#utility.yul\":2268:2271   */\n      dup6\n        /* \"#utility.yul\":2209:2280   */\n      tag_50\n      jump\t// in\n    tag_108:\n        /* \"#utility.yul\":2202:2280   */\n      swap4\n      pop\n        /* \"#utility.yul\":2289:2354   */\n      tag_109\n        /* \"#utility.yul\":2347:2353   */\n      dup2\n        /* \"#utility.yul\":2342:2345   */\n      dup6\n        /* \"#utility.yul\":2335:2339   */\n      0x20\n        /* \"#utility.yul\":2328:2333   */\n      dup7\n        /* \"#utility.yul\":2324:2340   */\n      add\n        /* \"#utility.yul\":2289:2354   */\n      tag_51\n      jump\t// in\n    tag_109:\n        /* \"#utility.yul\":2379:2408   */\n      tag_110\n        /* \"#utility.yul\":2401:2407   */\n      dup2\n        /* \"#utility.yul\":2379:2408   */\n      tag_52\n      jump\t// in\n    tag_110:\n        /* \"#utility.yul\":2374:2377   */\n      dup5\n        /* \"#utility.yul\":2370:2409   */\n      add\n        /* \"#utility.yul\":2363:2409   */\n      swap2\n      pop\n        /* \"#utility.yul\":2130:2415   */\n      pop\n        /* \"#utility.yul\":2038:2415   */\n      swap3\n      swap2\n      pop\n      pop\n      jump\t// out\n        /* \"#utility.yul\":2421:2539   */\n    tag_54:\n        /* \"#utility.yul\":2508:2532   */\n      tag_112\n        /* \"#utility.yul\":2526:2531   */\n      dup2\n        /* \"#utility.yul\":2508:2532   */\n      tag_46\n      jump\t// in\n    tag_112:\n        /* \"#utility.yul\":2503:2506   */\n      dup3\n        /* \"#utility.yul\":2496:2533   */\n      mstore\n        /* \"#utility.yul\":2421:2539   */\n      pop\n      pop\n      jump\t// out\n        /* \"#utility.yul\":2545:3169   */\n    tag_15:\n        /* \"#utility.yul\":2734:2738   */\n      0x00\n        /* \"#utility.yul\":2772:2774   */\n      0x60\n        /* \"#utility.yul\":2761:2770   */\n      dup3\n        /* \"#utility.yul\":2757:2775   */\n      add\n        /* \"#utility.yul\":2749:2775   */\n      swap1\n      pop\n        /* \"#utility.yul\":2821:2830   */\n      dup2\n        /* \"#utility.yul\":2815:2819   */\n      dup2\n        /* \"#utility.yul\":2811:2831   */\n      sub\n        /* \"#utility.yul\":2807:2808   */\n      0x00\n        /* \"#utility.yul\":2796:2805   */\n      dup4\n        /* \"#utility.yul\":2792:2809   */\n      add\n        /* \"#utility.yul\":2785:2832   */\n      mstore\n        /* \"#utility.yul\":2849:2927   */\n      tag_114\n        /* \"#utility.yul\":2922:2926   */\n      dup2\n        /* \"#utility.yul\":2913:2919   */\n      dup7\n        /* \"#utility.yul\":2849:2927   */\n      tag_53\n      jump\t// in\n    tag_114:\n        /* \"#utility.yul\":2841:2927   */\n      swap1\n      pop\n        /* \"#utility.yul\":2974:2983   */\n      dup2\n        /* \"#utility.yul\":2968:2972   */\n      dup2\n        /* \"#utility.yul\":2964:2984   */\n      sub\n        /* \"#utility.yul\":2959:2961   */\n      0x20\n        /* \"#utility.yul\":2948:2957   */\n      dup4\n        /* \"#utility.yul\":2944:2962   */\n      add\n        /* \"#utility.yul\":2937:2985   */\n      mstore\n        /* \"#utility.yul\":3002:3080   */\n      tag_115\n        /* \"#utility.yul\":3075:3079   */\n      dup2\n        /* \"#utility.yul\":3066:3072   */\n      dup6\n        /* \"#utility.yul\":3002:3080   */\n      tag_53\n      jump\t// in\n    tag_115:\n        /* \"#utility.yul\":2994:3080   */\n      swap1\n      pop\n        /* \"#utility.yul\":3090:3162   */\n      tag_116\n        /* \"#utility.yul\":3158:3160   */\n      0x40\n        /* \"#utility.yul\":3147:3156   */\n      dup4\n        /* \"#utility.yul\":3143:3161   */\n      add\n        /* \"#utility.yul\":3134:3140   */\n      dup5\n        /* \"#utility.yul\":3090:3162   */\n      tag_54\n      jump\t// in\n    tag_116:\n        /* \"#utility.yul\":2545:3169   */\n      swap5\n      swap4\n      pop\n      pop\n      pop\n      pop\n      jump\t// out\n        /* \"#utility.yul\":3175:3292   */\n    tag_55:\n        /* \"#utility.yul\":3284:3285   */\n      0x00\n        /* \"#utility.yul\":3281:3282   */\n      0x00\n        /* \"#utility.yul\":3274:3286   */\n      revert\n        /* \"#utility.yul\":3298:3478   */\n    tag_56:\n        /* \"#utility.yul\":3346:3423   */\n      0x4e487b7100000000000000000000000000000000000000000000000000000000\n        /* \"#utility.yul\":3343:3344   */\n      0x00\n        /* \"#utility.yul\":3336:3424   */\n      mstore\n        /* \"#utility.yul\":3443:3447   */\n      0x41\n        /* \"#utility.yul\":3440:3441   */\n      0x04\n        /* \"#utility.yul\":3433:3448   */\n      mstore\n        /* \"#utility.yul\":3467:3471   */\n      0x24\n        /* \"#utility.yul\":3464:3465   */\n      0x00\n        /* \"#utility.yul\":3457:3472   */\n      revert\n        /* \"#utility.yul\":3484:3765   */\n    tag_57:\n        /* \"#utility.yul\":3567:3594   */\n      tag_120\n        /* \"#utility.yul\":3589:3593   */\n      dup3\n        /* \"#utility.yul\":3567:3594   */\n      tag_52\n      jump\t// in\n    tag_120:\n        /* \"#utility.yul\":3559:3565   */\n      dup2\n        /* \"#utility.yul\":3555:3595   */\n      add\n        /* \"#utility.yul\":3697:3703   */\n      dup2\n        /* \"#utility.yul\":3685:3695   */\n      dup2\n        /* \"#utility.yul\":3682:3704   */\n      lt\n        /* \"#utility.yul\":3661:3679   */\n      0xffffffffffffffff\n        /* \"#utility.yul\":3649:3659   */\n      dup3\n        /* \"#utility.yul\":3646:3680   */\n      gt\n        /* \"#utility.yul\":3643:3705   */\n      or\n        /* \"#utility.yul\":3640:3728   */\n      iszero\n      tag_121\n      jumpi\n        /* \"#utility.yul\":3708:3726   */\n      tag_122\n      tag_56\n      jump\t// in\n    tag_122:\n        /* \"#utility.yul\":3640:3728   */\n    tag_121:\n        /* \"#utility.yul\":3748:3758   */\n      dup1\n        /* \"#utility.yul\":3744:3746   */\n      0x40\n        /* \"#utility.yul\":3737:3759   */\n      mstore\n        /* \"#utility.yul\":3527:3765   */\n      pop\n        /* \"#utility.yul\":3484:3765   */\n      pop\n      pop\n      jump\t// out\n        /* \"#utility.yul\":3771:3900   */\n    tag_58:\n        /* \"#utility.yul\":3805:3811   */\n      0x00\n        /* \"#utility.yul\":3832:3852   */\n      tag_124\n      tag_43\n      jump\t// in\n    tag_124:\n        /* \"#utility.yul\":3822:3852   */\n      swap1\n      pop\n        /* \"#utility.yul\":3861:3894   */\n      tag_125\n        /* \"#utility.yul\":3889:3893   */\n      dup3\n        /* \"#utility.yul\":3881:3887   */\n      dup3\n        /* \"#utility.yul\":3861:3894   */\n      tag_57\n      jump\t// in\n    tag_125:\n        /* \"#utility.yul\":3771:3900   */\n      swap2\n      swap1\n      pop\n      jump\t// out\n        /* \"#utility.yul\":3906:4023   */\n    tag_59:\n        /* \"#utility.yul\":4015:4016   */\n      0x00\n        /* \"#utility.yul\":4012:4013   */\n      0x00\n        /* \"#utility.yul\":4005:4017   */\n      revert\n        /* \"#utility.yul\":4029:4146   */\n    tag_60:\n        /* \"#utility.yul\":4138:4139   */\n      0x00\n        /* \"#utility.yul\":4135:4136   */\n      0x00\n        /* \"#utility.yul\":4128:4140   */\n      revert\n        /* \"#utility.yul\":4152:4269   */\n    tag_61:\n        /* \"#utility.yul\":4261:4262   */\n      0x00\n        /* \"#utility.yul\":4258:4259   */\n      0x00\n        /* \"#utility.yul\":4251:4263   */\n      revert\n        /* \"#utility.yul\":4275:4583   */\n    tag_62:\n        /* \"#utility.yul\":4337:4341   */\n      0x00\n        /* \"#utility.yul\":4427:4445   */\n      0xffffffffffffffff\n        /* \"#utility.yul\":4419:4425   */\n      dup3\n        /* \"#utility.yul\":4416:4446   */\n      gt\n        /* \"#utility.yul\":4413:4469   */\n      iszero\n      tag_130\n      jumpi\n        /* \"#utility.yul\":4449:4467   */\n      tag_131\n      tag_56\n      jump\t// in\n    tag_131:\n        /* \"#utility.yul\":4413:4469   */\n    tag_130:\n        /* \"#utility.yul\":4487:4516   */\n      tag_132\n        /* \"#utility.yul\":4509:4515   */\n      dup3\n        /* \"#utility.yul\":4487:4516   */\n      tag_52\n      jump\t// in\n    tag_132:\n        /* \"#utility.yul\":4479:4516   */\n      swap1\n      pop\n        /* \"#utility.yul\":4571:4575   */\n      0x20\n        /* \"#utility.yul\":4565:4569   */\n      dup2\n        /* \"#utility.yul\":4561:4576   */\n      add\n        /* \"#utility.yul\":4553:4576   */\n      swap1\n      pop\n        /* \"#utility.yul\":4275:4583   */\n      swap2\n      swap1\n      pop\n      jump\t// out\n        /* \"#utility.yul\":4589:4737   */\n    tag_63:\n        /* \"#utility.yul\":4687:4693   */\n      dup3\n        /* \"#utility.yul\":4682:4685   */\n      dup2\n        /* \"#utility.yul\":4677:4680   */\n      dup4\n        /* \"#utility.yul\":4664:4694   */\n      calldatacopy\n        /* \"#utility.yul\":4728:4729   */\n      0x00\n        /* \"#utility.yul\":4719:4725   */\n      dup4\n        /* \"#utility.yul\":4714:4717   */\n      dup4\n        /* \"#utility.yul\":4710:4726   */\n      add\n        /* \"#utility.yul\":4703:4730   */\n      mstore\n        /* \"#utility.yul\":4589:4737   */\n      pop\n      pop\n      pop\n      jump\t// out\n        /* \"#utility.yul\":4743:5168   */\n    tag_64:\n        /* \"#utility.yul\":4821:4826   */\n      0x00\n        /* \"#utility.yul\":4846:4912   */\n      tag_135\n        /* \"#utility.yul\":4862:4911   */\n      tag_136\n        /* \"#utility.yul\":4904:4910   */\n      dup5\n        /* \"#utility.yul\":4862:4911   */\n      tag_62\n      jump\t// in\n    tag_136:\n        /* \"#utility.yul\":4846:4912   */\n      tag_58\n      jump\t// in\n    tag_135:\n        /* \"#utility.yul\":4837:4912   */\n      swap1\n      pop\n        /* \"#utility.yul\":4935:4941   */\n      dup3\n        /* \"#utility.yul\":4928:4933   */\n      dup2\n        /* \"#utility.yul\":4921:4942   */\n      mstore\n        /* \"#utility.yul\":4973:4977   */\n      0x20\n        /* \"#utility.yul\":4966:4971   */\n      dup2\n        /* \"#utility.yul\":4962:4978   */\n      add\n        /* \"#utility.yul\":5011:5014   */\n      dup5\n        /* \"#utility.yul\":5002:5008   */\n      dup5\n        /* \"#utility.yul\":4997:5000   */\n      dup5\n        /* \"#utility.yul\":4993:5009   */\n      add\n        /* \"#utility.yul\":4990:5015   */\n      gt\n        /* \"#utility.yul\":4987:5099   */\n      iszero\n      tag_137\n      jumpi\n        /* \"#utility.yul\":5018:5097   */\n      tag_138\n      tag_61\n      jump\t// in\n    tag_138:\n        /* \"#utility.yul\":4987:5099   */\n    tag_137:\n        /* \"#utility.yul\":5108:5162   */\n      tag_139\n        /* \"#utility.yul\":5155:5161   */\n      dup5\n        /* \"#utility.yul\":5150:5153   */\n      dup3\n        /* \"#utility.yul\":5145:5148   */\n      dup6\n        /* \"#utility.yul\":5108:5162   */\n      tag_63\n      jump\t// in\n    tag_139:\n        /* \"#utility.yul\":4827:5168   */\n      pop\n        /* \"#utility.yul\":4743:5168   */\n      swap4\n      swap3\n      pop\n      pop\n      pop\n      jump\t// out\n        /* \"#utility.yul\":5188:5528   */\n    tag_65:\n        /* \"#utility.yul\":5244:5249   */\n      0x00\n        /* \"#utility.yul\":5293:5296   */\n      dup3\n        /* \"#utility.yul\":5286:5290   */\n      0x1f\n        /* \"#utility.yul\":5278:5284   */\n      dup4\n        /* \"#utility.yul\":5274:5291   */\n      add\n        /* \"#utility.yul\":5270:5297   */\n      slt\n        /* \"#utility.yul\":5260:5382   */\n      tag_141\n      jumpi\n        /* \"#utility.yul\":5301:5380   */\n      tag_142\n      tag_60\n      jump\t// in\n    tag_142:\n        /* \"#utility.yul\":5260:5382   */\n    tag_141:\n        /* \"#utility.yul\":5418:5424   */\n      dup2\n        /* \"#utility.yul\":5405:5425   */\n      calldataload\n        /* \"#utility.yul\":5443:5522   */\n      tag_143\n        /* \"#utility.yul\":5518:5521   */\n      dup5\n        /* \"#utility.yul\":5510:5516   */\n      dup3\n        /* \"#utility.yul\":5503:5507   */\n      0x20\n        /* \"#utility.yul\":5495:5501   */\n      dup7\n        /* \"#utility.yul\":5491:5508   */\n      add\n        /* \"#utility.yul\":5443:5522   */\n      tag_64\n      jump\t// in\n    tag_143:\n        /* \"#utility.yul\":5434:5522   */\n      swap2\n      pop\n        /* \"#utility.yul\":5250:5528   */\n      pop\n        /* \"#utility.yul\":5188:5528   */\n      swap3\n      swap2\n      pop\n      pop\n      jump\t// out\n        /* \"#utility.yul\":5563:6642   */\n    tag_66:\n        /* \"#utility.yul\":5633:5638   */\n      0x00\n        /* \"#utility.yul\":5677:5681   */\n      0x60\n        /* \"#utility.yul\":5665:5674   */\n      dup3\n        /* \"#utility.yul\":5660:5663   */\n      dup5\n        /* \"#utility.yul\":5656:5675   */\n      sub\n        /* \"#utility.yul\":5652:5682   */\n      slt\n        /* \"#utility.yul\":5649:5766   */\n      iszero\n      tag_145\n      jumpi\n        /* \"#utility.yul\":5685:5764   */\n      tag_146\n      tag_55\n      jump\t// in\n    tag_146:\n        /* \"#utility.yul\":5649:5766   */\n    tag_145:\n        /* \"#utility.yul\":5784:5805   */\n      tag_147\n        /* \"#utility.yul\":5800:5804   */\n      0x60\n        /* \"#utility.yul\":5784:5805   */\n      tag_58\n      jump\t// in\n    tag_147:\n        /* \"#utility.yul\":5775:5805   */\n      swap1\n      pop\n        /* \"#utility.yul\":5897:5898   */\n      0x00\n        /* \"#utility.yul\":5886:5895   */\n      dup3\n        /* \"#utility.yul\":5882:5899   */\n      add\n        /* \"#utility.yul\":5869:5900   */\n      calldataload\n        /* \"#utility.yul\":5927:5945   */\n      0xffffffffffffffff\n        /* \"#utility.yul\":5919:5925   */\n      dup2\n        /* \"#utility.yul\":5916:5946   */\n      gt\n        /* \"#utility.yul\":5913:6030   */\n      iszero\n      tag_148\n      jumpi\n        /* \"#utility.yul\":5949:6028   */\n      tag_149\n      tag_59\n      jump\t// in\n    tag_149:\n        /* \"#utility.yul\":5913:6030   */\n    tag_148:\n        /* \"#utility.yul\":6069:6128   */\n      tag_150\n        /* \"#utility.yul\":6124:6127   */\n      dup5\n        /* \"#utility.yul\":6115:6121   */\n      dup3\n        /* \"#utility.yul\":6104:6113   */\n      dup6\n        /* \"#utility.yul\":6100:6122   */\n      add\n        /* \"#utility.yul\":6069:6128   */\n      tag_65\n      jump\t// in\n    tag_150:\n        /* \"#utility.yul\":6062:6066   */\n      0x00\n        /* \"#utility.yul\":6055:6060   */\n      dup4\n        /* \"#utility.yul\":6051:6067   */\n      add\n        /* \"#utility.yul\":6044:6129   */\n      mstore\n        /* \"#utility.yul\":5815:6140   */\n      pop\n        /* \"#utility.yul\":6231:6233   */\n      0x20\n        /* \"#utility.yul\":6220:6229   */\n      dup3\n        /* \"#utility.yul\":6216:6234   */\n      add\n        /* \"#utility.yul\":6203:6235   */\n      calldataload\n        /* \"#utility.yul\":6262:6280   */\n      0xffffffffffffffff\n        /* \"#utility.yul\":6254:6260   */\n      dup2\n        /* \"#utility.yul\":6251:6281   */\n      gt\n        /* \"#utility.yul\":6248:6365   */\n      iszero\n      tag_151\n      jumpi\n        /* \"#utility.yul\":6284:6363   */\n      tag_152\n      tag_59\n      jump\t// in\n    tag_152:\n        /* \"#utility.yul\":6248:6365   */\n    tag_151:\n        /* \"#utility.yul\":6404:6463   */\n      tag_153\n        /* \"#utility.yul\":6459:6462   */\n      dup5\n        /* \"#utility.yul\":6450:6456   */\n      dup3\n        /* \"#utility.yul\":6439:6448   */\n      dup6\n        /* \"#utility.yul\":6435:6457   */\n      add\n        /* \"#utility.yul\":6404:6463   */\n      tag_65\n      jump\t// in\n    tag_153:\n        /* \"#utility.yul\":6397:6401   */\n      0x20\n        /* \"#utility.yul\":6390:6395   */\n      dup4\n        /* \"#utility.yul\":6386:6402   */\n      add\n        /* \"#utility.yul\":6379:6464   */\n      mstore\n        /* \"#utility.yul\":6150:6475   */\n      pop\n        /* \"#utility.yul\":6533:6535   */\n      0x40\n        /* \"#utility.yul\":6574:6623   */\n      tag_154\n        /* \"#utility.yul\":6619:6622   */\n      dup5\n        /* \"#utility.yul\":6610:6616   */\n      dup3\n        /* \"#utility.yul\":6599:6608   */\n      dup6\n        /* \"#utility.yul\":6595:6617   */\n      add\n        /* \"#utility.yul\":6574:6623   */\n      tag_48\n      jump\t// in\n    tag_154:\n        /* \"#utility.yul\":6567:6571   */\n      0x40\n        /* \"#utility.yul\":6560:6565   */\n      dup4\n        /* \"#utility.yul\":6556:6572   */\n      add\n        /* \"#utility.yul\":6549:6624   */\n      mstore\n        /* \"#utility.yul\":6485:6635   */\n      pop\n        /* \"#utility.yul\":5563:6642   */\n      swap3\n      swap2\n      pop\n      pop\n      jump\t// out\n        /* \"#utility.yul\":6648:7179   */\n    tag_18:\n        /* \"#utility.yul\":6728:6734   */\n      0x00\n        /* \"#utility.yul\":6777:6779   */\n      0x20\n        /* \"#utility.yul\":6765:6774   */\n      dup3\n        /* \"#utility.yul\":6756:6763   */\n      dup5\n        /* \"#utility.yul\":6752:6775   */\n      sub\n        /* \"#utility.yul\":6748:6780   */\n      slt\n        /* \"#utility.yul\":6745:6864   */\n      iszero\n      tag_156\n      jumpi\n        /* \"#utility.yul\":6783:6862   */\n      tag_157\n      tag_44\n      jump\t// in\n    tag_157:\n        /* \"#utility.yul\":6745:6864   */\n    tag_156:\n        /* \"#utility.yul\":6931:6932   */\n      0x00\n        /* \"#utility.yul\":6920:6929   */\n      dup3\n        /* \"#utility.yul\":6916:6933   */\n      add\n        /* \"#utility.yul\":6903:6934   */\n      calldataload\n        /* \"#utility.yul\":6961:6979   */\n      0xffffffffffffffff\n        /* \"#utility.yul\":6953:6959   */\n      dup2\n        /* \"#utility.yul\":6950:6980   */\n      gt\n        /* \"#utility.yul\":6947:7064   */\n      iszero\n      tag_158\n      jumpi\n        /* \"#utility.yul\":6983:7062   */\n      tag_159\n      tag_45\n      jump\t// in\n    tag_159:\n        /* \"#utility.yul\":6947:7064   */\n    tag_158:\n        /* \"#utility.yul\":7088:7162   */\n      tag_160\n        /* \"#utility.yul\":7154:7161   */\n      dup5\n        /* \"#utility.yul\":7145:7151   */\n      dup3\n        /* \"#utility.yul\":7134:7143   */\n      dup6\n        /* \"#utility.yul\":7130:7152   */\n      add\n        /* \"#utility.yul\":7088:7162   */\n      tag_66\n      jump\t// in\n    tag_160:\n        /* \"#utility.yul\":7078:7162   */\n      swap2\n      pop\n        /* \"#utility.yul\":6874:7172   */\n      pop\n        /* \"#utility.yul\":6648:7179   */\n      swap3\n      swap2\n      pop\n      pop\n      jump\t// out\n        /* \"#utility.yul\":7185:7365   */\n    tag_23:\n        /* \"#utility.yul\":7233:7310   */\n      0x4e487b7100000000000000000000000000000000000000000000000000000000\n        /* \"#utility.yul\":7230:7231   */\n      0x00\n        /* \"#utility.yul\":7223:7311   */\n      mstore\n        /* \"#utility.yul\":7330:7334   */\n      0x32\n        /* \"#utility.yul\":7327:7328   */\n      0x04\n        /* \"#utility.yul\":7320:7335   */\n      mstore\n        /* \"#utility.yul\":7354:7358   */\n      0x24\n        /* \"#utility.yul\":7351:7352   */\n      0x00\n        /* \"#utility.yul\":7344:7359   */\n      revert\n        /* \"#utility.yul\":7371:7551   */\n    tag_67:\n        /* \"#utility.yul\":7419:7496   */\n      0x4e487b7100000000000000000000000000000000000000000000000000000000\n        /* \"#utility.yul\":7416:7417   */\n      0x00\n        /* \"#utility.yul\":7409:7497   */\n      mstore\n        /* \"#utility.yul\":7516:7520   */\n      0x22\n        /* \"#utility.yul\":7513:7514   */\n      0x04\n        /* \"#utility.yul\":7506:7521   */\n      mstore\n        /* \"#utility.yul\":7540:7544   */\n      0x24\n        /* \"#utility.yul\":7537:7538   */\n      0x00\n        /* \"#utility.yul\":7530:7545   */\n      revert\n        /* \"#utility.yul\":7557:7877   */\n    tag_28:\n        /* \"#utility.yul\":7601:7607   */\n      0x00\n        /* \"#utility.yul\":7638:7639   */\n      0x02\n        /* \"#utility.yul\":7632:7636   */\n      dup3\n        /* \"#utility.yul\":7628:7640   */\n      div\n        /* \"#utility.yul\":7618:7640   */\n      swap1\n      pop\n        /* \"#utility.yul\":7685:7686   */\n      0x01\n        /* \"#utility.yul\":7679:7683   */\n      dup3\n        /* \"#utility.yul\":7675:7687   */\n      and\n        /* \"#utility.yul\":7706:7724   */\n      dup1\n        /* \"#utility.yul\":7696:7777   */\n      tag_164\n      jumpi\n        /* \"#utility.yul\":7762:7766   */\n      0x7f\n        /* \"#utility.yul\":7754:7760   */\n      dup3\n        /* \"#utility.yul\":7750:7767   */\n      and\n        /* \"#utility.yul\":7740:7767   */\n      swap2\n      pop\n        /* \"#utility.yul\":7696:7777   */\n    tag_164:\n        /* \"#utility.yul\":7824:7826   */\n      0x20\n        /* \"#utility.yul\":7816:7822   */\n      dup3\n        /* \"#utility.yul\":7813:7827   */\n      lt\n        /* \"#utility.yul\":7793:7811   */\n      dup2\n        /* \"#utility.yul\":7790:7828   */\n      sub\n        /* \"#utility.yul\":7787:7871   */\n      tag_165\n      jumpi\n        /* \"#utility.yul\":7843:7861   */\n      tag_166\n      tag_67\n      jump\t// in\n    tag_166:\n        /* \"#utility.yul\":7787:7871   */\n    tag_165:\n        /* \"#utility.yul\":7608:7877   */\n      pop\n        /* \"#utility.yul\":7557:7877   */\n      swap2\n      swap1\n      pop\n      jump\t// out\n        /* \"#utility.yul\":7883:8024   */\n    tag_68:\n        /* \"#utility.yul\":7932:7936   */\n      0x00\n        /* \"#utility.yul\":7955:7958   */\n      dup2\n        /* \"#utility.yul\":7947:7958   */\n      swap1\n      pop\n        /* \"#utility.yul\":7978:7981   */\n      dup2\n        /* \"#utility.yul\":7975:7976   */\n      0x00\n        /* \"#utility.yul\":7968:7982   */\n      mstore\n        /* \"#utility.yul\":8012:8016   */\n      0x20\n        /* \"#utility.yul\":8009:8010   */\n      0x00\n        /* \"#utility.yul\":7999:8017   */\n      keccak256\n        /* \"#utility.yul\":7991:8017   */\n      swap1\n      pop\n        /* \"#utility.yul\":7883:8024   */\n      swap2\n      swap1\n      pop\n      jump\t// out\n        /* \"#utility.yul\":8030:8123   */\n    tag_69:\n        /* \"#utility.yul\":8067:8073   */\n      0x00\n        /* \"#utility.yul\":8114:8116   */\n      0x20\n        /* \"#utility.yul\":8109:8111   */\n      0x1f\n        /* \"#utility.yul\":8102:8107   */\n      dup4\n        /* \"#utility.yul\":8098:8112   */\n      add\n        /* \"#utility.yul\":8094:8117   */\n      div\n        /* \"#utility.yul\":8084:8117   */\n      swap1\n      pop\n        /* \"#utility.yul\":8030:8123   */\n      swap2\n      swap1\n      pop\n      jump\t// out\n        /* \"#utility.yul\":8129:8236   */\n    tag_70:\n        /* \"#utility.yul\":8173:8181   */\n      0x00\n        /* \"#utility.yul\":8223:8228   */\n      dup3\n        /* \"#utility.yul\":8217:8221   */\n      dup3\n        /* \"#utility.yul\":8213:8229   */\n      shl\n        /* \"#utility.yul\":8192:8229   */\n      swap1\n      pop\n        /* \"#utility.yul\":8129:8236   */\n      swap3\n      swap2\n      pop\n      pop\n      jump\t// out\n        /* \"#utility.yul\":8242:8635   */\n    tag_71:\n        /* \"#utility.yul\":8311:8317   */\n      0x00\n        /* \"#utility.yul\":8361:8362   */\n      0x08\n        /* \"#utility.yul\":8349:8359   */\n      dup4\n        /* \"#utility.yul\":8345:8363   */\n      mul\n        /* \"#utility.yul\":8384:8481   */\n      tag_171\n        /* \"#utility.yul\":8414:8480   */\n      0xffffffffffffffffffffffffffffffffffffffffffffffffffffffffffffffff\n        /* \"#utility.yul\":8403:8412   */\n      dup3\n        /* \"#utility.yul\":8384:8481   */\n      tag_70\n      jump\t// in\n    tag_171:\n        /* \"#utility.yul\":8502:8541   */\n      tag_172\n        /* \"#utility.yul\":8532:8540   */\n      dup7\n        /* \"#utility.yul\":8521:8530   */\n      dup4\n        /* \"#utility.yul\":8502:8541   */\n      tag_70\n      jump\t// in\n    tag_172:\n        /* \"#utility.yul\":8490:8541   */\n      swap6\n      pop\n        /* \"#utility.yul\":8574:8578   */\n      dup1\n        /* \"#utility.yul\":8570:8579   */\n      not\n        /* \"#utility.yul\":8563:8568   */\n      dup5\n        /* \"#utility.yul\":8559:8580   */\n      and\n        /* \"#utility.yul\":8550:8580   */\n      swap4\n      pop\n        /* \"#utility.yul\":8623:8627   */\n      dup1\n        /* \"#utility.yul\":8613:8621   */\n      dup7\n        /* \"#utility.yul\":8609:8628   */\n      and\n        /* \"#utility.yul\":8602:8607   */\n      dup5\n        /* \"#utility.yul\":8599:8629   */\n      or\n        /* \"#utility.yul\":8589:8629   */\n      swap3\n      pop\n        /* \"#utility.yul\":8318:8635   */\n      pop\n      pop\n        /* \"#utility.yul\":8242:8635   */\n      swap4\n      swap3\n      pop\n      pop\n      pop\n      jump\t// out\n        /* \"#utility.yul\":8641:8701   */\n    tag_72:\n        /* \"#utility.yul\":8669:8672   */\n      0x00\n        /* \"#utility.yul\":8690:8695   */\n      dup2\n        /* \"#utility.yul\":8683:8695   */\n      swap1\n      pop\n        /* \"#utility.yul\":8641:8701   */\n      swap2\n      swap1\n      pop\n      jump\t// out\n        /* \"#utility.yul\":8707:8849   */\n    tag_73:\n        /* \"#utility.yul\":8757:8766   */\n      0x00\n        /* \"#utility.yul\":8790:8843   */\n      tag_175\n        /* \"#utility.yul\":8808:8842   */\n      tag_176\n        /* \"#utility.yul\":8817:8841   */\n      tag_177\n        /* \"#utility.yul\":8835:8840   */\n      dup5\n        /* \"#utility.yul\":8817:8841   */\n      tag_46\n      jump\t// in\n    tag_177:\n        /* \"#utility.yul\":8808:8842   */\n      tag_72\n      jump\t// in\n    tag_176:\n        /* \"#utility.yul\":8790:8843   */\n      tag_46\n      jump\t// in\n    tag_175:\n        /* \"#utility.yul\":8777:8843   */\n      swap1\n      pop\n        /* \"#utility.yul\":8707:8849   */\n      swap2\n      swap1\n      pop\n      jump\t// out\n        /* \"#utility.yul\":8855:8930   */\n    tag_74:\n        /* \"#utility.yul\":8898:8901   */\n      0x00\n        /* \"#utility.yul\":8919:8924   */\n      dup2\n        /* \"#utility.yul\":8912:8924   */\n      swap1\n      pop\n        /* \"#utility.yul\":8855:8930   */\n      swap2\n      swap1\n      pop\n      jump\t// out\n        /* \"#utility.yul\":8936:9205   */\n    tag_75:\n        /* \"#utility.yul\":9046:9085   */\n      tag_180\n        /* \"#utility.yul\":9077:9084   */\n      dup4\n        /* \"#utility.yul\":9046:9085   */\n      tag_73\n      jump\t// in\n    tag_180:\n        /* \"#utility.yul\":9107:9198   */\n      tag_181\n        /* \"#utility.yul\":9156:9197   */\n      tag_182\n        /* \"#utility.yul\":9180:9196   */\n      dup3\n        /* \"#utility.yul\":9156:9197   */\n      tag_74\n      jump\t// in\n    tag_182:\n        /* \"#utility.yul\":9148:9154   */\n      dup5\n        /* \"#utility.yul\":9141:9145   */\n      dup5\n        /* \"#utility.yul\":9135:9146   */\n      sload\n        /* \"#utility.yul\":9107:9198   */\n      tag_71\n      jump\t// in\n    tag_181:\n        /* \"#utility.yul\":9101:9105   */\n      dup3\n        /* \"#utility.yul\":9094:9199   */\n      sstore\n        /* \"#utility.yul\":9012:9205   */\n      pop\n        /* \"#utility.yul\":8936:9205   */\n      pop\n      pop\n      pop\n      jump\t// out\n        /* \"#utility.yul\":9211:9284   */\n    tag_76:\n        /* \"#utility.yul\":9256:9259   */\n      0x00\n        /* \"#utility.yul\":9277:9278   */\n      0x00\n        /* \"#utility.yul\":9270:9278   */\n      swap1\n      pop\n        /* \"#utility.yul\":9211:9284   */\n      swap1\n      jump\t// out\n        /* \"#utility.yul\":9290:9479   */\n    tag_77:\n        /* \"#utility.yul\":9367:9399   */\n      tag_185\n      tag_76\n      jump\t// in\n    tag_185:\n        /* \"#utility.yul\":9408:9473   */\n      tag_186\n        /* \"#utility.yul\":9466:9472   */\n      dup2\n        /* \"#utility.yul\":9458:9464   */\n      dup5\n        /* \"#utility.yul\":9452:9456   */\n      dup5\n        /* \"#utility.yul\":9408:9473   */\n      tag_75\n      jump\t// in\n    tag_186:\n        /* \"#utility.yul\":9343:9479   */\n      pop\n        /* \"#utility.yul\":9290:9479   */\n      pop\n      pop\n      jump\t// out\n        /* \"#utility.yul\":9485:9671   */\n    tag_78:\n        /* \"#utility.yul\":9545:9665   */\n    tag_188:\n        /* \"#utility.yul\":9562:9565   */\n      dup2\n        /* \"#utility.yul\":9555:9560   */\n      dup2\n        /* \"#utility.yul\":9552:9566   */\n      lt\n        /* \"#utility.yul\":9545:9665   */\n      iszero\n      tag_190\n      jumpi\n        /* \"#utility.yul\":9616:9655   */\n      tag_191\n        /* \"#utility.yul\":9653:9654   */\n      0x00\n        /* \"#utility.yul\":9646:9651   */\n      dup3\n        /* \"#utility.yul\":9616:9655   */\n      tag_77\n      jump\t// in\n    tag_191:\n        /* \"#utility.yul\":9589:9590   */\n      0x01\n        /* \"#utility.yul\":9582:9587   */\n      dup2\n        /* \"#utility.yul\":9578:9591   */\n      add\n        /* \"#utility.yul\":9569:9591   */\n      swap1\n      pop\n        /* \"#utility.yul\":9545:9665   */\n      jump(tag_188)\n    tag_190:\n        /* \"#utility.yul\":9485:9671   */\n      pop\n      pop\n      jump\t// out\n        /* \"#utility.yul\":9677:10220   */\n    tag_79:\n        /* \"#utility.yul\":9778:9780   */\n      0x1f\n        /* \"#utility.yul\":9773:9776   */\n      dup3\n        /* \"#utility.yul\":9770:9781   */\n      gt\n        /* \"#utility.yul\":9767:10213   */\n      iszero\n      tag_193\n      jumpi\n        /* \"#utility.yul\":9812:9850   */\n      tag_194\n        /* \"#utility.yul\":9844:9849   */\n      dup2\n        /* \"#utility.yul\":9812:9850   */\n      tag_68\n      jump\t// in\n    tag_194:\n        /* \"#utility.yul\":9896:9925   */\n      tag_195\n        /* \"#utility.yul\":9914:9924   */\n      dup5\n        /* \"#utility.yul\":9896:9925   */\n      tag_69\n      jump\t// in\n    tag_195:\n        /* \"#utility.yul\":9886:9894   */\n      dup2\n        /* \"#utility.yul\":9882:9926   */\n      add\n        /* \"#utility.yul\":10079:10081   */\n      0x20\n        /* \"#utility.yul\":10067:10077   */\n      dup6\n        /* \"#utility.yul\":10064:10082   */\n      lt\n        /* \"#utility.yul\":10061:10110   */\n      iszero\n      tag_196\n      jumpi\n        /* \"#utility.yul\":10100:10108   */\n      dup2\n        /* \"#utility.yul\":10085:10108   */\n      swap1\n      pop\n        /* \"#utility.yul\":10061:10110   */\n    tag_196:\n        /* \"#utility.yul\":10123:10203   */\n      tag_197\n        /* \"#utility.yul\":10179:10201   */\n      tag_198\n        /* \"#utility.yul\":10197:10200   */\n      dup6\n        /* \"#utility.yul\":10179:10201   */\n      tag_69\n      jump\t// in\n    tag_198:\n        /* \"#utility.yul\":10169:10177   */\n      dup4\n        /* \"#utility.yul\":10165:10202   */\n      add\n        /* \"#utility.yul\":10152:10163   */\n      dup3\n        /* \"#utility.yul\":10123:10203   */\n      tag_78\n      jump\t// in\n    tag_197:\n        /* \"#utility.yul\":9782:10213   */\n      pop\n      pop\n        /* \"#utility.yul\":9767:10213   */\n    tag_193:\n        /* \"#utility.yul\":9677:10220   */\n      pop\n      pop\n      pop\n      jump\t// out\n        /* \"#utility.yul\":10226:10343   */\n    tag_80:\n        /* \"#utility.yul\":10280:10288   */\n      0x00\n        /* \"#utility.yul\":10330:10335   */\n      dup3\n        /* \"#utility.yul\":10324:10328   */\n      dup3\n        /* \"#utility.yul\":10320:10336   */\n      shr\n        /* \"#utility.yul\":10299:10336   */\n      swap1\n      pop\n        /* \"#utility.yul\":10226:10343   */\n      swap3\n      swap2\n      pop\n      pop\n      jump\t// out\n        /* \"#utility.yul\":10349:10518   */\n    tag_81:\n        /* \"#utility.yul\":10393:10399   */\n      0x00\n        /* \"#utility.yul\":10426:10477   */\n      tag_201\n        /* \"#utility.yul\":10474:10475   */\n      0x00\n        /* \"#utility.yul\":10470:10476   */\n      not\n        /* \"#utility.yul\":10462:10467   */\n      dup5\n        /* \"#utility.yul\":10459:10460   */\n      0x08\n        /* \"#utility.yul\":10455:10468   */\n      mul\n        /* \"#utility.yul\":10426:10477   */\n      tag_80\n      jump\t// in\n    tag_201:\n        /* \"#utility.yul\":10422:10478   */\n      not\n        /* \"#utility.yul\":10507:10511   */\n      dup1\n        /* \"#utility.yul\":10501:10505   */\n      dup4\n        /* \"#utility.yul\":10497:10512   */\n      and\n        /* \"#utility.yul\":10487:10512   */\n      swap2\n      pop\n        /* \"#utility.yul\":10400:10518   */\n      pop\n        /* \"#utility.yul\":10349:10518   */\n      swap3\n      swap2\n      pop\n      pop\n      jump\t// out\n        /* \"#utility.yul\":10523:10818   */\n    tag_82:\n        /* \"#utility.yul\":10599:10603   */\n      0x00\n        /* \"#utility.yul\":10745:10774   */\n      tag_203\n        /* \"#utility.yul\":10770:10773   */\n      dup4\n        /* \"#utility.yul\":10764:10768   */\n      dup4\n        /* \"#utility.yul\":10745:10774   */\n      tag_81\n      jump\t// in\n    tag_203:\n        /* \"#utility.yul\":10737:10774   */\n      swap2\n      pop\n        /* \"#utility.yul\":10807:10810   */\n      dup3\n        /* \"#utility.yul\":10804:10805   */\n      0x02\n        /* \"#utility.yul\":10800:10811   */\n      mul\n        /* \"#utility.yul\":10794:10798   */\n      dup3\n        /* \"#utility.yul\":10791:10812   */\n      or\n        /* \"#utility.yul\":10783:10812   */\n      swap1\n      pop\n        /* \"#utility.yul\":10523:10818   */\n      swap3\n      swap2\n      pop\n      pop\n      jump\t// out\n        /* \"#utility.yul\":10823:12218   */\n    tag_41:\n        /* \"#utility.yul\":10940:10977   */\n      tag_205\n        /* \"#utility.yul\":10973:10976   */\n      dup3\n        /* \"#utility.yul\":10940:10977   */\n      tag_49\n      jump\t// in\n    tag_205:\n        /* \"#utility.yul\":11042:11060   */\n      0xffffffffffffffff\n        /* \"#utility.yul\":11034:11040   */\n      dup2\n        /* \"#utility.yul\":11031:11061   */\n      gt\n        /* \"#utility.yul\":11028:11084   */\n      iszero\n      tag_206\n      jumpi\n        /* \"#utility.yul\":11064:11082   */\n      tag_207\n      tag_56\n      jump\t// in\n    tag_207:\n        /* \"#utility.yul\":11028:11084   */\n    tag_206:\n        /* \"#utility.yul\":11108:11146   */\n      tag_208\n        /* \"#utility.yul\":11140:11144   */\n      dup3\n        /* \"#utility.yul\":11134:11145   */\n      sload\n        /* \"#utility.yul\":11108:11146   */\n      tag_28\n      jump\t// in\n    tag_208:\n        /* \"#utility.yul\":11193:11260   */\n      tag_209\n        /* \"#utility.yul\":11253:11259   */\n      dup3\n        /* \"#utility.yul\":11245:11251   */\n      dup3\n        /* \"#utility.yul\":11239:11243   */\n      dup6\n        /* \"#utility.yul\":11193:11260   */\n      tag_79\n      jump\t// in\n    tag_209:\n        /* \"#utility.yul\":11287:11288   */\n      0x00\n        /* \"#utility.yul\":11311:11315   */\n      0x20\n        /* \"#utility.yul\":11298:11315   */\n      swap1\n      pop\n        /* \"#utility.yul\":11343:11345   */\n      0x1f\n        /* \"#utility.yul\":11335:11341   */\n      dup4\n        /* \"#utility.yul\":11332:11346   */\n      gt\n        /* \"#utility.yul\":11360:11361   */\n      0x01\n        /* \"#utility.yul\":11355:11973   */\n      dup2\n      eq\n      tag_211\n      jumpi\n        /* \"#utility.yul\":12017:12018   */\n      0x00\n        /* \"#utility.yul\":12034:12040   */\n      dup5\n        /* \"#utility.yul\":12031:12108   */\n      iszero\n      tag_212\n      jumpi\n        /* \"#utility.yul\":12083:12092   */\n      dup3\n        /* \"#utility.yul\":12078:12081   */\n      dup8\n        /* \"#utility.yul\":12074:12093   */\n      add\n        /* \"#utility.yul\":12068:12094   */\n      mload\n        /* \"#utility.yul\":12059:12094   */\n      swap1\n      pop\n        /* \"#utility.yul\":12031:12108   */\n    tag_212:\n        /* \"#utility.yul\":12134:12201   */\n      tag_213\n        /* \"#utility.yul\":12194:12200   */\n      dup6\n        /* \"#utility.yul\":12187:12192   */\n      dup3\n        /* \"#utility.yul\":12134:12201   */\n      tag_82\n      jump\t// in\n    tag_213:\n        /* \"#utility.yul\":12128:12132   */\n      dup7\n        /* \"#utility.yul\":12121:12202   */\n      sstore\n        /* \"#utility.yul\":11990:12212   */\n      pop\n        /* \"#utility.yul\":11325:12212   */\n      jump(tag_210)\n        /* \"#utility.yul\":11355:11973   */\n    tag_211:\n        /* \"#utility.yul\":11407:11411   */\n      0x1f\n        /* \"#utility.yul\":11403:11412   */\n      not\n        /* \"#utility.yul\":11395:11401   */\n      dup5\n        /* \"#utility.yul\":11391:11413   */\n      and\n        /* \"#utility.yul\":11441:11478   */\n      tag_214\n        /* \"#utility.yul\":11473:11477   */\n      dup7\n        /* \"#utility.yul\":11441:11478   */\n      tag_68\n      jump\t// in\n    tag_214:\n        /* \"#utility.yul\":11500:11501   */\n      0x00\n        /* \"#utility.yul\":11514:11722   */\n    tag_215:\n        /* \"#utility.yul\":11528:11535   */\n      dup3\n        /* \"#utility.yul\":11525:11526   */\n      dup2\n        /* \"#utility.yul\":11522:11536   */\n      lt\n        /* \"#utility.yul\":11514:11722   */\n      iszero\n      tag_217\n      jumpi\n        /* \"#utility.yul\":11607:11616   */\n      dup5\n        /* \"#utility.yul\":11602:11605   */\n      dup10\n        /* \"#utility.yul\":11598:11617   */\n      add\n        /* \"#utility.yul\":11592:11618   */\n      mload\n        /* \"#utility.yul\":11584:11590   */\n      dup3\n        /* \"#utility.yul\":11577:11619   */\n      sstore\n        /* \"#utility.yul\":11658:11659   */\n      0x01\n        /* \"#utility.yul\":11650:11656   */\n      dup3\n        /* \"#utility.yul\":11646:11660   */\n      add\n        /* \"#utility.yul\":11636:11660   */\n      swap2\n      pop\n        /* \"#utility.yul\":11705:11707   */\n      0x20\n        /* \"#utility.yul\":11694:11703   */\n      dup6\n        /* \"#utility.yul\":11690:11708   */\n      add\n        /* \"#utility.yul\":11677:11708   */\n      swap5\n      pop\n        /* \"#utility.yul\":11551:11555   */\n      0x20\n        /* \"#utility.yul\":11548:11549   */\n      dup2\n        /* \"#utility.yul\":11544:11556   */\n      add\n        /* \"#utility.yul\":11539:11556   */\n      swap1\n      pop\n        /* \"#utility.yul\":11514:11722   */\n      jump(tag_215)\n    tag_217:\n        /* \"#utility.yul\":11750:11756   */\n      dup7\n        /* \"#utility.yul\":11741:11748   */\n      dup4\n        /* \"#utility.yul\":11738:11757   */\n      lt\n        /* \"#utility.yul\":11735:11914   */\n      iszero\n      tag_218\n      jumpi\n        /* \"#utility.yul\":11808:11817   */\n      dup5\n        /* \"#utility.yul\":11803:11806   */\n      dup10\n        /* \"#utility.yul\":11799:11818   */\n      add\n        /* \"#utility.yul\":11793:11819   */\n      mload\n        /* \"#utility.yul\":11851:11899   */\n      tag_219\n        /* \"#utility.yul\":11893:11897   */\n      0x1f\n        /* \"#utility.yul\":11885:11891   */\n      dup10\n        /* \"#utility.yul\":11881:11898   */\n      and\n        /* \"#utility.yul\":11870:11879   */\n      dup3\n        /* \"#utility.yul\":11851:11899   */\n      tag_81\n      jump\t// in\n    tag_219:\n        /* \"#utility.yul\":11843:11849   */\n      dup4\n        /* \"#utility.yul\":11836:11900   */\n      sstore\n        /* \"#utility.yul\":11758:11914   */\n      pop\n        /* \"#utility.yul\":11735:11914   */\n    tag_218:\n        /* \"#utility.yul\":11960:11961   */\n      0x01\n        /* \"#utility.yul\":11956:11957   */\n      0x02\n        /* \"#utility.yul\":11948:11954   */\n      dup9\n        /* \"#utility.yul\":11944:11958   */\n      mul\n        /* \"#utility.yul\":11940:11962   */\n      add\n        /* \"#utility.yul\":11934:11938   */\n      dup9\n        /* \"#utility.yul\":11927:11963   */\n      sstore\n        /* \"#utility.yul\":11362:11973   */\n      pop\n      pop\n      pop\n        /* \"#utility.yul\":11325:12212   */\n    tag_210:\n      pop\n        /* \"#utility.yul\":10915:12218   */\n      pop\n      pop\n      pop\n        /* \"#utility.yul\":10823:12218   */\n      pop\n      pop\n      jump\t// out\n\n    auxdata: 0xa2646970667358221220941746b13746a64e955863880b91a1a4d4539b128219f572612ee1ce764ca87964736f6c634300081e0033\n}\n",
				"bytecode": {
					"linkReferences": {},
					"object": "6080604052348015600e575f5ffd5b506109308061001c5f395ff3fe608060405234801561000f575f5ffd5b506004361061003f575f3560e01c806320de683114610043578063a2f9eac61461005f578063dcea595a14610091575b5f5ffd5b61005d600480360381019061005891906102c2565b6100ad565b005b61007960048036038101906100749190610300565b6100dd565b604051610088939291906103aa565b60405180910390f35b6100ab60048036038101906100a691906105ba565b61021d565b005b5f5f83815481106100c1576100c0610601565b5b905f5260205f2090600302019050818160020181905550505050565b5f81815481106100eb575f80fd5b905f5260205f2090600302015f91509050805f01805461010a9061065b565b80601f01602080910402602001604051908101604052809291908181526020018280546101369061065b565b80156101815780601f1061015857610100808354040283529160200191610181565b820191905f5260205f20905b81548152906001019060200180831161016457829003601f168201915b5050505050908060010180546101969061065b565b80601f01602080910402602001604051908101604052809291908181526020018280546101c29061065b565b801561020d5780601f106101e45761010080835404028352916020019161020d565b820191905f5260205f20905b8154815290600101906020018083116101f057829003601f168201915b5050505050908060020154905083565b5f81908060018154018082558091505060019003905f5260205f2090600302015f909190919091505f820151815f019081610258919061082b565b50602082015181600101908161026e919061082b565b5060408201518160020155505050565b5f604051905090565b5f5ffd5b5f5ffd5b5f819050919050565b6102a18161028f565b81146102ab575f5ffd5b50565b5f813590506102bc81610298565b92915050565b5f5f604083850312156102d8576102d7610287565b5b5f6102e5858286016102ae565b92505060206102f6858286016102ae565b9150509250929050565b5f6020828403121561031557610314610287565b5b5f610322848285016102ae565b91505092915050565b5f81519050919050565b5f82825260208201905092915050565b8281835e5f83830152505050565b5f601f19601f8301169050919050565b5f61036d8261032b565b6103778185610335565b9350610387818560208601610345565b61039081610353565b840191505092915050565b6103a48161028f565b82525050565b5f6060820190508181035f8301526103c28186610363565b905081810360208301526103d68185610363565b90506103e5604083018461039b565b949350505050565b5f5ffd5b7f4e487b71000000000000000000000000000000000000000000000000000000005f52604160045260245ffd5b61042782610353565b810181811067ffffffffffffffff82111715610446576104456103f1565b5b80604052505050565b5f61045861027e565b9050610464828261041e565b919050565b5f5ffd5b5f5ffd5b5f5ffd5b5f67ffffffffffffffff82111561048f5761048e6103f1565b5b61049882610353565b9050602081019050919050565b828183375f83830152505050565b5f6104c56104c084610475565b61044f565b9050828152602081018484840111156104e1576104e0610471565b5b6104ec8482856104a5565b509392505050565b5f82601f8301126105085761050761046d565b5b81356105188482602086016104b3565b91505092915050565b5f60608284031215610536576105356103ed565b5b610540606061044f565b90505f82013567ffffffffffffffff81111561055f5761055e610469565b5b61056b848285016104f4565b5f83015250602082013567ffffffffffffffff81111561058e5761058d610469565b5b61059a848285016104f4565b60208301525060406105ae848285016102ae565b60408301525092915050565b5f602082840312156105cf576105ce610287565b5b5f82013567ffffffffffffffff8111156105ec576105eb61028b565b5b6105f884828501610521565b91505092915050565b7f4e487b71000000000000000000000000000000000000000000000000000000005f52603260045260245ffd5b7f4e487b71000000000000000000000000000000000000000000000000000000005f52602260045260245ffd5b5f600282049050600182168061067257607f821691505b6020821081036106855761068461062e565b5b50919050565b5f819050815f5260205f209050919050565b5f6020601f8301049050919050565b5f82821b905092915050565b5f600883026106e77fffffffffffffffffffffffffffffffffffffffffffffffffffffffffffffffff826106ac565b6106f186836106ac565b95508019841693508086168417925050509392505050565b5f819050919050565b5f61072c6107276107228461028f565b610709565b61028f565b9050919050565b5f819050919050565b61074583610712565b61075961075182610733565b8484546106b8565b825550505050565b5f5f905090565b610770610761565b61077b81848461073c565b505050565b5b8181101561079e576107935f82610768565b600181019050610781565b5050565b601f8211156107e3576107b48161068b565b6107bd8461069d565b810160208510156107cc578190505b6107e06107d88561069d565b830182610780565b50505b505050565b5f82821c905092915050565b5f6108035f19846008026107e8565b1980831691505092915050565b5f61081b83836107f4565b9150826002028217905092915050565b6108348261032b565b67ffffffffffffffff81111561084d5761084c6103f1565b5b610857825461065b565b6108628282856107a2565b5f60209050601f831160018114610893575f8415610881578287015190505b61088b8582610810565b8655506108f2565b601f1984166108a18661068b565b5f5b828110156108c8578489015182556001820191506020850194506020810190506108a3565b868310156108e557848901516108e1601f8916826107f4565b8355505b6001600288020188555050505b50505050505056fea2646970667358221220941746b13746a64e955863880b91a1a4d4539b128219f572612ee1ce764ca87964736f6c634300081e0033",
					"opcodes": "PUSH1 0x80 PUSH1 0x40 MSTORE CALLVALUE DUP1 ISZERO PUSH1 0xE JUMPI PUSH0 PUSH0 REVERT JUMPDEST POP PUSH2 0x930 DUP1 PUSH2 0x1C PUSH0 CODECOPY PUSH0 RETURN INVALID PUSH1 0x80 PUSH1 0x40 MSTORE CALLVALUE DUP1 ISZERO PUSH2 0xF JUMPI PUSH0 PUSH0 REVERT JUMPDEST POP PUSH1 0x4 CALLDATASIZE LT PUSH2 0x3F JUMPI PUSH0 CALLDATALOAD PUSH1 0xE0 SHR DUP1 PUSH4 0x20DE6831 EQ PUSH2 0x43 JUMPI DUP1 PUSH4 0xA2F9EAC6 EQ PUSH2 0x5F JUMPI DUP1 PUSH4 0xDCEA595A EQ PUSH2 0x91 JUMPI JUMPDEST PUSH0 PUSH0 REVERT JUMPDEST PUSH2 0x5D PUSH1 0x4 DUP1 CALLDATASIZE SUB DUP2 ADD SWAP1 PUSH2 0x58 SWAP2 SWAP1 PUSH2 0x2C2 JUMP JUMPDEST PUSH2 0xAD JUMP JUMPDEST STOP JUMPDEST PUSH2 0x79 PUSH1 0x4 DUP1 CALLDATASIZE SUB DUP2 ADD SWAP1 PUSH2 0x74 SWAP2 SWAP1 PUSH2 0x300 JUMP JUMPDEST PUSH2 0xDD JUMP JUMPDEST PUSH1 0x40 MLOAD PUSH2 0x88 SWAP4 SWAP3 SWAP2 SWAP1 PUSH2 0x3AA JUMP JUMPDEST PUSH1 0x40 MLOAD DUP1 SWAP2 SUB SWAP1 RETURN JUMPDEST PUSH2 0xAB PUSH1 0x4 DUP1 CALLDATASIZE SUB DUP2 ADD SWAP1 PUSH2 0xA6 SWAP2 SWAP1 PUSH2 0x5BA JUMP JUMPDEST PUSH2 0x21D JUMP JUMPDEST STOP JUMPDEST PUSH0 PUSH0 DUP4 DUP2 SLOAD DUP2 LT PUSH2 0xC1 JUMPI PUSH2 0xC0 PUSH2 0x601 JUMP JUMPDEST JUMPDEST SWAP1 PUSH0 MSTORE PUSH1 0x20 PUSH0 KECCAK256 SWAP1 PUSH1 0x3 MUL ADD SWAP1 POP DUP2 DUP2 PUSH1 0x2 ADD DUP2 SWAP1 SSTORE POP POP POP POP JUMP JUMPDEST PUSH0 DUP2 DUP2 SLOAD DUP2 LT PUSH2 0xEB JUMPI PUSH0 DUP1 REVERT JUMPDEST SWAP1 PUSH0 MSTORE PUSH1 0x20 PUSH0 KECCAK256 SWAP1 PUSH1 0x3 MUL ADD PUSH0 SWAP2 POP SWAP1 POP DUP1 PUSH0 ADD DUP1 SLOAD PUSH2 0x10A SWAP1 PUSH2 0x65B JUMP JUMPDEST DUP1 PUSH1 0x1F ADD PUSH1 0x20 DUP1 SWAP2 DIV MUL PUSH1 0x20 ADD PUSH1 0x40 MLOAD SWAP1 DUP2 ADD PUSH1 0x40 MSTORE DUP1 SWAP3 SWAP2 SWAP1 DUP2 DUP2 MSTORE PUSH1 0x20 ADD DUP3 DUP1 SLOAD PUSH2 0x136 SWAP1 PUSH2 0x65B JUMP JUMPDEST DUP1 ISZERO PUSH2 0x181 JUMPI DUP1 PUSH1 0x1F LT PUSH2 0x158 JUMPI PUSH2 0x100 DUP1 DUP4 SLOAD DIV MUL DUP4 MSTORE SWAP2 PUSH1 0x20 ADD SWAP2 PUSH2 0x181 JUMP JUMPDEST DUP3 ADD SWAP2 SWAP1 PUSH0 MSTORE PUSH1 0x20 PUSH0 KECCAK256 SWAP1 JUMPDEST DUP2 SLOAD DUP2 MSTORE SWAP1 PUSH1 0x1 ADD SWAP1 PUSH1 0x20 ADD DUP1 DUP4 GT PUSH2 0x164 JUMPI DUP3 SWAP1 SUB PUSH1 0x1F AND DUP3 ADD SWAP2 JUMPDEST POP POP POP POP POP SWAP1 DUP1 PUSH1 0x1 ADD DUP1 SLOAD PUSH2 0x196 SWAP1 PUSH2 0x65B JUMP JUMPDEST DUP1 PUSH1 0x1F ADD PUSH1 0x20 DUP1 SWAP2 DIV MUL PUSH1 0x20 ADD PUSH1 0x40 MLOAD SWAP1 DUP2 ADD PUSH1 0x40 MSTORE DUP1 SWAP3 SWAP2 SWAP1 DUP2 DUP2 MSTORE PUSH1 0x20 ADD DUP3 DUP1 SLOAD PUSH2 0x1C2 SWAP1 PUSH2 0x65B JUMP JUMPDEST DUP1 ISZERO PUSH2 0x20D JUMPI DUP1 PUSH1 0x1F LT PUSH2 0x1E4 JUMPI PUSH2 0x100 DUP1 DUP4 SLOAD DIV MUL DUP4 MSTORE SWAP2 PUSH1 0x20 ADD SWAP2 PUSH2 0x20D JUMP JUMPDEST DUP3 ADD SWAP2 SWAP1 PUSH0 MSTORE PUSH1 0x20 PUSH0 KECCAK256 SWAP1 JUMPDEST DUP2 SLOAD DUP2 MSTORE SWAP1 PUSH1 0x1 ADD SWAP1 PUSH1 0x20 ADD DUP1 DUP4 GT PUSH2 0x1F0 JUMPI DUP3 SWAP1 SUB PUSH1 0x1F AND DUP3 ADD SWAP2 JUMPDEST POP POP POP POP POP SWAP1 DUP1 PUSH1 0x2 ADD SLOAD SWAP1 POP DUP4 JUMP JUMPDEST PUSH0 DUP2 SWAP1 DUP1 PUSH1 0x1 DUP2 SLOAD ADD DUP1 DUP3 SSTORE DUP1 SWAP2 POP POP PUSH1 0x1 SWAP1 SUB SWAP1 PUSH0 MSTORE PUSH1 0x20 PUSH0 KECCAK256 SWAP1 PUSH1 0x3 MUL ADD PUSH0 SWAP1 SWAP2 SWAP1 SWAP2 SWAP1 SWAP2 POP PUSH0 DUP3 ADD MLOAD DUP2 PUSH0 ADD SWAP1 DUP2 PUSH2 0x258 SWAP2 SWAP1 PUSH2 0x82B JUMP JUMPDEST POP PUSH1 0x20 DUP3 ADD MLOAD DUP2 PUSH1 0x1 ADD SWAP1 DUP2 PUSH2 0x26E SWAP2 SWAP1 PUSH2 0x82B JUMP JUMPDEST POP PUSH1 0x40 DUP3 ADD MLOAD DUP2 PUSH1 0x2 ADD SSTORE POP POP POP JUMP JUMPDEST PUSH0 PUSH1 0x40 MLOAD SWAP1 POP SWAP1 JUMP JUMPDEST PUSH0 PUSH0 REVERT JUMPDEST PUSH0 PUSH0 REVERT JUMPDEST PUSH0 DUP2 SWAP1 POP SWAP2 SWAP1 POP JUMP JUMPDEST PUSH2 0x2A1 DUP2 PUSH2 0x28F JUMP JUMPDEST DUP2 EQ PUSH2 0x2AB JUMPI PUSH0 PUSH0 REVERT JUMPDEST POP JUMP JUMPDEST PUSH0 DUP2 CALLDATALOAD SWAP1 POP PUSH2 0x2BC DUP2 PUSH2 0x298 JUMP JUMPDEST SWAP3 SWAP2 POP POP JUMP JUMPDEST PUSH0 PUSH0 PUSH1 0x40 DUP4 DUP6 SUB SLT ISZERO PUSH2 0x2D8 JUMPI PUSH2 0x2D7 PUSH2 0x287 JUMP JUMPDEST JUMPDEST PUSH0 PUSH2 0x2E5 DUP6 DUP3 DUP7 ADD PUSH2 0x2AE JUMP JUMPDEST SWAP3 POP POP PUSH1 0x20 PUSH2 0x2F6 DUP6 DUP3 DUP7 ADD PUSH2 0x2AE JUMP JUMPDEST SWAP2 POP POP SWAP3 POP SWAP3 SWAP1 POP JUMP JUMPDEST PUSH0 PUSH1 0x20 DUP3 DUP5 SUB SLT ISZERO PUSH2 0x315 JUMPI PUSH2 0x314 PUSH2 0x287 JUMP JUMPDEST JUMPDEST PUSH0 PUSH2 0x322 DUP5 DUP3 DUP6 ADD PUSH2 0x2AE JUMP JUMPDEST SWAP2 POP POP SWAP3 SWAP2 POP POP JUMP JUMPDEST PUSH0 DUP2 MLOAD SWAP1 POP SWAP2 SWAP1 POP JUMP JUMPDEST PUSH0 DUP3 DUP3 MSTORE PUSH1 0x20 DUP3 ADD SWAP1 POP SWAP3 SWAP2 POP POP JUMP JUMPDEST DUP3 DUP2 DUP4 MCOPY PUSH0 DUP4 DUP4 ADD MSTORE POP POP POP JUMP JUMPDEST PUSH0 PUSH1 0x1F NOT PUSH1 0x1F DUP4 ADD AND SWAP1 POP SWAP2 SWAP1 POP JUMP JUMPDEST PUSH0 PUSH2 0x36D DUP3 PUSH2 0x32B JUMP JUMPDEST PUSH2 0x377 DUP2 DUP6 PUSH2 0x335 JUMP JUMPDEST SWAP4 POP PUSH2 0x387 DUP2 DUP6 PUSH1 0x20 DUP7 ADD PUSH2 0x345 JUMP JUMPDEST PUSH2 0x390 DUP2 PUSH2 0x353 JUMP JUMPDEST DUP5 ADD SWAP2 POP POP SWAP3 SWAP2 POP POP JUMP JUMPDEST PUSH2 0x3A4 DUP2 PUSH2 0x28F JUMP JUMPDEST DUP3 MSTORE POP POP JUMP JUMPDEST PUSH0 PUSH1 0x60 DUP3 ADD SWAP1 POP DUP2 DUP2 SUB PUSH0 DUP4 ADD MSTORE PUSH2 0x3C2 DUP2 DUP7 PUSH2 0x363 JUMP JUMPDEST SWAP1 POP DUP2 DUP2 SUB PUSH1 0x20 DUP4 ADD MSTORE PUSH2 0x3D6 DUP2 DUP6 PUSH2 0x363 JUMP JUMPDEST SWAP1 POP PUSH2 0x3E5 PUSH1 0x40 DUP4 ADD DUP5 PUSH2 0x39B JUMP JUMPDEST SWAP5 SWAP4 POP POP POP POP JUMP JUMPDEST PUSH0 PUSH0 REVERT JUMPDEST PUSH32 0x4E487B7100000000000000000000000000000000000000000000000000000000 PUSH0 MSTORE PUSH1 0x41 PUSH1 0x4 MSTORE PUSH1 0x24 PUSH0 REVERT JUMPDEST PUSH2 0x427 DUP3 PUSH2 0x353 JUMP JUMPDEST DUP2 ADD DUP2 DUP2 LT PUSH8 0xFFFFFFFFFFFFFFFF DUP3 GT OR ISZERO PUSH2 0x446 JUMPI PUSH2 0x445 PUSH2 0x3F1 JUMP JUMPDEST JUMPDEST DUP1 PUSH1 0x40 MSTORE POP POP POP JUMP JUMPDEST PUSH0 PUSH2 0x458 PUSH2 0x27E JUMP JUMPDEST SWAP1 POP PUSH2 0x464 DUP3 DUP3 PUSH2 0x41E JUMP JUMPDEST SWAP2 SWAP1 POP JUMP JUMPDEST PUSH0 PUSH0 REVERT JUMPDEST PUSH0 PUSH0 REVERT JUMPDEST PUSH0 PUSH0 REVERT JUMPDEST PUSH0 PUSH8 0xFFFFFFFFFFFFFFFF DUP3 GT ISZERO PUSH2 0x48F JUMPI PUSH2 0x48E PUSH2 0x3F1 JUMP JUMPDEST JUMPDEST PUSH2 0x498 DUP3 PUSH2 0x353 JUMP JUMPDEST SWAP1 POP PUSH1 0x20 DUP2 ADD SWAP1 POP SWAP2 SWAP1 POP JUMP JUMPDEST DUP3 DUP2 DUP4 CALLDATACOPY PUSH0 DUP4 DUP4 ADD MSTORE POP POP POP JUMP JUMPDEST PUSH0 PUSH2 0x4C5 PUSH2 0x4C0 DUP5 PUSH2 0x475 JUMP JUMPDEST PUSH2 0x44F JUMP JUMPDEST SWAP1 POP DUP3 DUP2 MSTORE PUSH1 0x20 DUP2 ADD DUP5 DUP5 DUP5 ADD GT ISZERO PUSH2 0x4E1 JUMPI PUSH2 0x4E0 PUSH2 0x471 JUMP JUMPDEST JUMPDEST PUSH2 0x4EC DUP5 DUP3 DUP6 PUSH2 0x4A5 JUMP JUMPDEST POP SWAP4 SWAP3 POP POP POP JUMP JUMPDEST PUSH0 DUP3 PUSH1 0x1F DUP4 ADD SLT PUSH2 0x508 JUMPI PUSH2 0x507 PUSH2 0x46D JUMP JUMPDEST JUMPDEST DUP2 CALLDATALOAD PUSH2 0x518 DUP5 DUP3 PUSH1 0x20 DUP7 ADD PUSH2 0x4B3 JUMP JUMPDEST SWAP2 POP POP SWAP3 SWAP2 POP POP JUMP JUMPDEST PUSH0 PUSH1 0x60 DUP3 DUP5 SUB SLT ISZERO PUSH2 0x536 JUMPI PUSH2 0x535 PUSH2 0x3ED JUMP JUMPDEST JUMPDEST PUSH2 0x540 PUSH1 0x60 PUSH2 0x44F JUMP JUMPDEST SWAP1 POP PUSH0 DUP3 ADD CALLDATALOAD PUSH8 0xFFFFFFFFFFFFFFFF DUP2 GT ISZERO PUSH2 0x55F JUMPI PUSH2 0x55E PUSH2 0x469 JUMP JUMPDEST JUMPDEST PUSH2 0x56B DUP5 DUP3 DUP6 ADD PUSH2 0x4F4 JUMP JUMPDEST PUSH0 DUP4 ADD MSTORE POP PUSH1 0x20 DUP3 ADD CALLDATALOAD PUSH8 0xFFFFFFFFFFFFFFFF DUP2 GT ISZERO PUSH2 0x58E JUMPI PUSH2 0x58D PUSH2 0x469 JUMP JUMPDEST JUMPDEST PUSH2 0x59A DUP5 DUP3 DUP6 ADD PUSH2 0x4F4 JUMP JUMPDEST PUSH1 0x20 DUP4 ADD MSTORE POP PUSH1 0x40 PUSH2 0x5AE DUP5 DUP3 DUP6 ADD PUSH2 0x2AE JUMP JUMPDEST PUSH1 0x40 DUP4 ADD MSTORE POP SWAP3 SWAP2 POP POP JUMP JUMPDEST PUSH0 PUSH1 0x20 DUP3 DUP5 SUB SLT ISZERO PUSH2 0x5CF JUMPI PUSH2 0x5CE PUSH2 0x287 JUMP JUMPDEST JUMPDEST PUSH0 DUP3 ADD CALLDATALOAD PUSH8 0xFFFFFFFFFFFFFFFF DUP2 GT ISZERO PUSH2 0x5EC JUMPI PUSH2 0x5EB PUSH2 0x28B JUMP JUMPDEST JUMPDEST PUSH2 0x5F8 DUP5 DUP3 DUP6 ADD PUSH2 0x521 JUMP JUMPDEST SWAP2 POP POP SWAP3 SWAP2 POP POP JUMP JUMPDEST PUSH32 0x4E487B7100000000000000000000000000000000000000000000000000000000 PUSH0 MSTORE PUSH1 0x32 PUSH1 0x4 MSTORE PUSH1 0x24 PUSH0 REVERT JUMPDEST PUSH32 0x4E487B7100000000000000000000000000000000000000000000000000000000 PUSH0 MSTORE PUSH1 0x22 PUSH1 0x4 MSTORE PUSH1 0x24 PUSH0 REVERT JUMPDEST PUSH0 PUSH1 0x2 DUP3 DIV SWAP1 POP PUSH1 0x1 DUP3 AND DUP1 PUSH2 0x672 JUMPI PUSH1 0x7F DUP3 AND SWAP2 POP JUMPDEST PUSH1 0x20 DUP3 LT DUP2 SUB PUSH2 0x685 JUMPI PUSH2 0x684 PUSH2 0x62E JUMP JUMPDEST JUMPDEST POP SWAP2 SWAP1 POP JUMP JUMPDEST PUSH0 DUP2 SWAP1 POP DUP2 PUSH0 MSTORE PUSH1 0x20 PUSH0 KECCAK256 SWAP1 POP SWAP2 SWAP1 POP JUMP JUMPDEST PUSH0 PUSH1 0x20 PUSH1 0x1F DUP4 ADD DIV SWAP1 POP SWAP2 SWAP1 POP JUMP JUMPDEST PUSH0 DUP3 DUP3 SHL SWAP1 POP SWAP3 SWAP2 POP POP JUMP JUMPDEST PUSH0 PUSH1 0x8 DUP4 MUL PUSH2 0x6E7 PUSH32 0xFFFFFFFFFFFFFFFFFFFFFFFFFFFFFFFFFFFFFFFFFFFFFFFFFFFFFFFFFFFFFFFF DUP3 PUSH2 0x6AC JUMP JUMPDEST PUSH2 0x6F1 DUP7 DUP4 PUSH2 0x6AC JUMP JUMPDEST SWAP6 POP DUP1 NOT DUP5 AND SWAP4 POP DUP1 DUP7 AND DUP5 OR SWAP3 POP POP POP SWAP4 SWAP3 POP POP POP JUMP JUMPDEST PUSH0 DUP2 SWAP1 POP SWAP2 SWAP1 POP JUMP JUMPDEST PUSH0 PUSH2 0x72C PUSH2 0x727 PUSH2 0x722 DUP5 PUSH2 0x28F JUMP JUMPDEST PUSH2 0x709 JUMP JUMPDEST PUSH2 0x28F JUMP JUMPDEST SWAP1 POP SWAP2 SWAP1 POP JUMP JUMPDEST PUSH0 DUP2 SWAP1 POP SWAP2 SWAP1 POP JUMP JUMPDEST PUSH2 0x745 DUP4 PUSH2 0x712 JUMP JUMPDEST PUSH2 0x759 PUSH2 0x751 DUP3 PUSH2 0x733 JUMP JUMPDEST DUP5 DUP5 SLOAD PUSH2 0x6B8 JUMP JUMPDEST DUP3 SSTORE POP POP POP POP JUMP JUMPDEST PUSH0 PUSH0 SWAP1 POP SWAP1 JUMP JUMPDEST PUSH2 0x770 PUSH2 0x761 JUMP JUMPDEST PUSH2 0x77B DUP2 DUP5 DUP5 PUSH2 0x73C JUMP JUMPDEST POP POP POP JUMP JUMPDEST JUMPDEST DUP2 DUP2 LT ISZERO PUSH2 0x79E JUMPI PUSH2 0x793 PUSH0 DUP3 PUSH2 0x768 JUMP JUMPDEST PUSH1 0x1 DUP2 ADD SWAP1 POP PUSH2 0x781 JUMP JUMPDEST POP POP JUMP JUMPDEST PUSH1 0x1F DUP3 GT ISZERO PUSH2 0x7E3 JUMPI PUSH2 0x7B4 DUP2 PUSH2 0x68B JUMP JUMPDEST PUSH2 0x7BD DUP5 PUSH2 0x69D JUMP JUMPDEST DUP2 ADD PUSH1 0x20 DUP6 LT ISZERO PUSH2 0x7CC JUMPI DUP2 SWAP1 POP JUMPDEST PUSH2 0x7E0 PUSH2 0x7D8 DUP6 PUSH2 0x69D JUMP JUMPDEST DUP4 ADD DUP3 PUSH2 0x780 JUMP JUMPDEST POP POP JUMPDEST POP POP POP JUMP JUMPDEST PUSH0 DUP3 DUP3 SHR SWAP1 POP SWAP3 SWAP2 POP POP JUMP JUMPDEST PUSH0 PUSH2 0x803 PUSH0 NOT DUP5 PUSH1 0x8 MUL PUSH2 0x7E8 JUMP JUMPDEST NOT DUP1 DUP4 AND SWAP2 POP POP SWAP3 SWAP2 POP POP JUMP JUMPDEST PUSH0 PUSH2 0x81B DUP4 DUP4 PUSH2 0x7F4 JUMP JUMPDEST SWAP2 POP DUP3 PUSH1 0x2 MUL DUP3 OR SWAP1 POP SWAP3 SWAP2 POP POP JUMP JUMPDEST PUSH2 0x834 DUP3 PUSH2 0x32B JUMP JUMPDEST PUSH8 0xFFFFFFFFFFFFFFFF DUP2 GT ISZERO PUSH2 0x84D JUMPI PUSH2 0x84C PUSH2 0x3F1 JUMP JUMPDEST JUMPDEST PUSH2 0x857 DUP3 SLOAD PUSH2 0x65B JUMP JUMPDEST PUSH2 0x862 DUP3 DUP3 DUP6 PUSH2 0x7A2 JUMP JUMPDEST PUSH0 PUSH1 0x20 SWAP1 POP PUSH1 0x1F DUP4 GT PUSH1 0x1 DUP2 EQ PUSH2 0x893 JUMPI PUSH0 DUP5 ISZERO PUSH2 0x881 JUMPI DUP3 DUP8 ADD MLOAD SWAP1 POP JUMPDEST PUSH2 0x88B DUP6 DUP3 PUSH2 0x810 JUMP JUMPDEST DUP7 SSTORE POP PUSH2 0x8F2 JUMP JUMPDEST PUSH1 0x1F NOT DUP5 AND PUSH2 0x8A1 DUP7 PUSH2 0x68B JUMP JUMPDEST PUSH0 JUMPDEST DUP3 DUP2 LT ISZERO PUSH2 0x8C8 JUMPI DUP5 DUP10 ADD MLOAD DUP3 SSTORE PUSH1 0x1 DUP3 ADD SWAP2 POP PUSH1 0x20 DUP6 ADD SWAP5 POP PUSH1 0x20 DUP2 ADD SWAP1 POP PUSH2 0x8A3 JUMP JUMPDEST DUP7 DUP4 LT ISZERO PUSH2 0x8E5 JUMPI DUP5 DUP10 ADD MLOAD PUSH2 0x8E1 PUSH1 0x1F DUP10 AND DUP3 PUSH2 0x7F4 JUMP JUMPDEST DUP4 SSTORE POP JUMPDEST PUSH1 0x1 PUSH1 0x2 DUP9 MUL ADD DUP9 SSTORE POP POP POP JUMPDEST POP POP POP POP POP POP JUMP INVALID LOG2 PUSH5 0x6970667358 0x22 SLT KECCAK256 SWAP5 OR CHAINID 0xB1 CALLDATACOPY CHAINID 0xA6 0x4E SWAP6 PC PUSH4 0x880B91A1 LOG4 0xD4 MSTORE8 SWAP12 SLT DUP3 NOT CREATE2 PUSH19 0x612EE1CE764CA87964736F6C634300081E0033 "
				},
				"gasEstimates": {
					"creation": {
						"codeDepositCost": "470400",
						"executionCost": "503",
						"totalCost": "470903"
					},
					"external": {
						"addPerson((string,string,uint256))": "infinite",
						"changeAge(uint256,uint256)": "infinite",
						"persons(uint256)": "infinite"
					}
				},
				"methodIdentifiers": {
					"addPerson((string,string,uint256))": "dcea595a",
					"changeAge(uint256,uint256)": "20de6831",
					"persons(uint256)": "a2f9eac6"
				}
			},
			"storageLayout": {
				"storage": [
					{
						"astId": 12,
						"contract": "contracts/Persons1.sol:Persons",
						"label": "persons",
						"offset": 0,
						"slot": "0",
						"type": "t_array(t_struct(Person)8_storage)dyn_storage"
					}
				],
				"types": {
					"t_array(t_struct(Person)8_storage)dyn_storage": {
						"base": "t_struct(Person)8_storage",
						"encoding": "dynamic_array",
						"label": "struct Persons.Person[]",
						"numberOfBytes": "32"
					},
					"t_string_storage": {
						"encoding": "bytes",
						"label": "string",
						"numberOfBytes": "32"
					},
					"t_struct(Person)8_storage": {
						"encoding": "inplace",
						"label": "struct Persons.Person",
						"members": [
							{
								"astId": 3,
								"contract": "contracts/Persons1.sol:Persons",
								"label": "firstName",
								"offset": 0,
								"slot": "0",
								"type": "t_string_storage"
							},
							{
								"astId": 5,
								"contract": "contracts/Persons1.sol:Persons",
								"label": "lastName",
								"offset": 0,
								"slot": "1",
								"type": "t_string_storage"
							},
							{
								"astId": 7,
								"contract": "contracts/Persons1.sol:Persons",
								"label": "age",
								"offset": 0,
								"slot": "2",
								"type": "t_uint256"
							}
						],
						"numberOfBytes": "96"
					},
					"t_uint256": {
						"encoding": "inplace",
						"label": "uint256",
						"numberOfBytes": "32"
					}
				}
			},
			"userdoc": {
				"kind": "user",
				"methods": {},
				"version": 1
			}
		}
	}
}