{
	"contracts/String.sol": {
		"String": {
			"abi": [
				{
					"inputs": [
						{
							"internalType": "string",
							"name": "primeira",
							"type": "string"
						},
						{
							"internalType": "string",
							"name": "segunda",
							"type": "string"
						}
					],
					"name": "concatena",
					"outputs": [
						{
							"internalType": "string",
							"name": "",
							"type": "string"
						}
					],
					"stateMutability": "pure",
					"type": "function"
				}
			],
			"devdoc": {
				"kind": "dev",
				"methods": {},
				"version": 1
			},
			"evm": {
				"assembly": "    /* \"contracts/String.sol\":56:232  contract String {... */\n  mstore(0x40, 0x80)\n    /* \"contracts/String.sol\":78:104  string texto = \"Ola mundo\" */\n  mload(0x40)\n  dup1\n  0x40\n  add\n  0x40\n  mstore\n  dup1\n  0x09\n  dup2\n  mstore\n  0x20\n  add\n  0x4f6c61206d756e646f0000000000000000000000000000000000000000000000\n  dup2\n  mstore\n  pop\n  0x00\n  swap1\n  dup1\n  mload\n  swap1\n  0x20\n  add\n  swap1\n  tag_1\n  swap3\n  swap2\n  swap1\n  tag_2\n  jump\t// in\ntag_1:\n  pop\n    /* \"contracts/String.sol\":56:232  contract String {... */\n  callvalue\n  dup1\n  iszero\n  tag_3\n  jumpi\n  0x00\n  dup1\n  revert\ntag_3:\n  pop\n  jump(tag_4)\ntag_2:\n  dup3\n  dup1\n  sload\n  tag_5\n  swap1\n  tag_6\n  jump\t// in\ntag_5:\n  swap1\n  0x00\n  mstore\n  keccak256(0x00, 0x20)\n  swap1\n  0x1f\n  add\n  0x20\n  swap1\n  div\n  dup2\n  add\n  swap3\n  dup3\n  tag_8\n  jumpi\n  0x00\n  dup6\n  sstore\n  jump(tag_7)\ntag_8:\n  dup3\n  0x1f\n  lt\n  tag_9\n  jumpi\n  dup1\n  mload\n  not(0xff)\n  and\n  dup4\n  dup1\n  add\n  or\n  dup6\n  sstore\n  jump(tag_7)\ntag_9:\n  dup3\n  dup1\n  add\n  0x01\n  add\n  dup6\n  sstore\n  dup3\n  iszero\n  tag_7\n  jumpi\n  swap2\n  dup3\n  add\ntag_10:\n  dup3\n  dup2\n  gt\n  iszero\n  tag_11\n  jumpi\n  dup3\n  mload\n  dup3\n  sstore\n  swap2\n  0x20\n  add\n  swap2\n  swap1\n  0x01\n  add\n  swap1\n  jump(tag_10)\ntag_11:\ntag_7:\n  pop\n  swap1\n  pop\n  tag_12\n  swap2\n  swap1\n  tag_13\n  jump\t// in\ntag_12:\n  pop\n  swap1\n  jump\t// out\ntag_13:\ntag_14:\n  dup1\n  dup3\n  gt\n  iszero\n  tag_15\n  jumpi\n  0x00\n  dup2\n  0x00\n  swap1\n  sstore\n  pop\n  0x01\n  add\n  jump(tag_14)\ntag_15:\n  pop\n  swap1\n  jump\t// out\n    /* \"#utility.yul\":7:327   */\ntag_6:\n    /* \"#utility.yul\":51:57   */\n  0x00\n    /* \"#utility.yul\":88:89   */\n  0x02\n    /* \"#utility.yul\":82:86   */\n  dup3\n    /* \"#utility.yul\":78:90   */\n  div\n    /* \"#utility.yul\":68:90   */\n  swap1\n  pop\n    /* \"#utility.yul\":135:136   */\n  0x01\n    /* \"#utility.yul\":129:133   */\n  dup3\n    /* \"#utility.yul\":125:137   */\n  and\n    /* \"#utility.yul\":156:174   */\n  dup1\n    /* \"#utility.yul\":146:227   */\n  tag_18\n  jumpi\n    /* \"#utility.yul\":212:216   */\n  0x7f\n    /* \"#utility.yul\":204:210   */\n  dup3\n    /* \"#utility.yul\":200:217   */\n  and\n    /* \"#utility.yul\":190:217   */\n  swap2\n  pop\n    /* \"#utility.yul\":146:227   */\ntag_18:\n    /* \"#utility.yul\":274:276   */\n  0x20\n    /* \"#utility.yul\":266:272   */\n  dup3\n    /* \"#utility.yul\":263:277   */\n  lt\n    /* \"#utility.yul\":243:261   */\n  dup2\n    /* \"#utility.yul\":240:278   */\n  eq\n    /* \"#utility.yul\":237:321   */\n  iszero\n  tag_19\n  jumpi\n    /* \"#utility.yul\":293:311   */\n  tag_20\n  tag_21\n  jump\t// in\ntag_20:\n    /* \"#utility.yul\":237:321   */\ntag_19:\n    /* \"#utility.yul\":58:327   */\n  pop\n    /* \"#utility.yul\":7:327   */\n  swap2\n  swap1\n  pop\n  jump\t// out\n    /* \"#utility.yul\":333:513   */\ntag_21:\n    /* \"#utility.yul\":381:458   */\n  0x4e487b7100000000000000000000000000000000000000000000000000000000\n    /* \"#utility.yul\":378:379   */\n  0x00\n    /* \"#utility.yul\":371:459   */\n  mstore\n    /* \"#utility.yul\":478:482   */\n  0x22\n    /* \"#utility.yul\":475:476   */\n  0x04\n    /* \"#utility.yul\":468:483   */\n  mstore\n    /* \"#utility.yul\":502:506   */\n  0x24\n    /* \"#utility.yul\":499:500   */\n  0x00\n    /* \"#utility.yul\":492:507   */\n  revert\n    /* \"contracts/String.sol\":56:232  contract String {... */\ntag_4:\n  dataSize(sub_0)\n  dup1\n  dataOffset(sub_0)\n  0x00\n  codecopy\n  0x00\n  return\nstop\n\nsub_0: assembly {\n        /* \"contracts/String.sol\":56:232  contract String {... */\n      mstore(0x40, 0x80)\n      callvalue\n      dup1\n      iszero\n      tag_1\n      jumpi\n      0x00\n      dup1\n      revert\n    tag_1:\n      pop\n      jumpi(tag_2, lt(calldatasize, 0x04))\n      shr(0xe0, calldataload(0x00))\n      dup1\n      0x1641deba\n      eq\n      tag_3\n      jumpi\n    tag_2:\n      0x00\n      dup1\n      revert\n        /* \"contracts/String.sol\":111:230  function concatena(string memory primeira, string memory segunda) public pure returns (string memory) {... */\n    tag_3:\n      tag_4\n      0x04\n      dup1\n      calldatasize\n      sub\n      dup2\n      add\n      swap1\n      tag_5\n      swap2\n      swap1\n      tag_6\n      jump\t// in\n    tag_5:\n      tag_7\n      jump\t// in\n    tag_4:\n      mload(0x40)\n      tag_8\n      swap2\n      swap1\n      tag_9\n      jump\t// in\n    tag_8:\n      mload(0x40)\n      dup1\n      swap2\n      sub\n      swap1\n      return\n    tag_7:\n        /* \"contracts/String.sol\":198:211  string memory */\n      0x60\n        /* \"contracts/String.sol\":111:230  function concatena(string memory primeira, string memory segunda) public pure returns (string memory) {... */\n      swap3\n      swap2\n      pop\n      pop\n      jump\t// out\n        /* \"#utility.yul\":7:419   */\n    tag_12:\n        /* \"#utility.yul\":85:90   */\n      0x00\n        /* \"#utility.yul\":110:176   */\n      tag_14\n        /* \"#utility.yul\":126:175   */\n      tag_15\n        /* \"#utility.yul\":168:174   */\n      dup5\n        /* \"#utility.yul\":126:175   */\n      tag_16\n      jump\t// in\n    tag_15:\n        /* \"#utility.yul\":110:176   */\n      tag_17\n      jump\t// in\n    tag_14:\n        /* \"#utility.yul\":101:176   */\n      swap1\n      pop\n        /* \"#utility.yul\":199:205   */\n      dup3\n        /* \"#utility.yul\":192:197   */\n      dup2\n        /* \"#utility.yul\":185:206   */\n      mstore\n        /* \"#utility.yul\":237:241   */\n      0x20\n        /* \"#utility.yul\":230:235   */\n      dup2\n        /* \"#utility.yul\":226:242   */\n      add\n        /* \"#utility.yul\":275:278   */\n      dup5\n        /* \"#utility.yul\":266:272   */\n      dup5\n        /* \"#utility.yul\":261:264   */\n      dup5\n        /* \"#utility.yul\":257:273   */\n      add\n        /* \"#utility.yul\":254:279   */\n      gt\n        /* \"#utility.yul\":251:363   */\n      iszero\n      tag_18\n      jumpi\n        /* \"#utility.yul\":282:361   */\n      tag_19\n      tag_20\n      jump\t// in\n    tag_19:\n        /* \"#utility.yul\":251:363   */\n    tag_18:\n        /* \"#utility.yul\":372:413   */\n      tag_21\n        /* \"#utility.yul\":406:412   */\n      dup5\n        /* \"#utility.yul\":401:404   */\n      dup3\n        /* \"#utility.yul\":396:399   */\n      dup6\n        /* \"#utility.yul\":372:413   */\n      tag_22\n      jump\t// in\n    tag_21:\n        /* \"#utility.yul\":91:419   */\n      pop\n        /* \"#utility.yul\":7:419   */\n      swap4\n      swap3\n      pop\n      pop\n      pop\n      jump\t// out\n        /* \"#utility.yul\":439:779   */\n    tag_23:\n        /* \"#utility.yul\":495:500   */\n      0x00\n        /* \"#utility.yul\":544:547   */\n      dup3\n        /* \"#utility.yul\":537:541   */\n      0x1f\n        /* \"#utility.yul\":529:535   */\n      dup4\n        /* \"#utility.yul\":525:542   */\n      add\n        /* \"#utility.yul\":521:548   */\n      slt\n        /* \"#utility.yul\":511:633   */\n      tag_25\n      jumpi\n        /* \"#utility.yul\":552:631   */\n      tag_26\n      tag_27\n      jump\t// in\n    tag_26:\n        /* \"#utility.yul\":511:633   */\n    tag_25:\n        /* \"#utility.yul\":669:675   */\n      dup2\n        /* \"#utility.yul\":656:676   */\n      calldataload\n        /* \"#utility.yul\":694:773   */\n      tag_28\n        /* \"#utility.yul\":769:772   */\n      dup5\n        /* \"#utility.yul\":761:767   */\n      dup3\n        /* \"#utility.yul\":754:758   */\n      0x20\n        /* \"#utility.yul\":746:752   */\n      dup7\n        /* \"#utility.yul\":742:759   */\n      add\n        /* \"#utility.yul\":694:773   */\n      tag_12\n      jump\t// in\n    tag_28:\n        /* \"#utility.yul\":685:773   */\n      swap2\n      pop\n        /* \"#utility.yul\":501:779   */\n      pop\n        /* \"#utility.yul\":439:779   */\n      swap3\n      swap2\n      pop\n      pop\n      jump\t// out\n        /* \"#utility.yul\":785:1619   */\n    tag_6:\n        /* \"#utility.yul\":873:879   */\n      0x00\n        /* \"#utility.yul\":881:887   */\n      dup1\n        /* \"#utility.yul\":930:932   */\n      0x40\n        /* \"#utility.yul\":918:927   */\n      dup4\n        /* \"#utility.yul\":909:916   */\n      dup6\n        /* \"#utility.yul\":905:928   */\n      sub\n        /* \"#utility.yul\":901:933   */\n      slt\n        /* \"#utility.yul\":898:1017   */\n      iszero\n      tag_30\n      jumpi\n        /* \"#utility.yul\":936:1015   */\n      tag_31\n      tag_32\n      jump\t// in\n    tag_31:\n        /* \"#utility.yul\":898:1017   */\n    tag_30:\n        /* \"#utility.yul\":1084:1085   */\n      0x00\n        /* \"#utility.yul\":1073:1082   */\n      dup4\n        /* \"#utility.yul\":1069:1086   */\n      add\n        /* \"#utility.yul\":1056:1087   */\n      calldataload\n        /* \"#utility.yul\":1114:1132   */\n      0xffffffffffffffff\n        /* \"#utility.yul\":1106:1112   */\n      dup2\n        /* \"#utility.yul\":1103:1133   */\n      gt\n        /* \"#utility.yul\":1100:1217   */\n      iszero\n      tag_33\n      jumpi\n        /* \"#utility.yul\":1136:1215   */\n      tag_34\n      tag_35\n      jump\t// in\n    tag_34:\n        /* \"#utility.yul\":1100:1217   */\n    tag_33:\n        /* \"#utility.yul\":1241:1304   */\n      tag_36\n        /* \"#utility.yul\":1296:1303   */\n      dup6\n        /* \"#utility.yul\":1287:1293   */\n      dup3\n        /* \"#utility.yul\":1276:1285   */\n      dup7\n        /* \"#utility.yul\":1272:1294   */\n      add\n        /* \"#utility.yul\":1241:1304   */\n      tag_23\n      jump\t// in\n    tag_36:\n        /* \"#utility.yul\":1231:1304   */\n      swap3\n      pop\n        /* \"#utility.yul\":1027:1314   */\n      pop\n        /* \"#utility.yul\":1381:1383   */\n      0x20\n        /* \"#utility.yul\":1370:1379   */\n      dup4\n        /* \"#utility.yul\":1366:1384   */\n      add\n        /* \"#utility.yul\":1353:1385   */\n      calldataload\n        /* \"#utility.yul\":1412:1430   */\n      0xffffffffffffffff\n        /* \"#utility.yul\":1404:1410   */\n      dup2\n        /* \"#utility.yul\":1401:1431   */\n      gt\n        /* \"#utility.yul\":1398:1515   */\n      iszero\n      tag_37\n      jumpi\n        /* \"#utility.yul\":1434:1513   */\n      tag_38\n      tag_35\n      jump\t// in\n    tag_38:\n        /* \"#utility.yul\":1398:1515   */\n    tag_37:\n        /* \"#utility.yul\":1539:1602   */\n      tag_39\n        /* \"#utility.yul\":1594:1601   */\n      dup6\n        /* \"#utility.yul\":1585:1591   */\n      dup3\n        /* \"#utility.yul\":1574:1583   */\n      dup7\n        /* \"#utility.yul\":1570:1592   */\n      add\n        /* \"#utility.yul\":1539:1602   */\n      tag_23\n      jump\t// in\n    tag_39:\n        /* \"#utility.yul\":1529:1602   */\n      swap2\n      pop\n        /* \"#utility.yul\":1324:1612   */\n      pop\n        /* \"#utility.yul\":785:1619   */\n      swap3\n      pop\n      swap3\n      swap1\n      pop\n      jump\t// out\n        /* \"#utility.yul\":1625:1989   */\n    tag_40:\n        /* \"#utility.yul\":1713:1716   */\n      0x00\n        /* \"#utility.yul\":1741:1780   */\n      tag_42\n        /* \"#utility.yul\":1774:1779   */\n      dup3\n        /* \"#utility.yul\":1741:1780   */\n      tag_43\n      jump\t// in\n    tag_42:\n        /* \"#utility.yul\":1796:1867   */\n      tag_44\n        /* \"#utility.yul\":1860:1866   */\n      dup2\n        /* \"#utility.yul\":1855:1858   */\n      dup6\n        /* \"#utility.yul\":1796:1867   */\n      tag_45\n      jump\t// in\n    tag_44:\n        /* \"#utility.yul\":1789:1867   */\n      swap4\n      pop\n        /* \"#utility.yul\":1876:1928   */\n      tag_46\n        /* \"#utility.yul\":1921:1927   */\n      dup2\n        /* \"#utility.yul\":1916:1919   */\n      dup6\n        /* \"#utility.yul\":1909:1913   */\n      0x20\n        /* \"#utility.yul\":1902:1907   */\n      dup7\n        /* \"#utility.yul\":1898:1914   */\n      add\n        /* \"#utility.yul\":1876:1928   */\n      tag_47\n      jump\t// in\n    tag_46:\n        /* \"#utility.yul\":1953:1982   */\n      tag_48\n        /* \"#utility.yul\":1975:1981   */\n      dup2\n        /* \"#utility.yul\":1953:1982   */\n      tag_49\n      jump\t// in\n    tag_48:\n        /* \"#utility.yul\":1948:1951   */\n      dup5\n        /* \"#utility.yul\":1944:1983   */\n      add\n        /* \"#utility.yul\":1937:1983   */\n      swap2\n      pop\n        /* \"#utility.yul\":1717:1989   */\n      pop\n        /* \"#utility.yul\":1625:1989   */\n      swap3\n      swap2\n      pop\n      pop\n      jump\t// out\n        /* \"#utility.yul\":1995:2308   */\n    tag_9:\n        /* \"#utility.yul\":2108:2112   */\n      0x00\n        /* \"#utility.yul\":2146:2148   */\n      0x20\n        /* \"#utility.yul\":2135:2144   */\n      dup3\n        /* \"#utility.yul\":2131:2149   */\n      add\n        /* \"#utility.yul\":2123:2149   */\n      swap1\n      pop\n        /* \"#utility.yul\":2195:2204   */\n      dup2\n        /* \"#utility.yul\":2189:2193   */\n      dup2\n        /* \"#utility.yul\":2185:2205   */\n      sub\n        /* \"#utility.yul\":2181:2182   */\n      0x00\n        /* \"#utility.yul\":2170:2179   */\n      dup4\n        /* \"#utility.yul\":2166:2183   */\n      add\n        /* \"#utility.yul\":2159:2206   */\n      mstore\n        /* \"#utility.yul\":2223:2301   */\n      tag_51\n        /* \"#utility.yul\":2296:2300   */\n      dup2\n        /* \"#utility.yul\":2287:2293   */\n      dup5\n        /* \"#utility.yul\":2223:2301   */\n      tag_40\n      jump\t// in\n    tag_51:\n        /* \"#utility.yul\":2215:2301   */\n      swap1\n      pop\n        /* \"#utility.yul\":1995:2308   */\n      swap3\n      swap2\n      pop\n      pop\n      jump\t// out\n        /* \"#utility.yul\":2314:2443   */\n    tag_17:\n        /* \"#utility.yul\":2348:2354   */\n      0x00\n        /* \"#utility.yul\":2375:2395   */\n      tag_53\n      tag_54\n      jump\t// in\n    tag_53:\n        /* \"#utility.yul\":2365:2395   */\n      swap1\n      pop\n        /* \"#utility.yul\":2404:2437   */\n      tag_55\n        /* \"#utility.yul\":2432:2436   */\n      dup3\n        /* \"#utility.yul\":2424:2430   */\n      dup3\n        /* \"#utility.yul\":2404:2437   */\n      tag_56\n      jump\t// in\n    tag_55:\n        /* \"#utility.yul\":2314:2443   */\n      swap2\n      swap1\n      pop\n      jump\t// out\n        /* \"#utility.yul\":2449:2524   */\n    tag_54:\n        /* \"#utility.yul\":2482:2488   */\n      0x00\n        /* \"#utility.yul\":2515:2517   */\n      0x40\n        /* \"#utility.yul\":2509:2518   */\n      mload\n        /* \"#utility.yul\":2499:2518   */\n      swap1\n      pop\n        /* \"#utility.yul\":2449:2524   */\n      swap1\n      jump\t// out\n        /* \"#utility.yul\":2530:2838   */\n    tag_16:\n        /* \"#utility.yul\":2592:2596   */\n      0x00\n        /* \"#utility.yul\":2682:2700   */\n      0xffffffffffffffff\n        /* \"#utility.yul\":2674:2680   */\n      dup3\n        /* \"#utility.yul\":2671:2701   */\n      gt\n        /* \"#utility.yul\":2668:2724   */\n      iszero\n      tag_59\n      jumpi\n        /* \"#utility.yul\":2704:2722   */\n      tag_60\n      tag_61\n      jump\t// in\n    tag_60:\n        /* \"#utility.yul\":2668:2724   */\n    tag_59:\n        /* \"#utility.yul\":2742:2771   */\n      tag_62\n        /* \"#utility.yul\":2764:2770   */\n      dup3\n        /* \"#utility.yul\":2742:2771   */\n      tag_49\n      jump\t// in\n    tag_62:\n        /* \"#utility.yul\":2734:2771   */\n      swap1\n      pop\n        /* \"#utility.yul\":2826:2830   */\n      0x20\n        /* \"#utility.yul\":2820:2824   */\n      dup2\n        /* \"#utility.yul\":2816:2831   */\n      add\n        /* \"#utility.yul\":2808:2831   */\n      swap1\n      pop\n        /* \"#utility.yul\":2530:2838   */\n      swap2\n      swap1\n      pop\n      jump\t// out\n        /* \"#utility.yul\":2844:2943   */\n    tag_43:\n        /* \"#utility.yul\":2896:2902   */\n      0x00\n        /* \"#utility.yul\":2930:2935   */\n      dup2\n        /* \"#utility.yul\":2924:2936   */\n      mload\n        /* \"#utility.yul\":2914:2936   */\n      swap1\n      pop\n        /* \"#utility.yul\":2844:2943   */\n      swap2\n      swap1\n      pop\n      jump\t// out\n        /* \"#utility.yul\":2949:3118   */\n    tag_45:\n        /* \"#utility.yul\":3033:3044   */\n      0x00\n        /* \"#utility.yul\":3067:3073   */\n      dup3\n        /* \"#utility.yul\":3062:3065   */\n      dup3\n        /* \"#utility.yul\":3055:3074   */\n      mstore\n        /* \"#utility.yul\":3107:3111   */\n      0x20\n        /* \"#utility.yul\":3102:3105   */\n      dup3\n        /* \"#utility.yul\":3098:3112   */\n      add\n        /* \"#utility.yul\":3083:3112   */\n      swap1\n      pop\n        /* \"#utility.yul\":2949:3118   */\n      swap3\n      swap2\n      pop\n      pop\n      jump\t// out\n        /* \"#utility.yul\":3124:3278   */\n    tag_22:\n        /* \"#utility.yul\":3208:3214   */\n      dup3\n        /* \"#utility.yul\":3203:3206   */\n      dup2\n        /* \"#utility.yul\":3198:3201   */\n      dup4\n        /* \"#utility.yul\":3185:3215   */\n      calldatacopy\n        /* \"#utility.yul\":3270:3271   */\n      0x00\n        /* \"#utility.yul\":3261:3267   */\n      dup4\n        /* \"#utility.yul\":3256:3259   */\n      dup4\n        /* \"#utility.yul\":3252:3268   */\n      add\n        /* \"#utility.yul\":3245:3272   */\n      mstore\n        /* \"#utility.yul\":3124:3278   */\n      pop\n      pop\n      pop\n      jump\t// out\n        /* \"#utility.yul\":3284:3591   */\n    tag_47:\n        /* \"#utility.yul\":3352:3353   */\n      0x00\n        /* \"#utility.yul\":3362:3475   */\n    tag_67:\n        /* \"#utility.yul\":3376:3382   */\n      dup4\n        /* \"#utility.yul\":3373:3374   */\n      dup2\n        /* \"#utility.yul\":3370:3383   */\n      lt\n        /* \"#utility.yul\":3362:3475   */\n      iszero\n      tag_69\n      jumpi\n        /* \"#utility.yul\":3461:3462   */\n      dup1\n        /* \"#utility.yul\":3456:3459   */\n      dup3\n        /* \"#utility.yul\":3452:3463   */\n      add\n        /* \"#utility.yul\":3446:3464   */\n      mload\n        /* \"#utility.yul\":3442:3443   */\n      dup2\n        /* \"#utility.yul\":3437:3440   */\n      dup5\n        /* \"#utility.yul\":3433:3444   */\n      add\n        /* \"#utility.yul\":3426:3465   */\n      mstore\n        /* \"#utility.yul\":3398:3400   */\n      0x20\n        /* \"#utility.yul\":3395:3396   */\n      dup2\n        /* \"#utility.yul\":3391:3401   */\n      add\n        /* \"#utility.yul\":3386:3401   */\n      swap1\n      pop\n        /* \"#utility.yul\":3362:3475   */\n      jump(tag_67)\n    tag_69:\n        /* \"#utility.yul\":3493:3499   */\n      dup4\n        /* \"#utility.yul\":3490:3491   */\n      dup2\n        /* \"#utility.yul\":3487:3500   */\n      gt\n        /* \"#utility.yul\":3484:3585   */\n      iszero\n      tag_70\n      jumpi\n        /* \"#utility.yul\":3573:3574   */\n      0x00\n        /* \"#utility.yul\":3564:3570   */\n      dup5\n        /* \"#utility.yul\":3559:3562   */\n      dup5\n        /* \"#utility.yul\":3555:3571   */\n      add\n        /* \"#utility.yul\":3548:3575   */\n      mstore\n        /* \"#utility.yul\":3484:3585   */\n    tag_70:\n        /* \"#utility.yul\":3333:3591   */\n      pop\n        /* \"#utility.yul\":3284:3591   */\n      pop\n      pop\n      pop\n      jump\t// out\n        /* \"#utility.yul\":3597:3878   */\n    tag_56:\n        /* \"#utility.yul\":3680:3707   */\n      tag_72\n        /* \"#utility.yul\":3702:3706   */\n      dup3\n        /* \"#utility.yul\":3680:3707   */\n      tag_49\n      jump\t// in\n    tag_72:\n        /* \"#utility.yul\":3672:3678   */\n      dup2\n        /* \"#utility.yul\":3668:3708   */\n      add\n        /* \"#utility.yul\":3810:3816   */\n      dup2\n        /* \"#utility.yul\":3798:3808   */\n      dup2\n        /* \"#utility.yul\":3795:3817   */\n      lt\n        /* \"#utility.yul\":3774:3792   */\n      0xffffffffffffffff\n        /* \"#utility.yul\":3762:3772   */\n      dup3\n        /* \"#utility.yul\":3759:3793   */\n      gt\n        /* \"#utility.yul\":3756:3818   */\n      or\n        /* \"#utility.yul\":3753:3841   */\n      iszero\n      tag_73\n      jumpi\n        /* \"#utility.yul\":3821:3839   */\n      tag_74\n      tag_61\n      jump\t// in\n    tag_74:\n        /* \"#utility.yul\":3753:3841   */\n    tag_73:\n        /* \"#utility.yul\":3861:3871   */\n      dup1\n        /* \"#utility.yul\":3857:3859   */\n      0x40\n        /* \"#utility.yul\":3850:3872   */\n      mstore\n        /* \"#utility.yul\":3640:3878   */\n      pop\n        /* \"#utility.yul\":3597:3878   */\n      pop\n      pop\n      jump\t// out\n        /* \"#utility.yul\":3884:4064   */\n    tag_61:\n        /* \"#utility.yul\":3932:4009   */\n      0x4e487b7100000000000000000000000000000000000000000000000000000000\n        /* \"#utility.yul\":3929:3930   */\n      0x00\n        /* \"#utility.yul\":3922:4010   */\n      mstore\n        /* \"#utility.yul\":4029:4033   */\n      0x41\n        /* \"#utility.yul\":4026:4027   */\n      0x04\n        /* \"#utility.yul\":4019:4034   */\n      mstore\n        /* \"#utility.yul\":4053:4057   */\n      0x24\n        /* \"#utility.yul\":4050:4051   */\n      0x00\n        /* \"#utility.yul\":4043:4058   */\n      revert\n        /* \"#utility.yul\":4070:4187   */\n    tag_27:\n        /* \"#utility.yul\":4179:4180   */\n      0x00\n        /* \"#utility.yul\":4176:4177   */\n      dup1\n        /* \"#utility.yul\":4169:4181   */\n      revert\n        /* \"#utility.yul\":4193:4310   */\n    tag_20:\n        /* \"#utility.yul\":4302:4303   */\n      0x00\n        /* \"#utility.yul\":4299:4300   */\n      dup1\n        /* \"#utility.yul\":4292:4304   */\n      revert\n        /* \"#utility.yul\":4316:4433   */\n    tag_35:\n        /* \"#utility.yul\":4425:4426   */\n      0x00\n        /* \"#utility.yul\":4422:4423   */\n      dup1\n        /* \"#utility.yul\":4415:4427   */\n      revert\n        /* \"#utility.yul\":4439:4556   */\n    tag_32:\n        /* \"#utility.yul\":4548:4549   */\n      0x00\n        /* \"#utility.yul\":4545:4546   */\n      dup1\n        /* \"#utility.yul\":4538:4550   */\n      revert\n        /* \"#utility.yul\":4562:4664   */\n    tag_49:\n        /* \"#utility.yul\":4603:4609   */\n      0x00\n        /* \"#utility.yul\":4654:4656   */\n      0x1f\n        /* \"#utility.yul\":4650:4657   */\n      not\n        /* \"#utility.yul\":4645:4647   */\n      0x1f\n        /* \"#utility.yul\":4638:4643   */\n      dup4\n        /* \"#utility.yul\":4634:4648   */\n      add\n        /* \"#utility.yul\":4630:4658   */\n      and\n        /* \"#utility.yul\":4620:4658   */\n      swap1\n      pop\n        /* \"#utility.yul\":4562:4664   */\n      swap2\n      swap1\n      pop\n      jump\t// out\n\n    auxdata: 0xa264697066735822122033280339151e20e3f098c0fb48a3e505d3aa4c0ba2f48ef32c86b6adb7cca67864736f6c63430008070033\n}\n",
				"bytecode": {
					"linkReferences": {},
					"object": "60806040526040518060400160405280600981526020017f4f6c61206d756e646f00000000000000000000000000000000000000000000008152506000908051906020019061004f929190610062565b5034801561005c57600080fd5b50610166565b82805461006e90610105565b90600052602060002090601f01602090048101928261009057600085556100d7565b82601f106100a957805160ff19168380011785556100d7565b828001600101855582156100d7579182015b828111156100d65782518255916020019190600101906100bb565b5b5090506100e491906100e8565b5090565b5b808211156101015760008160009055506001016100e9565b5090565b6000600282049050600182168061011d57607f821691505b6020821081141561013157610130610137565b5b50919050565b7f4e487b7100000000000000000000000000000000000000000000000000000000600052602260045260246000fd5b61031a806101756000396000f3fe608060405234801561001057600080fd5b506004361061002b5760003560e01c80631641deba14610030575b600080fd5b61004a600480360381019061004591906100d8565b610060565b6040516100579190610189565b60405180910390f35b606092915050565b600061007b610076846101d0565b6101ab565b905082815260208101848484011115610097576100966102c4565b5b6100a284828561021d565b509392505050565b600082601f8301126100bf576100be6102bf565b5b81356100cf848260208601610068565b91505092915050565b600080604083850312156100ef576100ee6102ce565b5b600083013567ffffffffffffffff81111561010d5761010c6102c9565b5b610119858286016100aa565b925050602083013567ffffffffffffffff81111561013a576101396102c9565b5b610146858286016100aa565b9150509250929050565b600061015b82610201565b610165818561020c565b935061017581856020860161022c565b61017e816102d3565b840191505092915050565b600060208201905081810360008301526101a38184610150565b905092915050565b60006101b56101c6565b90506101c1828261025f565b919050565b6000604051905090565b600067ffffffffffffffff8211156101eb576101ea610290565b5b6101f4826102d3565b9050602081019050919050565b600081519050919050565b600082825260208201905092915050565b82818337600083830152505050565b60005b8381101561024a57808201518184015260208101905061022f565b83811115610259576000848401525b50505050565b610268826102d3565b810181811067ffffffffffffffff8211171561028757610286610290565b5b80604052505050565b7f4e487b7100000000000000000000000000000000000000000000000000000000600052604160045260246000fd5b600080fd5b600080fd5b600080fd5b600080fd5b6000601f19601f830116905091905056fea264697066735822122033280339151e20e3f098c0fb48a3e505d3aa4c0ba2f48ef32c86b6adb7cca67864736f6c63430008070033",
					"opcodes": "PUSH1 0x80 PUSH1 0x40 MSTORE PUSH1 0x40 MLOAD DUP1 PUSH1 0x40 ADD PUSH1 0x40 MSTORE DUP1 PUSH1 0x9 DUP2 MSTORE PUSH1 0x20 ADD PUSH32 0x4F6C61206D756E646F0000000000000000000000000000000000000000000000 DUP2 MSTORE POP PUSH1 0x0 SWAP1 DUP1 MLOAD SWAP1 PUSH1 0x20 ADD SWAP1 PUSH2 0x4F SWAP3 SWAP2 SWAP1 PUSH2 0x62 JUMP JUMPDEST POP CALLVALUE DUP1 ISZERO PUSH2 0x5C JUMPI PUSH1 0x0 DUP1 REVERT JUMPDEST POP PUSH2 0x166 JUMP JUMPDEST DUP3 DUP1 SLOAD PUSH2 0x6E SWAP1 PUSH2 0x105 JUMP JUMPDEST SWAP1 PUSH1 0x0 MSTORE PUSH1 0x20 PUSH1 0x0 KECCAK256 SWAP1 PUSH1 0x1F ADD PUSH1 0x20 SWAP1 DIV DUP2 ADD SWAP3 DUP3 PUSH2 0x90 JUMPI PUSH1 0x0 DUP6 SSTORE PUSH2 0xD7 JUMP JUMPDEST DUP3 PUSH1 0x1F LT PUSH2 0xA9 JUMPI DUP1 MLOAD PUSH1 0xFF NOT AND DUP4 DUP1 ADD OR DUP6 SSTORE PUSH2 0xD7 JUMP JUMPDEST DUP3 DUP1 ADD PUSH1 0x1 ADD DUP6 SSTORE DUP3 ISZERO PUSH2 0xD7 JUMPI SWAP2 DUP3 ADD JUMPDEST DUP3 DUP2 GT ISZERO PUSH2 0xD6 JUMPI DUP3 MLOAD DUP3 SSTORE SWAP2 PUSH1 0x20 ADD SWAP2 SWAP1 PUSH1 0x1 ADD SWAP1 PUSH2 0xBB JUMP JUMPDEST JUMPDEST POP SWAP1 POP PUSH2 0xE4 SWAP2 SWAP1 PUSH2 0xE8 JUMP JUMPDEST POP SWAP1 JUMP JUMPDEST JUMPDEST DUP1 DUP3 GT ISZERO PUSH2 0x101 JUMPI PUSH1 0x0 DUP2 PUSH1 0x0 SWAP1 SSTORE POP PUSH1 0x1 ADD PUSH2 0xE9 JUMP JUMPDEST POP SWAP1 JUMP JUMPDEST PUSH1 0x0 PUSH1 0x2 DUP3 DIV SWAP1 POP PUSH1 0x1 DUP3 AND DUP1 PUSH2 0x11D JUMPI PUSH1 0x7F DUP3 AND SWAP2 POP JUMPDEST PUSH1 0x20 DUP3 LT DUP2 EQ ISZERO PUSH2 0x131 JUMPI PUSH2 0x130 PUSH2 0x137 JUMP JUMPDEST JUMPDEST POP SWAP2 SWAP1 POP JUMP JUMPDEST PUSH32 0x4E487B7100000000000000000000000000000000000000000000000000000000 PUSH1 0x0 MSTORE PUSH1 0x22 PUSH1 0x4 MSTORE PUSH1 0x24 PUSH1 0x0 REVERT JUMPDEST PUSH2 0x31A DUP1 PUSH2 0x175 PUSH1 0x0 CODECOPY PUSH1 0x0 RETURN INVALID PUSH1 0x80 PUSH1 0x40 MSTORE CALLVALUE DUP1 ISZERO PUSH2 0x10 JUMPI PUSH1 0x0 DUP1 REVERT JUMPDEST POP PUSH1 0x4 CALLDATASIZE LT PUSH2 0x2B JUMPI PUSH1 0x0 CALLDATALOAD PUSH1 0xE0 SHR DUP1 PUSH4 0x1641DEBA EQ PUSH2 0x30 JUMPI JUMPDEST PUSH1 0x0 DUP1 REVERT JUMPDEST PUSH2 0x4A PUSH1 0x4 DUP1 CALLDATASIZE SUB DUP2 ADD SWAP1 PUSH2 0x45 SWAP2 SWAP1 PUSH2 0xD8 JUMP JUMPDEST PUSH2 0x60 JUMP JUMPDEST PUSH1 0x40 MLOAD PUSH2 0x57 SWAP2 SWAP1 PUSH2 0x189 JUMP JUMPDEST PUSH1 0x40 MLOAD DUP1 SWAP2 SUB SWAP1 RETURN JUMPDEST PUSH1 0x60 SWAP3 SWAP2 POP POP JUMP JUMPDEST PUSH1 0x0 PUSH2 0x7B PUSH2 0x76 DUP5 PUSH2 0x1D0 JUMP JUMPDEST PUSH2 0x1AB JUMP JUMPDEST SWAP1 POP DUP3 DUP2 MSTORE PUSH1 0x20 DUP2 ADD DUP5 DUP5 DUP5 ADD GT ISZERO PUSH2 0x97 JUMPI PUSH2 0x96 PUSH2 0x2C4 JUMP JUMPDEST JUMPDEST PUSH2 0xA2 DUP5 DUP3 DUP6 PUSH2 0x21D JUMP JUMPDEST POP SWAP4 SWAP3 POP POP POP JUMP JUMPDEST PUSH1 0x0 DUP3 PUSH1 0x1F DUP4 ADD SLT PUSH2 0xBF JUMPI PUSH2 0xBE PUSH2 0x2BF JUMP JUMPDEST JUMPDEST DUP2 CALLDATALOAD PUSH2 0xCF DUP5 DUP3 PUSH1 0x20 DUP7 ADD PUSH2 0x68 JUMP JUMPDEST SWAP2 POP POP SWAP3 SWAP2 POP POP JUMP JUMPDEST PUSH1 0x0 DUP1 PUSH1 0x40 DUP4 DUP6 SUB SLT ISZERO PUSH2 0xEF JUMPI PUSH2 0xEE PUSH2 0x2CE JUMP JUMPDEST JUMPDEST PUSH1 0x0 DUP4 ADD CALLDATALOAD PUSH8 0xFFFFFFFFFFFFFFFF DUP2 GT ISZERO PUSH2 0x10D JUMPI PUSH2 0x10C PUSH2 0x2C9 JUMP JUMPDEST JUMPDEST PUSH2 0x119 DUP6 DUP3 DUP7 ADD PUSH2 0xAA JUMP JUMPDEST SWAP3 POP POP PUSH1 0x20 DUP4 ADD CALLDATALOAD PUSH8 0xFFFFFFFFFFFFFFFF DUP2 GT ISZERO PUSH2 0x13A JUMPI PUSH2 0x139 PUSH2 0x2C9 JUMP JUMPDEST JUMPDEST PUSH2 0x146 DUP6 DUP3 DUP7 ADD PUSH2 0xAA JUMP JUMPDEST SWAP2 POP POP SWAP3 POP SWAP3 SWAP1 POP JUMP JUMPDEST PUSH1 0x0 PUSH2 0x15B DUP3 PUSH2 0x201 JUMP JUMPDEST PUSH2 0x165 DUP2 DUP6 PUSH2 0x20C JUMP JUMPDEST SWAP4 POP PUSH2 0x175 DUP2 DUP6 PUSH1 0x20 DUP7 ADD PUSH2 0x22C JUMP JUMPDEST PUSH2 0x17E DUP2 PUSH2 0x2D3 JUMP JUMPDEST DUP5 ADD SWAP2 POP POP SWAP3 SWAP2 POP POP JUMP JUMPDEST PUSH1 0x0 PUSH1 0x20 DUP3 ADD SWAP1 POP DUP2 DUP2 SUB PUSH1 0x0 DUP4 ADD MSTORE PUSH2 0x1A3 DUP2 DUP5 PUSH2 0x150 JUMP JUMPDEST SWAP1 POP SWAP3 SWAP2 POP POP JUMP JUMPDEST PUSH1 0x0 PUSH2 0x1B5 PUSH2 0x1C6 JUMP JUMPDEST SWAP1 POP PUSH2 0x1C1 DUP3 DUP3 PUSH2 0x25F JUMP JUMPDEST SWAP2 SWAP1 POP JUMP JUMPDEST PUSH1 0x0 PUSH1 0x40 MLOAD SWAP1 POP SWAP1 JUMP JUMPDEST PUSH1 0x0 PUSH8 0xFFFFFFFFFFFFFFFF DUP3 GT ISZERO PUSH2 0x1EB JUMPI PUSH2 0x1EA PUSH2 0x290 JUMP JUMPDEST JUMPDEST PUSH2 0x1F4 DUP3 PUSH2 0x2D3 JUMP JUMPDEST SWAP1 POP PUSH1 0x20 DUP2 ADD SWAP1 POP SWAP2 SWAP1 POP JUMP JUMPDEST PUSH1 0x0 DUP2 MLOAD SWAP1 POP SWAP2 SWAP1 POP JUMP JUMPDEST PUSH1 0x0 DUP3 DUP3 MSTORE PUSH1 0x20 DUP3 ADD SWAP1 POP SWAP3 SWAP2 POP POP JUMP JUMPDEST DUP3 DUP2 DUP4 CALLDATACOPY PUSH1 0x0 DUP4 DUP4 ADD MSTORE POP POP POP JUMP JUMPDEST PUSH1 0x0 JUMPDEST DUP4 DUP2 LT ISZERO PUSH2 0x24A JUMPI DUP1 DUP3 ADD MLOAD DUP2 DUP5 ADD MSTORE PUSH1 0x20 DUP2 ADD SWAP1 POP PUSH2 0x22F JUMP JUMPDEST DUP4 DUP2 GT ISZERO PUSH2 0x259 JUMPI PUSH1 0x0 DUP5 DUP5 ADD MSTORE JUMPDEST POP POP POP POP JUMP JUMPDEST PUSH2 0x268 DUP3 PUSH2 0x2D3 JUMP JUMPDEST DUP2 ADD DUP2 DUP2 LT PUSH8 0xFFFFFFFFFFFFFFFF DUP3 GT OR ISZERO PUSH2 0x287 JUMPI PUSH2 0x286 PUSH2 0x290 JUMP JUMPDEST JUMPDEST DUP1 PUSH1 0x40 MSTORE POP POP POP JUMP JUMPDEST PUSH32 0x4E487B7100000000000000000000000000000000000000000000000000000000 PUSH1 0x0 MSTORE PUSH1 0x41 PUSH1 0x4 MSTORE PUSH1 0x24 PUSH1 0x0 REVERT JUMPDEST PUSH1 0x0 DUP1 REVERT JUMPDEST PUSH1 0x0 DUP1 REVERT JUMPDEST PUSH1 0x0 DUP1 REVERT JUMPDEST PUSH1 0x0 DUP1 REVERT JUMPDEST PUSH1 0x0 PUSH1 0x1F NOT PUSH1 0x1F DUP4 ADD AND SWAP1 POP SWAP2 SWAP1 POP JUMP INVALID LOG2 PUSH5 0x6970667358 0x22 SLT KECCAK256 CALLER 0x28 SUB CODECOPY ISZERO 0x1E KECCAK256 0xE3 CREATE SWAP9 0xC0 0xFB BASEFEE LOG3 0xE5 SDIV 0xD3 0xAA 0x4C SIGNEXTEND LOG2 DELEGATECALL DUP15 RETURN 0x2C DUP7 0xB6 0xAD 0xB7 0xCC 0xA6 PUSH25 0x64736F6C634300080700330000000000000000000000000000 "
				},
				"gasEstimates": {
					"creation": {
						"codeDepositCost": "158800",
						"executionCost": "infinite",
						"totalCost": "infinite"
					},
					"external": {
						"concatena(string,string)": "infinite"
					}
				},
				"methodIdentifiers": {
					"concatena(string,string)": "1641deba"
				}
			},
			"storageLayout": {
				"storage": [
					{
						"astId": 4,
						"contract": "contracts/String.sol:String",
						"label": "texto",
						"offset": 0,
						"slot": "0",
						"type": "t_string_storage"
					}
				],
				"types": {
					"t_string_storage": {
						"encoding": "bytes",
						"label": "string",
						"numberOfBytes": "32"
					}
				}
			},
			"userdoc": {
				"kind": "user",
				"methods": {},
				"version": 1
			}
		}
	}
}