{
	"contracts/Origin.sol": {
		"Origin": {
			"abi": [
				{
					"inputs": [],
					"name": "funcaoExterna",
					"outputs": [
						{
							"internalType": "address",
							"name": "",
							"type": "address"
						},
						{
							"internalType": "address",
							"name": "",
							"type": "address"
						}
					],
					"stateMutability": "view",
					"type": "function"
				},
				{
					"inputs": [],
					"name": "invocaExterno",
					"outputs": [
						{
							"internalType": "address",
							"name": "",
							"type": "address"
						},
						{
							"internalType": "address",
							"name": "",
							"type": "address"
						}
					],
					"stateMutability": "view",
					"type": "function"
				},
				{
					"inputs": [],
					"name": "retornaEnderecos",
					"outputs": [
						{
							"internalType": "address",
							"name": "",
							"type": "address"
						},
						{
							"internalType": "address",
							"name": "",
							"type": "address"
						}
					],
					"stateMutability": "view",
					"type": "function"
				}
			],
			"devdoc": {
				"kind": "dev",
				"methods": {},
				"version": 1
			},
			"evm": {
				"assembly": "    /* \"contracts/Origin.sol\":70:443  contract Origin {... */\n  mstore(0x40, 0x80)\n  callvalue\n  dup1\n  iszero\n  tag_1\n  jumpi\n  0x00\n  dup1\n  revert\ntag_1:\n  pop\n  dataSize(sub_0)\n  dup1\n  dataOffset(sub_0)\n  0x00\n  codecopy\n  0x00\n  return\nstop\n\nsub_0: assembly {\n        /* \"contracts/Origin.sol\":70:443  contract Origin {... */\n      mstore(0x40, 0x80)\n      callvalue\n      dup1\n      iszero\n      tag_1\n      jumpi\n      0x00\n      dup1\n      revert\n    tag_1:\n      pop\n      jumpi(tag_2, lt(calldatasize, 0x04))\n      shr(0xe0, calldataload(0x00))\n      dup1\n      0x04a7233e\n      eq\n      tag_3\n      jumpi\n      dup1\n      0x14876f02\n      eq\n      tag_4\n      jumpi\n      dup1\n      0x31a71df8\n      eq\n      tag_5\n      jumpi\n    tag_2:\n      0x00\n      dup1\n      revert\n        /* \"contracts/Origin.sol\":93:207  function retornaEnderecos() public view returns (address, address) {... */\n    tag_3:\n      tag_6\n      tag_7\n      jump\t// in\n    tag_6:\n      mload(0x40)\n      tag_8\n      swap3\n      swap2\n      swap1\n      tag_9\n      jump\t// in\n    tag_8:\n      mload(0x40)\n      dup1\n      swap2\n      sub\n      swap1\n      return\n        /* \"contracts/Origin.sol\":213:327  function funcaoExterna() external view returns (address, address) {... */\n    tag_4:\n      tag_10\n      tag_11\n      jump\t// in\n    tag_10:\n      mload(0x40)\n      tag_12\n      swap3\n      swap2\n      swap1\n      tag_9\n      jump\t// in\n    tag_12:\n      mload(0x40)\n      dup1\n      swap2\n      sub\n      swap1\n      return\n        /* \"contracts/Origin.sol\":333:441  function invocaExterno() public view returns (address, address) {... */\n    tag_5:\n      tag_13\n      tag_14\n      jump\t// in\n    tag_13:\n      mload(0x40)\n      tag_15\n      swap3\n      swap2\n      swap1\n      tag_9\n      jump\t// in\n    tag_15:\n      mload(0x40)\n      dup1\n      swap2\n      sub\n      swap1\n      return\n        /* \"contracts/Origin.sol\":93:207  function retornaEnderecos() public view returns (address, address) {... */\n    tag_7:\n        /* \"contracts/Origin.sol\":142:149  address */\n      0x00\n        /* \"contracts/Origin.sol\":151:158  address */\n      dup1\n        /* \"contracts/Origin.sol\":178:188  msg.sender */\n      caller\n        /* \"contracts/Origin.sol\":190:199  tx.origin */\n      origin\n        /* \"contracts/Origin.sol\":170:200  return (msg.sender, tx.origin) */\n      swap2\n      pop\n      swap2\n      pop\n        /* \"contracts/Origin.sol\":93:207  function retornaEnderecos() public view returns (address, address) {... */\n      swap1\n      swap2\n      jump\t// out\n        /* \"contracts/Origin.sol\":213:327  function funcaoExterna() external view returns (address, address) {... */\n    tag_11:\n        /* \"contracts/Origin.sol\":261:268  address */\n      0x00\n        /* \"contracts/Origin.sol\":270:277  address */\n      dup1\n        /* \"contracts/Origin.sol\":297:307  msg.sender */\n      caller\n        /* \"contracts/Origin.sol\":309:318  tx.origin */\n      origin\n        /* \"contracts/Origin.sol\":289:319  return (msg.sender, tx.origin) */\n      swap2\n      pop\n      swap2\n      pop\n        /* \"contracts/Origin.sol\":213:327  function funcaoExterna() external view returns (address, address) {... */\n      swap1\n      swap2\n      jump\t// out\n        /* \"contracts/Origin.sol\":333:441  function invocaExterno() public view returns (address, address) {... */\n    tag_14:\n        /* \"contracts/Origin.sol\":379:386  address */\n      0x00\n        /* \"contracts/Origin.sol\":388:395  address */\n      dup1\n        /* \"contracts/Origin.sol\":414:418  this */\n      address\n        /* \"contracts/Origin.sol\":414:432  this.funcaoExterna */\n      0xffffffffffffffffffffffffffffffffffffffff\n      and\n      0x14876f02\n        /* \"contracts/Origin.sol\":414:434  this.funcaoExterna() */\n      mload(0x40)\n      dup2\n      0xffffffff\n      and\n      0xe0\n      shl\n      dup2\n      mstore\n      0x04\n      add\n      0x40\n      dup1\n      mload\n      dup1\n      dup4\n      sub\n      dup2\n      dup7\n      dup1\n      extcodesize\n      iszero\n      dup1\n      iszero\n      tag_19\n      jumpi\n      0x00\n      dup1\n      revert\n    tag_19:\n      pop\n      gas\n      staticcall\n      iszero\n      dup1\n      iszero\n      tag_21\n      jumpi\n      returndatasize\n      0x00\n      dup1\n      returndatacopy\n      revert(0x00, returndatasize)\n    tag_21:\n      pop\n      pop\n      pop\n      pop\n      mload(0x40)\n      returndatasize\n      not(0x1f)\n      0x1f\n      dup3\n      add\n      and\n      dup3\n      add\n      dup1\n      0x40\n      mstore\n      pop\n      dup2\n      add\n      swap1\n      tag_22\n      swap2\n      swap1\n      tag_23\n      jump\t// in\n    tag_22:\n        /* \"contracts/Origin.sol\":407:434  return this.funcaoExterna() */\n      swap2\n      pop\n      swap2\n      pop\n        /* \"contracts/Origin.sol\":333:441  function invocaExterno() public view returns (address, address) {... */\n      swap1\n      swap2\n      jump\t// out\n        /* \"#utility.yul\":7:150   */\n    tag_25:\n        /* \"#utility.yul\":64:69   */\n      0x00\n        /* \"#utility.yul\":95:101   */\n      dup2\n        /* \"#utility.yul\":89:102   */\n      mload\n        /* \"#utility.yul\":80:102   */\n      swap1\n      pop\n        /* \"#utility.yul\":111:144   */\n      tag_27\n        /* \"#utility.yul\":138:143   */\n      dup2\n        /* \"#utility.yul\":111:144   */\n      tag_28\n      jump\t// in\n    tag_27:\n        /* \"#utility.yul\":7:150   */\n      swap3\n      swap2\n      pop\n      pop\n      jump\t// out\n        /* \"#utility.yul\":156:663   */\n    tag_23:\n        /* \"#utility.yul\":235:241   */\n      0x00\n        /* \"#utility.yul\":243:249   */\n      dup1\n        /* \"#utility.yul\":292:294   */\n      0x40\n        /* \"#utility.yul\":280:289   */\n      dup4\n        /* \"#utility.yul\":271:278   */\n      dup6\n        /* \"#utility.yul\":267:290   */\n      sub\n        /* \"#utility.yul\":263:295   */\n      slt\n        /* \"#utility.yul\":260:379   */\n      iszero\n      tag_30\n      jumpi\n        /* \"#utility.yul\":298:377   */\n      tag_31\n      tag_32\n      jump\t// in\n    tag_31:\n        /* \"#utility.yul\":260:379   */\n    tag_30:\n        /* \"#utility.yul\":418:419   */\n      0x00\n        /* \"#utility.yul\":443:507   */\n      tag_33\n        /* \"#utility.yul\":499:506   */\n      dup6\n        /* \"#utility.yul\":490:496   */\n      dup3\n        /* \"#utility.yul\":479:488   */\n      dup7\n        /* \"#utility.yul\":475:497   */\n      add\n        /* \"#utility.yul\":443:507   */\n      tag_25\n      jump\t// in\n    tag_33:\n        /* \"#utility.yul\":433:507   */\n      swap3\n      pop\n        /* \"#utility.yul\":389:517   */\n      pop\n        /* \"#utility.yul\":556:558   */\n      0x20\n        /* \"#utility.yul\":582:646   */\n      tag_34\n        /* \"#utility.yul\":638:645   */\n      dup6\n        /* \"#utility.yul\":629:635   */\n      dup3\n        /* \"#utility.yul\":618:627   */\n      dup7\n        /* \"#utility.yul\":614:636   */\n      add\n        /* \"#utility.yul\":582:646   */\n      tag_25\n      jump\t// in\n    tag_34:\n        /* \"#utility.yul\":572:646   */\n      swap2\n      pop\n        /* \"#utility.yul\":527:656   */\n      pop\n        /* \"#utility.yul\":156:663   */\n      swap3\n      pop\n      swap3\n      swap1\n      pop\n      jump\t// out\n        /* \"#utility.yul\":669:787   */\n    tag_35:\n        /* \"#utility.yul\":756:780   */\n      tag_37\n        /* \"#utility.yul\":774:779   */\n      dup2\n        /* \"#utility.yul\":756:780   */\n      tag_38\n      jump\t// in\n    tag_37:\n        /* \"#utility.yul\":751:754   */\n      dup3\n        /* \"#utility.yul\":744:781   */\n      mstore\n        /* \"#utility.yul\":669:787   */\n      pop\n      pop\n      jump\t// out\n        /* \"#utility.yul\":793:1125   */\n    tag_9:\n        /* \"#utility.yul\":914:918   */\n      0x00\n        /* \"#utility.yul\":952:954   */\n      0x40\n        /* \"#utility.yul\":941:950   */\n      dup3\n        /* \"#utility.yul\":937:955   */\n      add\n        /* \"#utility.yul\":929:955   */\n      swap1\n      pop\n        /* \"#utility.yul\":965:1036   */\n      tag_40\n        /* \"#utility.yul\":1033:1034   */\n      0x00\n        /* \"#utility.yul\":1022:1031   */\n      dup4\n        /* \"#utility.yul\":1018:1035   */\n      add\n        /* \"#utility.yul\":1009:1015   */\n      dup6\n        /* \"#utility.yul\":965:1036   */\n      tag_35\n      jump\t// in\n    tag_40:\n        /* \"#utility.yul\":1046:1118   */\n      tag_41\n        /* \"#utility.yul\":1114:1116   */\n      0x20\n        /* \"#utility.yul\":1103:1112   */\n      dup4\n        /* \"#utility.yul\":1099:1117   */\n      add\n        /* \"#utility.yul\":1090:1096   */\n      dup5\n        /* \"#utility.yul\":1046:1118   */\n      tag_35\n      jump\t// in\n    tag_41:\n        /* \"#utility.yul\":793:1125   */\n      swap4\n      swap3\n      pop\n      pop\n      pop\n      jump\t// out\n        /* \"#utility.yul\":1212:1308   */\n    tag_38:\n        /* \"#utility.yul\":1249:1256   */\n      0x00\n        /* \"#utility.yul\":1278:1302   */\n      tag_45\n        /* \"#utility.yul\":1296:1301   */\n      dup3\n        /* \"#utility.yul\":1278:1302   */\n      tag_46\n      jump\t// in\n    tag_45:\n        /* \"#utility.yul\":1267:1302   */\n      swap1\n      pop\n        /* \"#utility.yul\":1212:1308   */\n      swap2\n      swap1\n      pop\n      jump\t// out\n        /* \"#utility.yul\":1314:1440   */\n    tag_46:\n        /* \"#utility.yul\":1351:1358   */\n      0x00\n        /* \"#utility.yul\":1391:1433   */\n      0xffffffffffffffffffffffffffffffffffffffff\n        /* \"#utility.yul\":1384:1389   */\n      dup3\n        /* \"#utility.yul\":1380:1434   */\n      and\n        /* \"#utility.yul\":1369:1434   */\n      swap1\n      pop\n        /* \"#utility.yul\":1314:1440   */\n      swap2\n      swap1\n      pop\n      jump\t// out\n        /* \"#utility.yul\":1569:1686   */\n    tag_32:\n        /* \"#utility.yul\":1678:1679   */\n      0x00\n        /* \"#utility.yul\":1675:1676   */\n      dup1\n        /* \"#utility.yul\":1668:1680   */\n      revert\n        /* \"#utility.yul\":1692:1814   */\n    tag_28:\n        /* \"#utility.yul\":1765:1789   */\n      tag_52\n        /* \"#utility.yul\":1783:1788   */\n      dup2\n        /* \"#utility.yul\":1765:1789   */\n      tag_38\n      jump\t// in\n    tag_52:\n        /* \"#utility.yul\":1758:1763   */\n      dup2\n        /* \"#utility.yul\":1755:1790   */\n      eq\n        /* \"#utility.yul\":1745:1808   */\n      tag_53\n      jumpi\n        /* \"#utility.yul\":1804:1805   */\n      0x00\n        /* \"#utility.yul\":1801:1802   */\n      dup1\n        /* \"#utility.yul\":1794:1806   */\n      revert\n        /* \"#utility.yul\":1745:1808   */\n    tag_53:\n        /* \"#utility.yul\":1692:1814   */\n      pop\n      jump\t// out\n\n    auxdata: 0xa264697066735822122025f30aec4217b914c6b7d758091a3cdac4487bf32ca5835ad2a34d428dda202664736f6c63430008070033\n}\n",
				"bytecode": {
					"linkReferences": {},
					"object": "608060405234801561001057600080fd5b50610256806100206000396000f3fe608060405234801561001057600080fd5b50600436106100415760003560e01c806304a7233e1461004657806314876f021461006557806331a71df814610084575b600080fd5b61004e6100a3565b60405161005c9291906101a9565b60405180910390f35b61006d6100b0565b60405161007b9291906101a9565b60405180910390f35b61008c6100bd565b60405161009a9291906101a9565b60405180910390f35b6000803332915091509091565b6000803332915091509091565b6000803073ffffffffffffffffffffffffffffffffffffffff166314876f026040518163ffffffff1660e01b8152600401604080518083038186803b15801561010557600080fd5b505afa158015610119573d6000803e3d6000fd5b505050506040513d601f19601f8201168201806040525081019061013d919061015a565b915091509091565b60008151905061015481610209565b92915050565b6000806040838503121561017157610170610204565b5b600061017f85828601610145565b925050602061019085828601610145565b9150509250929050565b6101a3816101d2565b82525050565b60006040820190506101be600083018561019a565b6101cb602083018461019a565b9392505050565b60006101dd826101e4565b9050919050565b600073ffffffffffffffffffffffffffffffffffffffff82169050919050565b600080fd5b610212816101d2565b811461021d57600080fd5b5056fea264697066735822122025f30aec4217b914c6b7d758091a3cdac4487bf32ca5835ad2a34d428dda202664736f6c63430008070033",
					"opcodes": "PUSH1 0x80 PUSH1 0x40 MSTORE CALLVALUE DUP1 ISZERO PUSH2 0x10 JUMPI PUSH1 0x0 DUP1 REVERT JUMPDEST POP PUSH2 0x256 DUP1 PUSH2 0x20 PUSH1 0x0 CODECOPY PUSH1 0x0 RETURN INVALID PUSH1 0x80 PUSH1 0x40 MSTORE CALLVALUE DUP1 ISZERO PUSH2 0x10 JUMPI PUSH1 0x0 DUP1 REVERT JUMPDEST POP PUSH1 0x4 CALLDATASIZE LT PUSH2 0x41 JUMPI PUSH1 0x0 CALLDATALOAD PUSH1 0xE0 SHR DUP1 PUSH4 0x4A7233E EQ PUSH2 0x46 JUMPI DUP1 PUSH4 0x14876F02 EQ PUSH2 0x65 JUMPI DUP1 PUSH4 0x31A71DF8 EQ PUSH2 0x84 JUMPI JUMPDEST PUSH1 0x0 DUP1 REVERT JUMPDEST PUSH2 0x4E PUSH2 0xA3 JUMP JUMPDEST PUSH1 0x40 MLOAD PUSH2 0x5C SWAP3 SWAP2 SWAP1 PUSH2 0x1A9 JUMP JUMPDEST PUSH1 0x40 MLOAD DUP1 SWAP2 SUB SWAP1 RETURN JUMPDEST PUSH2 0x6D PUSH2 0xB0 JUMP JUMPDEST PUSH1 0x40 MLOAD PUSH2 0x7B SWAP3 SWAP2 SWAP1 PUSH2 0x1A9 JUMP JUMPDEST PUSH1 0x40 MLOAD DUP1 SWAP2 SUB SWAP1 RETURN JUMPDEST PUSH2 0x8C PUSH2 0xBD JUMP JUMPDEST PUSH1 0x40 MLOAD PUSH2 0x9A SWAP3 SWAP2 SWAP1 PUSH2 0x1A9 JUMP JUMPDEST PUSH1 0x40 MLOAD DUP1 SWAP2 SUB SWAP1 RETURN JUMPDEST PUSH1 0x0 DUP1 CALLER ORIGIN SWAP2 POP SWAP2 POP SWAP1 SWAP2 JUMP JUMPDEST PUSH1 0x0 DUP1 CALLER ORIGIN SWAP2 POP SWAP2 POP SWAP1 SWAP2 JUMP JUMPDEST PUSH1 0x0 DUP1 ADDRESS PUSH20 0xFFFFFFFFFFFFFFFFFFFFFFFFFFFFFFFFFFFFFFFF AND PUSH4 0x14876F02 PUSH1 0x40 MLOAD DUP2 PUSH4 0xFFFFFFFF AND PUSH1 0xE0 SHL DUP2 MSTORE PUSH1 0x4 ADD PUSH1 0x40 DUP1 MLOAD DUP1 DUP4 SUB DUP2 DUP7 DUP1 EXTCODESIZE ISZERO DUP1 ISZERO PUSH2 0x105 JUMPI PUSH1 0x0 DUP1 REVERT JUMPDEST POP GAS STATICCALL ISZERO DUP1 ISZERO PUSH2 0x119 JUMPI RETURNDATASIZE PUSH1 0x0 DUP1 RETURNDATACOPY RETURNDATASIZE PUSH1 0x0 REVERT JUMPDEST POP POP POP POP PUSH1 0x40 MLOAD RETURNDATASIZE PUSH1 0x1F NOT PUSH1 0x1F DUP3 ADD AND DUP3 ADD DUP1 PUSH1 0x40 MSTORE POP DUP2 ADD SWAP1 PUSH2 0x13D SWAP2 SWAP1 PUSH2 0x15A JUMP JUMPDEST SWAP2 POP SWAP2 POP SWAP1 SWAP2 JUMP JUMPDEST PUSH1 0x0 DUP2 MLOAD SWAP1 POP PUSH2 0x154 DUP2 PUSH2 0x209 JUMP JUMPDEST SWAP3 SWAP2 POP POP JUMP JUMPDEST PUSH1 0x0 DUP1 PUSH1 0x40 DUP4 DUP6 SUB SLT ISZERO PUSH2 0x171 JUMPI PUSH2 0x170 PUSH2 0x204 JUMP JUMPDEST JUMPDEST PUSH1 0x0 PUSH2 0x17F DUP6 DUP3 DUP7 ADD PUSH2 0x145 JUMP JUMPDEST SWAP3 POP POP PUSH1 0x20 PUSH2 0x190 DUP6 DUP3 DUP7 ADD PUSH2 0x145 JUMP JUMPDEST SWAP2 POP POP SWAP3 POP SWAP3 SWAP1 POP JUMP JUMPDEST PUSH2 0x1A3 DUP2 PUSH2 0x1D2 JUMP JUMPDEST DUP3 MSTORE POP POP JUMP JUMPDEST PUSH1 0x0 PUSH1 0x40 DUP3 ADD SWAP1 POP PUSH2 0x1BE PUSH1 0x0 DUP4 ADD DUP6 PUSH2 0x19A JUMP JUMPDEST PUSH2 0x1CB PUSH1 0x20 DUP4 ADD DUP5 PUSH2 0x19A JUMP JUMPDEST SWAP4 SWAP3 POP POP POP JUMP JUMPDEST PUSH1 0x0 PUSH2 0x1DD DUP3 PUSH2 0x1E4 JUMP JUMPDEST SWAP1 POP SWAP2 SWAP1 POP JUMP JUMPDEST PUSH1 0x0 PUSH20 0xFFFFFFFFFFFFFFFFFFFFFFFFFFFFFFFFFFFFFFFF DUP3 AND SWAP1 POP SWAP2 SWAP1 POP JUMP JUMPDEST PUSH1 0x0 DUP1 REVERT JUMPDEST PUSH2 0x212 DUP2 PUSH2 0x1D2 JUMP JUMPDEST DUP2 EQ PUSH2 0x21D JUMPI PUSH1 0x0 DUP1 REVERT JUMPDEST POP JUMP INVALID LOG2 PUSH5 0x6970667358 0x22 SLT KECCAK256 0x25 RETURN EXP 0xEC TIMESTAMP OR 0xB9 EQ 0xC6 0xB7 0xD7 PC MULMOD BYTE EXTCODECOPY 0xDA 0xC4 BASEFEE PUSH28 0xF32CA5835AD2A34D428DDA202664736F6C6343000807003300000000 "
				},
				"gasEstimates": {
					"creation": {
						"codeDepositCost": "119600",
						"executionCost": "165",
						"totalCost": "119765"
					},
					"external": {
						"funcaoExterna()": "infinite",
						"invocaExterno()": "infinite",
						"retornaEnderecos()": "infinite"
					}
				},
				"methodIdentifiers": {
					"funcaoExterna()": "14876f02",
					"invocaExterno()": "31a71df8",
					"retornaEnderecos()": "04a7233e"
				}
			},
			"storageLayout": {
				"storage": [],
				"types": null
			},
			"userdoc": {
				"kind": "user",
				"methods": {},
				"version": 1
			}
		}
	}
}