{
	"contracts/Persons.sol": {
		"Persons": {
			"abi": [
				{
					"inputs": [
						{
							"internalType": "string",
							"name": "_firstName",
							"type": "string"
						},
						{
							"internalType": "string",
							"name": "_lastName",
							"type": "string"
						},
						{
							"internalType": "uint256",
							"name": "_age",
							"type": "uint256"
						}
					],
					"name": "addPerson",
					"outputs": [],
					"stateMutability": "nonpayable",
					"type": "function"
				},
				{
					"inputs": [
						{
							"internalType": "uint256",
							"name": "",
							"type": "uint256"
						}
					],
					"name": "persons",
					"outputs": [
						{
							"internalType": "string",
							"name": "firstName",
							"type": "string"
						},
						{
							"internalType": "string",
							"name": "lastName",
							"type": "string"
						},
						{
							"internalType": "uint256",
							"name": "age",
							"type": "uint256"
						}
					],
					"stateMutability": "view",
					"type": "function"
				}
			],
			"devdoc": {
				"kind": "dev",
				"methods": {},
				"version": 1
			},
			"evm": {
				"assembly": "    /* \"contracts/Persons.sol\":70:772  contract Persons {... */\n  mstore(0x40, 0x80)\n  callvalue\n  dup1\n  iszero\n  tag_1\n  jumpi\n  revert(0x00, 0x00)\ntag_1:\n  pop\n  dataSize(sub_0)\n  dup1\n  dataOffset(sub_0)\n  0x00\n  codecopy\n  0x00\n  return\nstop\n\nsub_0: assembly {\n        /* \"contracts/Persons.sol\":70:772  contract Persons {... */\n      mstore(0x40, 0x80)\n      callvalue\n      dup1\n      iszero\n      tag_1\n      jumpi\n      revert(0x00, 0x00)\n    tag_1:\n      pop\n      jumpi(tag_2, lt(calldatasize, 0x04))\n      shr(0xe0, calldataload(0x00))\n      dup1\n      0x4847e01b\n      eq\n      tag_3\n      jumpi\n      dup1\n      0xa2f9eac6\n      eq\n      tag_4\n      jumpi\n    tag_2:\n      revert(0x00, 0x00)\n        /* \"contracts/Persons.sol\":442:770  function addPerson(string memory _firstName, string memory _lastName, uint _age) public {... */\n    tag_3:\n      tag_5\n      0x04\n      dup1\n      calldatasize\n      sub\n      dup2\n      add\n      swap1\n      tag_6\n      swap2\n      swap1\n      tag_7\n      jump\t// in\n    tag_6:\n      tag_8\n      jump\t// in\n    tag_5:\n      stop\n        /* \"contracts/Persons.sol\":373:396  Person[] public persons */\n    tag_4:\n      tag_9\n      0x04\n      dup1\n      calldatasize\n      sub\n      dup2\n      add\n      swap1\n      tag_10\n      swap2\n      swap1\n      tag_11\n      jump\t// in\n    tag_10:\n      tag_12\n      jump\t// in\n    tag_9:\n      mload(0x40)\n      tag_13\n      swap4\n      swap3\n      swap2\n      swap1\n      tag_14\n      jump\t// in\n    tag_13:\n      mload(0x40)\n      dup1\n      swap2\n      sub\n      swap1\n      return\n        /* \"contracts/Persons.sol\":442:770  function addPerson(string memory _firstName, string memory _lastName, uint _age) public {... */\n    tag_8:\n        /* \"contracts/Persons.sol\":610:630  Person memory person */\n      tag_16\n      tag_17\n      jump\t// in\n    tag_16:\n        /* \"contracts/Persons.sol\":659:669  _firstName */\n      dup4\n        /* \"contracts/Persons.sol\":640:646  person */\n      dup2\n        /* \"contracts/Persons.sol\":640:656  person.firstName */\n      0x00\n      add\n        /* \"contracts/Persons.sol\":640:669  person.firstName = _firstName */\n      dup2\n      swap1\n      mstore\n      pop\n        /* \"contracts/Persons.sol\":697:706  _lastName */\n      dup3\n        /* \"contracts/Persons.sol\":679:685  person */\n      dup2\n        /* \"contracts/Persons.sol\":679:694  person.lastName */\n      0x20\n      add\n        /* \"contracts/Persons.sol\":679:706  person.lastName = _lastName */\n      dup2\n      swap1\n      mstore\n      pop\n        /* \"contracts/Persons.sol\":729:733  _age */\n      dup2\n        /* \"contracts/Persons.sol\":716:722  person */\n      dup2\n        /* \"contracts/Persons.sol\":716:726  person.age */\n      0x40\n      add\n        /* \"contracts/Persons.sol\":716:733  person.age = _age */\n      dup2\n      dup2\n      mstore\n      pop\n      pop\n        /* \"contracts/Persons.sol\":743:750  persons */\n      0x00\n        /* \"contracts/Persons.sol\":756:762  person */\n      dup2\n        /* \"contracts/Persons.sol\":743:763  persons.push(person) */\n      swap1\n      dup1\n      0x01\n      dup2\n      sload\n      add\n      dup1\n      dup3\n      sstore\n      dup1\n      swap2\n      pop\n      pop\n      0x01\n      swap1\n      sub\n      swap1\n      0x00\n      mstore\n      keccak256(0x00, 0x20)\n      swap1\n      0x03\n      mul\n      add\n      0x00\n      swap1\n      swap2\n      swap1\n      swap2\n      swap1\n      swap2\n      pop\n      0x00\n      dup3\n      add\n      mload\n      dup2\n      0x00\n      add\n      swap1\n      dup2\n      tag_19\n      swap2\n      swap1\n      tag_20\n      jump\t// in\n    tag_19:\n      pop\n      0x20\n      dup3\n      add\n      mload\n      dup2\n      0x01\n      add\n      swap1\n      dup2\n      tag_21\n      swap2\n      swap1\n      tag_20\n      jump\t// in\n    tag_21:\n      pop\n      0x40\n      dup3\n      add\n      mload\n      dup2\n      0x02\n      add\n      sstore\n      pop\n      pop\n        /* \"contracts/Persons.sol\":530:770  {... */\n      pop\n        /* \"contracts/Persons.sol\":442:770  function addPerson(string memory _firstName, string memory _lastName, uint _age) public {... */\n      pop\n      pop\n      pop\n      jump\t// out\n        /* \"contracts/Persons.sol\":373:396  Person[] public persons */\n    tag_12:\n      0x00\n      dup2\n      dup2\n      sload\n      dup2\n      lt\n      tag_22\n      jumpi\n      0x00\n      dup1\n      revert\n    tag_22:\n      swap1\n      0x00\n      mstore\n      keccak256(0x00, 0x20)\n      swap1\n      0x03\n      mul\n      add\n      0x00\n      swap2\n      pop\n      swap1\n      pop\n      dup1\n      0x00\n      add\n      dup1\n      sload\n      tag_24\n      swap1\n      tag_25\n      jump\t// in\n    tag_24:\n      dup1\n      0x1f\n      add\n      0x20\n      dup1\n      swap2\n      div\n      mul\n      0x20\n      add\n      mload(0x40)\n      swap1\n      dup2\n      add\n      0x40\n      mstore\n      dup1\n      swap3\n      swap2\n      swap1\n      dup2\n      dup2\n      mstore\n      0x20\n      add\n      dup3\n      dup1\n      sload\n      tag_26\n      swap1\n      tag_25\n      jump\t// in\n    tag_26:\n      dup1\n      iszero\n      tag_27\n      jumpi\n      dup1\n      0x1f\n      lt\n      tag_28\n      jumpi\n      0x0100\n      dup1\n      dup4\n      sload\n      div\n      mul\n      dup4\n      mstore\n      swap2\n      0x20\n      add\n      swap2\n      jump(tag_27)\n    tag_28:\n      dup3\n      add\n      swap2\n      swap1\n      0x00\n      mstore\n      keccak256(0x00, 0x20)\n      swap1\n    tag_29:\n      dup2\n      sload\n      dup2\n      mstore\n      swap1\n      0x01\n      add\n      swap1\n      0x20\n      add\n      dup1\n      dup4\n      gt\n      tag_29\n      jumpi\n      dup3\n      swap1\n      sub\n      0x1f\n      and\n      dup3\n      add\n      swap2\n    tag_27:\n      pop\n      pop\n      pop\n      pop\n      pop\n      swap1\n      dup1\n      0x01\n      add\n      dup1\n      sload\n      tag_30\n      swap1\n      tag_25\n      jump\t// in\n    tag_30:\n      dup1\n      0x1f\n      add\n      0x20\n      dup1\n      swap2\n      div\n      mul\n      0x20\n      add\n      mload(0x40)\n      swap1\n      dup2\n      add\n      0x40\n      mstore\n      dup1\n      swap3\n      swap2\n      swap1\n      dup2\n      dup2\n      mstore\n      0x20\n      add\n      dup3\n      dup1\n      sload\n      tag_31\n      swap1\n      tag_25\n      jump\t// in\n    tag_31:\n      dup1\n      iszero\n      tag_32\n      jumpi\n      dup1\n      0x1f\n      lt\n      tag_33\n      jumpi\n      0x0100\n      dup1\n      dup4\n      sload\n      div\n      mul\n      dup4\n      mstore\n      swap2\n      0x20\n      add\n      swap2\n      jump(tag_32)\n    tag_33:\n      dup3\n      add\n      swap2\n      swap1\n      0x00\n      mstore\n      keccak256(0x00, 0x20)\n      swap1\n    tag_34:\n      dup2\n      sload\n      dup2\n      mstore\n      swap1\n      0x01\n      add\n      swap1\n      0x20\n      add\n      dup1\n      dup4\n      gt\n      tag_34\n      jumpi\n      dup3\n      swap1\n      sub\n      0x1f\n      and\n      dup3\n      add\n      swap2\n    tag_32:\n      pop\n      pop\n      pop\n      pop\n      pop\n      swap1\n      dup1\n      0x02\n      add\n      sload\n      swap1\n      pop\n      dup4\n      jump\t// out\n    tag_17:\n      mload(0x40)\n      dup1\n      0x60\n      add\n      0x40\n      mstore\n      dup1\n      0x60\n      dup2\n      mstore\n      0x20\n      add\n      0x60\n      dup2\n      mstore\n      0x20\n      add\n      0x00\n      dup2\n      mstore\n      pop\n      swap1\n      jump\t// out\n        /* \"#utility.yul\":7:82   */\n    tag_35:\n        /* \"#utility.yul\":40:46   */\n      0x00\n        /* \"#utility.yul\":73:75   */\n      0x40\n        /* \"#utility.yul\":67:76   */\n      mload\n        /* \"#utility.yul\":57:76   */\n      swap1\n      pop\n        /* \"#utility.yul\":7:82   */\n      swap1\n      jump\t// out\n        /* \"#utility.yul\":88:205   */\n    tag_36:\n        /* \"#utility.yul\":197:198   */\n      0x00\n        /* \"#utility.yul\":194:195   */\n      0x00\n        /* \"#utility.yul\":187:199   */\n      revert\n        /* \"#utility.yul\":211:328   */\n    tag_37:\n        /* \"#utility.yul\":320:321   */\n      0x00\n        /* \"#utility.yul\":317:318   */\n      0x00\n        /* \"#utility.yul\":310:322   */\n      revert\n        /* \"#utility.yul\":334:451   */\n    tag_38:\n        /* \"#utility.yul\":443:444   */\n      0x00\n        /* \"#utility.yul\":440:441   */\n      0x00\n        /* \"#utility.yul\":433:445   */\n      revert\n        /* \"#utility.yul\":457:574   */\n    tag_39:\n        /* \"#utility.yul\":566:567   */\n      0x00\n        /* \"#utility.yul\":563:564   */\n      0x00\n        /* \"#utility.yul\":556:568   */\n      revert\n        /* \"#utility.yul\":580:682   */\n    tag_40:\n        /* \"#utility.yul\":621:627   */\n      0x00\n        /* \"#utility.yul\":672:674   */\n      0x1f\n        /* \"#utility.yul\":668:675   */\n      not\n        /* \"#utility.yul\":663:665   */\n      0x1f\n        /* \"#utility.yul\":656:661   */\n      dup4\n        /* \"#utility.yul\":652:666   */\n      add\n        /* \"#utility.yul\":648:676   */\n      and\n        /* \"#utility.yul\":638:676   */\n      swap1\n      pop\n        /* \"#utility.yul\":580:682   */\n      swap2\n      swap1\n      pop\n      jump\t// out\n        /* \"#utility.yul\":688:868   */\n    tag_41:\n        /* \"#utility.yul\":736:813   */\n      0x4e487b7100000000000000000000000000000000000000000000000000000000\n        /* \"#utility.yul\":733:734   */\n      0x00\n        /* \"#utility.yul\":726:814   */\n      mstore\n        /* \"#utility.yul\":833:837   */\n      0x41\n        /* \"#utility.yul\":830:831   */\n      0x04\n        /* \"#utility.yul\":823:838   */\n      mstore\n        /* \"#utility.yul\":857:861   */\n      0x24\n        /* \"#utility.yul\":854:855   */\n      0x00\n        /* \"#utility.yul\":847:862   */\n      revert\n        /* \"#utility.yul\":874:1155   */\n    tag_42:\n        /* \"#utility.yul\":957:984   */\n      tag_81\n        /* \"#utility.yul\":979:983   */\n      dup3\n        /* \"#utility.yul\":957:984   */\n      tag_40\n      jump\t// in\n    tag_81:\n        /* \"#utility.yul\":949:955   */\n      dup2\n        /* \"#utility.yul\":945:985   */\n      add\n        /* \"#utility.yul\":1087:1093   */\n      dup2\n        /* \"#utility.yul\":1075:1085   */\n      dup2\n        /* \"#utility.yul\":1072:1094   */\n      lt\n        /* \"#utility.yul\":1051:1069   */\n      0xffffffffffffffff\n        /* \"#utility.yul\":1039:1049   */\n      dup3\n        /* \"#utility.yul\":1036:1070   */\n      gt\n        /* \"#utility.yul\":1033:1095   */\n      or\n        /* \"#utility.yul\":1030:1118   */\n      iszero\n      tag_82\n      jumpi\n        /* \"#utility.yul\":1098:1116   */\n      tag_83\n      tag_41\n      jump\t// in\n    tag_83:\n        /* \"#utility.yul\":1030:1118   */\n    tag_82:\n        /* \"#utility.yul\":1138:1148   */\n      dup1\n        /* \"#utility.yul\":1134:1136   */\n      0x40\n        /* \"#utility.yul\":1127:1149   */\n      mstore\n        /* \"#utility.yul\":917:1155   */\n      pop\n        /* \"#utility.yul\":874:1155   */\n      pop\n      pop\n      jump\t// out\n        /* \"#utility.yul\":1161:1290   */\n    tag_43:\n        /* \"#utility.yul\":1195:1201   */\n      0x00\n        /* \"#utility.yul\":1222:1242   */\n      tag_85\n      tag_35\n      jump\t// in\n    tag_85:\n        /* \"#utility.yul\":1212:1242   */\n      swap1\n      pop\n        /* \"#utility.yul\":1251:1284   */\n      tag_86\n        /* \"#utility.yul\":1279:1283   */\n      dup3\n        /* \"#utility.yul\":1271:1277   */\n      dup3\n        /* \"#utility.yul\":1251:1284   */\n      tag_42\n      jump\t// in\n    tag_86:\n        /* \"#utility.yul\":1161:1290   */\n      swap2\n      swap1\n      pop\n      jump\t// out\n        /* \"#utility.yul\":1296:1604   */\n    tag_44:\n        /* \"#utility.yul\":1358:1362   */\n      0x00\n        /* \"#utility.yul\":1448:1466   */\n      0xffffffffffffffff\n        /* \"#utility.yul\":1440:1446   */\n      dup3\n        /* \"#utility.yul\":1437:1467   */\n      gt\n        /* \"#utility.yul\":1434:1490   */\n      iszero\n      tag_88\n      jumpi\n        /* \"#utility.yul\":1470:1488   */\n      tag_89\n      tag_41\n      jump\t// in\n    tag_89:\n        /* \"#utility.yul\":1434:1490   */\n    tag_88:\n        /* \"#utility.yul\":1508:1537   */\n      tag_90\n        /* \"#utility.yul\":1530:1536   */\n      dup3\n        /* \"#utility.yul\":1508:1537   */\n      tag_40\n      jump\t// in\n    tag_90:\n        /* \"#utility.yul\":1500:1537   */\n      swap1\n      pop\n        /* \"#utility.yul\":1592:1596   */\n      0x20\n        /* \"#utility.yul\":1586:1590   */\n      dup2\n        /* \"#utility.yul\":1582:1597   */\n      add\n        /* \"#utility.yul\":1574:1597   */\n      swap1\n      pop\n        /* \"#utility.yul\":1296:1604   */\n      swap2\n      swap1\n      pop\n      jump\t// out\n        /* \"#utility.yul\":1610:1758   */\n    tag_45:\n        /* \"#utility.yul\":1708:1714   */\n      dup3\n        /* \"#utility.yul\":1703:1706   */\n      dup2\n        /* \"#utility.yul\":1698:1701   */\n      dup4\n        /* \"#utility.yul\":1685:1715   */\n      calldatacopy\n        /* \"#utility.yul\":1749:1750   */\n      0x00\n        /* \"#utility.yul\":1740:1746   */\n      dup4\n        /* \"#utility.yul\":1735:1738   */\n      dup4\n        /* \"#utility.yul\":1731:1747   */\n      add\n        /* \"#utility.yul\":1724:1751   */\n      mstore\n        /* \"#utility.yul\":1610:1758   */\n      pop\n      pop\n      pop\n      jump\t// out\n        /* \"#utility.yul\":1764:2189   */\n    tag_46:\n        /* \"#utility.yul\":1842:1847   */\n      0x00\n        /* \"#utility.yul\":1867:1933   */\n      tag_93\n        /* \"#utility.yul\":1883:1932   */\n      tag_94\n        /* \"#utility.yul\":1925:1931   */\n      dup5\n        /* \"#utility.yul\":1883:1932   */\n      tag_44\n      jump\t// in\n    tag_94:\n        /* \"#utility.yul\":1867:1933   */\n      tag_43\n      jump\t// in\n    tag_93:\n        /* \"#utility.yul\":1858:1933   */\n      swap1\n      pop\n        /* \"#utility.yul\":1956:1962   */\n      dup3\n        /* \"#utility.yul\":1949:1954   */\n      dup2\n        /* \"#utility.yul\":1942:1963   */\n      mstore\n        /* \"#utility.yul\":1994:1998   */\n      0x20\n        /* \"#utility.yul\":1987:1992   */\n      dup2\n        /* \"#utility.yul\":1983:1999   */\n      add\n        /* \"#utility.yul\":2032:2035   */\n      dup5\n        /* \"#utility.yul\":2023:2029   */\n      dup5\n        /* \"#utility.yul\":2018:2021   */\n      dup5\n        /* \"#utility.yul\":2014:2030   */\n      add\n        /* \"#utility.yul\":2011:2036   */\n      gt\n        /* \"#utility.yul\":2008:2120   */\n      iszero\n      tag_95\n      jumpi\n        /* \"#utility.yul\":2039:2118   */\n      tag_96\n      tag_39\n      jump\t// in\n    tag_96:\n        /* \"#utility.yul\":2008:2120   */\n    tag_95:\n        /* \"#utility.yul\":2129:2183   */\n      tag_97\n        /* \"#utility.yul\":2176:2182   */\n      dup5\n        /* \"#utility.yul\":2171:2174   */\n      dup3\n        /* \"#utility.yul\":2166:2169   */\n      dup6\n        /* \"#utility.yul\":2129:2183   */\n      tag_45\n      jump\t// in\n    tag_97:\n        /* \"#utility.yul\":1848:2189   */\n      pop\n        /* \"#utility.yul\":1764:2189   */\n      swap4\n      swap3\n      pop\n      pop\n      pop\n      jump\t// out\n        /* \"#utility.yul\":2209:2549   */\n    tag_47:\n        /* \"#utility.yul\":2265:2270   */\n      0x00\n        /* \"#utility.yul\":2314:2317   */\n      dup3\n        /* \"#utility.yul\":2307:2311   */\n      0x1f\n        /* \"#utility.yul\":2299:2305   */\n      dup4\n        /* \"#utility.yul\":2295:2312   */\n      add\n        /* \"#utility.yul\":2291:2318   */\n      slt\n        /* \"#utility.yul\":2281:2403   */\n      tag_99\n      jumpi\n        /* \"#utility.yul\":2322:2401   */\n      tag_100\n      tag_38\n      jump\t// in\n    tag_100:\n        /* \"#utility.yul\":2281:2403   */\n    tag_99:\n        /* \"#utility.yul\":2439:2445   */\n      dup2\n        /* \"#utility.yul\":2426:2446   */\n      calldataload\n        /* \"#utility.yul\":2464:2543   */\n      tag_101\n        /* \"#utility.yul\":2539:2542   */\n      dup5\n        /* \"#utility.yul\":2531:2537   */\n      dup3\n        /* \"#utility.yul\":2524:2528   */\n      0x20\n        /* \"#utility.yul\":2516:2522   */\n      dup7\n        /* \"#utility.yul\":2512:2529   */\n      add\n        /* \"#utility.yul\":2464:2543   */\n      tag_46\n      jump\t// in\n    tag_101:\n        /* \"#utility.yul\":2455:2543   */\n      swap2\n      pop\n        /* \"#utility.yul\":2271:2549   */\n      pop\n        /* \"#utility.yul\":2209:2549   */\n      swap3\n      swap2\n      pop\n      pop\n      jump\t// out\n        /* \"#utility.yul\":2555:2632   */\n    tag_48:\n        /* \"#utility.yul\":2592:2599   */\n      0x00\n        /* \"#utility.yul\":2621:2626   */\n      dup2\n        /* \"#utility.yul\":2610:2626   */\n      swap1\n      pop\n        /* \"#utility.yul\":2555:2632   */\n      swap2\n      swap1\n      pop\n      jump\t// out\n        /* \"#utility.yul\":2638:2760   */\n    tag_49:\n        /* \"#utility.yul\":2711:2735   */\n      tag_104\n        /* \"#utility.yul\":2729:2734   */\n      dup2\n        /* \"#utility.yul\":2711:2735   */\n      tag_48\n      jump\t// in\n    tag_104:\n        /* \"#utility.yul\":2704:2709   */\n      dup2\n        /* \"#utility.yul\":2701:2736   */\n      eq\n        /* \"#utility.yul\":2691:2754   */\n      tag_105\n      jumpi\n        /* \"#utility.yul\":2750:2751   */\n      0x00\n        /* \"#utility.yul\":2747:2748   */\n      0x00\n        /* \"#utility.yul\":2740:2752   */\n      revert\n        /* \"#utility.yul\":2691:2754   */\n    tag_105:\n        /* \"#utility.yul\":2638:2760   */\n      pop\n      jump\t// out\n        /* \"#utility.yul\":2766:2905   */\n    tag_50:\n        /* \"#utility.yul\":2812:2817   */\n      0x00\n        /* \"#utility.yul\":2850:2856   */\n      dup2\n        /* \"#utility.yul\":2837:2857   */\n      calldataload\n        /* \"#utility.yul\":2828:2857   */\n      swap1\n      pop\n        /* \"#utility.yul\":2866:2899   */\n      tag_107\n        /* \"#utility.yul\":2893:2898   */\n      dup2\n        /* \"#utility.yul\":2866:2899   */\n      tag_49\n      jump\t// in\n    tag_107:\n        /* \"#utility.yul\":2766:2905   */\n      swap3\n      swap2\n      pop\n      pop\n      jump\t// out\n        /* \"#utility.yul\":2911:3890   */\n    tag_7:\n        /* \"#utility.yul\":3008:3014   */\n      0x00\n        /* \"#utility.yul\":3016:3022   */\n      0x00\n        /* \"#utility.yul\":3024:3030   */\n      0x00\n        /* \"#utility.yul\":3073:3075   */\n      0x60\n        /* \"#utility.yul\":3061:3070   */\n      dup5\n        /* \"#utility.yul\":3052:3059   */\n      dup7\n        /* \"#utility.yul\":3048:3071   */\n      sub\n        /* \"#utility.yul\":3044:3076   */\n      slt\n        /* \"#utility.yul\":3041:3160   */\n      iszero\n      tag_109\n      jumpi\n        /* \"#utility.yul\":3079:3158   */\n      tag_110\n      tag_36\n      jump\t// in\n    tag_110:\n        /* \"#utility.yul\":3041:3160   */\n    tag_109:\n        /* \"#utility.yul\":3227:3228   */\n      0x00\n        /* \"#utility.yul\":3216:3225   */\n      dup5\n        /* \"#utility.yul\":3212:3229   */\n      add\n        /* \"#utility.yul\":3199:3230   */\n      calldataload\n        /* \"#utility.yul\":3257:3275   */\n      0xffffffffffffffff\n        /* \"#utility.yul\":3249:3255   */\n      dup2\n        /* \"#utility.yul\":3246:3276   */\n      gt\n        /* \"#utility.yul\":3243:3360   */\n      iszero\n      tag_111\n      jumpi\n        /* \"#utility.yul\":3279:3358   */\n      tag_112\n      tag_37\n      jump\t// in\n    tag_112:\n        /* \"#utility.yul\":3243:3360   */\n    tag_111:\n        /* \"#utility.yul\":3384:3447   */\n      tag_113\n        /* \"#utility.yul\":3439:3446   */\n      dup7\n        /* \"#utility.yul\":3430:3436   */\n      dup3\n        /* \"#utility.yul\":3419:3428   */\n      dup8\n        /* \"#utility.yul\":3415:3437   */\n      add\n        /* \"#utility.yul\":3384:3447   */\n      tag_47\n      jump\t// in\n    tag_113:\n        /* \"#utility.yul\":3374:3447   */\n      swap4\n      pop\n        /* \"#utility.yul\":3170:3457   */\n      pop\n        /* \"#utility.yul\":3524:3526   */\n      0x20\n        /* \"#utility.yul\":3513:3522   */\n      dup5\n        /* \"#utility.yul\":3509:3527   */\n      add\n        /* \"#utility.yul\":3496:3528   */\n      calldataload\n        /* \"#utility.yul\":3555:3573   */\n      0xffffffffffffffff\n        /* \"#utility.yul\":3547:3553   */\n      dup2\n        /* \"#utility.yul\":3544:3574   */\n      gt\n        /* \"#utility.yul\":3541:3658   */\n      iszero\n      tag_114\n      jumpi\n        /* \"#utility.yul\":3577:3656   */\n      tag_115\n      tag_37\n      jump\t// in\n    tag_115:\n        /* \"#utility.yul\":3541:3658   */\n    tag_114:\n        /* \"#utility.yul\":3682:3745   */\n      tag_116\n        /* \"#utility.yul\":3737:3744   */\n      dup7\n        /* \"#utility.yul\":3728:3734   */\n      dup3\n        /* \"#utility.yul\":3717:3726   */\n      dup8\n        /* \"#utility.yul\":3713:3735   */\n      add\n        /* \"#utility.yul\":3682:3745   */\n      tag_47\n      jump\t// in\n    tag_116:\n        /* \"#utility.yul\":3672:3745   */\n      swap3\n      pop\n        /* \"#utility.yul\":3467:3755   */\n      pop\n        /* \"#utility.yul\":3794:3796   */\n      0x40\n        /* \"#utility.yul\":3820:3873   */\n      tag_117\n        /* \"#utility.yul\":3865:3872   */\n      dup7\n        /* \"#utility.yul\":3856:3862   */\n      dup3\n        /* \"#utility.yul\":3845:3854   */\n      dup8\n        /* \"#utility.yul\":3841:3863   */\n      add\n        /* \"#utility.yul\":3820:3873   */\n      tag_50\n      jump\t// in\n    tag_117:\n        /* \"#utility.yul\":3810:3873   */\n      swap2\n      pop\n        /* \"#utility.yul\":3765:3883   */\n      pop\n        /* \"#utility.yul\":2911:3890   */\n      swap3\n      pop\n      swap3\n      pop\n      swap3\n      jump\t// out\n        /* \"#utility.yul\":3896:4225   */\n    tag_11:\n        /* \"#utility.yul\":3955:3961   */\n      0x00\n        /* \"#utility.yul\":4004:4006   */\n      0x20\n        /* \"#utility.yul\":3992:4001   */\n      dup3\n        /* \"#utility.yul\":3983:3990   */\n      dup5\n        /* \"#utility.yul\":3979:4002   */\n      sub\n        /* \"#utility.yul\":3975:4007   */\n      slt\n        /* \"#utility.yul\":3972:4091   */\n      iszero\n      tag_119\n      jumpi\n        /* \"#utility.yul\":4010:4089   */\n      tag_120\n      tag_36\n      jump\t// in\n    tag_120:\n        /* \"#utility.yul\":3972:4091   */\n    tag_119:\n        /* \"#utility.yul\":4130:4131   */\n      0x00\n        /* \"#utility.yul\":4155:4208   */\n      tag_121\n        /* \"#utility.yul\":4200:4207   */\n      dup5\n        /* \"#utility.yul\":4191:4197   */\n      dup3\n        /* \"#utility.yul\":4180:4189   */\n      dup6\n        /* \"#utility.yul\":4176:4198   */\n      add\n        /* \"#utility.yul\":4155:4208   */\n      tag_50\n      jump\t// in\n    tag_121:\n        /* \"#utility.yul\":4145:4208   */\n      swap2\n      pop\n        /* \"#utility.yul\":4101:4218   */\n      pop\n        /* \"#utility.yul\":3896:4225   */\n      swap3\n      swap2\n      pop\n      pop\n      jump\t// out\n        /* \"#utility.yul\":4231:4330   */\n    tag_51:\n        /* \"#utility.yul\":4283:4289   */\n      0x00\n        /* \"#utility.yul\":4317:4322   */\n      dup2\n        /* \"#utility.yul\":4311:4323   */\n      mload\n        /* \"#utility.yul\":4301:4323   */\n      swap1\n      pop\n        /* \"#utility.yul\":4231:4330   */\n      swap2\n      swap1\n      pop\n      jump\t// out\n        /* \"#utility.yul\":4336:4505   */\n    tag_52:\n        /* \"#utility.yul\":4420:4431   */\n      0x00\n        /* \"#utility.yul\":4454:4460   */\n      dup3\n        /* \"#utility.yul\":4449:4452   */\n      dup3\n        /* \"#utility.yul\":4442:4461   */\n      mstore\n        /* \"#utility.yul\":4494:4498   */\n      0x20\n        /* \"#utility.yul\":4489:4492   */\n      dup3\n        /* \"#utility.yul\":4485:4499   */\n      add\n        /* \"#utility.yul\":4470:4499   */\n      swap1\n      pop\n        /* \"#utility.yul\":4336:4505   */\n      swap3\n      swap2\n      pop\n      pop\n      jump\t// out\n        /* \"#utility.yul\":4511:4650   */\n    tag_53:\n        /* \"#utility.yul\":4600:4606   */\n      dup3\n        /* \"#utility.yul\":4595:4598   */\n      dup2\n        /* \"#utility.yul\":4590:4593   */\n      dup4\n        /* \"#utility.yul\":4584:4607   */\n      mcopy\n        /* \"#utility.yul\":4641:4642   */\n      0x00\n        /* \"#utility.yul\":4632:4638   */\n      dup4\n        /* \"#utility.yul\":4627:4630   */\n      dup4\n        /* \"#utility.yul\":4623:4639   */\n      add\n        /* \"#utility.yul\":4616:4643   */\n      mstore\n        /* \"#utility.yul\":4511:4650   */\n      pop\n      pop\n      pop\n      jump\t// out\n        /* \"#utility.yul\":4656:5033   */\n    tag_54:\n        /* \"#utility.yul\":4744:4747   */\n      0x00\n        /* \"#utility.yul\":4772:4811   */\n      tag_126\n        /* \"#utility.yul\":4805:4810   */\n      dup3\n        /* \"#utility.yul\":4772:4811   */\n      tag_51\n      jump\t// in\n    tag_126:\n        /* \"#utility.yul\":4827:4898   */\n      tag_127\n        /* \"#utility.yul\":4891:4897   */\n      dup2\n        /* \"#utility.yul\":4886:4889   */\n      dup6\n        /* \"#utility.yul\":4827:4898   */\n      tag_52\n      jump\t// in\n    tag_127:\n        /* \"#utility.yul\":4820:4898   */\n      swap4\n      pop\n        /* \"#utility.yul\":4907:4972   */\n      tag_128\n        /* \"#utility.yul\":4965:4971   */\n      dup2\n        /* \"#utility.yul\":4960:4963   */\n      dup6\n        /* \"#utility.yul\":4953:4957   */\n      0x20\n        /* \"#utility.yul\":4946:4951   */\n      dup7\n        /* \"#utility.yul\":4942:4958   */\n      add\n        /* \"#utility.yul\":4907:4972   */\n      tag_53\n      jump\t// in\n    tag_128:\n        /* \"#utility.yul\":4997:5026   */\n      tag_129\n        /* \"#utility.yul\":5019:5025   */\n      dup2\n        /* \"#utility.yul\":4997:5026   */\n      tag_40\n      jump\t// in\n    tag_129:\n        /* \"#utility.yul\":4992:4995   */\n      dup5\n        /* \"#utility.yul\":4988:5027   */\n      add\n        /* \"#utility.yul\":4981:5027   */\n      swap2\n      pop\n        /* \"#utility.yul\":4748:5033   */\n      pop\n        /* \"#utility.yul\":4656:5033   */\n      swap3\n      swap2\n      pop\n      pop\n      jump\t// out\n        /* \"#utility.yul\":5039:5157   */\n    tag_55:\n        /* \"#utility.yul\":5126:5150   */\n      tag_131\n        /* \"#utility.yul\":5144:5149   */\n      dup2\n        /* \"#utility.yul\":5126:5150   */\n      tag_48\n      jump\t// in\n    tag_131:\n        /* \"#utility.yul\":5121:5124   */\n      dup3\n        /* \"#utility.yul\":5114:5151   */\n      mstore\n        /* \"#utility.yul\":5039:5157   */\n      pop\n      pop\n      jump\t// out\n        /* \"#utility.yul\":5163:5787   */\n    tag_14:\n        /* \"#utility.yul\":5352:5356   */\n      0x00\n        /* \"#utility.yul\":5390:5392   */\n      0x60\n        /* \"#utility.yul\":5379:5388   */\n      dup3\n        /* \"#utility.yul\":5375:5393   */\n      add\n        /* \"#utility.yul\":5367:5393   */\n      swap1\n      pop\n        /* \"#utility.yul\":5439:5448   */\n      dup2\n        /* \"#utility.yul\":5433:5437   */\n      dup2\n        /* \"#utility.yul\":5429:5449   */\n      sub\n        /* \"#utility.yul\":5425:5426   */\n      0x00\n        /* \"#utility.yul\":5414:5423   */\n      dup4\n        /* \"#utility.yul\":5410:5427   */\n      add\n        /* \"#utility.yul\":5403:5450   */\n      mstore\n        /* \"#utility.yul\":5467:5545   */\n      tag_133\n        /* \"#utility.yul\":5540:5544   */\n      dup2\n        /* \"#utility.yul\":5531:5537   */\n      dup7\n        /* \"#utility.yul\":5467:5545   */\n      tag_54\n      jump\t// in\n    tag_133:\n        /* \"#utility.yul\":5459:5545   */\n      swap1\n      pop\n        /* \"#utility.yul\":5592:5601   */\n      dup2\n        /* \"#utility.yul\":5586:5590   */\n      dup2\n        /* \"#utility.yul\":5582:5602   */\n      sub\n        /* \"#utility.yul\":5577:5579   */\n      0x20\n        /* \"#utility.yul\":5566:5575   */\n      dup4\n        /* \"#utility.yul\":5562:5580   */\n      add\n        /* \"#utility.yul\":5555:5603   */\n      mstore\n        /* \"#utility.yul\":5620:5698   */\n      tag_134\n        /* \"#utility.yul\":5693:5697   */\n      dup2\n        /* \"#utility.yul\":5684:5690   */\n      dup6\n        /* \"#utility.yul\":5620:5698   */\n      tag_54\n      jump\t// in\n    tag_134:\n        /* \"#utility.yul\":5612:5698   */\n      swap1\n      pop\n        /* \"#utility.yul\":5708:5780   */\n      tag_135\n        /* \"#utility.yul\":5776:5778   */\n      0x40\n        /* \"#utility.yul\":5765:5774   */\n      dup4\n        /* \"#utility.yul\":5761:5779   */\n      add\n        /* \"#utility.yul\":5752:5758   */\n      dup5\n        /* \"#utility.yul\":5708:5780   */\n      tag_55\n      jump\t// in\n    tag_135:\n        /* \"#utility.yul\":5163:5787   */\n      swap5\n      swap4\n      pop\n      pop\n      pop\n      pop\n      jump\t// out\n        /* \"#utility.yul\":5793:5973   */\n    tag_56:\n        /* \"#utility.yul\":5841:5918   */\n      0x4e487b7100000000000000000000000000000000000000000000000000000000\n        /* \"#utility.yul\":5838:5839   */\n      0x00\n        /* \"#utility.yul\":5831:5919   */\n      mstore\n        /* \"#utility.yul\":5938:5942   */\n      0x22\n        /* \"#utility.yul\":5935:5936   */\n      0x04\n        /* \"#utility.yul\":5928:5943   */\n      mstore\n        /* \"#utility.yul\":5962:5966   */\n      0x24\n        /* \"#utility.yul\":5959:5960   */\n      0x00\n        /* \"#utility.yul\":5952:5967   */\n      revert\n        /* \"#utility.yul\":5979:6299   */\n    tag_25:\n        /* \"#utility.yul\":6023:6029   */\n      0x00\n        /* \"#utility.yul\":6060:6061   */\n      0x02\n        /* \"#utility.yul\":6054:6058   */\n      dup3\n        /* \"#utility.yul\":6050:6062   */\n      div\n        /* \"#utility.yul\":6040:6062   */\n      swap1\n      pop\n        /* \"#utility.yul\":6107:6108   */\n      0x01\n        /* \"#utility.yul\":6101:6105   */\n      dup3\n        /* \"#utility.yul\":6097:6109   */\n      and\n        /* \"#utility.yul\":6128:6146   */\n      dup1\n        /* \"#utility.yul\":6118:6199   */\n      tag_138\n      jumpi\n        /* \"#utility.yul\":6184:6188   */\n      0x7f\n        /* \"#utility.yul\":6176:6182   */\n      dup3\n        /* \"#utility.yul\":6172:6189   */\n      and\n        /* \"#utility.yul\":6162:6189   */\n      swap2\n      pop\n        /* \"#utility.yul\":6118:6199   */\n    tag_138:\n        /* \"#utility.yul\":6246:6248   */\n      0x20\n        /* \"#utility.yul\":6238:6244   */\n      dup3\n        /* \"#utility.yul\":6235:6249   */\n      lt\n        /* \"#utility.yul\":6215:6233   */\n      dup2\n        /* \"#utility.yul\":6212:6250   */\n      sub\n        /* \"#utility.yul\":6209:6293   */\n      tag_139\n      jumpi\n        /* \"#utility.yul\":6265:6283   */\n      tag_140\n      tag_56\n      jump\t// in\n    tag_140:\n        /* \"#utility.yul\":6209:6293   */\n    tag_139:\n        /* \"#utility.yul\":6030:6299   */\n      pop\n        /* \"#utility.yul\":5979:6299   */\n      swap2\n      swap1\n      pop\n      jump\t// out\n        /* \"#utility.yul\":6305:6446   */\n    tag_57:\n        /* \"#utility.yul\":6354:6358   */\n      0x00\n        /* \"#utility.yul\":6377:6380   */\n      dup2\n        /* \"#utility.yul\":6369:6380   */\n      swap1\n      pop\n        /* \"#utility.yul\":6400:6403   */\n      dup2\n        /* \"#utility.yul\":6397:6398   */\n      0x00\n        /* \"#utility.yul\":6390:6404   */\n      mstore\n        /* \"#utility.yul\":6434:6438   */\n      0x20\n        /* \"#utility.yul\":6431:6432   */\n      0x00\n        /* \"#utility.yul\":6421:6439   */\n      keccak256\n        /* \"#utility.yul\":6413:6439   */\n      swap1\n      pop\n        /* \"#utility.yul\":6305:6446   */\n      swap2\n      swap1\n      pop\n      jump\t// out\n        /* \"#utility.yul\":6452:6545   */\n    tag_58:\n        /* \"#utility.yul\":6489:6495   */\n      0x00\n        /* \"#utility.yul\":6536:6538   */\n      0x20\n        /* \"#utility.yul\":6531:6533   */\n      0x1f\n        /* \"#utility.yul\":6524:6529   */\n      dup4\n        /* \"#utility.yul\":6520:6534   */\n      add\n        /* \"#utility.yul\":6516:6539   */\n      div\n        /* \"#utility.yul\":6506:6539   */\n      swap1\n      pop\n        /* \"#utility.yul\":6452:6545   */\n      swap2\n      swap1\n      pop\n      jump\t// out\n        /* \"#utility.yul\":6551:6658   */\n    tag_59:\n        /* \"#utility.yul\":6595:6603   */\n      0x00\n        /* \"#utility.yul\":6645:6650   */\n      dup3\n        /* \"#utility.yul\":6639:6643   */\n      dup3\n        /* \"#utility.yul\":6635:6651   */\n      shl\n        /* \"#utility.yul\":6614:6651   */\n      swap1\n      pop\n        /* \"#utility.yul\":6551:6658   */\n      swap3\n      swap2\n      pop\n      pop\n      jump\t// out\n        /* \"#utility.yul\":6664:7057   */\n    tag_60:\n        /* \"#utility.yul\":6733:6739   */\n      0x00\n        /* \"#utility.yul\":6783:6784   */\n      0x08\n        /* \"#utility.yul\":6771:6781   */\n      dup4\n        /* \"#utility.yul\":6767:6785   */\n      mul\n        /* \"#utility.yul\":6806:6903   */\n      tag_145\n        /* \"#utility.yul\":6836:6902   */\n      0xffffffffffffffffffffffffffffffffffffffffffffffffffffffffffffffff\n        /* \"#utility.yul\":6825:6834   */\n      dup3\n        /* \"#utility.yul\":6806:6903   */\n      tag_59\n      jump\t// in\n    tag_145:\n        /* \"#utility.yul\":6924:6963   */\n      tag_146\n        /* \"#utility.yul\":6954:6962   */\n      dup7\n        /* \"#utility.yul\":6943:6952   */\n      dup4\n        /* \"#utility.yul\":6924:6963   */\n      tag_59\n      jump\t// in\n    tag_146:\n        /* \"#utility.yul\":6912:6963   */\n      swap6\n      pop\n        /* \"#utility.yul\":6996:7000   */\n      dup1\n        /* \"#utility.yul\":6992:7001   */\n      not\n        /* \"#utility.yul\":6985:6990   */\n      dup5\n        /* \"#utility.yul\":6981:7002   */\n      and\n        /* \"#utility.yul\":6972:7002   */\n      swap4\n      pop\n        /* \"#utility.yul\":7045:7049   */\n      dup1\n        /* \"#utility.yul\":7035:7043   */\n      dup7\n        /* \"#utility.yul\":7031:7050   */\n      and\n        /* \"#utility.yul\":7024:7029   */\n      dup5\n        /* \"#utility.yul\":7021:7051   */\n      or\n        /* \"#utility.yul\":7011:7051   */\n      swap3\n      pop\n        /* \"#utility.yul\":6740:7057   */\n      pop\n      pop\n        /* \"#utility.yul\":6664:7057   */\n      swap4\n      swap3\n      pop\n      pop\n      pop\n      jump\t// out\n        /* \"#utility.yul\":7063:7123   */\n    tag_61:\n        /* \"#utility.yul\":7091:7094   */\n      0x00\n        /* \"#utility.yul\":7112:7117   */\n      dup2\n        /* \"#utility.yul\":7105:7117   */\n      swap1\n      pop\n        /* \"#utility.yul\":7063:7123   */\n      swap2\n      swap1\n      pop\n      jump\t// out\n        /* \"#utility.yul\":7129:7271   */\n    tag_62:\n        /* \"#utility.yul\":7179:7188   */\n      0x00\n        /* \"#utility.yul\":7212:7265   */\n      tag_149\n        /* \"#utility.yul\":7230:7264   */\n      tag_150\n        /* \"#utility.yul\":7239:7263   */\n      tag_151\n        /* \"#utility.yul\":7257:7262   */\n      dup5\n        /* \"#utility.yul\":7239:7263   */\n      tag_48\n      jump\t// in\n    tag_151:\n        /* \"#utility.yul\":7230:7264   */\n      tag_61\n      jump\t// in\n    tag_150:\n        /* \"#utility.yul\":7212:7265   */\n      tag_48\n      jump\t// in\n    tag_149:\n        /* \"#utility.yul\":7199:7265   */\n      swap1\n      pop\n        /* \"#utility.yul\":7129:7271   */\n      swap2\n      swap1\n      pop\n      jump\t// out\n        /* \"#utility.yul\":7277:7352   */\n    tag_63:\n        /* \"#utility.yul\":7320:7323   */\n      0x00\n        /* \"#utility.yul\":7341:7346   */\n      dup2\n        /* \"#utility.yul\":7334:7346   */\n      swap1\n      pop\n        /* \"#utility.yul\":7277:7352   */\n      swap2\n      swap1\n      pop\n      jump\t// out\n        /* \"#utility.yul\":7358:7627   */\n    tag_64:\n        /* \"#utility.yul\":7468:7507   */\n      tag_154\n        /* \"#utility.yul\":7499:7506   */\n      dup4\n        /* \"#utility.yul\":7468:7507   */\n      tag_62\n      jump\t// in\n    tag_154:\n        /* \"#utility.yul\":7529:7620   */\n      tag_155\n        /* \"#utility.yul\":7578:7619   */\n      tag_156\n        /* \"#utility.yul\":7602:7618   */\n      dup3\n        /* \"#utility.yul\":7578:7619   */\n      tag_63\n      jump\t// in\n    tag_156:\n        /* \"#utility.yul\":7570:7576   */\n      dup5\n        /* \"#utility.yul\":7563:7567   */\n      dup5\n        /* \"#utility.yul\":7557:7568   */\n      sload\n        /* \"#utility.yul\":7529:7620   */\n      tag_60\n      jump\t// in\n    tag_155:\n        /* \"#utility.yul\":7523:7527   */\n      dup3\n        /* \"#utility.yul\":7516:7621   */\n      sstore\n        /* \"#utility.yul\":7434:7627   */\n      pop\n        /* \"#utility.yul\":7358:7627   */\n      pop\n      pop\n      pop\n      jump\t// out\n        /* \"#utility.yul\":7633:7706   */\n    tag_65:\n        /* \"#utility.yul\":7678:7681   */\n      0x00\n        /* \"#utility.yul\":7699:7700   */\n      0x00\n        /* \"#utility.yul\":7692:7700   */\n      swap1\n      pop\n        /* \"#utility.yul\":7633:7706   */\n      swap1\n      jump\t// out\n        /* \"#utility.yul\":7712:7901   */\n    tag_66:\n        /* \"#utility.yul\":7789:7821   */\n      tag_159\n      tag_65\n      jump\t// in\n    tag_159:\n        /* \"#utility.yul\":7830:7895   */\n      tag_160\n        /* \"#utility.yul\":7888:7894   */\n      dup2\n        /* \"#utility.yul\":7880:7886   */\n      dup5\n        /* \"#utility.yul\":7874:7878   */\n      dup5\n        /* \"#utility.yul\":7830:7895   */\n      tag_64\n      jump\t// in\n    tag_160:\n        /* \"#utility.yul\":7765:7901   */\n      pop\n        /* \"#utility.yul\":7712:7901   */\n      pop\n      pop\n      jump\t// out\n        /* \"#utility.yul\":7907:8093   */\n    tag_67:\n        /* \"#utility.yul\":7967:8087   */\n    tag_162:\n        /* \"#utility.yul\":7984:7987   */\n      dup2\n        /* \"#utility.yul\":7977:7982   */\n      dup2\n        /* \"#utility.yul\":7974:7988   */\n      lt\n        /* \"#utility.yul\":7967:8087   */\n      iszero\n      tag_164\n      jumpi\n        /* \"#utility.yul\":8038:8077   */\n      tag_165\n        /* \"#utility.yul\":8075:8076   */\n      0x00\n        /* \"#utility.yul\":8068:8073   */\n      dup3\n        /* \"#utility.yul\":8038:8077   */\n      tag_66\n      jump\t// in\n    tag_165:\n        /* \"#utility.yul\":8011:8012   */\n      0x01\n        /* \"#utility.yul\":8004:8009   */\n      dup2\n        /* \"#utility.yul\":8000:8013   */\n      add\n        /* \"#utility.yul\":7991:8013   */\n      swap1\n      pop\n        /* \"#utility.yul\":7967:8087   */\n      jump(tag_162)\n    tag_164:\n        /* \"#utility.yul\":7907:8093   */\n      pop\n      pop\n      jump\t// out\n        /* \"#utility.yul\":8099:8642   */\n    tag_68:\n        /* \"#utility.yul\":8200:8202   */\n      0x1f\n        /* \"#utility.yul\":8195:8198   */\n      dup3\n        /* \"#utility.yul\":8192:8203   */\n      gt\n        /* \"#utility.yul\":8189:8635   */\n      iszero\n      tag_167\n      jumpi\n        /* \"#utility.yul\":8234:8272   */\n      tag_168\n        /* \"#utility.yul\":8266:8271   */\n      dup2\n        /* \"#utility.yul\":8234:8272   */\n      tag_57\n      jump\t// in\n    tag_168:\n        /* \"#utility.yul\":8318:8347   */\n      tag_169\n        /* \"#utility.yul\":8336:8346   */\n      dup5\n        /* \"#utility.yul\":8318:8347   */\n      tag_58\n      jump\t// in\n    tag_169:\n        /* \"#utility.yul\":8308:8316   */\n      dup2\n        /* \"#utility.yul\":8304:8348   */\n      add\n        /* \"#utility.yul\":8501:8503   */\n      0x20\n        /* \"#utility.yul\":8489:8499   */\n      dup6\n        /* \"#utility.yul\":8486:8504   */\n      lt\n        /* \"#utility.yul\":8483:8532   */\n      iszero\n      tag_170\n      jumpi\n        /* \"#utility.yul\":8522:8530   */\n      dup2\n        /* \"#utility.yul\":8507:8530   */\n      swap1\n      pop\n        /* \"#utility.yul\":8483:8532   */\n    tag_170:\n        /* \"#utility.yul\":8545:8625   */\n      tag_171\n        /* \"#utility.yul\":8601:8623   */\n      tag_172\n        /* \"#utility.yul\":8619:8622   */\n      dup6\n        /* \"#utility.yul\":8601:8623   */\n      tag_58\n      jump\t// in\n    tag_172:\n        /* \"#utility.yul\":8591:8599   */\n      dup4\n        /* \"#utility.yul\":8587:8624   */\n      add\n        /* \"#utility.yul\":8574:8585   */\n      dup3\n        /* \"#utility.yul\":8545:8625   */\n      tag_67\n      jump\t// in\n    tag_171:\n        /* \"#utility.yul\":8204:8635   */\n      pop\n      pop\n        /* \"#utility.yul\":8189:8635   */\n    tag_167:\n        /* \"#utility.yul\":8099:8642   */\n      pop\n      pop\n      pop\n      jump\t// out\n        /* \"#utility.yul\":8648:8765   */\n    tag_69:\n        /* \"#utility.yul\":8702:8710   */\n      0x00\n        /* \"#utility.yul\":8752:8757   */\n      dup3\n        /* \"#utility.yul\":8746:8750   */\n      dup3\n        /* \"#utility.yul\":8742:8758   */\n      shr\n        /* \"#utility.yul\":8721:8758   */\n      swap1\n      pop\n        /* \"#utility.yul\":8648:8765   */\n      swap3\n      swap2\n      pop\n      pop\n      jump\t// out\n        /* \"#utility.yul\":8771:8940   */\n    tag_70:\n        /* \"#utility.yul\":8815:8821   */\n      0x00\n        /* \"#utility.yul\":8848:8899   */\n      tag_175\n        /* \"#utility.yul\":8896:8897   */\n      0x00\n        /* \"#utility.yul\":8892:8898   */\n      not\n        /* \"#utility.yul\":8884:8889   */\n      dup5\n        /* \"#utility.yul\":8881:8882   */\n      0x08\n        /* \"#utility.yul\":8877:8890   */\n      mul\n        /* \"#utility.yul\":8848:8899   */\n      tag_69\n      jump\t// in\n    tag_175:\n        /* \"#utility.yul\":8844:8900   */\n      not\n        /* \"#utility.yul\":8929:8933   */\n      dup1\n        /* \"#utility.yul\":8923:8927   */\n      dup4\n        /* \"#utility.yul\":8919:8934   */\n      and\n        /* \"#utility.yul\":8909:8934   */\n      swap2\n      pop\n        /* \"#utility.yul\":8822:8940   */\n      pop\n        /* \"#utility.yul\":8771:8940   */\n      swap3\n      swap2\n      pop\n      pop\n      jump\t// out\n        /* \"#utility.yul\":8945:9240   */\n    tag_71:\n        /* \"#utility.yul\":9021:9025   */\n      0x00\n        /* \"#utility.yul\":9167:9196   */\n      tag_177\n        /* \"#utility.yul\":9192:9195   */\n      dup4\n        /* \"#utility.yul\":9186:9190   */\n      dup4\n        /* \"#utility.yul\":9167:9196   */\n      tag_70\n      jump\t// in\n    tag_177:\n        /* \"#utility.yul\":9159:9196   */\n      swap2\n      pop\n        /* \"#utility.yul\":9229:9232   */\n      dup3\n        /* \"#utility.yul\":9226:9227   */\n      0x02\n        /* \"#utility.yul\":9222:9233   */\n      mul\n        /* \"#utility.yul\":9216:9220   */\n      dup3\n        /* \"#utility.yul\":9213:9234   */\n      or\n        /* \"#utility.yul\":9205:9234   */\n      swap1\n      pop\n        /* \"#utility.yul\":8945:9240   */\n      swap3\n      swap2\n      pop\n      pop\n      jump\t// out\n        /* \"#utility.yul\":9245:10640   */\n    tag_20:\n        /* \"#utility.yul\":9362:9399   */\n      tag_179\n        /* \"#utility.yul\":9395:9398   */\n      dup3\n        /* \"#utility.yul\":9362:9399   */\n      tag_51\n      jump\t// in\n    tag_179:\n        /* \"#utility.yul\":9464:9482   */\n      0xffffffffffffffff\n        /* \"#utility.yul\":9456:9462   */\n      dup2\n        /* \"#utility.yul\":9453:9483   */\n      gt\n        /* \"#utility.yul\":9450:9506   */\n      iszero\n      tag_180\n      jumpi\n        /* \"#utility.yul\":9486:9504   */\n      tag_181\n      tag_41\n      jump\t// in\n    tag_181:\n        /* \"#utility.yul\":9450:9506   */\n    tag_180:\n        /* \"#utility.yul\":9530:9568   */\n      tag_182\n        /* \"#utility.yul\":9562:9566   */\n      dup3\n        /* \"#utility.yul\":9556:9567   */\n      sload\n        /* \"#utility.yul\":9530:9568   */\n      tag_25\n      jump\t// in\n    tag_182:\n        /* \"#utility.yul\":9615:9682   */\n      tag_183\n        /* \"#utility.yul\":9675:9681   */\n      dup3\n        /* \"#utility.yul\":9667:9673   */\n      dup3\n        /* \"#utility.yul\":9661:9665   */\n      dup6\n        /* \"#utility.yul\":9615:9682   */\n      tag_68\n      jump\t// in\n    tag_183:\n        /* \"#utility.yul\":9709:9710   */\n      0x00\n        /* \"#utility.yul\":9733:9737   */\n      0x20\n        /* \"#utility.yul\":9720:9737   */\n      swap1\n      pop\n        /* \"#utility.yul\":9765:9767   */\n      0x1f\n        /* \"#utility.yul\":9757:9763   */\n      dup4\n        /* \"#utility.yul\":9754:9768   */\n      gt\n        /* \"#utility.yul\":9782:9783   */\n      0x01\n        /* \"#utility.yul\":9777:10395   */\n      dup2\n      eq\n      tag_185\n      jumpi\n        /* \"#utility.yul\":10439:10440   */\n      0x00\n        /* \"#utility.yul\":10456:10462   */\n      dup5\n        /* \"#utility.yul\":10453:10530   */\n      iszero\n      tag_186\n      jumpi\n        /* \"#utility.yul\":10505:10514   */\n      dup3\n        /* \"#utility.yul\":10500:10503   */\n      dup8\n        /* \"#utility.yul\":10496:10515   */\n      add\n        /* \"#utility.yul\":10490:10516   */\n      mload\n        /* \"#utility.yul\":10481:10516   */\n      swap1\n      pop\n        /* \"#utility.yul\":10453:10530   */\n    tag_186:\n        /* \"#utility.yul\":10556:10623   */\n      tag_187\n        /* \"#utility.yul\":10616:10622   */\n      dup6\n        /* \"#utility.yul\":10609:10614   */\n      dup3\n        /* \"#utility.yul\":10556:10623   */\n      tag_71\n      jump\t// in\n    tag_187:\n        /* \"#utility.yul\":10550:10554   */\n      dup7\n        /* \"#utility.yul\":10543:10624   */\n      sstore\n        /* \"#utility.yul\":10412:10634   */\n      pop\n        /* \"#utility.yul\":9747:10634   */\n      jump(tag_184)\n        /* \"#utility.yul\":9777:10395   */\n    tag_185:\n        /* \"#utility.yul\":9829:9833   */\n      0x1f\n        /* \"#utility.yul\":9825:9834   */\n      not\n        /* \"#utility.yul\":9817:9823   */\n      dup5\n        /* \"#utility.yul\":9813:9835   */\n      and\n        /* \"#utility.yul\":9863:9900   */\n      tag_188\n        /* \"#utility.yul\":9895:9899   */\n      dup7\n        /* \"#utility.yul\":9863:9900   */\n      tag_57\n      jump\t// in\n    tag_188:\n        /* \"#utility.yul\":9922:9923   */\n      0x00\n        /* \"#utility.yul\":9936:10144   */\n    tag_189:\n        /* \"#utility.yul\":9950:9957   */\n      dup3\n        /* \"#utility.yul\":9947:9948   */\n      dup2\n        /* \"#utility.yul\":9944:9958   */\n      lt\n        /* \"#utility.yul\":9936:10144   */\n      iszero\n      tag_191\n      jumpi\n        /* \"#utility.yul\":10029:10038   */\n      dup5\n        /* \"#utility.yul\":10024:10027   */\n      dup10\n        /* \"#utility.yul\":10020:10039   */\n      add\n        /* \"#utility.yul\":10014:10040   */\n      mload\n        /* \"#utility.yul\":10006:10012   */\n      dup3\n        /* \"#utility.yul\":9999:10041   */\n      sstore\n        /* \"#utility.yul\":10080:10081   */\n      0x01\n        /* \"#utility.yul\":10072:10078   */\n      dup3\n        /* \"#utility.yul\":10068:10082   */\n      add\n        /* \"#utility.yul\":10058:10082   */\n      swap2\n      pop\n        /* \"#utility.yul\":10127:10129   */\n      0x20\n        /* \"#utility.yul\":10116:10125   */\n      dup6\n        /* \"#utility.yul\":10112:10130   */\n      add\n        /* \"#utility.yul\":10099:10130   */\n      swap5\n      pop\n        /* \"#utility.yul\":9973:9977   */\n      0x20\n        /* \"#utility.yul\":9970:9971   */\n      dup2\n        /* \"#utility.yul\":9966:9978   */\n      add\n        /* \"#utility.yul\":9961:9978   */\n      swap1\n      pop\n        /* \"#utility.yul\":9936:10144   */\n      jump(tag_189)\n    tag_191:\n        /* \"#utility.yul\":10172:10178   */\n      dup7\n        /* \"#utility.yul\":10163:10170   */\n      dup4\n        /* \"#utility.yul\":10160:10179   */\n      lt\n        /* \"#utility.yul\":10157:10336   */\n      iszero\n      tag_192\n      jumpi\n        /* \"#utility.yul\":10230:10239   */\n      dup5\n        /* \"#utility.yul\":10225:10228   */\n      dup10\n        /* \"#utility.yul\":10221:10240   */\n      add\n        /* \"#utility.yul\":10215:10241   */\n      mload\n        /* \"#utility.yul\":10273:10321   */\n      tag_193\n        /* \"#utility.yul\":10315:10319   */\n      0x1f\n        /* \"#utility.yul\":10307:10313   */\n      dup10\n        /* \"#utility.yul\":10303:10320   */\n      and\n        /* \"#utility.yul\":10292:10301   */\n      dup3\n        /* \"#utility.yul\":10273:10321   */\n      tag_70\n      jump\t// in\n    tag_193:\n        /* \"#utility.yul\":10265:10271   */\n      dup4\n        /* \"#utility.yul\":10258:10322   */\n      sstore\n        /* \"#utility.yul\":10180:10336   */\n      pop\n        /* \"#utility.yul\":10157:10336   */\n    tag_192:\n        /* \"#utility.yul\":10382:10383   */\n      0x01\n        /* \"#utility.yul\":10378:10379   */\n      0x02\n        /* \"#utility.yul\":10370:10376   */\n      dup9\n        /* \"#utility.yul\":10366:10380   */\n      mul\n        /* \"#utility.yul\":10362:10384   */\n      add\n        /* \"#utility.yul\":10356:10360   */\n      dup9\n        /* \"#utility.yul\":10349:10385   */\n      sstore\n        /* \"#utility.yul\":9784:10395   */\n      pop\n      pop\n      pop\n        /* \"#utility.yul\":9747:10634   */\n    tag_184:\n      pop\n        /* \"#utility.yul\":9337:10640   */\n      pop\n      pop\n      pop\n        /* \"#utility.yul\":9245:10640   */\n      pop\n      pop\n      jump\t// out\n\n    auxdata: 0xa264697066735822122090950b842d49d401bf7e8fd44193b51b828efc012d8be4934b3c444b1845733a64736f6c634300081e0033\n}\n",
				"bytecode": {
					"linkReferences": {},
					"object": "6080604052348015600e575f5ffd5b506108548061001c5f395ff3fe608060405234801561000f575f5ffd5b5060043610610034575f3560e01c80634847e01b14610038578063a2f9eac614610054575b5f5ffd5b610052600480360381019061004d91906103ed565b610086565b005b61006e60048036038101906100699190610475565b61010d565b60405161007d9392919061050f565b60405180910390f35b61008e61024d565b83815f0181905250828160200181905250818160400181815250505f81908060018154018082558091505060019003905f5260205f2090600302015f909190919091505f820151815f0190816100e4919061074f565b5060208201518160010190816100fa919061074f565b5060408201518160020155505050505050565b5f818154811061011b575f80fd5b905f5260205f2090600302015f91509050805f01805461013a9061057f565b80601f01602080910402602001604051908101604052809291908181526020018280546101669061057f565b80156101b15780601f10610188576101008083540402835291602001916101b1565b820191905f5260205f20905b81548152906001019060200180831161019457829003601f168201915b5050505050908060010180546101c69061057f565b80601f01602080910402602001604051908101604052809291908181526020018280546101f29061057f565b801561023d5780601f106102145761010080835404028352916020019161023d565b820191905f5260205f20905b81548152906001019060200180831161022057829003601f168201915b5050505050908060020154905083565b604051806060016040528060608152602001606081526020015f81525090565b5f604051905090565b5f5ffd5b5f5ffd5b5f5ffd5b5f5ffd5b5f601f19601f8301169050919050565b7f4e487b71000000000000000000000000000000000000000000000000000000005f52604160045260245ffd5b6102cc82610286565b810181811067ffffffffffffffff821117156102eb576102ea610296565b5b80604052505050565b5f6102fd61026d565b905061030982826102c3565b919050565b5f67ffffffffffffffff82111561032857610327610296565b5b61033182610286565b9050602081019050919050565b828183375f83830152505050565b5f61035e6103598461030e565b6102f4565b90508281526020810184848401111561037a57610379610282565b5b61038584828561033e565b509392505050565b5f82601f8301126103a1576103a061027e565b5b81356103b184826020860161034c565b91505092915050565b5f819050919050565b6103cc816103ba565b81146103d6575f5ffd5b50565b5f813590506103e7816103c3565b92915050565b5f5f5f6060848603121561040457610403610276565b5b5f84013567ffffffffffffffff8111156104215761042061027a565b5b61042d8682870161038d565b935050602084013567ffffffffffffffff81111561044e5761044d61027a565b5b61045a8682870161038d565b925050604061046b868287016103d9565b9150509250925092565b5f6020828403121561048a57610489610276565b5b5f610497848285016103d9565b91505092915050565b5f81519050919050565b5f82825260208201905092915050565b8281835e5f83830152505050565b5f6104d2826104a0565b6104dc81856104aa565b93506104ec8185602086016104ba565b6104f581610286565b840191505092915050565b610509816103ba565b82525050565b5f6060820190508181035f83015261052781866104c8565b9050818103602083015261053b81856104c8565b905061054a6040830184610500565b949350505050565b7f4e487b71000000000000000000000000000000000000000000000000000000005f52602260045260245ffd5b5f600282049050600182168061059657607f821691505b6020821081036105a9576105a8610552565b5b50919050565b5f819050815f5260205f209050919050565b5f6020601f8301049050919050565b5f82821b905092915050565b5f6008830261060b7fffffffffffffffffffffffffffffffffffffffffffffffffffffffffffffffff826105d0565b61061586836105d0565b95508019841693508086168417925050509392505050565b5f819050919050565b5f61065061064b610646846103ba565b61062d565b6103ba565b9050919050565b5f819050919050565b61066983610636565b61067d61067582610657565b8484546105dc565b825550505050565b5f5f905090565b610694610685565b61069f818484610660565b505050565b5b818110156106c2576106b75f8261068c565b6001810190506106a5565b5050565b601f821115610707576106d8816105af565b6106e1846105c1565b810160208510156106f0578190505b6107046106fc856105c1565b8301826106a4565b50505b505050565b5f82821c905092915050565b5f6107275f198460080261070c565b1980831691505092915050565b5f61073f8383610718565b9150826002028217905092915050565b610758826104a0565b67ffffffffffffffff81111561077157610770610296565b5b61077b825461057f565b6107868282856106c6565b5f60209050601f8311600181146107b7575f84156107a5578287015190505b6107af8582610734565b865550610816565b601f1984166107c5866105af565b5f5b828110156107ec578489015182556001820191506020850194506020810190506107c7565b868310156108095784890151610805601f891682610718565b8355505b6001600288020188555050505b50505050505056fea264697066735822122090950b842d49d401bf7e8fd44193b51b828efc012d8be4934b3c444b1845733a64736f6c634300081e0033",
					"opcodes": "PUSH1 0x80 PUSH1 0x40 MSTORE CALLVALUE DUP1 ISZERO PUSH1 0xE JUMPI PUSH0 PUSH0 REVERT JUMPDEST POP PUSH2 0x854 DUP1 PUSH2 0x1C PUSH0 CODECOPY PUSH0 RETURN INVALID PUSH1 0x80 PUSH1 0x40 MSTORE CALLVALUE DUP1 ISZERO PUSH2 0xF JUMPI PUSH0 PUSH0 REVERT JUMPDEST POP PUSH1 0x4 CALLDATASIZE LT PUSH2 0x34 JUMPI PUSH0 CALLDATALOAD PUSH1 0xE0 SHR DUP1 PUSH4 0x4847E01B EQ PUSH2 0x38 JUMPI DUP1 PUSH4 0xA2F9EAC6 EQ PUSH2 0x54 JUMPI JUMPDEST PUSH0 PUSH0 REVERT JUMPDEST PUSH2 0x52 PUSH1 0x4 DUP1 CALLDATASIZE SUB DUP2 ADD SWAP1 PUSH2 0x4D SWAP2 SWAP1 PUSH2 0x3ED JUMP JUMPDEST PUSH2 0x86 JUMP JUMPDEST STOP JUMPDEST PUSH2 0x6E PUSH1 0x4 DUP1 CALLDATASIZE SUB DUP2 ADD SWAP1 PUSH2 0x69 SWAP2 SWAP1 PUSH2 0x475 JUMP JUMPDEST PUSH2 0x10D JUMP JUMPDEST PUSH1 0x40 MLOAD PUSH2 0x7D SWAP4 SWAP3 SWAP2 SWAP1 PUSH2 0x50F JUMP JUMPDEST PUSH1 0x40 MLOAD DUP1 SWAP2 SUB SWAP1 RETURN JUMPDEST PUSH2 0x8E PUSH2 0x24D JUMP JUMPDEST DUP4 DUP2 PUSH0 ADD DUP2 SWAP1 MSTORE POP DUP3 DUP2 PUSH1 0x20 ADD DUP2 SWAP1 MSTORE POP DUP2 DUP2 PUSH1 0x40 ADD DUP2 DUP2 MSTORE POP POP PUSH0 DUP2 SWAP1 DUP1 PUSH1 0x1 DUP2 SLOAD ADD DUP1 DUP3 SSTORE DUP1 SWAP2 POP POP PUSH1 0x1 SWAP1 SUB SWAP1 PUSH0 MSTORE PUSH1 0x20 PUSH0 KECCAK256 SWAP1 PUSH1 0x3 MUL ADD PUSH0 SWAP1 SWAP2 SWAP1 SWAP2 SWAP1 SWAP2 POP PUSH0 DUP3 ADD MLOAD DUP2 PUSH0 ADD SWAP1 DUP2 PUSH2 0xE4 SWAP2 SWAP1 PUSH2 0x74F JUMP JUMPDEST POP PUSH1 0x20 DUP3 ADD MLOAD DUP2 PUSH1 0x1 ADD SWAP1 DUP2 PUSH2 0xFA SWAP2 SWAP1 PUSH2 0x74F JUMP JUMPDEST POP PUSH1 0x40 DUP3 ADD MLOAD DUP2 PUSH1 0x2 ADD SSTORE POP POP POP POP POP POP JUMP JUMPDEST PUSH0 DUP2 DUP2 SLOAD DUP2 LT PUSH2 0x11B JUMPI PUSH0 DUP1 REVERT JUMPDEST SWAP1 PUSH0 MSTORE PUSH1 0x20 PUSH0 KECCAK256 SWAP1 PUSH1 0x3 MUL ADD PUSH0 SWAP2 POP SWAP1 POP DUP1 PUSH0 ADD DUP1 SLOAD PUSH2 0x13A SWAP1 PUSH2 0x57F JUMP JUMPDEST DUP1 PUSH1 0x1F ADD PUSH1 0x20 DUP1 SWAP2 DIV MUL PUSH1 0x20 ADD PUSH1 0x40 MLOAD SWAP1 DUP2 ADD PUSH1 0x40 MSTORE DUP1 SWAP3 SWAP2 SWAP1 DUP2 DUP2 MSTORE PUSH1 0x20 ADD DUP3 DUP1 SLOAD PUSH2 0x166 SWAP1 PUSH2 0x57F JUMP JUMPDEST DUP1 ISZERO PUSH2 0x1B1 JUMPI DUP1 PUSH1 0x1F LT PUSH2 0x188 JUMPI PUSH2 0x100 DUP1 DUP4 SLOAD DIV MUL DUP4 MSTORE SWAP2 PUSH1 0x20 ADD SWAP2 PUSH2 0x1B1 JUMP JUMPDEST DUP3 ADD SWAP2 SWAP1 PUSH0 MSTORE PUSH1 0x20 PUSH0 KECCAK256 SWAP1 JUMPDEST DUP2 SLOAD DUP2 MSTORE SWAP1 PUSH1 0x1 ADD SWAP1 PUSH1 0x20 ADD DUP1 DUP4 GT PUSH2 0x194 JUMPI DUP3 SWAP1 SUB PUSH1 0x1F AND DUP3 ADD SWAP2 JUMPDEST POP POP POP POP POP SWAP1 DUP1 PUSH1 0x1 ADD DUP1 SLOAD PUSH2 0x1C6 SWAP1 PUSH2 0x57F JUMP JUMPDEST DUP1 PUSH1 0x1F ADD PUSH1 0x20 DUP1 SWAP2 DIV MUL PUSH1 0x20 ADD PUSH1 0x40 MLOAD SWAP1 DUP2 ADD PUSH1 0x40 MSTORE DUP1 SWAP3 SWAP2 SWAP1 DUP2 DUP2 MSTORE PUSH1 0x20 ADD DUP3 DUP1 SLOAD PUSH2 0x1F2 SWAP1 PUSH2 0x57F JUMP JUMPDEST DUP1 ISZERO PUSH2 0x23D JUMPI DUP1 PUSH1 0x1F LT PUSH2 0x214 JUMPI PUSH2 0x100 DUP1 DUP4 SLOAD DIV MUL DUP4 MSTORE SWAP2 PUSH1 0x20 ADD SWAP2 PUSH2 0x23D JUMP JUMPDEST DUP3 ADD SWAP2 SWAP1 PUSH0 MSTORE PUSH1 0x20 PUSH0 KECCAK256 SWAP1 JUMPDEST DUP2 SLOAD DUP2 MSTORE SWAP1 PUSH1 0x1 ADD SWAP1 PUSH1 0x20 ADD DUP1 DUP4 GT PUSH2 0x220 JUMPI DUP3 SWAP1 SUB PUSH1 0x1F AND DUP3 ADD SWAP2 JUMPDEST POP POP POP POP POP SWAP1 DUP1 PUSH1 0x2 ADD SLOAD SWAP1 POP DUP4 JUMP JUMPDEST PUSH1 0x40 MLOAD DUP1 PUSH1 0x60 ADD PUSH1 0x40 MSTORE DUP1 PUSH1 0x60 DUP2 MSTORE PUSH1 0x20 ADD PUSH1 0x60 DUP2 MSTORE PUSH1 0x20 ADD PUSH0 DUP2 MSTORE POP SWAP1 JUMP JUMPDEST PUSH0 PUSH1 0x40 MLOAD SWAP1 POP SWAP1 JUMP JUMPDEST PUSH0 PUSH0 REVERT JUMPDEST PUSH0 PUSH0 REVERT JUMPDEST PUSH0 PUSH0 REVERT JUMPDEST PUSH0 PUSH0 REVERT JUMPDEST PUSH0 PUSH1 0x1F NOT PUSH1 0x1F DUP4 ADD AND SWAP1 POP SWAP2 SWAP1 POP JUMP JUMPDEST PUSH32 0x4E487B7100000000000000000000000000000000000000000000000000000000 PUSH0 MSTORE PUSH1 0x41 PUSH1 0x4 MSTORE PUSH1 0x24 PUSH0 REVERT JUMPDEST PUSH2 0x2CC DUP3 PUSH2 0x286 JUMP JUMPDEST DUP2 ADD DUP2 DUP2 LT PUSH8 0xFFFFFFFFFFFFFFFF DUP3 GT OR ISZERO PUSH2 0x2EB JUMPI PUSH2 0x2EA PUSH2 0x296 JUMP JUMPDEST JUMPDEST DUP1 PUSH1 0x40 MSTORE POP POP POP JUMP JUMPDEST PUSH0 PUSH2 0x2FD PUSH2 0x26D JUMP JUMPDEST SWAP1 POP PUSH2 0x309 DUP3 DUP3 PUSH2 0x2C3 JUMP JUMPDEST SWAP2 SWAP1 POP JUMP JUMPDEST PUSH0 PUSH8 0xFFFFFFFFFFFFFFFF DUP3 GT ISZERO PUSH2 0x328 JUMPI PUSH2 0x327 PUSH2 0x296 JUMP JUMPDEST JUMPDEST PUSH2 0x331 DUP3 PUSH2 0x286 JUMP JUMPDEST SWAP1 POP PUSH1 0x20 DUP2 ADD SWAP1 POP SWAP2 SWAP1 POP JUMP JUMPDEST DUP3 DUP2 DUP4 CALLDATACOPY PUSH0 DUP4 DUP4 ADD MSTORE POP POP POP JUMP JUMPDEST PUSH0 PUSH2 0x35E PUSH2 0x359 DUP5 PUSH2 0x30E JUMP JUMPDEST PUSH2 0x2F4 JUMP JUMPDEST SWAP1 POP DUP3 DUP2 MSTORE PUSH1 0x20 DUP2 ADD DUP5 DUP5 DUP5 ADD GT ISZERO PUSH2 0x37A JUMPI PUSH2 0x379 PUSH2 0x282 JUMP JUMPDEST JUMPDEST PUSH2 0x385 DUP5 DUP3 DUP6 PUSH2 0x33E JUMP JUMPDEST POP SWAP4 SWAP3 POP POP POP JUMP JUMPDEST PUSH0 DUP3 PUSH1 0x1F DUP4 ADD SLT PUSH2 0x3A1 JUMPI PUSH2 0x3A0 PUSH2 0x27E JUMP JUMPDEST JUMPDEST DUP2 CALLDATALOAD PUSH2 0x3B1 DUP5 DUP3 PUSH1 0x20 DUP7 ADD PUSH2 0x34C JUMP JUMPDEST SWAP2 POP POP SWAP3 SWAP2 POP POP JUMP JUMPDEST PUSH0 DUP2 SWAP1 POP SWAP2 SWAP1 POP JUMP JUMPDEST PUSH2 0x3CC DUP2 PUSH2 0x3BA JUMP JUMPDEST DUP2 EQ PUSH2 0x3D6 JUMPI PUSH0 PUSH0 REVERT JUMPDEST POP JUMP JUMPDEST PUSH0 DUP2 CALLDATALOAD SWAP1 POP PUSH2 0x3E7 DUP2 PUSH2 0x3C3 JUMP JUMPDEST SWAP3 SWAP2 POP POP JUMP JUMPDEST PUSH0 PUSH0 PUSH0 PUSH1 0x60 DUP5 DUP7 SUB SLT ISZERO PUSH2 0x404 JUMPI PUSH2 0x403 PUSH2 0x276 JUMP JUMPDEST JUMPDEST PUSH0 DUP5 ADD CALLDATALOAD PUSH8 0xFFFFFFFFFFFFFFFF DUP2 GT ISZERO PUSH2 0x421 JUMPI PUSH2 0x420 PUSH2 0x27A JUMP JUMPDEST JUMPDEST PUSH2 0x42D DUP7 DUP3 DUP8 ADD PUSH2 0x38D JUMP JUMPDEST SWAP4 POP POP PUSH1 0x20 DUP5 ADD CALLDATALOAD PUSH8 0xFFFFFFFFFFFFFFFF DUP2 GT ISZERO PUSH2 0x44E JUMPI PUSH2 0x44D PUSH2 0x27A JUMP JUMPDEST JUMPDEST PUSH2 0x45A DUP7 DUP3 DUP8 ADD PUSH2 0x38D JUMP JUMPDEST SWAP3 POP POP PUSH1 0x40 PUSH2 0x46B DUP7 DUP3 DUP8 ADD PUSH2 0x3D9 JUMP JUMPDEST SWAP2 POP POP SWAP3 POP SWAP3 POP SWAP3 JUMP JUMPDEST PUSH0 PUSH1 0x20 DUP3 DUP5 SUB SLT ISZERO PUSH2 0x48A JUMPI PUSH2 0x489 PUSH2 0x276 JUMP JUMPDEST JUMPDEST PUSH0 PUSH2 0x497 DUP5 DUP3 DUP6 ADD PUSH2 0x3D9 JUMP JUMPDEST SWAP2 POP POP SWAP3 SWAP2 POP POP JUMP JUMPDEST PUSH0 DUP2 MLOAD SWAP1 POP SWAP2 SWAP1 POP JUMP JUMPDEST PUSH0 DUP3 DUP3 MSTORE PUSH1 0x20 DUP3 ADD SWAP1 POP SWAP3 SWAP2 POP POP JUMP JUMPDEST DUP3 DUP2 DUP4 MCOPY PUSH0 DUP4 DUP4 ADD MSTORE POP POP POP JUMP JUMPDEST PUSH0 PUSH2 0x4D2 DUP3 PUSH2 0x4A0 JUMP JUMPDEST PUSH2 0x4DC DUP2 DUP6 PUSH2 0x4AA JUMP JUMPDEST SWAP4 POP PUSH2 0x4EC DUP2 DUP6 PUSH1 0x20 DUP7 ADD PUSH2 0x4BA JUMP JUMPDEST PUSH2 0x4F5 DUP2 PUSH2 0x286 JUMP JUMPDEST DUP5 ADD SWAP2 POP POP SWAP3 SWAP2 POP POP JUMP JUMPDEST PUSH2 0x509 DUP2 PUSH2 0x3BA JUMP JUMPDEST DUP3 MSTORE POP POP JUMP JUMPDEST PUSH0 PUSH1 0x60 DUP3 ADD SWAP1 POP DUP2 DUP2 SUB PUSH0 DUP4 ADD MSTORE PUSH2 0x527 DUP2 DUP7 PUSH2 0x4C8 JUMP JUMPDEST SWAP1 POP DUP2 DUP2 SUB PUSH1 0x20 DUP4 ADD MSTORE PUSH2 0x53B DUP2 DUP6 PUSH2 0x4C8 JUMP JUMPDEST SWAP1 POP PUSH2 0x54A PUSH1 0x40 DUP4 ADD DUP5 PUSH2 0x500 JUMP JUMPDEST SWAP5 SWAP4 POP POP POP POP JUMP JUMPDEST PUSH32 0x4E487B7100000000000000000000000000000000000000000000000000000000 PUSH0 MSTORE PUSH1 0x22 PUSH1 0x4 MSTORE PUSH1 0x24 PUSH0 REVERT JUMPDEST PUSH0 PUSH1 0x2 DUP3 DIV SWAP1 POP PUSH1 0x1 DUP3 AND DUP1 PUSH2 0x596 JUMPI PUSH1 0x7F DUP3 AND SWAP2 POP JUMPDEST PUSH1 0x20 DUP3 LT DUP2 SUB PUSH2 0x5A9 JUMPI PUSH2 0x5A8 PUSH2 0x552 JUMP JUMPDEST JUMPDEST POP SWAP2 SWAP1 POP JUMP JUMPDEST PUSH0 DUP2 SWAP1 POP DUP2 PUSH0 MSTORE PUSH1 0x20 PUSH0 KECCAK256 SWAP1 POP SWAP2 SWAP1 POP JUMP JUMPDEST PUSH0 PUSH1 0x20 PUSH1 0x1F DUP4 ADD DIV SWAP1 POP SWAP2 SWAP1 POP JUMP JUMPDEST PUSH0 DUP3 DUP3 SHL SWAP1 POP SWAP3 SWAP2 POP POP JUMP JUMPDEST PUSH0 PUSH1 0x8 DUP4 MUL PUSH2 0x60B PUSH32 0xFFFFFFFFFFFFFFFFFFFFFFFFFFFFFFFFFFFFFFFFFFFFFFFFFFFFFFFFFFFFFFFF DUP3 PUSH2 0x5D0 JUMP JUMPDEST PUSH2 0x615 DUP7 DUP4 PUSH2 0x5D0 JUMP JUMPDEST SWAP6 POP DUP1 NOT DUP5 AND SWAP4 POP DUP1 DUP7 AND DUP5 OR SWAP3 POP POP POP SWAP4 SWAP3 POP POP POP JUMP JUMPDEST PUSH0 DUP2 SWAP1 POP SWAP2 SWAP1 POP JUMP JUMPDEST PUSH0 PUSH2 0x650 PUSH2 0x64B PUSH2 0x646 DUP5 PUSH2 0x3BA JUMP JUMPDEST PUSH2 0x62D JUMP JUMPDEST PUSH2 0x3BA JUMP JUMPDEST SWAP1 POP SWAP2 SWAP1 POP JUMP JUMPDEST PUSH0 DUP2 SWAP1 POP SWAP2 SWAP1 POP JUMP JUMPDEST PUSH2 0x669 DUP4 PUSH2 0x636 JUMP JUMPDEST PUSH2 0x67D PUSH2 0x675 DUP3 PUSH2 0x657 JUMP JUMPDEST DUP5 DUP5 SLOAD PUSH2 0x5DC JUMP JUMPDEST DUP3 SSTORE POP POP POP POP JUMP JUMPDEST PUSH0 PUSH0 SWAP1 POP SWAP1 JUMP JUMPDEST PUSH2 0x694 PUSH2 0x685 JUMP JUMPDEST PUSH2 0x69F DUP2 DUP5 DUP5 PUSH2 0x660 JUMP JUMPDEST POP POP POP JUMP JUMPDEST JUMPDEST DUP2 DUP2 LT ISZERO PUSH2 0x6C2 JUMPI PUSH2 0x6B7 PUSH0 DUP3 PUSH2 0x68C JUMP JUMPDEST PUSH1 0x1 DUP2 ADD SWAP1 POP PUSH2 0x6A5 JUMP JUMPDEST POP POP JUMP JUMPDEST PUSH1 0x1F DUP3 GT ISZERO PUSH2 0x707 JUMPI PUSH2 0x6D8 DUP2 PUSH2 0x5AF JUMP JUMPDEST PUSH2 0x6E1 DUP5 PUSH2 0x5C1 JUMP JUMPDEST DUP2 ADD PUSH1 0x20 DUP6 LT ISZERO PUSH2 0x6F0 JUMPI DUP2 SWAP1 POP JUMPDEST PUSH2 0x704 PUSH2 0x6FC DUP6 PUSH2 0x5C1 JUMP JUMPDEST DUP4 ADD DUP3 PUSH2 0x6A4 JUMP JUMPDEST POP POP JUMPDEST POP POP POP JUMP JUMPDEST PUSH0 DUP3 DUP3 SHR SWAP1 POP SWAP3 SWAP2 POP POP JUMP JUMPDEST PUSH0 PUSH2 0x727 PUSH0 NOT DUP5 PUSH1 0x8 MUL PUSH2 0x70C JUMP JUMPDEST NOT DUP1 DUP4 AND SWAP2 POP POP SWAP3 SWAP2 POP POP JUMP JUMPDEST PUSH0 PUSH2 0x73F DUP4 DUP4 PUSH2 0x718 JUMP JUMPDEST SWAP2 POP DUP3 PUSH1 0x2 MUL DUP3 OR SWAP1 POP SWAP3 SWAP2 POP POP JUMP JUMPDEST PUSH2 0x758 DUP3 PUSH2 0x4A0 JUMP JUMPDEST PUSH8 0xFFFFFFFFFFFFFFFF DUP2 GT ISZERO PUSH2 0x771 JUMPI PUSH2 0x770 PUSH2 0x296 JUMP JUMPDEST JUMPDEST PUSH2 0x77B DUP3 SLOAD PUSH2 0x57F JUMP JUMPDEST PUSH2 0x786 DUP3 DUP3 DUP6 PUSH2 0x6C6 JUMP JUMPDEST PUSH0 PUSH1 0x20 SWAP1 POP PUSH1 0x1F DUP4 GT PUSH1 0x1 DUP2 EQ PUSH2 0x7B7 JUMPI PUSH0 DUP5 ISZERO PUSH2 0x7A5 JUMPI DUP3 DUP8 ADD MLOAD SWAP1 POP JUMPDEST PUSH2 0x7AF DUP6 DUP3 PUSH2 0x734 JUMP JUMPDEST DUP7 SSTORE POP PUSH2 0x816 JUMP JUMPDEST PUSH1 0x1F NOT DUP5 AND PUSH2 0x7C5 DUP7 PUSH2 0x5AF JUMP JUMPDEST PUSH0 JUMPDEST DUP3 DUP2 LT ISZERO PUSH2 0x7EC JUMPI DUP5 DUP10 ADD MLOAD DUP3 SSTORE PUSH1 0x1 DUP3 ADD SWAP2 POP PUSH1 0x20 DUP6 ADD SWAP5 POP PUSH1 0x20 DUP2 ADD SWAP1 POP PUSH2 0x7C7 JUMP JUMPDEST DUP7 DUP4 LT ISZERO PUSH2 0x809 JUMPI DUP5 DUP10 ADD MLOAD PUSH2 0x805 PUSH1 0x1F DUP10 AND DUP3 PUSH2 0x718 JUMP JUMPDEST DUP4 SSTORE POP JUMPDEST PUSH1 0x1 PUSH1 0x2 DUP9 MUL ADD DUP9 SSTORE POP POP POP JUMPDEST POP POP POP POP POP POP JUMP INVALID LOG2 PUSH5 0x6970667358 0x22 SLT KECCAK256 SWAP1 SWAP6 SIGNEXTEND DUP5 0x2D BLOBHASH 0xD4 ADD 0xBF PUSH31 0x8FD44193B51B828EFC012D8BE4934B3C444B1845733A64736F6C634300081E STOP CALLER "
				},
				"gasEstimates": {
					"creation": {
						"codeDepositCost": "426400",
						"executionCost": "459",
						"totalCost": "426859"
					},
					"external": {
						"addPerson(string,string,uint256)": "infinite",
						"persons(uint256)": "infinite"
					}
				},
				"methodIdentifiers": {
					"addPerson(string,string,uint256)": "4847e01b",
					"persons(uint256)": "a2f9eac6"
				}
			},
			"storageLayout": {
				"storage": [
					{
						"astId": 12,
						"contract": "contracts/Persons.sol:Persons",
						"label": "persons",
						"offset": 0,
						"slot": "0",
						"type": "t_array(t_struct(Person)8_storage)dyn_storage"
					},
					{
						"astId": 17,
						"contract": "contracts/Persons.sol:Persons",
						"label": "mapPerson",
						"offset": 0,
						"slot": "1",
						"type": "t_mapping(t_uint256,t_struct(Person)8_storage)"
					}
				],
				"types": {
					"t_array(t_struct(Person)8_storage)dyn_storage": {
						"base": "t_struct(Person)8_storage",
						"encoding": "dynamic_array",
						"label": "struct Persons.Person[]",
						"numberOfBytes": "32"
					},
					"t_mapping(t_uint256,t_struct(Person)8_storage)": {
						"encoding": "mapping",
						"key": "t_uint256",
						"label": "mapping(uint256 => struct Persons.Person)",
						"numberOfBytes": "32",
						"value": "t_struct(Person)8_storage"
					},
					"t_string_storage": {
						"encoding": "bytes",
						"label": "string",
						"numberOfBytes": "32"
					},
					"t_struct(Person)8_storage": {
						"encoding": "inplace",
						"label": "struct Persons.Person",
						"members": [
							{
								"astId": 3,
								"contract": "contracts/Persons.sol:Persons",
								"label": "firstName",
								"offset": 0,
								"slot": "0",
								"type": "t_string_storage"
							},
							{
								"astId": 5,
								"contract": "contracts/Persons.sol:Persons",
								"label": "lastName",
								"offset": 0,
								"slot": "1",
								"type": "t_string_storage"
							},
							{
								"astId": 7,
								"contract": "contracts/Persons.sol:Persons",
								"label": "age",
								"offset": 0,
								"slot": "2",
								"type": "t_uint256"
							}
						],
						"numberOfBytes": "96"
					},
					"t_uint256": {
						"encoding": "inplace",
						"label": "uint256",
						"numberOfBytes": "32"
					}
				}
			},
			"userdoc": {
				"kind": "user",
				"methods": {},
				"version": 1
			}
		}
	}
}