{
	"data": {
		"bytecode": {
			"linkReferences": {},
			"object": "6080604052348015600e575f5ffd5b506107f58061001c5f395ff3fe608060405234801561000f575f5ffd5b506004361061004a575f3560e01c806341944b8f1461004e57806376ea66f01461006a5780639e59a16a14610074578063e8c455e014610092575b5f5ffd5b61006860048036038101906100639190610379565b6100c2565b005b6100726100f6565b005b61007c610124565b60405161008991906103d8565b60405180910390f35b6100ac60048036038101906100a7919061041b565b61012f565b6040516100b991906104a6565b60405180910390f35b5f81908060018154018082558091505060019003905f5260205f20015f9091909190915090816100f291906106c3565b5050565b5f80548061010757610106610792565b5b600190038181905f5260205f20015f61012091906101d4565b9055565b5f5f80549050905090565b5f818154811061013d575f80fd5b905f5260205f20015f915090508054610155906104f3565b80601f0160208091040260200160405190810160405280929190818152602001828054610181906104f3565b80156101cc5780601f106101a3576101008083540402835291602001916101cc565b820191905f5260205f20905b8154815290600101906020018083116101af57829003601f168201915b505050505081565b5080546101e0906104f3565b5f825580601f106101f1575061020e565b601f0160209004905f5260205f209081019061020d9190610211565b5b50565b5b80821115610228575f815f905550600101610212565b5090565b5f604051905090565b5f5ffd5b5f5ffd5b5f5ffd5b5f5ffd5b5f601f19601f8301169050919050565b7f4e487b71000000000000000000000000000000000000000000000000000000005f52604160045260245ffd5b61028b82610245565b810181811067ffffffffffffffff821117156102aa576102a9610255565b5b80604052505050565b5f6102bc61022c565b90506102c88282610282565b919050565b5f67ffffffffffffffff8211156102e7576102e6610255565b5b6102f082610245565b9050602081019050919050565b828183375f83830152505050565b5f61031d610318846102cd565b6102b3565b90508281526020810184848401111561033957610338610241565b5b6103448482856102fd565b509392505050565b5f82601f8301126103605761035f61023d565b5b813561037084826020860161030b565b91505092915050565b5f6020828403121561038e5761038d610235565b5b5f82013567ffffffffffffffff8111156103ab576103aa610239565b5b6103b78482850161034c565b91505092915050565b5f819050919050565b6103d2816103c0565b82525050565b5f6020820190506103eb5f8301846103c9565b92915050565b6103fa816103c0565b8114610404575f5ffd5b50565b5f81359050610415816103f1565b92915050565b5f602082840312156104305761042f610235565b5b5f61043d84828501610407565b91505092915050565b5f81519050919050565b5f82825260208201905092915050565b8281835e5f83830152505050565b5f61047882610446565b6104828185610450565b9350610492818560208601610460565b61049b81610245565b840191505092915050565b5f6020820190508181035f8301526104be818461046e565b905092915050565b7f4e487b71000000000000000000000000000000000000000000000000000000005f52602260045260245ffd5b5f600282049050600182168061050a57607f821691505b60208210810361051d5761051c6104c6565b5b50919050565b5f819050815f5260205f209050919050565b5f6020601f8301049050919050565b5f82821b905092915050565b5f6008830261057f7fffffffffffffffffffffffffffffffffffffffffffffffffffffffffffffffff82610544565b6105898683610544565b95508019841693508086168417925050509392505050565b5f819050919050565b5f6105c46105bf6105ba846103c0565b6105a1565b6103c0565b9050919050565b5f819050919050565b6105dd836105aa565b6105f16105e9826105cb565b848454610550565b825550505050565b5f5f905090565b6106086105f9565b6106138184846105d4565b505050565b5b818110156106365761062b5f82610600565b600181019050610619565b5050565b601f82111561067b5761064c81610523565b61065584610535565b81016020851015610664578190505b61067861067085610535565b830182610618565b50505b505050565b5f82821c905092915050565b5f61069b5f1984600802610680565b1980831691505092915050565b5f6106b3838361068c565b9150826002028217905092915050565b6106cc82610446565b67ffffffffffffffff8111156106e5576106e4610255565b5b6106ef82546104f3565b6106fa82828561063a565b5f60209050601f83116001811461072b575f8415610719578287015190505b61072385826106a8565b86555061078a565b601f19841661073986610523565b5f5b828110156107605784890151825560018201915060208501945060208101905061073b565b8683101561077d5784890151610779601f89168261068c565b8355505b6001600288020188555050505b505050505050565b7f4e487b71000000000000000000000000000000000000000000000000000000005f52603160045260245ffdfea264697066735822122046de932691141981137f8566bcec98f651fa6df146c29276a741ac6ae5d6ab1464736f6c634300081e0033",
			"opcodes": "PUSH1 0x80 PUSH1 0x40 MSTORE CALLVALUE DUP1 ISZERO PUSH1 0xE JUMPI PUSH0 PUSH0 REVERT JUMPDEST POP PUSH2 0x7F5 DUP1 PUSH2 0x1C PUSH0 CODECOPY PUSH0 RETURN INVALID PUSH1 0x80 PUSH1 0x40 MSTORE CALLVALUE DUP1 ISZERO PUSH2 0xF JUMPI PUSH0 PUSH0 REVERT JUMPDEST POP PUSH1 0x4 CALLDATASIZE LT PUSH2 0x4A JUMPI PUSH0 CALLDATALOAD PUSH1 0xE0 SHR DUP1 PUSH4 0x41944B8F EQ PUSH2 0x4E JUMPI DUP1 PUSH4 0x76EA66F0 EQ PUSH2 0x6A JUMPI DUP1 PUSH4 0x9E59A16A EQ PUSH2 0x74 JUMPI DUP1 PUSH4 0xE8C455E0 EQ PUSH2 0x92 JUMPI JUMPDEST PUSH0 PUSH0 REVERT JUMPDEST PUSH2 0x68 PUSH1 0x4 DUP1 CALLDATASIZE SUB DUP2 ADD SWAP1 PUSH2 0x63 SWAP2 SWAP1 PUSH2 0x379 JUMP JUMPDEST PUSH2 0xC2 JUMP JUMPDEST STOP JUMPDEST PUSH2 0x72 PUSH2 0xF6 JUMP JUMPDEST STOP JUMPDEST PUSH2 0x7C PUSH2 0x124 JUMP JUMPDEST PUSH1 0x40 MLOAD PUSH2 0x89 SWAP2 SWAP1 PUSH2 0x3D8 JUMP JUMPDEST PUSH1 0x40 MLOAD DUP1 SWAP2 SUB SWAP1 RETURN JUMPDEST PUSH2 0xAC PUSH1 0x4 DUP1 CALLDATASIZE SUB DUP2 ADD SWAP1 PUSH2 0xA7 SWAP2 SWAP1 PUSH2 0x41B JUMP JUMPDEST PUSH2 0x12F JUMP JUMPDEST PUSH1 0x40 MLOAD PUSH2 0xB9 SWAP2 SWAP1 PUSH2 0x4A6 JUMP JUMPDEST PUSH1 0x40 MLOAD DUP1 SWAP2 SUB SWAP1 RETURN JUMPDEST PUSH0 DUP2 SWAP1 DUP1 PUSH1 0x1 DUP2 SLOAD ADD DUP1 DUP3 SSTORE DUP1 SWAP2 POP POP PUSH1 0x1 SWAP1 SUB SWAP1 PUSH0 MSTORE PUSH1 0x20 PUSH0 KECCAK256 ADD PUSH0 SWAP1 SWAP2 SWAP1 SWAP2 SWAP1 SWAP2 POP SWAP1 DUP2 PUSH2 0xF2 SWAP2 SWAP1 PUSH2 0x6C3 JUMP JUMPDEST POP POP JUMP JUMPDEST PUSH0 DUP1 SLOAD DUP1 PUSH2 0x107 JUMPI PUSH2 0x106 PUSH2 0x792 JUMP JUMPDEST JUMPDEST PUSH1 0x1 SWAP1 SUB DUP2 DUP2 SWAP1 PUSH0 MSTORE PUSH1 0x20 PUSH0 KECCAK256 ADD PUSH0 PUSH2 0x120 SWAP2 SWAP1 PUSH2 0x1D4 JUMP JUMPDEST SWAP1 SSTORE JUMP JUMPDEST PUSH0 PUSH0 DUP1 SLOAD SWAP1 POP SWAP1 POP SWAP1 JUMP JUMPDEST PUSH0 DUP2 DUP2 SLOAD DUP2 LT PUSH2 0x13D JUMPI PUSH0 DUP1 REVERT JUMPDEST SWAP1 PUSH0 MSTORE PUSH1 0x20 PUSH0 KECCAK256 ADD PUSH0 SWAP2 POP SWAP1 POP DUP1 SLOAD PUSH2 0x155 SWAP1 PUSH2 0x4F3 JUMP JUMPDEST DUP1 PUSH1 0x1F ADD PUSH1 0x20 DUP1 SWAP2 DIV MUL PUSH1 0x20 ADD PUSH1 0x40 MLOAD SWAP1 DUP2 ADD PUSH1 0x40 MSTORE DUP1 SWAP3 SWAP2 SWAP1 DUP2 DUP2 MSTORE PUSH1 0x20 ADD DUP3 DUP1 SLOAD PUSH2 0x181 SWAP1 PUSH2 0x4F3 JUMP JUMPDEST DUP1 ISZERO PUSH2 0x1CC JUMPI DUP1 PUSH1 0x1F LT PUSH2 0x1A3 JUMPI PUSH2 0x100 DUP1 DUP4 SLOAD DIV MUL DUP4 MSTORE SWAP2 PUSH1 0x20 ADD SWAP2 PUSH2 0x1CC JUMP JUMPDEST DUP3 ADD SWAP2 SWAP1 PUSH0 MSTORE PUSH1 0x20 PUSH0 KECCAK256 SWAP1 JUMPDEST DUP2 SLOAD DUP2 MSTORE SWAP1 PUSH1 0x1 ADD SWAP1 PUSH1 0x20 ADD DUP1 DUP4 GT PUSH2 0x1AF JUMPI DUP3 SWAP1 SUB PUSH1 0x1F AND DUP3 ADD SWAP2 JUMPDEST POP POP POP POP POP DUP2 JUMP JUMPDEST POP DUP1 SLOAD PUSH2 0x1E0 SWAP1 PUSH2 0x4F3 JUMP JUMPDEST PUSH0 DUP3 SSTORE DUP1 PUSH1 0x1F LT PUSH2 0x1F1 JUMPI POP PUSH2 0x20E JUMP JUMPDEST PUSH1 0x1F ADD PUSH1 0x20 SWAP1 DIV SWAP1 PUSH0 MSTORE PUSH1 0x20 PUSH0 KECCAK256 SWAP1 DUP2 ADD SWAP1 PUSH2 0x20D SWAP2 SWAP1 PUSH2 0x211 JUMP JUMPDEST JUMPDEST POP JUMP JUMPDEST JUMPDEST DUP1 DUP3 GT ISZERO PUSH2 0x228 JUMPI PUSH0 DUP2 PUSH0 SWAP1 SSTORE POP PUSH1 0x1 ADD PUSH2 0x212 JUMP JUMPDEST POP SWAP1 JUMP JUMPDEST PUSH0 PUSH1 0x40 MLOAD SWAP1 POP SWAP1 JUMP JUMPDEST PUSH0 PUSH0 REVERT JUMPDEST PUSH0 PUSH0 REVERT JUMPDEST PUSH0 PUSH0 REVERT JUMPDEST PUSH0 PUSH0 REVERT JUMPDEST PUSH0 PUSH1 0x1F NOT PUSH1 0x1F DUP4 ADD AND SWAP1 POP SWAP2 SWAP1 POP JUMP JUMPDEST PUSH32 0x4E487B7100000000000000000000000000000000000000000000000000000000 PUSH0 MSTORE PUSH1 0x41 PUSH1 0x4 MSTORE PUSH1 0x24 PUSH0 REVERT JUMPDEST PUSH2 0x28B DUP3 PUSH2 0x245 JUMP JUMPDEST DUP2 ADD DUP2 DUP2 LT PUSH8 0xFFFFFFFFFFFFFFFF DUP3 GT OR ISZERO PUSH2 0x2AA JUMPI PUSH2 0x2A9 PUSH2 0x255 JUMP JUMPDEST JUMPDEST DUP1 PUSH1 0x40 MSTORE POP POP POP JUMP JUMPDEST PUSH0 PUSH2 0x2BC PUSH2 0x22C JUMP JUMPDEST SWAP1 POP PUSH2 0x2C8 DUP3 DUP3 PUSH2 0x282 JUMP JUMPDEST SWAP2 SWAP1 POP JUMP JUMPDEST PUSH0 PUSH8 0xFFFFFFFFFFFFFFFF DUP3 GT ISZERO PUSH2 0x2E7 JUMPI PUSH2 0x2E6 PUSH2 0x255 JUMP JUMPDEST JUMPDEST PUSH2 0x2F0 DUP3 PUSH2 0x245 JUMP JUMPDEST SWAP1 POP PUSH1 0x20 DUP2 ADD SWAP1 POP SWAP2 SWAP1 POP JUMP JUMPDEST DUP3 DUP2 DUP4 CALLDATACOPY PUSH0 DUP4 DUP4 ADD MSTORE POP POP POP JUMP JUMPDEST PUSH0 PUSH2 0x31D PUSH2 0x318 DUP5 PUSH2 0x2CD JUMP JUMPDEST PUSH2 0x2B3 JUMP JUMPDEST SWAP1 POP DUP3 DUP2 MSTORE PUSH1 0x20 DUP2 ADD DUP5 DUP5 DUP5 ADD GT ISZERO PUSH2 0x339 JUMPI PUSH2 0x338 PUSH2 0x241 JUMP JUMPDEST JUMPDEST PUSH2 0x344 DUP5 DUP3 DUP6 PUSH2 0x2FD JUMP JUMPDEST POP SWAP4 SWAP3 POP POP POP JUMP JUMPDEST PUSH0 DUP3 PUSH1 0x1F DUP4 ADD SLT PUSH2 0x360 JUMPI PUSH2 0x35F PUSH2 0x23D JUMP JUMPDEST JUMPDEST DUP2 CALLDATALOAD PUSH2 0x370 DUP5 DUP3 PUSH1 0x20 DUP7 ADD PUSH2 0x30B JUMP JUMPDEST SWAP2 POP POP SWAP3 SWAP2 POP POP JUMP JUMPDEST PUSH0 PUSH1 0x20 DUP3 DUP5 SUB SLT ISZERO PUSH2 0x38E JUMPI PUSH2 0x38D PUSH2 0x235 JUMP JUMPDEST JUMPDEST PUSH0 DUP3 ADD CALLDATALOAD PUSH8 0xFFFFFFFFFFFFFFFF DUP2 GT ISZERO PUSH2 0x3AB JUMPI PUSH2 0x3AA PUSH2 0x239 JUMP JUMPDEST JUMPDEST PUSH2 0x3B7 DUP5 DUP3 DUP6 ADD PUSH2 0x34C JUMP JUMPDEST SWAP2 POP POP SWAP3 SWAP2 POP POP JUMP JUMPDEST PUSH0 DUP2 SWAP1 POP SWAP2 SWAP1 POP JUMP JUMPDEST PUSH2 0x3D2 DUP2 PUSH2 0x3C0 JUMP JUMPDEST DUP3 MSTORE POP POP JUMP JUMPDEST PUSH0 PUSH1 0x20 DUP3 ADD SWAP1 POP PUSH2 0x3EB PUSH0 DUP4 ADD DUP5 PUSH2 0x3C9 JUMP JUMPDEST SWAP3 SWAP2 POP POP JUMP JUMPDEST PUSH2 0x3FA DUP2 PUSH2 0x3C0 JUMP JUMPDEST DUP2 EQ PUSH2 0x404 JUMPI PUSH0 PUSH0 REVERT JUMPDEST POP JUMP JUMPDEST PUSH0 DUP2 CALLDATALOAD SWAP1 POP PUSH2 0x415 DUP2 PUSH2 0x3F1 JUMP JUMPDEST SWAP3 SWAP2 POP POP JUMP JUMPDEST PUSH0 PUSH1 0x20 DUP3 DUP5 SUB SLT ISZERO PUSH2 0x430 JUMPI PUSH2 0x42F PUSH2 0x235 JUMP JUMPDEST JUMPDEST PUSH0 PUSH2 0x43D DUP5 DUP3 DUP6 ADD PUSH2 0x407 JUMP JUMPDEST SWAP2 POP POP SWAP3 SWAP2 POP POP JUMP JUMPDEST PUSH0 DUP2 MLOAD SWAP1 POP SWAP2 SWAP1 POP JUMP JUMPDEST PUSH0 DUP3 DUP3 MSTORE PUSH1 0x20 DUP3 ADD SWAP1 POP SWAP3 SWAP2 POP POP JUMP JUMPDEST DUP3 DUP2 DUP4 MCOPY PUSH0 DUP4 DUP4 ADD MSTORE POP POP POP JUMP JUMPDEST PUSH0 PUSH2 0x478 DUP3 PUSH2 0x446 JUMP JUMPDEST PUSH2 0x482 DUP2 DUP6 PUSH2 0x450 JUMP JUMPDEST SWAP4 POP PUSH2 0x492 DUP2 DUP6 PUSH1 0x20 DUP7 ADD PUSH2 0x460 JUMP JUMPDEST PUSH2 0x49B DUP2 PUSH2 0x245 JUMP JUMPDEST DUP5 ADD SWAP2 POP POP SWAP3 SWAP2 POP POP JUMP JUMPDEST PUSH0 PUSH1 0x20 DUP3 ADD SWAP1 POP DUP2 DUP2 SUB PUSH0 DUP4 ADD MSTORE PUSH2 0x4BE DUP2 DUP5 PUSH2 0x46E JUMP JUMPDEST SWAP1 POP SWAP3 SWAP2 POP POP JUMP JUMPDEST PUSH32 0x4E487B7100000000000000000000000000000000000000000000000000000000 PUSH0 MSTORE PUSH1 0x22 PUSH1 0x4 MSTORE PUSH1 0x24 PUSH0 REVERT JUMPDEST PUSH0 PUSH1 0x2 DUP3 DIV SWAP1 POP PUSH1 0x1 DUP3 AND DUP1 PUSH2 0x50A JUMPI PUSH1 0x7F DUP3 AND SWAP2 POP JUMPDEST PUSH1 0x20 DUP3 LT DUP2 SUB PUSH2 0x51D JUMPI PUSH2 0x51C PUSH2 0x4C6 JUMP JUMPDEST JUMPDEST POP SWAP2 SWAP1 POP JUMP JUMPDEST PUSH0 DUP2 SWAP1 POP DUP2 PUSH0 MSTORE PUSH1 0x20 PUSH0 KECCAK256 SWAP1 POP SWAP2 SWAP1 POP JUMP JUMPDEST PUSH0 PUSH1 0x20 PUSH1 0x1F DUP4 ADD DIV SWAP1 POP SWAP2 SWAP1 POP JUMP JUMPDEST PUSH0 DUP3 DUP3 SHL SWAP1 POP SWAP3 SWAP2 POP POP JUMP JUMPDEST PUSH0 PUSH1 0x8 DUP4 MUL PUSH2 0x57F PUSH32 0xFFFFFFFFFFFFFFFFFFFFFFFFFFFFFFFFFFFFFFFFFFFFFFFFFFFFFFFFFFFFFFFF DUP3 PUSH2 0x544 JUMP JUMPDEST PUSH2 0x589 DUP7 DUP4 PUSH2 0x544 JUMP JUMPDEST SWAP6 POP DUP1 NOT DUP5 AND SWAP4 POP DUP1 DUP7 AND DUP5 OR SWAP3 POP POP POP SWAP4 SWAP3 POP POP POP JUMP JUMPDEST PUSH0 DUP2 SWAP1 POP SWAP2 SWAP1 POP JUMP JUMPDEST PUSH0 PUSH2 0x5C4 PUSH2 0x5BF PUSH2 0x5BA DUP5 PUSH2 0x3C0 JUMP JUMPDEST PUSH2 0x5A1 JUMP JUMPDEST PUSH2 0x3C0 JUMP JUMPDEST SWAP1 POP SWAP2 SWAP1 POP JUMP JUMPDEST PUSH0 DUP2 SWAP1 POP SWAP2 SWAP1 POP JUMP JUMPDEST PUSH2 0x5DD DUP4 PUSH2 0x5AA JUMP JUMPDEST PUSH2 0x5F1 PUSH2 0x5E9 DUP3 PUSH2 0x5CB JUMP JUMPDEST DUP5 DUP5 SLOAD PUSH2 0x550 JUMP JUMPDEST DUP3 SSTORE POP POP POP POP JUMP JUMPDEST PUSH0 PUSH0 SWAP1 POP SWAP1 JUMP JUMPDEST PUSH2 0x608 PUSH2 0x5F9 JUMP JUMPDEST PUSH2 0x613 DUP2 DUP5 DUP5 PUSH2 0x5D4 JUMP JUMPDEST POP POP POP JUMP JUMPDEST JUMPDEST DUP2 DUP2 LT ISZERO PUSH2 0x636 JUMPI PUSH2 0x62B PUSH0 DUP3 PUSH2 0x600 JUMP JUMPDEST PUSH1 0x1 DUP2 ADD SWAP1 POP PUSH2 0x619 JUMP JUMPDEST POP POP JUMP JUMPDEST PUSH1 0x1F DUP3 GT ISZERO PUSH2 0x67B JUMPI PUSH2 0x64C DUP2 PUSH2 0x523 JUMP JUMPDEST PUSH2 0x655 DUP5 PUSH2 0x535 JUMP JUMPDEST DUP2 ADD PUSH1 0x20 DUP6 LT ISZERO PUSH2 0x664 JUMPI DUP2 SWAP1 POP JUMPDEST PUSH2 0x678 PUSH2 0x670 DUP6 PUSH2 0x535 JUMP JUMPDEST DUP4 ADD DUP3 PUSH2 0x618 JUMP JUMPDEST POP POP JUMPDEST POP POP POP JUMP JUMPDEST PUSH0 DUP3 DUP3 SHR SWAP1 POP SWAP3 SWAP2 POP POP JUMP JUMPDEST PUSH0 PUSH2 0x69B PUSH0 NOT DUP5 PUSH1 0x8 MUL PUSH2 0x680 JUMP JUMPDEST NOT DUP1 DUP4 AND SWAP2 POP POP SWAP3 SWAP2 POP POP JUMP JUMPDEST PUSH0 PUSH2 0x6B3 DUP4 DUP4 PUSH2 0x68C JUMP JUMPDEST SWAP2 POP DUP3 PUSH1 0x2 MUL DUP3 OR SWAP1 POP SWAP3 SWAP2 POP POP JUMP JUMPDEST PUSH2 0x6CC DUP3 PUSH2 0x446 JUMP JUMPDEST PUSH8 0xFFFFFFFFFFFFFFFF DUP2 GT ISZERO PUSH2 0x6E5 JUMPI PUSH2 0x6E4 PUSH2 0x255 JUMP JUMPDEST JUMPDEST PUSH2 0x6EF DUP3 SLOAD PUSH2 0x4F3 JUMP JUMPDEST PUSH2 0x6FA DUP3 DUP3 DUP6 PUSH2 0x63A JUMP JUMPDEST PUSH0 PUSH1 0x20 SWAP1 POP PUSH1 0x1F DUP4 GT PUSH1 0x1 DUP2 EQ PUSH2 0x72B JUMPI PUSH0 DUP5 ISZERO PUSH2 0x719 JUMPI DUP3 DUP8 ADD MLOAD SWAP1 POP JUMPDEST PUSH2 0x723 DUP6 DUP3 PUSH2 0x6A8 JUMP JUMPDEST DUP7 SSTORE POP PUSH2 0x78A JUMP JUMPDEST PUSH1 0x1F NOT DUP5 AND PUSH2 0x739 DUP7 PUSH2 0x523 JUMP JUMPDEST PUSH0 JUMPDEST DUP3 DUP2 LT ISZERO PUSH2 0x760 JUMPI DUP5 DUP10 ADD MLOAD DUP3 SSTORE PUSH1 0x1 DUP3 ADD SWAP2 POP PUSH1 0x20 DUP6 ADD SWAP5 POP PUSH1 0x20 DUP2 ADD SWAP1 POP PUSH2 0x73B JUMP JUMPDEST DUP7 DUP4 LT ISZERO PUSH2 0x77D JUMPI DUP5 DUP10 ADD MLOAD PUSH2 0x779 PUSH1 0x1F DUP10 AND DUP3 PUSH2 0x68C JUMP JUMPDEST DUP4 SSTORE POP JUMPDEST PUSH1 0x1 PUSH1 0x2 DUP9 MUL ADD DUP9 SSTORE POP POP POP JUMPDEST POP POP POP POP POP POP JUMP JUMPDEST PUSH32 0x4E487B7100000000000000000000000000000000000000000000000000000000 PUSH0 MSTORE PUSH1 0x31 PUSH1 0x4 MSTORE PUSH1 0x24 PUSH0 REVERT INVALID LOG2 PUSH5 0x6970667358 0x22 SLT KECCAK256 CHAINID 0xDE SWAP4 0x26 SWAP2 EQ NOT DUP2 SGT PUSH32 0x8566BCEC98F651FA6DF146C29276A741AC6AE5D6AB1464736F6C634300081E00 CALLER "
		},
		"gasEstimates": {
			"creation": {
				"codeDepositCost": "407400",
				"executionCost": "441",
				"totalCost": "407841"
			},
			"external": {
				"novoElement(string)": "infinite",
				"removeElemento()": "infinite",
				"tamanho()": "2461",
				"textos(uint256)": "infinite"
			}
		},
		"methodIdentifiers": {
			"novoElement(string)": "41944b8f",
			"removeElemento()": "76ea66f0",
			"tamanho()": "9e59a16a",
			"textos(uint256)": "e8c455e0"
		}
	},
	"abi": [
		{
			"inputs": [
				{
					"internalType": "string",
					"name": "novoTexto",
					"type": "string"
				}
			],
			"name": "novoElement",
			"outputs": [],
			"stateMutability": "nonpayable",
			"type": "function"
		},
		{
			"inputs": [],
			"name": "removeElemento",
			"outputs": [],
			"stateMutability": "nonpayable",
			"type": "function"
		},
		{
			"inputs": [],
			"name": "tamanho",
			"outputs": [
				{
					"internalType": "uint256",
					"name": "",
					"type": "uint256"
				}
			],
			"stateMutability": "view",
			"type": "function"
		},
		{
			"inputs": [
				{
					"internalType": "uint256",
					"name": "",
					"type": "uint256"
				}
			],
			"name": "textos",
			"outputs": [
				{
					"internalType": "string",
					"name": "",
					"type": "string"
				}
			],
			"stateMutability": "view",
			"type": "function"
		}
	]
}