{
	"data": {
		"bytecode": {
			"linkReferences": {},
			"object": "608060405234801561001057600080fd5b5061030f806100206000396000f3fe608060405234801561001057600080fd5b50600436106100575760003560e01c80631340b3311461005c5780631d302fdd1461007a578063a72548b414610098578063f4560403146100b6578063ff3f2afb146100d4575b600080fd5b6100646100f2565b60405161007191906101dc565b60405180910390f35b6100826100f8565b60405161008f91906101dc565b60405180910390f35b6100a06100fe565b6040516100ad91906101dc565b60405180910390f35b6100be6101c1565b6040516100cb91906101dc565b60405180910390f35b6100dc6101c7565b6040516100e991906101dc565b60405180910390f35b60025481565b60015481565b60008060044261010e919061024a565b14156101305760008081548092919061012690610201565b91905055506101af565b600160044261013f919061024a565b1415610162576001600081548092919061015890610201565b91905055506101ae565b6002600442610171919061024a565b1415610194576002600081548092919061018a90610201565b91905055506101ad565b600360008154809291906101a790610201565b91905055505b5b5b6004426101bc919061024a565b905090565b60005481565b60035481565b6101d6816101f7565b82525050565b60006020820190506101f160008301846101cd565b92915050565b6000819050919050565b600061020c826101f7565b91507fffffffffffffffffffffffffffffffffffffffffffffffffffffffffffffffff82141561023f5761023e61027b565b5b600182019050919050565b6000610255826101f7565b9150610260836101f7565b9250826102705761026f6102aa565b5b828206905092915050565b7f4e487b7100000000000000000000000000000000000000000000000000000000600052601160045260246000fd5b7f4e487b7100000000000000000000000000000000000000000000000000000000600052601260045260246000fdfea264697066735822122048884a4ea967a937532f664174a8e9255d4f39838340568c1e3f62171a01320d64736f6c63430008070033",
			"opcodes": "PUSH1 0x80 PUSH1 0x40 MSTORE CALLVALUE DUP1 ISZERO PUSH2 0x10 JUMPI PUSH1 0x0 DUP1 REVERT JUMPDEST POP PUSH2 0x30F DUP1 PUSH2 0x20 PUSH1 0x0 CODECOPY PUSH1 0x0 RETURN INVALID PUSH1 0x80 PUSH1 0x40 MSTORE CALLVALUE DUP1 ISZERO PUSH2 0x10 JUMPI PUSH1 0x0 DUP1 REVERT JUMPDEST POP PUSH1 0x4 CALLDATASIZE LT PUSH2 0x57 JUMPI PUSH1 0x0 CALLDATALOAD PUSH1 0xE0 SHR DUP1 PUSH4 0x1340B331 EQ PUSH2 0x5C JUMPI DUP1 PUSH4 0x1D302FDD EQ PUSH2 0x7A JUMPI DUP1 PUSH4 0xA72548B4 EQ PUSH2 0x98 JUMPI DUP1 PUSH4 0xF4560403 EQ PUSH2 0xB6 JUMPI DUP1 PUSH4 0xFF3F2AFB EQ PUSH2 0xD4 JUMPI JUMPDEST PUSH1 0x0 DUP1 REVERT JUMPDEST PUSH2 0x64 PUSH2 0xF2 JUMP JUMPDEST PUSH1 0x40 MLOAD PUSH2 0x71 SWAP2 SWAP1 PUSH2 0x1DC JUMP JUMPDEST PUSH1 0x40 MLOAD DUP1 SWAP2 SUB SWAP1 RETURN JUMPDEST PUSH2 0x82 PUSH2 0xF8 JUMP JUMPDEST PUSH1 0x40 MLOAD PUSH2 0x8F SWAP2 SWAP1 PUSH2 0x1DC JUMP JUMPDEST PUSH1 0x40 MLOAD DUP1 SWAP2 SUB SWAP1 RETURN JUMPDEST PUSH2 0xA0 PUSH2 0xFE JUMP JUMPDEST PUSH1 0x40 MLOAD PUSH2 0xAD SWAP2 SWAP1 PUSH2 0x1DC JUMP JUMPDEST PUSH1 0x40 MLOAD DUP1 SWAP2 SUB SWAP1 RETURN JUMPDEST PUSH2 0xBE PUSH2 0x1C1 JUMP JUMPDEST PUSH1 0x40 MLOAD PUSH2 0xCB SWAP2 SWAP1 PUSH2 0x1DC JUMP JUMPDEST PUSH1 0x40 MLOAD DUP1 SWAP2 SUB SWAP1 RETURN JUMPDEST PUSH2 0xDC PUSH2 0x1C7 JUMP JUMPDEST PUSH1 0x40 MLOAD PUSH2 0xE9 SWAP2 SWAP1 PUSH2 0x1DC JUMP JUMPDEST PUSH1 0x40 MLOAD DUP1 SWAP2 SUB SWAP1 RETURN JUMPDEST PUSH1 0x2 SLOAD DUP2 JUMP JUMPDEST PUSH1 0x1 SLOAD DUP2 JUMP JUMPDEST PUSH1 0x0 DUP1 PUSH1 0x4 TIMESTAMP PUSH2 0x10E SWAP2 SWAP1 PUSH2 0x24A JUMP JUMPDEST EQ ISZERO PUSH2 0x130 JUMPI PUSH1 0x0 DUP1 DUP2 SLOAD DUP1 SWAP3 SWAP2 SWAP1 PUSH2 0x126 SWAP1 PUSH2 0x201 JUMP JUMPDEST SWAP2 SWAP1 POP SSTORE POP PUSH2 0x1AF JUMP JUMPDEST PUSH1 0x1 PUSH1 0x4 TIMESTAMP PUSH2 0x13F SWAP2 SWAP1 PUSH2 0x24A JUMP JUMPDEST EQ ISZERO PUSH2 0x162 JUMPI PUSH1 0x1 PUSH1 0x0 DUP2 SLOAD DUP1 SWAP3 SWAP2 SWAP1 PUSH2 0x158 SWAP1 PUSH2 0x201 JUMP JUMPDEST SWAP2 SWAP1 POP SSTORE POP PUSH2 0x1AE JUMP JUMPDEST PUSH1 0x2 PUSH1 0x4 TIMESTAMP PUSH2 0x171 SWAP2 SWAP1 PUSH2 0x24A JUMP JUMPDEST EQ ISZERO PUSH2 0x194 JUMPI PUSH1 0x2 PUSH1 0x0 DUP2 SLOAD DUP1 SWAP3 SWAP2 SWAP1 PUSH2 0x18A SWAP1 PUSH2 0x201 JUMP JUMPDEST SWAP2 SWAP1 POP SSTORE POP PUSH2 0x1AD JUMP JUMPDEST PUSH1 0x3 PUSH1 0x0 DUP2 SLOAD DUP1 SWAP3 SWAP2 SWAP1 PUSH2 0x1A7 SWAP1 PUSH2 0x201 JUMP JUMPDEST SWAP2 SWAP1 POP SSTORE POP JUMPDEST JUMPDEST JUMPDEST PUSH1 0x4 TIMESTAMP PUSH2 0x1BC SWAP2 SWAP1 PUSH2 0x24A JUMP JUMPDEST SWAP1 POP SWAP1 JUMP JUMPDEST PUSH1 0x0 SLOAD DUP2 JUMP JUMPDEST PUSH1 0x3 SLOAD DUP2 JUMP JUMPDEST PUSH2 0x1D6 DUP2 PUSH2 0x1F7 JUMP JUMPDEST DUP3 MSTORE POP POP JUMP JUMPDEST PUSH1 0x0 PUSH1 0x20 DUP3 ADD SWAP1 POP PUSH2 0x1F1 PUSH1 0x0 DUP4 ADD DUP5 PUSH2 0x1CD JUMP JUMPDEST SWAP3 SWAP2 POP POP JUMP JUMPDEST PUSH1 0x0 DUP2 SWAP1 POP SWAP2 SWAP1 POP JUMP JUMPDEST PUSH1 0x0 PUSH2 0x20C DUP3 PUSH2 0x1F7 JUMP JUMPDEST SWAP2 POP PUSH32 0xFFFFFFFFFFFFFFFFFFFFFFFFFFFFFFFFFFFFFFFFFFFFFFFFFFFFFFFFFFFFFFFF DUP3 EQ ISZERO PUSH2 0x23F JUMPI PUSH2 0x23E PUSH2 0x27B JUMP JUMPDEST JUMPDEST PUSH1 0x1 DUP3 ADD SWAP1 POP SWAP2 SWAP1 POP JUMP JUMPDEST PUSH1 0x0 PUSH2 0x255 DUP3 PUSH2 0x1F7 JUMP JUMPDEST SWAP2 POP PUSH2 0x260 DUP4 PUSH2 0x1F7 JUMP JUMPDEST SWAP3 POP DUP3 PUSH2 0x270 JUMPI PUSH2 0x26F PUSH2 0x2AA JUMP JUMPDEST JUMPDEST DUP3 DUP3 MOD SWAP1 POP SWAP3 SWAP2 POP POP JUMP JUMPDEST PUSH32 0x4E487B7100000000000000000000000000000000000000000000000000000000 PUSH1 0x0 MSTORE PUSH1 0x11 PUSH1 0x4 MSTORE PUSH1 0x24 PUSH1 0x0 REVERT JUMPDEST PUSH32 0x4E487B7100000000000000000000000000000000000000000000000000000000 PUSH1 0x0 MSTORE PUSH1 0x12 PUSH1 0x4 MSTORE PUSH1 0x24 PUSH1 0x0 REVERT INVALID LOG2 PUSH5 0x6970667358 0x22 SLT KECCAK256 BASEFEE DUP9 0x4A 0x4E 0xA9 PUSH8 0xA937532F664174A8 0xE9 0x25 0x5D 0x4F CODECOPY DUP4 DUP4 BLOCKHASH JUMP DUP13 0x1E EXTCODEHASH PUSH3 0x171A01 ORIGIN 0xD PUSH5 0x736F6C6343 STOP ADDMOD SMOD STOP CALLER "
		},
		"gasEstimates": {
			"creation": {
				"codeDepositCost": "156600",
				"executionCost": "202",
				"totalCost": "156802"
			},
			"external": {
				"Dois()": "2407",
				"Tres()": "2495",
				"Um()": "2429",
				"Zero()": "2473",
				"incrementa()": "infinite"
			}
		},
		"methodIdentifiers": {
			"Dois()": "1340b331",
			"Tres()": "ff3f2afb",
			"Um()": "1d302fdd",
			"Zero()": "f4560403",
			"incrementa()": "a72548b4"
		}
	},
	"abi": [
		{
			"inputs": [],
			"name": "Dois",
			"outputs": [
				{
					"internalType": "uint256",
					"name": "",
					"type": "uint256"
				}
			],
			"stateMutability": "view",
			"type": "function"
		},
		{
			"inputs": [],
			"name": "Tres",
			"outputs": [
				{
					"internalType": "uint256",
					"name": "",
					"type": "uint256"
				}
			],
			"stateMutability": "view",
			"type": "function"
		},
		{
			"inputs": [],
			"name": "Um",
			"outputs": [
				{
					"internalType": "uint256",
					"name": "",
					"type": "uint256"
				}
			],
			"stateMutability": "view",
			"type": "function"
		},
		{
			"inputs": [],
			"name": "Zero",
			"outputs": [
				{
					"internalType": "uint256",
					"name": "",
					"type": "uint256"
				}
			],
			"stateMutability": "view",
			"type": "function"
		},
		{
			"inputs": [],
			"name": "incrementa",
			"outputs": [
				{
					"internalType": "uint256",
					"name": "",
					"type": "uint256"
				}
			],
			"stateMutability": "nonpayable",
			"type": "function"
		}
	]
}