{
	"data": {
		"bytecode": {
			"linkReferences": {},
			"object": "60806040526000805534801561001457600080fd5b506101ed806100246000396000f3fe608060405234801561001057600080fd5b50600436106100415760003560e01c80637e43807214610046578063978b7d8a14610050578063a72548b41461006e575b600080fd5b61004e610078565b005b610058610082565b60405161006591906100cf565b60405180910390f35b610076610088565b005b610080610092565b565b60005481565b6100906100a9565b565b60016000546100a191906100ea565b600081905550565b60016000546100b891906100ea565b600081905550565b6100c98161017e565b82525050565b60006020820190506100e460008301846100c0565b92915050565b60006100f58261017e565b91506101008361017e565b9250817f7fffffffffffffffffffffffffffffffffffffffffffffffffffffffffffffff0383136000831215161561013b5761013a610188565b5b817f800000000000000000000000000000000000000000000000000000000000000003831260008312161561017357610172610188565b5b828201905092915050565b6000819050919050565b7f4e487b7100000000000000000000000000000000000000000000000000000000600052601160045260246000fdfea26469706673582212209f1c6c271f161c8ff201931d37435f13689062af9bf3dac367fd57150d8a24ed64736f6c63430008070033",
			"opcodes": "PUSH1 0x80 PUSH1 0x40 MSTORE PUSH1 0x0 DUP1 SSTORE CALLVALUE DUP1 ISZERO PUSH2 0x14 JUMPI PUSH1 0x0 DUP1 REVERT JUMPDEST POP PUSH2 0x1ED DUP1 PUSH2 0x24 PUSH1 0x0 CODECOPY PUSH1 0x0 RETURN INVALID PUSH1 0x80 PUSH1 0x40 MSTORE CALLVALUE DUP1 ISZERO PUSH2 0x10 JUMPI PUSH1 0x0 DUP1 REVERT JUMPDEST POP PUSH1 0x4 CALLDATASIZE LT PUSH2 0x41 JUMPI PUSH1 0x0 CALLDATALOAD PUSH1 0xE0 SHR DUP1 PUSH4 0x7E438072 EQ PUSH2 0x46 JUMPI DUP1 PUSH4 0x978B7D8A EQ PUSH2 0x50 JUMPI DUP1 PUSH4 0xA72548B4 EQ PUSH2 0x6E JUMPI JUMPDEST PUSH1 0x0 DUP1 REVERT JUMPDEST PUSH2 0x4E PUSH2 0x78 JUMP JUMPDEST STOP JUMPDEST PUSH2 0x58 PUSH2 0x82 JUMP JUMPDEST PUSH1 0x40 MLOAD PUSH2 0x65 SWAP2 SWAP1 PUSH2 0xCF JUMP JUMPDEST PUSH1 0x40 MLOAD DUP1 SWAP2 SUB SWAP1 RETURN JUMPDEST PUSH2 0x76 PUSH2 0x88 JUMP JUMPDEST STOP JUMPDEST PUSH2 0x80 PUSH2 0x92 JUMP JUMPDEST JUMP JUMPDEST PUSH1 0x0 SLOAD DUP2 JUMP JUMPDEST PUSH2 0x90 PUSH2 0xA9 JUMP JUMPDEST JUMP JUMPDEST PUSH1 0x1 PUSH1 0x0 SLOAD PUSH2 0xA1 SWAP2 SWAP1 PUSH2 0xEA JUMP JUMPDEST PUSH1 0x0 DUP2 SWAP1 SSTORE POP JUMP JUMPDEST PUSH1 0x1 PUSH1 0x0 SLOAD PUSH2 0xB8 SWAP2 SWAP1 PUSH2 0xEA JUMP JUMPDEST PUSH1 0x0 DUP2 SWAP1 SSTORE POP JUMP JUMPDEST PUSH2 0xC9 DUP2 PUSH2 0x17E JUMP JUMPDEST DUP3 MSTORE POP POP JUMP JUMPDEST PUSH1 0x0 PUSH1 0x20 DUP3 ADD SWAP1 POP PUSH2 0xE4 PUSH1 0x0 DUP4 ADD DUP5 PUSH2 0xC0 JUMP JUMPDEST SWAP3 SWAP2 POP POP JUMP JUMPDEST PUSH1 0x0 PUSH2 0xF5 DUP3 PUSH2 0x17E JUMP JUMPDEST SWAP2 POP PUSH2 0x100 DUP4 PUSH2 0x17E JUMP JUMPDEST SWAP3 POP DUP2 PUSH32 0x7FFFFFFFFFFFFFFFFFFFFFFFFFFFFFFFFFFFFFFFFFFFFFFFFFFFFFFFFFFFFFFF SUB DUP4 SGT PUSH1 0x0 DUP4 SLT ISZERO AND ISZERO PUSH2 0x13B JUMPI PUSH2 0x13A PUSH2 0x188 JUMP JUMPDEST JUMPDEST DUP2 PUSH32 0x8000000000000000000000000000000000000000000000000000000000000000 SUB DUP4 SLT PUSH1 0x0 DUP4 SLT AND ISZERO PUSH2 0x173 JUMPI PUSH2 0x172 PUSH2 0x188 JUMP JUMPDEST JUMPDEST DUP3 DUP3 ADD SWAP1 POP SWAP3 SWAP2 POP POP JUMP JUMPDEST PUSH1 0x0 DUP2 SWAP1 POP SWAP2 SWAP1 POP JUMP JUMPDEST PUSH32 0x4E487B7100000000000000000000000000000000000000000000000000000000 PUSH1 0x0 MSTORE PUSH1 0x11 PUSH1 0x4 MSTORE PUSH1 0x24 PUSH1 0x0 REVERT INVALID LOG2 PUSH5 0x6970667358 0x22 SLT KECCAK256 SWAP16 SHR PUSH13 0x271F161C8FF201931D37435F13 PUSH9 0x9062AF9BF3DAC367FD JUMPI ISZERO 0xD DUP11 0x24 0xED PUSH5 0x736F6C6343 STOP ADDMOD SMOD STOP CALLER "
		},
		"gasEstimates": {
			"creation": {
				"codeDepositCost": "98600",
				"executionCost": "5153",
				"totalCost": "103753"
			},
			"external": {
				"contagem()": "2429",
				"incrementa()": "infinite",
				"incrementaExterno()": "infinite"
			},
			"internal": {
				"incrementaInterno()": "infinite",
				"incrementaPrivado()": "infinite"
			}
		},
		"methodIdentifiers": {
			"contagem()": "978b7d8a",
			"incrementa()": "a72548b4",
			"incrementaExterno()": "7e438072"
		}
	},
	"abi": [
		{
			"inputs": [],
			"name": "contagem",
			"outputs": [
				{
					"internalType": "int256",
					"name": "",
					"type": "int256"
				}
			],
			"stateMutability": "view",
			"type": "function"
		},
		{
			"inputs": [],
			"name": "incrementa",
			"outputs": [],
			"stateMutability": "nonpayable",
			"type": "function"
		},
		{
			"inputs": [],
			"name": "incrementaExterno",
			"outputs": [],
			"stateMutability": "nonpayable",
			"type": "function"
		}
	]
}