{
	"data": {
		"bytecode": {
			"linkReferences": {},
			"object": "608060405234801561001057600080fd5b50610176806100206000396000f3fe608060405234801561001057600080fd5b506004361061002b5760003560e01c806391cae1cc14610030575b600080fd5b61003861004e565b60405161004591906100a3565b60405180910390f35b60008060005b600a82101561008c578180610068906100c8565b92505060058214156100795761008c565b8080610084906100c8565b915050610054565b809250505090565b61009d816100be565b82525050565b60006020820190506100b86000830184610094565b92915050565b6000819050919050565b60006100d3826100be565b91507fffffffffffffffffffffffffffffffffffffffffffffffffffffffffffffffff82141561010657610105610111565b5b600182019050919050565b7f4e487b7100000000000000000000000000000000000000000000000000000000600052601160045260246000fdfea26469706673582212203a0eecf13343a756eccf37fdf407640c90287cecb91e5ea78f0ce26db23e237e64736f6c63430008070033",
			"opcodes": "PUSH1 0x80 PUSH1 0x40 MSTORE CALLVALUE DUP1 ISZERO PUSH2 0x10 JUMPI PUSH1 0x0 DUP1 REVERT JUMPDEST POP PUSH2 0x176 DUP1 PUSH2 0x20 PUSH1 0x0 CODECOPY PUSH1 0x0 RETURN INVALID PUSH1 0x80 PUSH1 0x40 MSTORE CALLVALUE DUP1 ISZERO PUSH2 0x10 JUMPI PUSH1 0x0 DUP1 REVERT JUMPDEST POP PUSH1 0x4 CALLDATASIZE LT PUSH2 0x2B JUMPI PUSH1 0x0 CALLDATALOAD PUSH1 0xE0 SHR DUP1 PUSH4 0x91CAE1CC EQ PUSH2 0x30 JUMPI JUMPDEST PUSH1 0x0 DUP1 REVERT JUMPDEST PUSH2 0x38 PUSH2 0x4E JUMP JUMPDEST PUSH1 0x40 MLOAD PUSH2 0x45 SWAP2 SWAP1 PUSH2 0xA3 JUMP JUMPDEST PUSH1 0x40 MLOAD DUP1 SWAP2 SUB SWAP1 RETURN JUMPDEST PUSH1 0x0 DUP1 PUSH1 0x0 JUMPDEST PUSH1 0xA DUP3 LT ISZERO PUSH2 0x8C JUMPI DUP2 DUP1 PUSH2 0x68 SWAP1 PUSH2 0xC8 JUMP JUMPDEST SWAP3 POP POP PUSH1 0x5 DUP3 EQ ISZERO PUSH2 0x79 JUMPI PUSH2 0x8C JUMP JUMPDEST DUP1 DUP1 PUSH2 0x84 SWAP1 PUSH2 0xC8 JUMP JUMPDEST SWAP2 POP POP PUSH2 0x54 JUMP JUMPDEST DUP1 SWAP3 POP POP POP SWAP1 JUMP JUMPDEST PUSH2 0x9D DUP2 PUSH2 0xBE JUMP JUMPDEST DUP3 MSTORE POP POP JUMP JUMPDEST PUSH1 0x0 PUSH1 0x20 DUP3 ADD SWAP1 POP PUSH2 0xB8 PUSH1 0x0 DUP4 ADD DUP5 PUSH2 0x94 JUMP JUMPDEST SWAP3 SWAP2 POP POP JUMP JUMPDEST PUSH1 0x0 DUP2 SWAP1 POP SWAP2 SWAP1 POP JUMP JUMPDEST PUSH1 0x0 PUSH2 0xD3 DUP3 PUSH2 0xBE JUMP JUMPDEST SWAP2 POP PUSH32 0xFFFFFFFFFFFFFFFFFFFFFFFFFFFFFFFFFFFFFFFFFFFFFFFFFFFFFFFFFFFFFFFF DUP3 EQ ISZERO PUSH2 0x106 JUMPI PUSH2 0x105 PUSH2 0x111 JUMP JUMPDEST JUMPDEST PUSH1 0x1 DUP3 ADD SWAP1 POP SWAP2 SWAP1 POP JUMP JUMPDEST PUSH32 0x4E487B7100000000000000000000000000000000000000000000000000000000 PUSH1 0x0 MSTORE PUSH1 0x11 PUSH1 0x4 MSTORE PUSH1 0x24 PUSH1 0x0 REVERT INVALID LOG2 PUSH5 0x6970667358 0x22 SLT KECCAK256 GASPRICE 0xE 0xEC CALL CALLER NUMBER 0xA7 JUMP 0xEC 0xCF CALLDATACOPY REVERT DELEGATECALL SMOD PUSH5 0xC90287CEC 0xB9 0x1E 0x5E 0xA7 DUP16 0xC 0xE2 PUSH14 0xB23E237E64736F6C634300080700 CALLER "
		},
		"gasEstimates": {
			"creation": {
				"codeDepositCost": "74800",
				"executionCost": "123",
				"totalCost": "74923"
			},
			"external": {
				"repete()": "infinite"
			}
		},
		"methodIdentifiers": {
			"repete()": "91cae1cc"
		}
	},
	"abi": [
		{
			"inputs": [],
			"name": "repete",
			"outputs": [
				{
					"internalType": "uint256",
					"name": "",
					"type": "uint256"
				}
			],
			"stateMutability": "pure",
			"type": "function"
		}
	]
}